:100000000C9446000C9463000C9488020C946300DA
:100010000C9463000C9463000C9463000C94FE0039
:100020000C9463000C9463000C9463000C946300C4
:100030000C9463000C9463000C9463000C946300B4
:100040000C9463000C9463000C9463000C946300A4
:100050000C9463000C9463000C9463000C94630094
:100060000C9463000C9463000B02FE01F101E401A7
:10007000DD01CC01C701C401C101BE01BB01B30157
:10008000A601A3019C018F0182017F0111241FBEE3
:10009000CFEFD8E0DEBFCDBF11E0A0E0B1E0E8E8EF
:1000A000F3E102C005900D92A230B107D9F714E038
:1000B000A2E0B1E001C01D92A43DB107E1F70E94AA
:1000C000DD080C94C2090C9400002F922FB62F92D9
:1000D0003F924F925F926F927F928F929F92AF92D8
:1000E000BF92CF92DF92EF92FF920F931F932F93C5
:1000F0003F934F935F936F937F938F939F93AF93B0
:10010000BF93CF93DF93EF93FF93EDB7FEB721A19A
:1001100030A101A210A211248DB79EB72F933F9357
:1001200008953F912F919EBF8DBFFEB7EDB710A0F0
:1001300001A030A321A3FF91EF91DF91CF91BF9157
:10014000AF919F918F917F916F915F914F913F916F
:100150002F911F910F91FF90EF90DF90CF90BF9064
:10016000AF909F908F907F906F905F904F903F9057
:100170002F902FBE2F900895F894089578940895A5
:1001800080919E0190919F0108958091000181606E
:10019000809300010895F8940E94BB0487E991E0E0
:1001A00061E979E040E050E00E94950290939B0164
:1001B00080939A019093F5018093F40181E090E09F
:1001C0009093C7018093C601089562E772E00E9490
:1001D000950208958091F8019091F901019690930C
:1001E000F9018093F80180919A0190919B010E94FE
:1001F000220790939B0180939A0108950E946500C5
:1002000090939B0180939A018AEE90E090939901DC
:100210008093980180919C0190919D010E94910092
:1002200008950E94650090939D0180939C018091A8
:100230009A0190919B010E94910018958091000174
:1002400080FF0DC08E7F8093000180919A01909174
:100250009B010E94E70690939B0180939A010E9464
:1002600011018091000181FF09C00E946B010E9471
:100270005301809100018D7F80930001E0919801EE
:10028000F09199013097D1F209951092990110924D
:100290009801D4CF0E94B5081092C7011092C601F0
:1002A0000E941E01089580910201882399F08150D7
:1002B0008093020190E0880F991F88599F4FFC019D
:1002C000259134918091030190910401F9010995E0
:1002D000109202010895E0919A01F0919B0197819B
:1002E00080E0E085F0E0E82BF92B8081809302012B
:1002F00081819281909304018093030108950E946B
:10030000EC0408950F931F938C01FC01808191816F
:100310000E942605F80182831F910F9108950F9383
:100320001F938C01FC01808191810E944005F8019E
:1003300082831F910F910895FC01808191816281D8
:100340000E946B0508950E94AF0708950F931F93B5
:100350008C01FC01808191810E94CC07F80182838D
:100360001F910F910895FC016281738180819181B9
:100370000E94EE0708950E94FE0708950E94070854
:1003800008950E94210808950E9438080895FC01EC
:1003900080810E9459060895FC01838582FF02C076
:1003A000806801C08064838783858D7D8387CF01CA
:1003B0000E94A1030E94C500089580919E01909122
:1003C0009F010E94060608950F931F938C01FC0164
:1003D000808191810E941006F80182831F910F9104
:1003E00008950F931F938C01FC01808191810E94DD
:1003F0006C06F80182831F910F9108950F931F934C
:100400008C01FC01808191810E943306F801828376
:100410001F910F9108958F92AF92BF92CF92EF925A
:10042000FF920F931F93FC01628173814481558178
:100430002681378100851185E284F384A584B68402
:1004400080819181C48487840E9491061F910F91BD
:10045000FF90EF90CF90BF90AF908F9008950F9343
:100460001F93182F092FF8948091000182608093C8
:1004700000010E94B0087894812F902F1F910F9156
:10048000089580930501709307016093060185E04C
:1004900091E00E942F020000000000008091000106
:1004A00081FDFFCF0895BC018BE00E9441020895B9
:1004B000BC018AE00E9441020895DF93CF930F921E
:1004C000CDB7DEB7BC018FEE898389E00E9441027F
:1004D00087E0BE016F5F7F4F0E9441020F90CF9176
:1004E000DF9108950F931F938C01F8947894DC01A9
:1004F0009296ED91FC91939798968D919C919997F6
:10050000099586E0B8010E9441021F910F9108955C
:100510000E94650090939B0180939A0180919C01B9
:1005200090919D010E9491000895FC016083729357
:100530001292129282E0829380E8829383E0829307
:1005400084E0829385E0829386E0829387E08293C1
:1005500088E0829389E0829380E1829381E18293B3
:1005600082E1829383E1829384E1829385E18293A5
:1005700086E1829387E1829388E1829389E1829385
:1005800080E2829381E2829382E2829383E2829389
:100590004293529386E2829387E2829388E2829327
:1005A00089E2829380E3829381E382933197CF0142
:1005B00008958091C6019091C701009729F0019795
:1005C0009093C7018093C6018091C6019091C701A5
:1005D000892B11F40E94BE0008950E94BC008091F6
:1005E000C6019091C70101969093C7018093C601FF
:1005F00008950F931F93CF93DF93AC01EB0171E04C
:1006000060E0FA018089872309F444C02889872F94
:100610008223E62FF0E009F1EE0FFF1FDA01AE0FA3
:10062000BF1F0D90BC91A02DEC0FFD1F008111810B
:1006300012962D913C911397F90111830083F801D3
:1006400082819381FC01B183A083F80133832283EB
:1006500013969C938E9312970DC0EE0FFF1FDE0131
:10066000AE0FBF1FE40FF51F808191818D939C9386
:10067000272B288BE62FF0E0EE0FFF1FE40FF51F6E
:10068000A081B18114960D90BC91A02DCD93DC93E7
:1006900011821082770F673011F06F5FB2CFFA01CD
:1006A000108ADF91CF911F910F910895FF920F93C0
:1006B0001F93CF93DF93EC01EC81FD81F2800081E9
:1006C0001181838194818230910548F00197948350
:1006D00083830E946204FC019D838C83F282888163
:1006E0009981AF2DB0E08C179D07A9F4FD01EE0FA5
:1006F000FF1FE00FF11F1182108281E090E00F2CAC
:1007000002C0880F991F0A94E2F78095F8012089AA
:100710002823208B10C0AA0FBB1FA00FB11F8D91E3
:100720009C918C179D0721F4C8016F2D0E948B08A6
:10073000CE010E94A604DF91CF911F910F91FF90EF
:1007400008950F931F938C010E945603D8011496AD
:10075000ED91FC911597118210821F910F910895D0
:100760000F931F93CF93DF938C01EB01DC01149661
:10077000ED91FC911597228181E090E0022E02C05C
:10078000880F991F0A94E2F7982FE22FF0E028894A
:100790008223EE0FFF1F882341F0E60FF71F6081D1
:1007A0007181C8010E94940406C0E60FF71F1183EF
:1007B0000083292B288BD8011496ED91FC91159775
:1007C000D183C083DF91CF911F910F910895EF9254
:1007D000FF920F931F93CF93DF93EC01DB01EC802B
:1007E000FD80F701828121E030E0082E02C0220F57
:1007F000331F0A94E2F7E82FF0E050969C9150974F
:10080000822F8923EE0FFF1F8823D1F08D010E0F59
:100810001F1FD8016D917C91CE010E949404C701E5
:100820000E945604D801ED91FC910480F581E02DE1
:10083000FD83EC83838194810196948383830BC031
:10084000EA0FFB1FD183C083922B50969C93509745
:10085000F701B183A083DF91CF911F910F91FF909A
:10086000EF900895DF92EF92FF920F931F938C0108
:10087000D62E76E0E72EF12CE80EF91E0E948E04AB
:10088000C7016D2D0E944D04F801F582E4821F918D
:100890000F91FF90EF90DF900895FC01118210827C
:1008A000628381E090E0948383830895FC018091CA
:1008B000F6019091F70191838083F093F701E09323
:1008C000F6010895E091F601F091F70180819181A0
:1008D0009093F7018093F601CF010895A82F70E05F
:1008E000FFEFEFEF98E040E050E096952E2F30E0DC
:1008F000092E02C0359527950A94E2F78F2F8A2397
:10090000822311F0E22F03C0F22FF095790F4F5F91
:100910005F4F4430510549F7872F0895FC019383B9
:100920008283918380830895FC01DB0112968D916F
:100930009C91139793838283718360831396FC93B6
:10094000EE931297DC01ED93FC930895CF93DF9320
:10095000FC0182819381A081B18113969C938E9337
:100960001297EC01B983A883F383E283F183E083D8
:10097000DF91CF9108956F927F928F92AF92BF9245
:10098000CF92EF92FF920F931F93A8EC6A2EA1E0F3
:100990007A2EC30161E979E040E050E020E030E0E8
:1009A00000E010E0EE24FF24F7E0CF2EE1E0AE2ED1
:1009B000B12C88240E949106C3018A97B3010E943A
:1009C0008C071F910F91FF90EF90CF90BF90AF9049
:1009D0008F907F906F9008950F931F93CF93DF9325
:1009E0008C010E94C000EC01F80161890E943E0662
:1009F0008B8585FF0BC082FD09C0CE010E94A1033B
:100A0000CE010E94C8050E94C50003C0CE010E940D
:100A1000DE05F8018089882319F481E0828B11C0FA
:100A2000C8010E9498088C01FC018385877F838719
:100A3000C8010E94A103C8010E94C805C8010E9404
:100A40002506DF91CF911F910F910895FF920F938B
:100A50001F93CF93DF93EC01FA880E94C0008C01B2
:100A6000FF2039F01A8A69890E944D06C8010E9448
:100A7000DE058F2DDF91CF911F910F91FF9008958B
:100A8000FF920F931F93CF93DF938C01FC01F288A9
:100A90000E94C000EC01F80161890E944D06FF2010
:100AA00031F0F801128ACE010E94DE050DC08B855F
:100AB00088608D7F8B87CE010E94A103CE01B80193
:100AC0000E94B0030E94C5008F2DDF91CF911F912E
:100AD0000F91FF900895FF920F931F938C01F62EB4
:100AE0000E947B0881E0F801828BF18A1F910F91AF
:100AF000FF900895DC0150961C92509780E090E0A2
:100B0000FD01E80FF91F11821082029680319105D4
:100B1000B9F70895DC0170E0FB01EE0FFF1FEA0F4B
:100B2000FB1F8081918101969183808381E090E019
:100B300002C0880F991F6A95E2F750962C91509742
:100B4000282B50962C930895DC01E62FF0E081E0ED
:100B500090E0062E02C0880F991F0A94E2F7282F12
:100B6000EE0FFF1FEA0FFB1F808191810197918398
:100B70008083892B49F4922F909550968C915097B1
:100B8000892350968C93509750968C918223089588
:100B9000CF93DF93EC018D8D882349F00E946E0482
:100BA000EC81FD819C85981728F4892F03C0EC8186
:100BB000FD818C858283DF91CF9108951F93CF9320
:100BC000DF93EC018D8D882341F00E946E049C859B
:100BD000182F981718F4192F01C01C85EC81FD817E
:100BE0008281811779F0CE010E94A103EC81FD8101
:100BF00012836091A0017091A101CE010E94B00307
:100C00000E94C500DF91CF911F910895FC0183855B
:100C10008D7F8387CF010E94A1030E94C5000895A4
:100C2000FC012385422F50E0CA018C719070892B02
:100C300019F02062238702C021FD02C080E00895E0
:100C4000CF010E94060681E00895FC018385826041
:100C500083876091A0017091A101CF010E94B00330
:100C60000E94C5000895FC0183858A7D11F080E013
:100C70000895CF010E94250681E00895CF93DF9368
:100C8000EC010D960E94A4058D8D882319F48B85A7
:100C90008B7F8B87DF91CF910895FC01858D882311
:100CA00019F4838584608387CF010D960E948A059D
:100CB00008951F93182F0E94C000FC018385812393
:100CC000838785FF07C082FD05C08F7D8387CF01A5
:100CD0000E9406061F910895CF93DF93EC019B8538
:100CE000892F8E7B11F080E019C091709B87CE0117
:100CF0000D960E947A058E8D9F8D99A388A38AA553
:100D00009BA5009739F062E772E0AE010E94E50012
:100D10009DA78CA7CE010E94250681E0DF91CF918F
:100D200008952F923F924F925F926F927F928F928F
:100D3000AF92BF92CF92EF92FF920F931F93DF93E8
:100D4000CF9300D0CDB7DEB73C012B011A013A8317
:100D500029836C2D0E943204F3011386882011F040
:100D600081E08387C3010D960E947A05F301C48652
:100D7000B78EA68EB1A2A0A253A242A235A224A2EF
:100D800089819A8197A386A311A700A7F3A6E2A65B
:100D9000E114F10449F0C70162E772E0A3010E9487
:100DA000E500F30195A784A70F900F90CF91DF91F5
:100DB0001F910F91FF90EF90CF90BF90AF908F90C9
:100DC0007F906F905F904F903F902F900895CF93BA
:100DD000DF93E0919E01F0919F0195A784A724A144
:100DE00035A12115310521F080A591A5F9010995BD
:100DF000E091A001F091A1018089882361F48091A4
:100E0000A2019091A3019093A1018093A001F0937E
:100E1000A301E093A2018091A0019091A1010E9401
:100E20009808EC0190939F0180939E01EEA1FFA191
:100E3000309719F088A599A509958CA59DA5DF91F6
:100E4000CF910895CF93DF93C0919E01D0919F01E0
:100E50009DA78CA7ECA1FDA1309719F088A599A5B5
:100E60000995EC81FD81208131818091A0019091D3
:100E7000A1012817390731F5C90162810E948B0849
:100E800088A199A18230910520F0019799A388A3A8
:100E900019C0CE010E9456038B8580FD0CC08E8D3B
:100EA0009F8D99A388A36091A2017091A301CE01A7
:100EB0000E94B00307C0EC81FD81118210828B85F6
:100EC0008D7F8B87E091A001F091A101808988231B
:100ED00061F48091A2019091A3019093A10180936C
:100EE000A001F093A301E093A2018091A001909151
:100EF000A1010E949808EC0190939F0180939E01AC
:100F0000EEA1FFA1309719F088A599A509958CA5A8
:100F10009DA5DF91CF910895EF92FF920F931F93BC
:100F20008C017B010696F801938382830E947B08E3
:100F3000C8014796F801958384830E947B08F801D5
:100F400062817381C7010E94B003F801F182E082DF
:100F500011A610A61F910F91FF90EF9008950F9387
:100F60001F93FC018089882331F48189928901963D
:100F7000928B818B0EC0CF010E9498088C01FC01DE
:100F80008385877F8387C8010E94A103C8010E94CF
:100F900025061F910F9108950F931F93CF93DF9311
:100FA000EC0189899A89009729F001979A8B898B9E
:100FB00081E00FC00E94C0008C01FC018385886025
:100FC0008387C8010E940606C801BE010E94B003C3
:100FD00080E0DF91CF911F910F910895EF92FF92E2
:100FE0000F931F938C017B010E947B08F801F28A0A
:100FF000E18A1F910F91FF90EF9008956091A001F9
:101000007091A1010E94F9020E94C50008950F93FA
:101010001F93FC018089882389F0CF010E949808E2
:10102000182F092F0E9456036091A0017091A10111
:10103000812F902F0E94B0030E94C5001F910F9135
:101040000895EF92FF920F931F937C010E94C000BE
:101050008C010E940606F801838580618387C801A0
:10106000B7010E94E7031F910F91FF90EF90089541
:101070000E947B080895EF92FF920F931F937C01CB
:101080000E94ED020091F8011091F9010E191F095B
:101090000E94D902C8011F910F91FF90EF9008950F
:1010A0000F931F938C010E94ED028091F8019091A3
:1010B000F901F801918380830E94D9021F910F9159
:1010C00008950F931F93DF93CF9300D0CDB7DEB772
:1010D0008C01CE0101960E94500889819A810E945C
:1010E0003B0880179107C8F30F900F90CF91DF91C5
:1010F0001F910F910895DC0150961C92509780E04B
:1011000090E0FD01E80FF91F1182108202968031F4
:101110009105B9F70895E62FF0E0EE0FFF1FE80FF5
:10112000F91FA081B1818D919C9191838083089555
:10113000CF93DF93EC018889882319F4E0E0F0E095
:101140000BC00E946E04E82FF0E0EE0FFF1FEC0FC3
:10115000FD1F0190F081E02DCF01DF91CF91089527
:101160005A9A5B985A985B9A0895E0E7F0E080817C
:1011700082608083E99AE19A089585B190E1892798
:1011800085B9089585B198E0892785B9089585B115
:1011900094E0892785B9089585B192E0892785B9BA
:1011A000089585B120E2822785B98BB190E4892723
:1011B0008BB98BB182278BB908952F923F924F92B2
:1011C0005F926F927F928F92AF92BF92CF92EF9287
:1011D000FF920F931F93CF93DF930E94CB0082E087
:1011E0008093B00085E08093B1008CE78093B300DA
:1011F0001092B4001092700017BA88E080936900D2
:101200001DBA9FE394B980E285B997B918B88EEFFB
:101210008AB91BB85C9A5B9A5D9ABAEF6B2EB1E003
:101220007B2E2DEB38E0C3016CEA79E0A90100E0E8
:1012300010E0A1E3EA2EA3E0FA2ECC24C394F2E05E
:10124000AF2EB12C88240E949106E301AE9622ECC9
:1012500038E0CE0163EA79E0A901E1EBEE2EE3E0AC
:10126000FE2EB2E0CB2EA3E0AA2EB12C0E94910656
:10127000F6E52F2EF2E03F2E27EC38E0C10165EBBA
:1012800079E0A901E1E3EE2EE4E0FE2EB4E0AB2E1E
:10129000B12C0E949106A4E84A2EA2E05A2E2CEC12
:1012A00038E0C2016AE979E0A901F1EBEF2EF4E040
:1012B000FF2EE3E0CE2E0E94910681ED98E0909300
:1012C000EF018093EE019093ED018093EC01C30157
:1012D0000E943306CE010E943306C1010E943306EC
:1012E000C2010E94330602EB14E0C8010E943808D4
:1012F000C80141960E9438080E944A0180E090E0AF
:10130000DF91CF911F910F91FF90EF90CF90BF9001
:10131000AF908F907F906F905F904F903F902F9005
:10132000089584EF91E00E94610883EC94E00E94AC
:101330005802F7CF82EB94E00E945D0282E390E0D6
:101340000E946108F7CF83EC94E00E945D0282E383
:1013500090E00E946108F7CF82EB94E00E945D026A
:1013600082E390E00E946108F7CF83EC94E00E9452
:101370005D0282E390E00E94610882EB94E00E94AB
:081380005302F3CFF894FFCFF4
:02138800010062
:00000001FF
