:100000000C9446000C9463000C9490020C946300D2
:100010000C9463000C9463000C9463000C94FC003B
:100020000C9463000C9463000C9463000C946300C4
:100030000C9463000C9463000C9463000C946300B4
:100040000C9463000C9463000C9463000C946300A4
:100050000C9463000C9463000C9463000C94630094
:100060000C9463000C9463000502F801EB01DE01BF
:10007000D701C601C101BE01BB01B801B501AD0187
:10008000A0019D01960189017C01790111241FBE07
:10009000CFEFD8E0DEBFCDBF11E0A0E0B1E0EEEBE6
:1000A000F3E102C005900D92A230B107D9F714E038
:1000B000A2E0B1E001C01D92A63CB107E1F70E94A9
:1000C000EB080C94DD090C9400002F922FB62F92B0
:1000D0003F924F925F926F927F928F929F92AF92D8
:1000E000BF92CF92DF92EF92FF920F931F932F93C5
:1000F0003F934F935F936F937F938F939F93AF93B0
:10010000BF93CF93DF93EF93FF93EDB7FEB721A19A
:1001100030A101A210A211248DB79EB72F933F9357
:1001200008953F912F919EBF8DBFFEB7EDB710A0F0
:1001300001A030A321A3FF91EF91DF91CF91BF9157
:10014000AF919F918F917F916F915F914F913F916F
:100150002F911F910F91FF90EF90DF90CF90BF9064
:10016000AF909F908F907F906F905F904F903F9057
:100170002F902FBE2F900895F894089578940895A5
:1001800080919F019091A001089581E080930001EA
:100190000895F8940E94C90488E991E06AE979E039
:1001A00040E050E00E94A30290939C0180939B0149
:1001B0009093F6018093F50181E090E09093C8015F
:1001C0008093C70108956AE772E00E94A302089530
:1001D0008091F9019091FA0101969093FA01809330
:1001E000F90180919B0190919C010E9430079093AE
:1001F0009C0180939B0108950E94650090939C014F
:1002000080939B0188EE90E090939A0180939901EE
:1002100080919D0190919E010E94910008950E94FD
:10022000650090939E0180939D0180919B01909128
:100230009C010E949100189580910001882361F033
:100240001092000180919B0190919C010E94F50603
:1002500090939C0180939B010E940F018091050166
:1002600081FF07C00E945D01809105018D7F809311
:100270000501E0919901F0919A010995DDCF0E9465
:10028000C3081092C8011092C7010E941C01089572
:1002900080910201882381F090E0880F991F88598E
:1002A0009F4FFC01259134918091030190910401AD
:1002B000F9010995109202010895E0919B01F091D6
:1002C0009C01978180E0E085F0E0E82BF92B8081AC
:1002D00080930201818192819093040180930301B4
:1002E00008950E944801809105018E7F8093050149
:1002F00008950E94FA0408950F931F938C01FC0146
:10030000808191810E943405F80182831F910F91B1
:1003100008950F931F938C01FC01808191810E94AD
:100320004E05F80182831F910F910895FC01808191
:10033000918162810E94790508950E94BD07089508
:100340000F931F938C01FC01808191810E94DA0739
:10035000F80182831F910F910895FC0162817381DE
:10036000808191810E94FC0708950E940C080895E5
:100370000E94150808950E942F0808950E944608BB
:100380000895FC0180810E9467060895FC01838521
:1003900082FF02C0806801C08064838783858D7D71
:1003A0008387CF010E94AF030E94C500089580910A
:1003B0009F019091A0010E94140608950F931F932E
:1003C0008C01FC01808191810E941E06F8018283CC
:1003D0001F910F9108950F931F938C01FC01808151
:1003E00091810E947A06F80182831F910F910895EE
:1003F0000F931F938C01FC01808191810E94410623
:10040000F80182831F910F9108958F92AF92BF924E
:10041000CF92EF92FF920F931F93FC016281738141
:10042000448155812681378100851185E284F384DA
:10043000A584B68480819181C48487840E949F06AC
:100440001F910F91FF90EF90CF90BF90AF908F9042
:1004500008950F931F93182F092FF89483E080932A
:1004600005010E94BE087894812F902F1F910F9153
:10047000089580931601709318016093170186E127
:1004800091E00E9429020000000000008091050117
:1004900080FDFFCF0895BC0181E10E9439020895DB
:1004A000DF93CF9300D00F92CDB7DEB79A838983C5
:1004B00080E1BE016F5F7F4F0E9439028B810F90F8
:1004C0000F900F90CF91DF910895DF93CF9300D0DD
:1004D0000F92CDB7DEB79A8389838FE0BE016F5F3D
:1004E0007F4F0E9439028B810F900F900F90CF9118
:1004F000DF9108950F931F938C01F8947894DC0199
:100500009296ED91FC91939798968D919C919997E5
:10051000099585E0B8010E9439021F910F91089555
:100520000E94650090939C0180939B0181E791E07C
:1005300090939A018093990180919D0190919E01E1
:100540000E9491000895FC016083729312921292AE
:1005500082E0829380E8829383E0829384E08293B6
:1005600085E0829386E0829387E0829388E082939D
:1005700089E0829380E1829381E1829382E1829398
:1005800083E1829384E1829385E1829386E1829381
:1005900087E1829388E1829389E1829380E282936A
:1005A00081E2829382E2829383E282934293529326
:1005B00086E2829387E2829388E2829389E2829341
:1005C00080E3829381E382933197CF0108958091F4
:1005D000C7019091C801009729F001979093C80135
:1005E0008093C7018091C7019091C801892B11F4B4
:1005F0000E94BE0008950E94BC008091C7019091A6
:10060000C80101969093C8018093C70108950F9384
:100610001F93CF93DF93AC01EB0171E060E0FA012F
:100620008089872309F444C02889872F8223E62FF5
:10063000F0E009F1EE0FFF1FDA01AE0FBF1F0D90C2
:10064000BC91A02DEC0FFD1F0081118112962D9100
:100650003C911397F90111830083F8018281938102
:10066000FC01B183A083F8013383228313969C930A
:100670008E9312970DC0EE0FFF1FDE01AE0FBF1F4E
:10068000E40FF51F808191818D939C93272B288BFC
:10069000E62FF0E0EE0FFF1FE40FF51FA081B18100
:1006A00014960D90BC91A02DCD93DC9311821082F5
:1006B000770F673011F06F5FB2CFFA01108ADF91C8
:1006C000CF911F910F910895FF920F931F93CF9396
:1006D000DF93EC01EC81FD81F28000811181838147
:1006E00094818230910548F00197948383830E941E
:1006F0007004FC019D838C83F28288819981AF2DE7
:10070000B0E08C179D07A9F4FD01EE0FFF1FE00F6D
:10071000F11F1182108281E090E00F2C02C0880F3F
:10072000991F0A94E2F78095F80120892823208BED
:1007300010C0AA0FBB1FA00FB11F8D919C918C17E9
:100740009D0721F4C8016F2D0E949908CE010E94D7
:10075000B404DF91CF911F910F91FF9008950F93F3
:100760001F938C010E946403D8011496ED91FC91B3
:100770001597118210821F910F9108950F931F9367
:10078000CF93DF938C01EB01DC011496ED91FC918A
:100790001597228181E090E0022E02C0880F991FF8
:1007A0000A94E2F7982FE22FF0E028898223EE0FD7
:1007B000FF1F882341F0E60FF71F60817181C80198
:1007C0000E94A20406C0E60FF71F11830083292BA5
:1007D000288BD8011496ED91FC911597D183C08395
:1007E000DF91CF911F910F910895EF92FF920F9398
:1007F0001F93CF93DF93EC01DB01EC80FD80F701C9
:10080000828121E030E0082E02C0220F331F0A94BB
:10081000E2F7E82FF0E050969C915097822F8923C1
:10082000EE0FFF1F8823D1F08D010E0F1F1FD8017F
:100830006D917C91CE010E94A204C7010E946404C4
:10084000D801ED91FC910480F581E02DFD83EC83CE
:10085000838194810196948383830BC0EA0FFB1FED
:10086000D183C083922B50969C935097F701B1830C
:10087000A083DF91CF911F910F91FF90EF9008958A
:10088000DF92EF92FF920F931F938C01D62E76E0AA
:10089000E72EF12CE80EF91E0E949C04C7016D2D75
:1008A0000E945B04F801F582E4821F910F91FF9092
:1008B000EF90DF900895FC0111821082628381E045
:1008C00090E0948383830895FC018091F7019091D7
:1008D000F80191838083F093F801E093F701089584
:1008E000E091F701F091F801808191819093F801F6
:1008F0008093F701CF010895A82F70E0FFEFEFEF8D
:1009000098E040E050E096952E2F30E0092E02C08E
:10091000359527950A94E2F78F2F8A23822311F0C9
:10092000E22F03C0F22FF095790F4F5F5F4F4430F5
:10093000510549F7872F0895FC01938382839183A2
:1009400080830895FC01DB0112968D919C91139791
:1009500093838283718360831396FC93EE93129743
:10096000DC01ED93FC930895CF93DF93FC0182812A
:100970009381A081B18113969C938E931297EC0181
:10098000B983A883F383E283F183E083DF91CF917E
:1009900008956F927F928F92AF92BF92CF92EF9213
:1009A000FF920F931F93A9EC6A2EA1E07A2EC30148
:1009B0006AE979E040E050E020E030E000E010E05B
:1009C000EE24FF24F7E0CF2EE1E0AE2EB12C8824F8
:1009D0000E949F06C3018A97B3010E949A071F9144
:1009E0000F91FF90EF90CF90BF90AF908F907F903E
:1009F0006F9008950F931F93CF93DF938C010E9404
:100A0000C000EC01F80161890E944C068B8585FFCE
:100A10000BC082FD09C0CE010E94AF03CE010E942F
:100A2000D6050E94C50003C0CE010E94EC05F80166
:100A30008089882319F481E0828B11C0C8010E944B
:100A4000A6088C01FC018385877F8387C8010E94EB
:100A5000AF03C8010E94D605C8010E943306DF918A
:100A6000CF911F910F910895FF920F931F93CF93F2
:100A7000DF93EC01FA880E94C0008C01FF2039F05E
:100A80001A8A69890E945B06C8010E94EC058F2DB5
:100A9000DF91CF911F910F91FF900895FF920F93D7
:100AA0001F93CF93DF938C01FC01F2880E94C0005A
:100AB000EC01F80161890E945B06FF2031F0F8012A
:100AC000128ACE010E94EC050DC08B8588608D7F57
:100AD0008B87CE010E94AF03CE01B8010E94BE03F6
:100AE0000E94C5008F2DDF91CF911F910F91FF9034
:100AF0000895FF920F931F938C01F62E0E94890890
:100B000081E0F801828BF18A1F910F91FF90089587
:100B1000DC0150961C92509780E090E0FD01E80FB8
:100B2000F91F11821082029680319105B9F708955C
:100B3000DC0170E0FB01EE0FFF1FEA0FFB1F80815D
:100B4000918101969183808381E090E002C0880FBB
:100B5000991F6A95E2F750962C915097282B509642
:100B60002C930895DC01E62FF0E081E090E0062E62
:100B700002C0880F991F0A94E2F7282FEE0FFF1F7B
:100B8000EA0FFB1F80819181019791838083892BDC
:100B900049F4922F909550968C91509789235096B6
:100BA0008C93509750968C9182230895CF93DF9326
:100BB000EC018D8D882349F00E947C04EC81FD813D
:100BC0009C85981728F4892F03C0EC81FD818C85C2
:100BD0008283DF91CF9108951F93CF93DF93EC0130
:100BE0008D8D882341F00E947C049C85182F9817D6
:100BF00018F4192F01C01C85EC81FD8182818117B9
:100C000079F0CE010E94AF03EC81FD8112836091E7
:100C1000A1017091A201CE010E94BE030E94C500F5
:100C2000DF91CF911F910895FC0183858D7F83878C
:100C3000CF010E94AF030E94C5000895FC012385E7
:100C4000422F50E0CA018C719070892B19F02062FC
:100C5000238702C021FD02C080E00895CF010E94D9
:100C6000140681E00895FC0183858260838760918A
:100C7000A1017091A201CF010E94BE030E94C50094
:100C80000895FC0183858A7D11F080E00895CF01ED
:100C90000E94330681E00895CF93DF93EC010D9617
:100CA0000E94B2058D8D882319F48B858B7F8B87ED
:100CB000DF91CF910895FC01858D882319F48385F8
:100CC00084608387CF010D960E94980508951F9335
:100CD000182F0E94C000FC0183858123838785FF34
:100CE00007C082FD05C08F7D8387CF010E94140657
:100CF0001F910895CF93DF93EC019B85892F8E7B05
:100D000011F080E019C091709B87CE010D960E9472
:100D100088058E8D9F8D99A388A38AA59BA5009792
:100D200039F06AE772E0AE010E94E3009DA78CA74C
:100D3000CE010E94330681E0DF91CF9108952F927A
:100D40003F924F925F926F927F928F92AF92BF923B
:100D5000CF92EF92FF920F931F93DF93CF9300D028
:100D6000CDB7DEB73C012B011A013A8329836C2DE4
:100D70000E944004F3011386882011F081E08387EC
:100D8000C3010D960E948805F301C486B78EA68E16
:100D9000B1A2A0A253A242A235A224A289819A8123
:100DA00097A386A311A700A7F3A6E2A6E114F10476
:100DB00049F0C7016AE772E0A3010E94E300F30172
:100DC00095A784A70F900F90CF91DF911F910F915E
:100DD000FF90EF90CF90BF90AF908F907F906F90EB
:100DE0005F904F903F902F900895CF93DF93E091C5
:100DF0009F01F091A00195A784A724A135A12115F9
:100E0000310521F080A591A5F9010995E091A10195
:100E1000F091A2018089882361F48091A3019091CF
:100E2000A4019093A2018093A101F093A401E09307
:100E3000A3018091A1019091A2010E94A608EC015A
:100E40009093A00180939F01EEA1FFA1309719F02C
:100E500088A599A509958CA59DA5DF91CF910895A9
:100E6000CF93DF93C0919F01D091A0019DA78CA744
:100E7000ECA1FDA1309719F088A599A50995EC8101
:100E8000FD81208131818091A1019091A2012817DB
:100E9000390731F5C90162810E94990888A199A199
:100EA0008230910520F0019799A388A319C0CE0143
:100EB0000E9464038B8580FD0CC08E8D9F8D99A34D
:100EC00088A36091A3017091A401CE010E94BE038A
:100ED00007C0EC81FD81118210828B858D7F8B870D
:100EE000E091A101F091A2018089882361F48091B1
:100EF000A3019091A4019093A2018093A101F0938A
:100F0000A401E093A3018091A1019091A2010E940C
:100F1000A608EC019093A00180939F01EEA1FFA190
:100F2000309719F088A599A509958CA59DA5DF9105
:100F3000CF910895EF92FF920F931F938C017B0145
:100F40000696F801938382830E948908C801479618
:100F5000F801958384830E948908F8016281738176
:100F6000C7010E94BE03F801F182E08211A610A61B
:100F70001F910F91FF90EF9008950F931F93FC0125
:100F80008089882331F4818992890196928B818BA3
:100F90000EC0CF010E94A6088C01FC018385877FCB
:100FA0008387C8010E94AF03C8010E9433061F91C6
:100FB0000F9108950F931F93CF93DF93EC018989CD
:100FC0009A89009729F001979A8B898B81E00FC04D
:100FD0000E94C0008C01FC01838588608387C80162
:100FE0000E941406C801BE010E94BE0380E0DF918A
:100FF000CF911F910F910895EF92FF920F931F933E
:101000008C017B010E948908F801F28AE18A1F9114
:101010000F91FF90EF9008956091A1017091A2014E
:101020000E9407030E94C50008950F931F93FC01BF
:101030008089882389F0CF010E94A608182F092FE4
:101040000E9464036091A1017091A201812F902FF1
:101050000E94BE030E94C5001F910F910895EF9258
:10106000FF920F931F937C010E94C0008C010E948D
:101070001406F801838580618387C801B7010E9447
:10108000F5031F910F91FF90EF9008950E9489083A
:101090000895EF92FF920F931F937C010E94FB0231
:1010A0000091F9011091FA010E191F090E94E7023F
:1010B000C8011F910F91FF90EF9008950F931F9318
:1010C0008C010E94FB028091F9019091FA01F801D4
:1010D000918380830E94E7021F910F9108950F93DF
:1010E0001F93DF93CF9300D0CDB7DEB78C01CE0135
:1010F00001960E945E0889819A810E9449088017A2
:101100009107C8F30F900F90CF91DF911F910F912E
:101110000895DC0150961C92509780E090E0FD010C
:10112000E80FF91F11821082029680319105B9F7FC
:101130000895E62FF0E0EE0FFF1FE80FF91FA081E2
:10114000B1818D919C91918380830895CF93DF939A
:10115000EC018889882319F4E0E0F0E00BC00E94DC
:101160007C04E82FF0E0EE0FFF1FEC0FFD1F019055
:10117000F081E02DCF01DF91CF9108955A9A5B98CD
:101180005A985B9A0895E0E7F0E08081826080835E
:10119000E99AE19A089585B190E1892785B9089582
:1011A00085B198E0892785B9089585B194E08927AC
:1011B00085B9089585B192E0892785B9089585B1EB
:1011C00020E2822785B98BB190E489278BB98BB156
:1011D00082278BB908952F923F924F925F926F9220
:1011E0007F928F92AF92BF92CF92EF92FF920F9326
:1011F0001F93CF93DF930E94C90082E08093B000D9
:1012000085E08093B1008CE78093B3001092B40026
:101210001092700017BA88E0809369001DBA8FE3BE
:1012200084B915B887B918B88EEF8AB91BB85C9A1B
:101230005B9A5D9ABBEF6B2EB1E07B2E2BEC38E016
:10124000C30169EB79E0A90100E010E0A2E3EA2E16
:10125000A3E0FA2ECC24C394F2E0AF2EB12C882464
:101260000E949F06E301AE9620ED38E0CE016AECC5
:1012700079E0A901E2EBEE2EE3E0FE2EB2E0CB2E08
:10128000A3E0AA2EB12C0E949F06F7E52F2EF2E0D4
:101290003F2E25ED38E0C1016FE979E0A901E2E3D5
:1012A000EE2EE4E0FE2EB4E0AB2EB12C0E949F06A1
:1012B000A5E84A2EA2E05A2E2AED38E0C20166EADD
:1012C00079E0A901F2EBEF2EF4E0FF2EE3E0CE2E61
:1012D0000E949F068FED98E09093F0018093EF01BC
:1012E0009093EE018093ED01C3010E944106CE016F
:1012F0000E944106C1010E944106C2010E944106AE
:1013000083EB94E061E00E9479050E943F0180E058
:1013100090E0DF91CF911F910F91FF90EF90CF90D0
:10132000BF90AF908F907F906F905F904F903F9065
:101330002F90089584EF91E00E946F08FBCF80ED1D
:1013400097E00E946F0884EF91E0FBCF80ED97E07B
:101350000E946F0883EB94E00E94650283EF91E0A6
:101360000E946F0883EB94E00E944B0285EF91E0AE
:10137000EFCF80ED97E00E946F0883EB94E00E942E
:10138000650284EF91E00E946F0883EB94E00E9475
:101390004B02F3CF80ED97E00E946F0883EB94E05F
:1013A0000E9450028823D1F384EF91E00E946F08DD
:0E13B00083EB94E00E944B02F1CFF894FFCF44
:0213BE0001002C
:00000001FF
