:100000000C9446000C9465000C9465000C946500FB
:100010000C9465000C9465000C9465000C946500CC
:100020000C9465000C9465000C9465000C946500BC
:100030000C9448030C9465000C9465000C946500C6
:100040000C9465000C9465000C9465000C9465009C
:100050000C9465000C9465000C9465000C9465008C
:100060000C9465000C9465000C9465000C9465007C
:100070000C9465000C9465000C9465000C9465006C
:100080000C9465000C9465000C94650011241FBE4F
:10009000CFEFD0E1DEBFCDBF11E0A0E0B1E0EAE2FA
:1000A000FFE100E00BBF02C007900D92A030B10746
:1000B000D9F718E0A0E0B1E001C01D92AC31B10762
:1000C000E1F70E944A0E0C94930F0C940000DF930A
:1000D000CF9300D000D000D0CDB7DEB79E838D8304
:1000E000ED81FE81828193819C838B83EB81FC81F6
:1000F00081E180838B819C8101979C838B83EB8141
:10010000FC8182E280838B819C8101979C838B831D
:10011000EB81FC8183E380838B819C8101979C83AD
:100120008B8389E697E09A8389838981EB81FC81BF
:1001300080838B819C8101979C838B8389819A81A9
:10014000892F99279A8389838981EB81FC81808318
:100150008B819C8101979C838B83EB81FC81108236
:100160008B819C8101979C838B83EB81FC8180E850
:1001700080838B819C8101979C838B83EB81FC81A5
:1001800010828B819C8101979C838B83EB81FC8106
:1001900082E080838B819C8101979C838B83EB81A0
:1001A000FC8183E080838B819C8101979C838B837E
:1001B000EB81FC8184E080838B819C8101979C830F
:1001C0008B83EB81FC8185E080838B819C8101970F
:1001D0009C838B83EB81FC8186E080838B819C8177
:1001E00001979C838B83EB81FC8187E080838B81EB
:1001F0009C8101979C838B83EB81FC8188E08083C9
:100200008B819C8101979C838B83EB81FC8189E0AE
:1002100080838B819C8101979C838B83EB81FC8104
:1002200080E180838B819C8101979C838B83EB8110
:10023000FC8181E180838B819C8101979C838B83EE
:10024000EB81FC8182E180838B819C8101979C837F
:100250008B83EB81FC8183E180838B819C8101977F
:100260009C838B83EB81FC8184E180838B819C81E7
:1002700001979C838B83EB81FC8185E180838B815B
:100280009C8101979C838B83EB81FC8186E1808339
:100290008B819C8101979C838B83EB81FC8187E11F
:1002A00080838B819C8101979C838B83EB81FC8174
:1002B00088E180838B819C8101979C838B83EB8178
:1002C000FC8189E180838B819C8101979C838B8356
:1002D000EB81FC8180E280838B819C8101979C83F0
:1002E0008B83EB81FC8181E280838B819C810197F0
:1002F0009C838B83EB81FC8182E280838B819C8158
:1003000001979C838B83EB81FC8183E280838B81CB
:100310009C8101979C838B838D819E819A838983A5
:100320008981EB81FC8180838B819C8101979C83F7
:100330008B8389819A81892F99279A8389838981DF
:10034000EB81FC8180838B819C8101979C838B83D3
:10035000EB81FC8186E280838B819C8101979C8369
:100360008B83EB81FC8187E280838B819C81019769
:100370009C838B83EB81FC8188E280838B819C81D1
:1003800001979C838B83EB81FC8189E280838B8145
:100390009C8101979C838B83EB81FC8180E380832C
:1003A0008B819C8101979C838B83EB81FC8181E312
:1003B00080838B819C8101979C838B83EB81FC8163
:1003C0008FEF80838B819C8101979C838B83ED8150
:1003D000FE818B819C819183808326960FB6F89451
:1003E000DEBF0FBECDBFCF91DF910895DF93CF93D6
:1003F00000D00F92CDB7DEB79B838A831982EA8142
:10040000FB818081882349F081E08983EA81FB8137
:1004100080818150EA81FB81808389810F900F90D8
:100420000F90CF91DF910895DF93CF9300D0CDB798
:10043000DEB79A838983E981FA8180818F5FE981C0
:10044000FA8180830F900F90CF91DF910895DF9311
:10045000CF9300D0CDB7DEB79A838983E09118019E
:10046000F091190189819A819183808380910201A1
:100470009091030101969093030180930201809172
:10048000550190915601009721F488E191E00E9476
:100490001409E0911801F0911901808191810F9068
:1004A0000F90CF91DF910895DF93CF9300D0CDB718
:1004B000DEB79A838983E0911801F091190189814F
:1004C0009A81918380838091530190915401009788
:1004D00021F488E191E00E94F609E0911801F09181
:1004E0001901808191810F900F90CF91DF91089534
:1004F000DF93CF93CDB7DEB7F89488E191E024E0A5
:1005000031E0B9010E94230A81E090E09093540108
:1005100080935301CF91DF910895DF93CF93CDB7AF
:10052000DEB70E9498020E94B702CF91DF91089532
:10053000DF93CF93CDB7DEB7A7E5B0E0E7E5F0E016
:10054000808180618C93CF91DF910895DF93CF9369
:10055000CDB7DEB7F8948091530190915401019684
:100560009093540180935301CF91DF910895DF93CD
:10057000CF93CDB7DEB7809153019091540100978E
:1005800049F0809153019091540101979093540147
:10059000809353018091530190915401009709F485
:1005A0007894CF91DF910895DF93CF93CDB7DEB7E5
:1005B0000E94ED0280915501909156010196909311
:1005C00056018093550180915301909154010097F9
:1005D00009F47894CF91DF910895DF93CF93CDB74D
:1005E000DEB7A7E5B0E0E7E5F0E080818F7E8C9391
:1005F000CF91DF910895DF93CF93CDB7DEB7F89415
:1006000080915501909156010197909356018093E6
:1006100055010E949802CF91DF910895DF93CF9307
:10062000CDB7DEB70E94A60280910201909103012E
:1006300090930101809300010E94B702CF91DF9156
:100640000895DF93CF9300D000D0CDB7DEB79C8361
:100650008B830E940E0380910001909101019A8387
:10066000898302C00E940E03209100013091010194
:1006700089819A81281B390B8B819C812817390726
:1006800088F30F900F900F900F90CF91DF91089506
:100690000F920FB6F8940F921F9211242F923F924F
:1006A0004F925F926F927F928F929F92AF92BF9282
:1006B000CF92DF92EF92FF920F931F932F933F936E
:1006C0004F935F936F937F938F939F93AF93BF935A
:1006D000CF93DF93EF93FF93FBB7FF938DB79EB755
:1006E0000E9427029EBF8DBFFF91FBBFFF91EF913C
:1006F000DF91CF91BF91AF919F918F917F916F913A
:100700005F914F913F912F911F910F91FF90EF902B
:10071000DF90CF90BF90AF909F908F907F906F9021
:100720005F904F903F902F901F900F900FBE0F90B3
:1007300018950F920FB6F8940F921F9211242F92D2
:100740003F924F925F926F927F928F929F92AF9261
:10075000BF92CF92DF92EF92FF920F931F932F934E
:100760003F934F935F936F937F938F939F93AF9339
:10077000BF93CF93DF93EF93FF93FBB7FF938DB7B7
:100780009EB70E9454029EBF8DBFFF91FBBFFF9199
:10079000EF91DF91CF91BF91AF919F918F917F9119
:1007A0006F915F914F913F912F911F910F91FF900A
:1007B000EF90DF90CF90BF90AF909F908F907F9001
:1007C0006F905F904F903F902F901F900F900FBEB3
:1007D0000F900895DF93CF93CDB7DEB729970FB66B
:1007E000F894DEBF0FBECDBF9D838C838C819D812D
:1007F0009B838A83EA81FB81208931893F832E8311
:10080000EA81FB8186818983EA81FB8126853785A0
:100810008A819B812817390711F58981882F90E0FB
:10082000880F991F4E815F81840F951FFC013196BF
:1008300011821082EE81FF818081482F8981282FCB
:1008400030E081E090E0022E02C0880F991F0A94E8
:10085000E2F780958423EE81FF81808343C02E815F
:100860003F812F5F3F4F8981882F90E0880F991F2C
:10087000A901480F591F59874887E885F9852081C4
:1008800031818A819B812817390741F4EA81FB81F4
:1008900086859785E885F98591838083EA81FB8148
:1008A000A485B585EA81FB81868597851F969C93F3
:1008B0008E931E97EA81FB81A685B785EA81FB812D
:1008C000848595851D969C938E931C97EA81FB8168
:1008D0008A819B8197878687EA81FB818A819B81B8
:1008E00095878487EC81FD81118A108A29960FB63D
:1008F000F894DEBF0FBECDBFCF91DF910895DF9397
:10090000CF93CDB7DEB729970FB6F894DEBF0FBEF1
:10091000CDBF9D838C838C819D819B838A83EA815B
:10092000FB81208931893F832E83EA81FB81868187
:100930008983EA81FB81268537858A819B812817F7
:10094000390711F58981882F90E0880F991F4E8112
:100950005F81840F951FFC01319611821082EE8118
:10096000FF818081482F8981282F30E081E090E04D
:10097000022E02C0880F991F0A94E2F78095842303
:10098000EE81FF81808343C02E813F812F5F3F4FE7
:100990008981882F90E0880F991FA901480F591F5E
:1009A00059874887E885F985208131818A819B8133
:1009B0002817390741F4EA81FB8186859785E88508
:1009C000F98591838083EA81FB81A485B585EA81DD
:1009D000FB81868597851F969C938E931E97EA814F
:1009E000FB81A685B785EA81FB81848595851D9667
:1009F0009C938E931C97EA81FB818A819B819787C8
:100A00008687EA81FB818A819B81958784872996E5
:100A10000FB6F894DEBF0FBECDBFCF91DF91089522
:100A2000DF93CF93CDB7DEB72A970FB6F894DEBF2A
:100A30000FBECDBF98878F837A8769878F8198850E
:100A40009C838B8389859A859E838D83EB81FC8132
:100A5000868189838981282F30E081E090E0022E11
:100A600002C0880F991F0A94E2F78A83ED81FE8104
:100A700090818A818923882349F18981882F90E098
:100A80002D813E81880F991F820F931FFC013196A3
:100A9000A081B181EB81FC81B787A6871C968D91DF
:100AA0009C911D97EB81FC81958784878B819C812C
:100AB0001D969C938E931C97EB81FC810484F58595
:100AC000E02D8B819C819787868717C0ED81FE8101
:100AD00090818A81892BED81FE8180838981882F95
:100AE00090E02D813E81880F991F820F931FFC019A
:100AF00031968B819C8191838083EB81FC818D81F8
:100B00009E81918B808B2A960FB6F894DEBF0FBE24
:100B1000CDBFCF91DF910895DF93CF93CDB7DEB7EF
:100B200061970FB6F894DEBF0FBECDBF9B878A8753
:100B30007D876C878A859B8599878887E885F98575
:100B4000208931893F872E87E885F98586818F83C3
:100B5000E885F98526853785888599852817390799
:100B600011F58F81882F90E0880F991F4E855F8542
:100B7000840F951FFC01319611821082EE85FF854E
:100B80008081482F8F81282F30E081E090E0022E75
:100B900002C0880F991F0A94E2F780958423EE859E
:100BA000FF85808343C02E853F852F5F3F4F8F8118
:100BB000882F90E0880F991FA901480F591F598B62
:100BC000488BE889F98920813181888599852817A2
:100BD000390741F4E885F98586859785E889F9899B
:100BE00091838083E885F985A485B585E885F985B5
:100BF000868597851F969C938E931E97E885F98529
:100C0000A685B785E885F985848595851D969C938D
:100C10008E931C97E885F9858885998597878687BF
:100C2000E885F98588859985958784878A859B8558
:100C30009C838B838C859D859E838D83EB81FC813A
:100C4000868189838981282F30E081E090E0022E1F
:100C500002C0880F991F0A94E2F78A83ED81FE8112
:100C600090818A818923882349F18981882F90E0A6
:100C70002D813E81880F991F820F931FFC013196B1
:100C8000A081B181EB81FC81B787A6871C968D91ED
:100C90009C911D97EB81FC81958784878B819C813A
:100CA0001D969C938E931C97EB81FC810484F585A3
:100CB000E02D8B819C819787868717C0ED81FE810F
:100CC00090818A81892BED81FE8180838981882FA3
:100CD00090E02D813E81880F991F820F931FFC01A8
:100CE00031968B819C8191838083EB81FC818D8106
:100CF0009E81918B808B61960FB6F894DEBF0FBEFC
:100D0000CDBFCF91DF910895DF93CF9300D00F92A5
:100D1000CDB7DEB79A8389836B838B81682F70E0B0
:100D20008B81882F90E029813A81880F991F820F4B
:100D3000931FFC0131960190F081E02D4685578587
:100D400029813A81CB01880F991F820F931FFC01E3
:100D50003196518340830F900F900F90CF91DF9188
:100D60000895DF93CF93CDB7DEB72A970FB6F894E7
:100D7000DEBF0FBECDBF98878F83EF81F88580815E
:100D80008E838FEF8D838FEF8C8388E08A83198227
:100D900022C08A8186958A838C81282F30E08A81BF
:100DA000882F90E0A90102C0559547958A95E2F7F2
:100DB000CA018B839E818D8198238B81892388230F
:100DC00019F08B818C8307C08B8180958D839981ED
:100DD0008A81890F89838A818823D9F68E81882325
:100DE00081F08981882F90E02F813885880F991FA5
:100DF000820F931FFC013196808191819A878987A8
:100E000002C01A86198689859A852A960FB6F894A3
:100E1000DEBF0FBECDBFCF91DF910895EF92FF925D
:100E20000F93DF93CF93CDB7DEB72A970FB6F89421
:100E3000DEBF0FBECDBF9A8389837C836B835E83C5
:100E40004D832F830887FA86E986E981FA818B81B1
:100E50009C8193838283E981FA818D819E81958330
:100E60008483E981FA818F818683E981FA8188858B
:100E70008783E981FA8189859A8591878087E981CD
:100E8000FA8189859A8593878287E981FA818981A8
:100E90009A8195878487E981FA8189819A819787E8
:100EA0008687E981FA81118A108AE981FA81138A99
:100EB000128A89819A810E9467002A960FB6F89457
:100EC000DEBF0FBECDBFCF91DF910F91FF90EF90AE
:100ED0000895DF93CF9300D0CDB7DEB79A8389838F
:100EE000E981FA810480F581E02D09950E94A6022E
:100EF00089819A810E9476080E94B7020E94990314
:100F00000F900F90CF91DF910895DF93CF93CDB7DE
:100F1000DEB728970FB6F894DEBF0FBECDBF9B8318
:100F20008A8388E191E09F838E8381E08983EA81CF
:100F3000FB8187818260EA81FB818783EA81FB8173
:100F400087818B7FEA81FB818783EA81FB818E81A8
:100F50009F81938B828BEA81FB818781882F90E030
:100F600081709070882371F0EA81FB818085918582
:100F7000009731F0EE81FF813496FD83EC8320C031
:100F8000188626C0EA81FB8180859185009741F013
:100F9000EE81FF8107A8F0ADE02DFD83EC8310C04A
:100FA000EA81FB8182859385EA81FB819187808735
:100FB000EE81FF8101ACF2ADE02DFD83EC8319825F
:100FC0008A819B816C817D810E941005F981F8875F
:100FD000888528960FB6F894DEBF0FBECDBFCF919F
:100FE000DF910895DF93CF9300D00F92CDB7DEB796
:100FF0009B838A830E94A602EA81FB818089918972
:10100000009719F00E94B7020CC08A819B810E9450
:10101000850789830E94B7028981882311F00E9485
:1010200099030F900F900F90CF91DF910895DF9368
:10103000CF9300D0CDB7DEB79A8389830E94A602F2
:10104000E981FA8180899189009721F489819A81C7
:101050000E9485070E94B7020F900F90CF91DF91F9
:101060000895DF93CF9300D00F92CDB7DEB79B8367
:101070008A830E94A602EA81FB8180899189009778
:1010800019F00E94B7022CC08A819B810E946700E0
:10109000EA81FB8182859385EA81FB819187808744
:1010A000EA81FB818A819B8195878487EA81FB8124
:1010B0008A819B8197878687EA81FB81118A108AC2
:1010C000EA81FB81138A128A8A819B810E948507AB
:1010D00089830E94B7028981882311F00E949903B5
:1010E0000F900F900F90CF91DF910895DF93CF93E2
:1010F00000D0CDB7DEB79A83898389819A810E9417
:10110000EA03E981FA8187818D7FE981FA8187830A
:101110000F900F90CF91DF910895DF93CF9300D080
:10112000CDB7DEB79A8389830E94A602E981FA814E
:1011300080899189009749F089819A810E94760877
:101140000E94B7020E94990302C00E94B7020F904A
:101150000F90CF91DF910895DF93CF9300D0CDB75B
:10116000DEB79A8389830E94A602E981FA81808989
:101170009189009721F089819A810E9476080E94C6
:10118000B7020F900F90CF91DF910895DF93CF9327
:1011900000D0CDB7DEB70E94A602809118019091D1
:1011A00019019A838983E981FA818089918900975D
:1011B00049F089819A810E9476080E94B7020E94B4
:1011C000990302C00E94B7020F900F90CF91DF9158
:1011D0000895DF93CF9300D0CDB7DEB70E94A6026B
:1011E00080911801909119019A838983E981FA818C
:1011F00080899189009789F0E981FA818781882F18
:1012000090E081709070882341F0E981FA818285B5
:101210009385E981FA81918780870E94B7020F90B8
:101220000F90CF91DF910895DF93CF9300D000D03E
:10123000CDB7DEB79A838983E981FA818081918174
:101240009C838B83EB81FC8180859185009749F09D
:10125000EB81FC81808591850197EB81FC819187F1
:101260008087EB81FC818089918929813A812C5F7B
:101270003F4F8217930791F5EB81FC81268189818D
:101280009A81AC014C5F5F4F622F70E0822F90E03B
:10129000880F991F840F951FFC0131960190F081F2
:1012A000E02D26853785CB01880F991F840F951F68
:1012B000FC01319631832083EB81FC81808591850F
:1012C000009709F083C08B819C810E94EA03EB8127
:1012D000FC8187818D7FEB81FC818783E981FA81A5
:1012E0008481882309F072C0E981FA818281938127
:1012F0009C838B83EB81FC8120893189E981FA8190
:1013000087A990AD28173907B1F5EB81FC8186815B
:10131000E981FA8147A950AD682F70E0882F90E0ED
:10132000880F991F840F951FFC0131960190F08161
:10133000E02D26853785CB01880F991F840F951FD7
:10134000FC01319631832083EB81FC81808591857E
:10135000009789F4EB81FC8182859385EB81FC8188
:1013600091878087E981FA8121AD32AD8B819C81A3
:10137000B9010E948C05E981FA8107A8F0ADE02D42
:101380008081882381F4E981FA8121AD32ADE98140
:10139000FA8187A990ADE981FA8192AF81AFE981A5
:1013A000FA8130AF27ABE981FA8187A990AD0E941D
:1013B000B106E981FA8191838083E981FA81808194
:1013C0009181E981FA819383828309C089819A811D
:1013D00004960E94B106E981FA81918380830F907F
:1013E0000F900F900F90CF91DF910895DF93CF93DF
:1013F00000D0CDB7DEB79A838983E981FA818481F1
:10140000882351F089819A8104960E94B106E9816E
:10141000FA819183808312C0E981FA8187A990AD16
:101420000E94B106E981FA8191838083E981FA8182
:1014300080819181E981FA81938382830F900F905B
:10144000CF91DF910895DF93CF9300D000D000D0EB
:10145000CDB7DEB79C838B837E836D83EB81FC816C
:1014600014821A82198211C089819A812B813C8150
:10147000880F991F820F931FFC01359611821082ED
:1014800089819A8101969A83898389819A8188309A
:10149000910550F38B819C814596EB81FC8190AF47
:1014A00087AB8B819C818696EB81FC8192AF81AF6B
:1014B000EB81FC8107A8F0ADE02D1082EB81FC816F
:1014C00001ACF2ADE02D10821A8219821EC0898112
:1014D0009A812B813C810B96880F991FF901E80FA7
:1014E000F91F1182108289819A812B813C81099692
:1014F000880F991F820F931FFC017596118210822D
:1015000089819A8101969A83898389819A81883019
:101510009105E8F2ED81FE8115821482ED81FE8154
:1015200087E08683ED81FE811782ED81FE8181E077
:1015300090E091878087ED81FE8181E090E0938744
:101540008287ED81FE818D819E8195878487ED81E3
:10155000FE818D819E8197878687ED81FE81118A2C
:10156000108AED81FE818B819C81938B828BEB8134
:10157000FC818D819E8191838083EB81FC818D81B3
:101580009E8193838283EB81FC8127A930AD8D817D
:101590009E81B9010E941005EB81FC8114AE13AE4F
:1015A000EB81FC8116AE15AE26960FB6F894DEBF21
:1015B0000FBECDBFCF91DF910895DF93CF9300D0C1
:1015C00000D00F92CDB7DEB79C838B836D838D8166
:1015D000EB81FC818083EB81FC81128AEB81FC81B1
:1015E00011821A8219821DC089819A812B813C81C6
:1015F000880F991F820F931FFC017396118210822E
:1016000089819A812B813C810196880F991FF9016C
:10161000E80FF91F1182108289819A8101969A83BD
:10162000898389819A8188309105F0F20F900F901B
:101630000F900F900F90CF91DF9108951F93DF933C
:10164000CF9300D0CDB7DEB79A8389830E94A602DC
:1016500089819A810E94F601182F0E94B702812F7A
:101660000F900F90CF91DF911F910895DF93CF934B
:10167000CDB7DEB727970FB6F894DEBF0FBECDBF4C
:101680009A8389830E94A602209118013091190142
:101690003E832D8389819A810E94F601882371F50A
:1016A0008D819E810E947608ED81FE818781882F41
:1016B00090E081709070882341F089819A819C012B
:1016C0002F5F3F4F3C832B8306C089819A81FC01A9
:1016D0007296FC83EB838D819E816B817C810E945D
:1016E0001005ED81FE8187818460ED81FE81878315
:1016F0000E94B7020E9499031F8204C00E94B70291
:10170000F1E0FF838F8127960FB6F894DEBF0FBEFE
:10171000CDBFCF91DF9108950F931F93DF93CF93A8
:1017200000D000D00F92CDB7DEB79B838A830E9492
:10173000A602EA81FB818181882341F08A819B8115
:101740009C012F5F3F4F3D832C8314C0EA81FB81B6
:101750008289882341F08A819B819C012E5E3F4FC4
:101760003D832C8307C08A819B810E9414020E94C2
:10177000B70213C08C819D810E94B1068C01C80103
:101780000E947F04C8010E94850789830E94B702D6
:101790008981882311F00E9499030F900F900F9078
:1017A0000F900F90CF91DF911F910F910895DF93CC
:1017B000CF9300D000D0CDB7DEB79C838B83EB8175
:1017C000FC81118AEB81FC8110821A8219821DC072
:1017D00089819A812B813C810996880F991FF90193
:1017E000E80FF91F1182108289819A812B813C8137
:1017F000880F991F820F931FFC013196118210826E
:1018000089819A8101969A83898389819A81883016
:101810009105F0F20F900F900F900F90CF91DF9104
:101820000895DF93CF9300D000D000D0CDB7DEB7BE
:101830009A8389830E94A602209118013091190190
:101840003E832D838D819E810E947608ED81FE81ED
:101850008781882F90E081709070882329F02981FA
:101860003A813C832B8306C089819A81FC01719661
:10187000FC83EB838D819E816B817C810E941005AE
:10188000ED81FE8187818460ED81FE8187830E94E6
:10189000B7020E94990326960FB6F894DEBF0FBEDA
:1018A000CDBFCF91DF910895DF93CF9300D000D0CB
:1018B0000F92CDB7DEB79B838A830E94A602EA818E
:1018C000FB818081882339F08A819B810E94B10647
:1018D0009D838C830CC0EA81FB8181898823C1F0C0
:1018E0008A819B8141960E94B1069D838C838C8165
:1018F0009D810E94EA038C819D810E9485078983D6
:101900000E94B7028981882329F00E94990302C0AE
:101910000E94B7020F900F900F900F900F90CF91F1
:10192000DF910895DF93CF9300D000D0CDB7DEB71D
:101930009A8389830E94A602E981FA8180818823A3
:1019400039F089819A810E94B1069C838B830CC0F7
:10195000E981FA818189882379F089819A81419688
:101960000E94B1069C838B838B819C810E94EA0339
:101970008B819C810E9485070E94B7020F900F9077
:101980000F900F90CF91DF910895DF93CF9300D008
:1019900000D00F92CDB7DEB79A8389830E94A6024A
:1019A0001B8211C089819A810E94B1069D838C831C
:1019B0008C819D810E94EA038C819D810E94850714
:1019C0009B81982B9B83E981FA818081882351F741
:1019D00012C089819A8141960E94B1069D838C83B1
:1019E0008C819D810E94EA038C819D810E948507E4
:1019F0009B81982B9B83E981FA818189882349F710
:101A00000E94B7028B81882311F00E9499030F90E6
:101A10000F900F900F900F90CF91DF910895DF936B
:101A2000CF9300D000D0CDB7DEB79A8389830E94D0
:101A3000A6020EC089819A810E94B1069C838B8385
:101A40008B819C810E94EA038B819C810E94850787
:101A5000E981FA818081882369F70FC089819A81A1
:101A600041960E94B1069C838B838B819C810E944E
:101A7000EA038B819C810E948507E981FA81818933
:101A8000882361F70E94B7020F900F900F900F907C
:101A9000CF91DF910895DF93CF93CDB7DEB787ED78
:101AA00097E00E94360B0E940E0387ED97E00E949C
:101AB0008C0BF5CFDF93CF93CDB7DEB787ED97E0F3
:101AC0000E94360B0E940E0387ED97E00E948C0B5C
:101AD000F5CFDF93CF93CDB7DEB781E090E00E94E2
:101AE000210383E992E00E94110CF7CFDF93CF939B
:101AF000CDB7DEB781E090E00E94210383E992E058
:101B00000E94110CF7CFDF93CF9300D0CDB7DEB793
:101B10000E940E0380910001909101019A838983B4
:101B20008091000190910101909386068093850633
:101B30000E940E03809100019091010129813A8158
:101B4000821B930B21E0853F920790F38091000167
:101B5000909101019A838983809100019091010104
:101B6000909386068093850687ED97E00E94360B5A
:101B70008BE997E00E94F20781E090E00E94210348
:101B800087ED97E00E948C0B83E992E00E94C50CE0
:101B9000CFCFDF93CF93CDB7DEB780910001909187
:101BA0000101909386068093850687ED97E00E9459
:101BB000360B0E940E030E94E90887ED97E00E9411
:101BC0008C0B20910001309101018091850690914C
:101BD0008606A901481B590BCA018230910528F3DA
:101BE0008091000190910101909386068093850673
:101BF0008BE997E00E948D08D8CFDF93CF93CDB7C4
:101C0000DEB781E090E00E9421030E94E90883E9A9
:101C100092E00E94110CF5CFDF93CF93CDB7DEB7E2
:101C200081E090E00E9421030E94E90883E992E0AC
:101C30000E94110CF5CFDF93CF93CDB7DEB781E0D3
:101C400090E00E9421030E94E9088AEF97E00E9439
:101C5000110CF5CFDF93CF93CDB7DEB781E090E0E5
:101C60000E9421030E94E9088AEF97E00E94110C6C
:101C7000F5CFDF93CF93CDB7DEB787ED97E00E9426
:101C8000360B0E94E90887ED97E00E948C0B0E94BA
:101C9000C608F3CFEF92FF920F93DF93CF9300D05C
:101CA000CDB7DEB70E947802EFE4F0E01082EEE4F8
:101CB000F0E08DE18083EAE4F0E088E090E0918359
:101CC0008083E8E4F0E011821082E6E5F0E0108223
:101CD000E0E5F0E01082E7E3F0E08FEF8083E4E3FB
:101CE000F0E08FEF8083E7E5F0E080E1808381E73B
:101CF00096E020EF35E04BE45DE0B90120E000E044
:101D00000F2EF3E0EF2EFF24F02D0E940E0785EB3F
:101D100094E024EB34E04AE55DE0B90120E000E026
:101D2000EE24FF246894E1F80E940E078FEA97E002
:101D30002CE535E049E65DE0B90120E000E0EE2465
:101D4000FF24E3940E940E078DE595E020E736E03E
:101D500046E75DE0B90121E000E0EE24FF2468944D
:101D6000E1F80E940E0783EC97E02AE137E043E8B0
:101D70005DE0B90121E000E0EE24FF246894E1F881
:101D80000E940E078BE997E024EB33E049EC5DE01D
:101D9000B90120E001E00F2EF3E0EF2EFF24F02D3B
:101DA0000E940E078BEE91E022E932E04DEF5DE0FC
:101DB000B90120E001E0EE24FF246894E1F80E94DC
:101DC0000E0789EC94E024E333E04CE05EE0B901D7
:101DD00020E001E0EE24FF24E3940E940E0787E850
:101DE00096E024E334E04BE15EE0B90121E001E05C
:101DF000EE24FF246894E1F80E940E0787ED91E03D
:101E00002AE937E04AE25EE0B90121E001E0EE2490
:101E1000FF246894E1F80E940E078FEF91E026ED11
:101E200031E049E35EE0B90122E001E0EE24FF2465
:101E3000E3940E940E0787ED97E061E00E94DD0ABF
:101E400083E992E00E94D70B8AEF97E00E94D70BBC
:101E500081E796E00E94170885EB94E00E9417083E
:101E60008FEA97E00E9417088DE595E00E94170819
:101E700083EC97E00E94170881E796E00E94AC0887
:101E800081E796E00E9417088BE997E00E94170807
:101E90008BEE91E00E94170889EC94E00E941708ED
:101EA00087E896E00E94170887ED91E00E941708E6
:101EB0008FEF91E00E9417088BE997E00E94AC0831
:101EC0008BE997E00E9417080E948D020E940E0382
:101ED00080910001909101019A8389830E940E03F1
:101EE000809100019091010129813A81821B930B1D
:101EF00021E0853F920790F3A8E3B0E0E8E3F0E04B
:101F0000908185E589278C93809100019091010152
:101F10009A8389838AEF97E00E94540C8FEF91E0B7
:0A1F20000E941708DBCFF894FFCFF2
:00000001FF
