:100000000C9446000C9465000C9465000C946500FB
:100010000C9465000C9465000C9465000C946500CC
:100020000C9465000C9465000C9465000C946500BC
:100030000C9490050C9465000C9465000C9465007C
:100040000C9465000C9465000C9465000C9465009C
:100050000C9465000C9465000C9465000C9465008C
:100060000C9465000C9465000C9465000C9465007C
:100070000C9465000C9465000C9465000C9465006C
:100080000C9465000C9465000C94650011241FBE4F
:10009000CFEFD0E1DEBFCDBF11E0A0E0B1E0ECE7F3
:1000A000FFE100E00BBF02C007900D92A030B10746
:1000B000D9F718E0A0E0B1E001C01D92AC31B10762
:1000C000E1F70E9466010C94BC0F0C940000DF93D2
:1000D000CF93CDB7DEB787ED97E00E94A70D0E94C2
:1000E000560587ED97E00E94FD0DF5CFDF93CF9386
:1000F000CDB7DEB787ED97E00E94A70D0E945605A9
:1001000087ED97E00E94FD0DF5CFDF93CF93CDB73C
:10011000DEB781E090E00E94690580E492E00E94F1
:10012000820EF7CFDF93CF93CDB7DEB781E090E0BB
:100130000E94690580E492E00E94820EF7CFDF936F
:10014000CF9300D0CDB7DEB70E9456058091000155
:10015000909101019A83898380910001909101011E
:1001600090934706809346060E94560580910001B1
:100170009091010129813A81821B930B21E0853FF7
:10018000920790F380910001909101019A838983F5
:10019000809100019091010190934706809346065B
:1001A00087ED97E00E94A70D8CE597E00E94410A39
:1001B00081E090E00E94690587ED97E00E94FD0DC7
:1001C00080E492E00E94360FCFCFDF93CF93CDB77C
:1001D000DEB78091000190910101909347068093D2
:1001E000460687ED97E00E94A70D0E9456050E94E3
:1001F0005A0B87ED97E00E94FD0D20910001309190
:1002000001018091460690914706A901481B590BB0
:10021000CA018230910528F380910001909101017B
:1002200090934706809346068CE597E00E94FE0A6D
:10023000D8CFDF93CF93CDB7DEB781E090E00E94B7
:1002400069050E945A0B80E492E00E94820EF5CF6D
:10025000DF93CF93CDB7DEB781E090E00E946905D0
:100260000E945A0B80E492E00E94820EF5CFDF9349
:10027000CF93CDB7DEB781E090E00E9469050E9480
:100280005A0B8AEF97E00E94820EF5CFDF93CF934F
:10029000CDB7DEB781E090E00E9469050E945A0B5D
:1002A0008AEF97E00E94820EF5CFDF93CF93CDB710
:1002B000DEB787ED97E00E94A70D0E945A0B87EDED
:1002C00097E00E94FD0D0E94370BF3CFEF92FF9253
:1002D0000F93DF93CF9300D0CDB7DEB70E94C00459
:1002E000EFE4F0E01082EEE4F0E08DE18083EAE4F8
:1002F000F0E088E090E091838083E8E4F0E0118210
:100300001082E6E5F0E01082E0E5F0E01082E7E33D
:10031000F0E08FEF8083E4E3F0E08FEF8083E7E5A8
:10032000F0E080E1808382E396E021EB35E047E670
:1003300050E0B90120E000E00F2EF3E0EF2EFF24A3
:10034000F02D0E94560982E694E021E634E046E76B
:1003500050E0B90120E000E0EE24FF246894E1F8C9
:100360000E94560980E797E02DE135E045E850E02E
:10037000B90120E000E0EE24FF24E3940E94560936
:100380008EE195E021E336E042E950E0B90121E059
:1003900000E0EE24FF246894E1F80E94560983EC03
:1003A00097E02BED36E04FE950E0B90121E000E0A5
:1003B000EE24FF246894E1F80E9456098CE597E04A
:1003C00021E633E045EE50E0B90120E001E00F2ED8
:1003D000F3E0EF2EFF24F02D0E94560988E991E00A
:1003E0002FE332E049E151E0B90120E001E0EE24E1
:1003F000FF246894E1F80E94560986E794E021EE14
:1004000032E048E251E0B90120E001E0EE24FF24AF
:10041000E3940E94560988E496E021EE33E047E336
:1004200051E0B90121E001E0EE24FF246894E1F8F5
:100430000E94560984E891E02BE537E046E451E05C
:10044000B90121E001E0EE24FF246894E1F80E9464
:1004500056098CEA91E023E831E045E551E0B90125
:1004600022E001E0EE24FF24E3940E94560987ED88
:1004700097E061E00E944E0D80E492E00E94480EF9
:100480008AEF97E00E94480E82E396E00E946F0A8E
:1004900082E694E00E946F0A80E797E00E946F0A6C
:1004A0008EE195E00E946F0A83EC97E00E946F0A4C
:1004B00082E396E00E941D0B82E396E00E946F0AA1
:1004C0008CE597E00E946F0A88E991E00E946F0A2C
:1004D00086E794E00E946F0A88E496E00E946F0A23
:1004E00084E891E00E946F0A8CEA91E00E946F0A12
:1004F0008CE597E00E941D0B8CE597E00E946F0A47
:100500000E94D5040E94560580910001909101013E
:100510009A8389830E945605809100019091010180
:1005200029813A81821B930B21E0853F920790F34A
:10053000A8E3B0E0E8E3F0E0908185E589278C93BB
:1005400080910001909101019A8389838AEF97E05D
:100550000E94C50E8CEA91E00E946F0ADBCFDF9308
:10056000CF9300D000D000D0CDB7DEB79E838D836F
:10057000ED81FE81828193819C838B83EB81FC8161
:1005800081E180838B819C8101979C838B83EB81AC
:10059000FC8182E280838B819C8101979C838B8389
:1005A000EB81FC8183E380838B819C8101979C8319
:1005B0008B8381EB99E09A8389838981EB81FC812C
:1005C00080838B819C8101979C838B8389819A8115
:1005D000892F99279A8389838981EB81FC81808384
:1005E0008B819C8101979C838B83EB81FC811082A2
:1005F0008B819C8101979C838B83EB81FC8180E8BC
:1006000080838B819C8101979C838B83EB81FC8110
:1006100010828B819C8101979C838B83EB81FC8171
:1006200082E080838B819C8101979C838B83EB810B
:10063000FC8183E080838B819C8101979C838B83E9
:10064000EB81FC8184E080838B819C8101979C837A
:100650008B83EB81FC8185E080838B819C8101977A
:100660009C838B83EB81FC8186E080838B819C81E2
:1006700001979C838B83EB81FC8187E080838B8156
:100680009C8101979C838B83EB81FC8188E0808334
:100690008B819C8101979C838B83EB81FC8189E01A
:1006A00080838B819C8101979C838B83EB81FC8170
:1006B00080E180838B819C8101979C838B83EB817C
:1006C000FC8181E180838B819C8101979C838B835A
:1006D000EB81FC8182E180838B819C8101979C83EB
:1006E0008B83EB81FC8183E180838B819C810197EB
:1006F0009C838B83EB81FC8184E180838B819C8153
:1007000001979C838B83EB81FC8185E180838B81C6
:100710009C8101979C838B83EB81FC8186E18083A4
:100720008B819C8101979C838B83EB81FC8187E18A
:1007300080838B819C8101979C838B83EB81FC81DF
:1007400088E180838B819C8101979C838B83EB81E3
:10075000FC8189E180838B819C8101979C838B83C1
:10076000EB81FC8180E280838B819C8101979C835B
:100770008B83EB81FC8181E280838B819C8101975B
:100780009C838B83EB81FC8182E280838B819C81C3
:1007900001979C838B83EB81FC8183E280838B8137
:1007A0009C8101979C838B838D819E819A83898311
:1007B0008981EB81FC8180838B819C8101979C8363
:1007C0008B8389819A81892F99279A83898389814B
:1007D000EB81FC8180838B819C8101979C838B833F
:1007E000EB81FC8186E280838B819C8101979C83D5
:1007F0008B83EB81FC8187E280838B819C810197D5
:100800009C838B83EB81FC8188E280838B819C813C
:1008100001979C838B83EB81FC8189E280838B81B0
:100820009C8101979C838B83EB81FC8180E3808397
:100830008B819C8101979C838B83EB81FC8181E37D
:1008400080838B819C8101979C838B83EB81FC81CE
:100850008FEF80838B819C8101979C838B83ED81BB
:10086000FE818B819C819183808326960FB6F894BC
:10087000DEBF0FBECDBFCF91DF910895DF93CF9341
:1008800000D00F92CDB7DEB79B838A831982EA81AD
:10089000FB818081882349F081E08983EA81FB81A3
:1008A00080818150EA81FB81808389810F900F9044
:1008B0000F90CF91DF910895DF93CF9300D0CDB704
:1008C000DEB79A838983E981FA8180818F5FE9812C
:1008D000FA8180830F900F90CF91DF910895DF937D
:1008E000CF9300D0CDB7DEB79A838983E091840798
:1008F000F091850789819A8191838083809102019B
:1009000090910301019690930301809302018091DD
:10091000C1079091C207009721F484E897E00E94F4
:10092000850BE0918407F0918507808191810F907C
:100930000F90CF91DF910895DF93CF9300D0CDB783
:10094000DEB79A838983E0918407F09185078981D6
:100950009A81918380838091BF079091C00700970F
:1009600021F484E897E00E94670CE0918407F091FD
:100970008507808191810F900F90CF91DF9108952D
:10098000DF93CF93CDB7DEB7F89484E897E02AE8F9
:1009900034E0B9010E94940C81E090E09093C0078C
:1009A0008093BF07CF91DF910895DF93CF93CDB7A9
:1009B000DEB70E94E0040E94FF04CF91DF9108950A
:1009C000DF93CF93CDB7DEB7A7E5B0E0E7E5F0E082
:1009D000808180618C93CF91DF910895DF93CF93D5
:1009E000CDB7DEB7F8948091BF079091C00701960C
:1009F0009093C0078093BF07CF91DF910895DF9355
:100A0000CF93CDB7DEB78091BF079091C007009715
:100A100049F08091BF079091C00701979093C0075C
:100A20008093BF078091BF079091C007009709F49A
:100A30007894CF91DF910895DF93CF93CDB7DEB750
:100A40000E9435058091C1079091C207019690934D
:100A5000C2078093C1078091BF079091C00700979C
:100A600009F47894CF91DF910895DF93CF93CDB7B8
:100A7000DEB7A7E5B0E0E7E5F0E080818F7E8C93FC
:100A8000CF91DF910895DF93CF93CDB7DEB7F89480
:100A90008091C1079091C20701979093C2078093FC
:100AA000C1070E94E004CF91DF910895DF93CF93B7
:100AB000CDB7DEB70E94EE04809102019091030150
:100AC00090930101809300010E94FF04CF91DF9178
:100AD0000895DF93CF9300D000D0CDB7DEB79C83CD
:100AE0008B830E94560580910001909101019A83A9
:100AF000898302C00E9456052091000130910101B6
:100B000089819A81281B390B8B819C812817390791
:100B100088F30F900F900F900F90CF91DF91089571
:100B20000F920FB6F8940F921F9211242F923F92BA
:100B30004F925F926F927F928F929F92AF92BF92ED
:100B4000CF92DF92EF92FF920F931F932F933F93D9
:100B50004F935F936F937F938F939F93AF93BF93C5
:100B6000CF93DF93EF93FF93FBB7FF938DB79EB7C0
:100B70000E946F049EBF8DBFFF91FBBFFF91EF915D
:100B8000DF91CF91BF91AF919F918F917F916F91A5
:100B90005F914F913F912F911F910F91FF90EF9097
:100BA000DF90CF90BF90AF909F908F907F906F908D
:100BB0005F904F903F902F901F900F900FBE0F901F
:100BC00018950F920FB6F8940F921F9211242F923E
:100BD0003F924F925F926F927F928F929F92AF92CD
:100BE000BF92CF92DF92EF92FF920F931F932F93BA
:100BF0003F934F935F936F937F938F939F93AF93A5
:100C0000BF93CF93DF93EF93FF93FBB7FF938DB722
:100C10009EB70E949C049EBF8DBFFF91FBBFFF91BA
:100C2000EF91DF91CF91BF91AF919F918F917F9184
:100C30006F915F914F913F912F911F910F91FF9075
:100C4000EF90DF90CF90BF90AF909F908F907F906C
:100C50006F905F904F903F902F901F900F900FBE1E
:100C60000F900895DF93CF93CDB7DEB729970FB6D6
:100C7000F894DEBF0FBECDBF9D838C838C819D8198
:100C80009B838A83EA81FB81208931893F832E837C
:100C9000EA81FB8186818983EA81FB81268537850C
:100CA0008A819B812817390711F58981882F90E067
:100CB000880F991F4E815F81840F951FFC0131962B
:100CC00011821082EE81FF818081482F8981282F37
:100CD00030E081E090E0022E02C0880F991F0A9454
:100CE000E2F780958423EE81FF81808343C02E81CB
:100CF0003F812F5F3F4F8981882F90E0880F991F98
:100D0000A901480F591F59874887E885F98520812F
:100D100031818A819B812817390741F4EA81FB815F
:100D200086859785E885F98591838083EA81FB81B3
:100D3000A485B585EA81FB81868597851F969C935E
:100D40008E931E97EA81FB81A685B785EA81FB8198
:100D5000848595851D969C938E931C97EA81FB81D3
:100D60008A819B8197878687EA81FB818A819B8123
:100D700095878487EC81FD81118A108A29960FB6A8
:100D8000F894DEBF0FBECDBFCF91DF910895DF9302
:100D9000CF93CDB7DEB729970FB6F894DEBF0FBE5D
:100DA000CDBF9D838C838C819D819B838A83EA81C7
:100DB000FB81208931893F832E83EA81FB818681F3
:100DC0008983EA81FB81268537858A819B81281763
:100DD000390711F58981882F90E0880F991F4E817E
:100DE0005F81840F951FFC01319611821082EE8184
:100DF000FF818081482F8981282F30E081E090E0B9
:100E0000022E02C0880F991F0A94E2F7809584236E
:100E1000EE81FF81808343C02E813F812F5F3F4F52
:100E20008981882F90E0880F991FA901480F591FC9
:100E300059874887E885F985208131818A819B819E
:100E40002817390741F4EA81FB8186859785E88573
:100E5000F98591838083EA81FB81A485B585EA8148
:100E6000FB81868597851F969C938E931E97EA81BA
:100E7000FB81A685B785EA81FB81848595851D96D2
:100E80009C938E931C97EA81FB818A819B81978733
:100E90008687EA81FB818A819B8195878487299651
:100EA0000FB6F894DEBF0FBECDBFCF91DF9108958E
:100EB000DF93CF93CDB7DEB72A970FB6F894DEBF96
:100EC0000FBECDBF98878F837A8769878F8198857A
:100ED0009C838B8389859A859E838D83EB81FC819E
:100EE000868189838981282F30E081E090E0022E7D
:100EF00002C0880F991F0A94E2F78A83ED81FE8170
:100F000090818A818923882349F18981882F90E003
:100F10002D813E81880F991F820F931FFC0131960E
:100F2000A081B181EB81FC81B787A6871C968D914A
:100F30009C911D97EB81FC81958784878B819C8197
:100F40001D969C938E931C97EB81FC810484F58500
:100F5000E02D8B819C819787868717C0ED81FE816C
:100F600090818A81892BED81FE8180838981882F00
:100F700090E02D813E81880F991F820F931FFC0105
:100F800031968B819C8191838083EB81FC818D8163
:100F90009E81918B808B2A960FB6F894DEBF0FBE90
:100FA000CDBFCF91DF910895DF93CF93CDB7DEB75B
:100FB00061970FB6F894DEBF0FBECDBF9B878A87BF
:100FC0007D876C878A859B8599878887E885F985E1
:100FD000208931893F872E87E885F98586818F832F
:100FE000E885F98526853785888599852817390705
:100FF00011F58F81882F90E0880F991F4E855F85AE
:10100000840F951FFC01319611821082EE85FF85B9
:101010008081482F8F81282F30E081E090E0022EE0
:1010200002C0880F991F0A94E2F780958423EE8509
:10103000FF85808343C02E853F852F5F3F4F8F8183
:10104000882F90E0880F991FA901480F591F598BCD
:10105000488BE889F989208131818885998528170D
:10106000390741F4E885F98586859785E889F98906
:1010700091838083E885F985A485B585E885F98520
:10108000868597851F969C938E931E97E885F98594
:10109000A685B785E885F985848595851D969C93F9
:1010A0008E931C97E885F98588859985978786872B
:1010B000E885F98588859985958784878A859B85C4
:1010C0009C838B838C859D859E838D83EB81FC81A6
:1010D000868189838981282F30E081E090E0022E8B
:1010E00002C0880F991F0A94E2F78A83ED81FE817E
:1010F00090818A818923882349F18981882F90E012
:101100002D813E81880F991F820F931FFC0131961C
:10111000A081B181EB81FC81B787A6871C968D9158
:101120009C911D97EB81FC81958784878B819C81A5
:101130001D969C938E931C97EB81FC810484F5850E
:10114000E02D8B819C819787868717C0ED81FE817A
:1011500090818A81892BED81FE8180838981882F0E
:1011600090E02D813E81880F991F820F931FFC0113
:1011700031968B819C8191838083EB81FC818D8171
:101180009E81918B808B61960FB6F894DEBF0FBE67
:10119000CDBFCF91DF910895DF93CF9300D00F9211
:1011A000CDB7DEB79A8389836B838B81682F70E01C
:1011B0008B81882F90E029813A81880F991F820FB7
:1011C000931FFC0131960190F081E02D46855785F3
:1011D00029813A81CB01880F991F820F931FFC014F
:1011E0003196518340830F900F900F90CF91DF91F4
:1011F0000895DF93CF93CDB7DEB72A970FB6F89453
:10120000DEBF0FBECDBF98878F83EF81F8858081C9
:101210008E838FEF8D838FEF8C8388E08A83198292
:1012200022C08A8186958A838C81282F30E08A812A
:10123000882F90E0A90102C0559547958A95E2F75D
:10124000CA018B839E818D8198238B81892388237A
:1012500019F08B818C8307C08B8180958D83998158
:101260008A81890F89838A818823D9F68E81882390
:1012700081F08981882F90E02F813885880F991F10
:10128000820F931FFC013196808191819A87898713
:1012900002C01A86198689859A852A960FB6F8940F
:1012A000DEBF0FBECDBFCF91DF910895EF92FF92C9
:1012B0000F93DF93CF93CDB7DEB72A970FB6F8948D
:1012C000DEBF0FBECDBF9A8389837C836B835E8331
:1012D0004D832F830887FA86E986E981FA818B811D
:1012E0009C8193838283E981FA818D819E8195839C
:1012F0008483E981FA818F818683E981FA818885F7
:101300008783E981FA8189859A8591878087E98138
:10131000FA8189859A8593878287E981FA81898113
:101320009A8195878487E981FA8189819A81978753
:101330008687E981FA81118A108AE981FA81138A04
:10134000128A89819A810E94AF022A960FB6F89478
:10135000DEBF0FBECDBFCF91DF910F91FF90EF9019
:101360000895DF93CF9300D0CDB7DEB79A838983FA
:10137000E981FA810480F581E02D09950E94EE044F
:10138000E981FA8187818860E981FA81878389818F
:101390009A810E94D70A0E94FF040E94E1050F90E3
:1013A0000F90CF91DF910895DF93CF93CDB7DEB744
:1013B00028970FB6F894DEBF0FBECDBF9B838A83FC
:1013C00084E897E09F838E8381E08983EA81FB81B3
:1013D00087818260EA81FB818783EA81FB81878143
:1013E000837FEA81FB818783EA81FB818E819F81F4
:1013F000938B828BEA81FB818781882F90E08170BB
:101400009070882371F0EA81FB8180859185009737
:1014100031F0EE81FF813496FD83EC8320C0188685
:1014200026C0EA81FB8180859185009741F0EE819D
:10143000FF8107A8F0ADE02DFD83EC8310C0EA81A9
:10144000FB8182859385EA81FB8191878087EE818C
:10145000FF8101ACF2ADE02DFD83EC8319828A811E
:101460009B816C817D810E945807F981F88788856E
:1014700028960FB6F894DEBF0FBECDBFCF91DF9197
:101480000895DF93CF9300D00F92CDB7DEB79B8343
:101490008A830E94EE04EA81FB818089918900970A
:1014A00049F4EA81FB818781882F90E088709070F1
:1014B000009719F00E94FF040CC08A819B810E9452
:1014C000D40989830E94FF048981882311F00E9436
:1014D000E1050F900F900F90CF91DF910895DF936A
:1014E000CF9300D0CDB7DEB79A8389830E94EE04F4
:1014F000E981FA8180899189009769F4E981FA810B
:101500008781882F90E088709070009721F48981FE
:101510009A810E94D4090E94FF040F900F90CF91EE
:10152000DF910895DF93CF9300D00F92CDB7DEB750
:101530009B838A830E94EE04EA81FB8180899189E2
:10154000009719F00E94FF042CC08A819B810E94A1
:10155000AF02EA81FB8182859385EA81FB819187D5
:101560008087EA81FB818A819B8195878487EA81D4
:10157000FB818A819B8197878687EA81FB81118A1B
:10158000108AEA81FB81138A128A8A819B810E94D8
:10159000D40989830E94FF048981882311F00E9465
:1015A000E1050F900F900F90CF91DF910895DF9399
:1015B000CF9300D0CDB7DEB79A838983E981FA81D2
:1015C00087818D7FE981FA818783E981FA8187812B
:1015D000882F90E084709070009739F0E981FA814B
:1015E00087818860E981FA81878389819A810E9455
:1015F00032060F900F90CF91DF910895DF93CF9334
:1016000000D0CDB7DEB79A8389830E94EE04E981CA
:10161000FA8180899189009749F089819A810E9495
:10162000D70A0E94FF040E94E10502C00E94FF0445
:101630000F900F90CF91DF910895DF93CF9300D05B
:10164000CDB7DEB79A8389830E94EE04E981FA81DF
:1016500080899189009721F089819A810E94D70A17
:101660000E94FF040F900F90CF91DF910895DF93B8
:10167000CF9300D0CDB7DEB70E94EE0480918407EF
:10168000909185079A838983E981FA81808991897C
:10169000009749F089819A810E94D70A0E94FF042D
:1016A0000E94E10502C00E94FF040F900F90CF91AD
:1016B000DF910895DF93CF9300D0CDB7DEB70E94BE
:1016C000EE0480918407909185079A838983E9814C
:1016D000FA8180899189009789F0E981FA8187816F
:1016E000882F90E081709070882341F0E981FA8121
:1016F00082859385E981FA81918780870E94FF0422
:101700000F900F90CF91DF910895DF93CF9300D08A
:1017100000D0CDB7DEB79A838983E981FA818081D1
:1017200091819C838B83EB81FC81808591850097DF
:1017300049F0EB81FC81808591850197EB81FC81EB
:1017400091878087EB81FC818089918929813A8109
:101750002C5F3F4F8217930791F5EB81FC81268127
:1017600089819A81AC014C5F5F4F622F70E0822FBC
:1017700090E0880F991F840F951FFC01319601900E
:10178000F081E02D26853785CB01880F991F840FC6
:10179000951FFC01319631832083EB81FC8180858C
:1017A0009185009709F083C08B819C810E9432064D
:1017B000EB81FC8187818D7FEB81FC818783E981CF
:1017C000FA818481882309F072C0E981FA818281DB
:1017D00093819C838B83EB81FC8120893189E98112
:1017E000FA8187A990AD28173907B1F5EB81FC8103
:1017F0008681E981FA8147A950AD682F70E0882F72
:1018000090E0880F991F840F951FFC01319601907D
:10181000F081E02D26853785CB01880F991F840F35
:10182000951FFC01319631832083EB81FC818085FB
:101830009185009789F4EB81FC8182859385EB810A
:10184000FC8191878087E981FA8121AD32AD8B815E
:101850009C81B9010E94D407E981FA8107A8F0AD03
:10186000E02D8081882381F4E981FA8121AD32ADB8
:10187000E981FA8187A990ADE981FA8192AF81AFC0
:10188000E981FA8130AF27ABE981FA8187A990AD70
:101890000E94F908E981FA8191838083E981FA81C4
:1018A00080819181E981FA819383828309C0898152
:1018B0009A8104960E94F908E981FA8191838083D4
:1018C0000F900F900F900F90CF91DF910895DF93BD
:1018D000CF9300D0CDB7DEB79A838983E981FA81AF
:1018E0008481882351F089819A8104960E94F908A5
:1018F000E981FA819183808312C0E981FA8187A905
:1019000090AD0E94F908E981FA8191838083E98191
:10191000FA8180819181E981FA81938382830F909A
:101920000F90CF91DF910895DF93CF9300D000D037
:1019300000D0CDB7DEB79C838B837E836D83EB8134
:10194000FC8114821A82198211C089819A812B81AB
:101950003C81880F991F820F931FFC0135961182DD
:10196000108289819A8101969A83898389819A81DB
:101970008830910550F38B819C814596EB81FC81E9
:1019800090AF87AB8B819C818696EB81FC8192AF77
:1019900081AFEB81FC8107A8F0ADE02D1082EB81D7
:1019A000FC8101ACF2ADE02D10821A8219821EC0BA
:1019B00089819A812B813C810B96880F991FF901AF
:1019C000E80FF91F1182108289819A812B813C8155
:1019D0000996880F991F820F931FFC01759611823B
:1019E000108289819A8101969A83898389819A815B
:1019F00088309105E8F2ED81FE8115821482ED8137
:101A0000FE8187E08683ED81FE811782ED81FE8174
:101A100081E090E091878087ED81FE8181E090E018
:101A200093878287ED81FE818D819E819587848752
:101A3000ED81FE818D819E8197878687ED81FE8174
:101A4000118A108AED81FE818B819C81938B828B20
:101A5000EB81FC818D819E8191838083EB81FC8170
:101A60008D819E8193838283EB81FC8127A930AD98
:101A70008D819E81B9010E945807EB81FC8114AED3
:101A800013AEEB81FC8116AE15AE26960FB6F89418
:101A9000DEBF0FBECDBFCF91DF910895DF93CF930F
:101AA00000D000D00F92CDB7DEB79C838B836D83BF
:101AB0008D81EB81FC818083EB81FC81128AEB813B
:101AC000FC8111821A8219821DC089819A812B8121
:101AD0003C81880F991F820F931FFC01739611821E
:101AE000108289819A812B813C810196880F991FF0
:101AF000F901E80FF91F1182108289819A810196FC
:101B00009A83898389819A8188309105F0F20F90B8
:101B10000F900F900F900F90CF91DF9108951F932A
:101B2000DF93CF9300D0CDB7DEB79A8389830E942D
:101B3000EE0489819A810E943E04182F0E94FF04BE
:101B4000812F0F900F90CF91DF911F910895DF9318
:101B5000CF93CDB7DEB727970FB6F894DEBF0FBE91
:101B6000CDBF9A8389830E94EE042091840730912F
:101B700085073E832D8389819A810E943E048823B4
:101B800071F58D819E810E94D70AED81FE8187814A
:101B9000882F90E081709070882341F089819A812C
:101BA0009C012F5F3F4F3C832B8306C089819A8124
:101BB000FC017296FC83EB838D819E816B817C811D
:101BC0000E945807ED81FE8187818460ED81FE814E
:101BD00087830E94FF040E94E1051F8204C00E94C7
:101BE000FF04F1E0FF838F8127960FB6F894DEBFE4
:101BF0000FBECDBFCF91DF9108950F931F93DF9359
:101C0000CF9300D000D00F92CDB7DEB79B838A83ED
:101C10000E94EE04EA81FB818181882341F08A8160
:101C20009B819C012F5F3F4F3D832C8314C0EA8131
:101C3000FB818289882341F08A819B819C012E5EF1
:101C40003F4F3D832C8307C08A819B810E945C04A7
:101C50000E94FF0413C08C819D810E94F9088C01B1
:101C6000C8010E94C706C8010E94D40989830E9446
:101C7000FF048981882311F00E94E1050F900F90E5
:101C80000F900F900F90CF91DF911F910F910895BA
:101C9000DF93CF9300D000D0CDB7DEB79C838B838A
:101CA000EB81FC81118AEB81FC8110821A821982FE
:101CB0001DC089819A812B813C810996880F991FCB
:101CC000F901E80FF91F1182108289819A812B8115
:101CD0003C81880F991F820F931FFC01319611825E
:101CE000108289819A8101969A83898389819A8158
:101CF00088309105F0F20F900F900F900F90CF91D8
:101D0000DF910895DF93CF9300D000D000D0CDB7FE
:101D1000DEB79A8389830E94EE0420918407309174
:101D200085073E832D838D819E810E94D70AED8198
:101D3000FE818781882F90E081709070882329F040
:101D400029813A813C832B8306C089819A81FC01D9
:101D50007196FC83EB838D819E816B817C810E94D7
:101D60005807ED81FE8187818460ED81FE81878344
:101D70000E94FF040E94E10526960FB6F894DEBF8C
:101D80000FBECDBFCF91DF910895DF93CF9300D0E9
:101D900000D00F92CDB7DEB79B838A830E94EE04FA
:101DA000EA81FB818081882339F08A819B810E94AE
:101DB000F9089D838C830CC0EA81FB81818988238B
:101DC000C1F08A819B8141960E94F9089D838C8392
:101DD0008C819D810E9432068C819D810E94D40954
:101DE00089830E94FF048981882329F00E94E105EC
:101DF00002C00E94FF040F900F900F900F900F9061
:101E0000CF91DF910895DF93CF9300D000D0CDB76D
:101E1000DEB79A8389830E94EE04E981FA8180818A
:101E2000882339F089819A810E94F9089C838B83E9
:101E30000CC0E981FA818189882379F089819A81AE
:101E400041960E94F9089C838B838B819C810E9420
:101E500032068B819C810E94D4090E94FF040F905E
:101E60000F900F900F90CF91DF910895DF93CF9354
:101E700000D000D00F92CDB7DEB79A8389830E943D
:101E8000EE041B8211C089819A810E94F9089D830A
:101E90008C838C819D810E9432068C819D810E9461
:101EA000D4099B81982B9B83E981FA8180818823C7
:101EB00051F712C089819A8141960E94F9089D8349
:101EC0008C838C819D810E9432068C819D810E9431
:101ED000D4099B81982B9B83E981FA81818988238E
:101EE00049F70E94FF048B81882311F00E94E105CD
:101EF0000F900F900F900F900F90CF91DF9108955A
:101F0000DF93CF9300D000D0CDB7DEB79A8389831B
:101F10000E94EE040EC089819A810E94F9089C8378
:101F20008B838B819C810E9432068B819C810E94D5
:101F3000D409E981FA818081882369F70FC08981FA
:101F40009A8141960E94F9089C838B838B819C81A6
:101F50000E9432068B819C810E94D409E981FA811A
:101F60008189882361F70E94FF040F900F900F90E2
:0C1F70000F90CF91DF910895F894FFCFFF
:00000001FF
