:100000000C9446000C9463000C9488010C946300DB
:100010000C9463000C9463000C9463000C940A012C
:100020000C9463000C9463000C9463000C946300C4
:100030000C9463000C9463000C9463000C946300B4
:100040000C9463000C9463000C9463000C946300A4
:100050000C9463000C9463000C9463000C94630094
:100060000C9463000C9463002D027602AF02C90267
:10007000E30209036D037E038E039E03AE03BE03FA
:10008000D5030D043004460460047A0411241FBE15
:10009000CFEFD8E0DEBFCDBF11E0A0E0B1E0EEE5EC
:1000A000F6E202C005900D92A230B107D9F714E034
:1000B000A2E0B1E001C01D92AF3BB107E1F70E94A1
:1000C0002E120C942D130C9400002F922FB62F9209
:1000D0003F924F925F926F927F928F929F92AF92D8
:1000E000BF92CF92DF92EF92FF920F931F932F93C5
:1000F0003F934F935F936F937F938F939F93AF93B0
:10010000BF93CF93DF93EF93FF93EDB7FEB721A19A
:1001100030A101A210A211248DB79EB72F933F9357
:1001200008953F912F919EBF8DBFFEB7EDB710A0F0
:1001300001A030A321A3FF91EF91DF91CF91BF9157
:10014000AF919F918F917F916F915F914F913F916F
:100150002F911F910F91FF90EF90DF90CF90BF9064
:10016000AF909F908F907F906F905F904F903F9057
:100170002F902FBE2F9008951F900F909EBF8DBF80
:100180000F921F9211240895DF93CF93CDB7DEB75E
:10019000F894CF91DF910895DF93CF93CDB7DEB779
:1001A0007894CF91DF910895DF93CF93CDB7DEB7E9
:1001B0008091180190911901CF91DF910895DF93FB
:1001C000CF9300D000D000D0CDB7DEB79A8389831B
:1001D0007C836B835E834D8389819A812B813C81F3
:1001E0004D815E81B9010E948A0426960FB6F8946B
:1001F000DEBF0FBECDBFCF91DF910895DF93CF93C8
:10020000CDB7DEB780910001816080930001CF916E
:10021000DF91089500911801109119010E94650065
:10022000F80195A784A780916E0190916F010E94BB
:10023000BC008091720190917301019690937301BB
:10024000809372010E94500EE0911801F091190103
:1002500084A595A50E9491001895DF93CF93CDB703
:10026000DEB7F89481E090E09093410180934001E3
:100270000E948C09CF91DF910895DF93CF93CDB782
:10028000DEB70E9441111092410110924001789412
:1002900080E090E00E941E12CF91DF910895DF93DD
:1002A000CF9300D000D000D0CDB7DEB7809102014F
:1002B000882329F18091020181508093020180916D
:1002C0000201882F90E0880F991F88599F4F9C83C7
:1002D0008B838B819C81FC01859194919A83898386
:1002E000FC83EB8389819A819E838D8380910301B6
:1002F00090910401ED81FE810995109202012696EC
:100300000FB6F894DEBF0FBECDBFCF91DF91089539
:1003100000911801109119010E946500F80195A73C
:1003200084A780916E0190916F010E94BC00E091C2
:100330001801F091190184A595A507969C838B83DC
:10034000EB81FC818081882F90E09A8389838B8167
:100350009C8101969C838B8389819A81982F882721
:100360009A838983EB81FC818081282F30E0898109
:100370009A81822B932B9A838983E981FA818081E8
:1003800080930201E981FA81818192819093040135
:10039000809303010E944F01809100018D7F809323
:1003A000000180910001882F90E081709070882377
:1003B00039F0809100018E7F809300010E94F80E39
:1003C0000E944111E0911801F091190184A595A5B1
:1003D0000E9491001895DF93CF9300D0CDB7DEB780
:1003E0009A838983809100018260809300010E943A
:1003F0004F110E941E11789489819A810F900F905D
:10040000CF91DF910895DF93CF9300D00F92CDB7B6
:10041000DEB789837B836A838981809315018A8112
:100420009B81909317018093160185E191E00E94D2
:10043000EB010000000000000000000000008091BF
:100440000001882F90E0827090700097C1F70F90A4
:100450000F900F90CF91DF9108958F92AF92BF923E
:10046000CF92DF92EF92FF920F931F93DF93CF9380
:1004700000D0CDB7DEB79A838983E981FA81808184
:100480009181E981FA8122813381E981FA81448174
:100490005581E981FA8106811781E981FA81E08439
:1004A000F184E981FA81C284D384E981FA81B48438
:1004B000E981FA81A585B685E981FA81E785B901E7
:1004C000980187017601CB2C5D018E2E0E94620B74
:1004D0000F900F90CF91DF911F910F91FF90EF90B0
:1004E000DF90CF90BF90AF908F9008950F931F93A0
:1004F000DF93CF9300D0CDB7DEB79A83898309818C
:100500001A81E981FA81808191810E94080CF801A9
:1005100082830F900F90CF91DF911F910F910895DB
:10052000DF93CF9300D000D00F92CDB7DEB79D837D
:100530008C838C819D819A8389831B82F89482E0CD
:100540009E012F5F3F4FB9010E9403028B810F90E4
:100550000F900F900F900F90CF91DF9108950F9310
:100560001F93DF93CF9300D0CDB7DEB79A838983F3
:1005700009811A81E981FA81808191810E94280C88
:10058000F80182830F900F90CF91DF911F910F910F
:1005900008950F931F93DF93CF9300D0CDB7DEB7AD
:1005A0009A83898309811A81E981FA818081918105
:1005B0000E948A0CF80182830F900F90CF91DF91F7
:1005C0001F910F910895DF93CF9300D000D0CDB746
:1005D000DEB79C838B8380911801909119019A83D7
:1005E000898389819A810E94710C0F900F900F90DE
:1005F0000F90CF91DF910895DF93CF93CDB7DEB702
:10060000F89485E061E070E00E940302CF91DF91F1
:100610000895DF93CF9300D000D0CDB7DEB79C8391
:100620008B838B819C819A838983E981FA8183857D
:10063000882F90E084709070009741F0E981FA81F2
:1006400083858068E981FA81838707C0E981FA811F
:1006500083858064E981FA818387E981FA818385D2
:100660008D7DE981FA81838789819A810E94A9071A
:100670000E94FE000F900F900F900F90CF91DF918E
:100680000895DF93CF9300D000D000D0CDB7DEB770
:100690009E838D83F894ED81FE8182A193A19C833A
:1006A0008B83ED81FE8180A591A59A8389837894BF
:1006B00089819A81EB81FC810995F8942D813E8195
:1006C00086E0B9010E94030226960FB6F894DEBFB9
:1006D0000FBECDBFCF91DF910895DF93CF9300D0B0
:1006E000CDB7DEB79A838983E981FA8180810E9440
:1006F000DF0C0F900F90CF91DF910895DF93CF9390
:1007000000D0CDB7DEB79A83898389819A810E9410
:10071000CA0F0F900F90CF91DF910895DF93CF9381
:1007200000D0CDB7DEB79A83898389819A810E94F0
:10073000DA0F0F900F90CF91DF910895DF93CF9351
:1007400000D0CDB7DEB79A83898389819A810E94D0
:10075000FF0F0F900F90CF91DF910895DF93CF930C
:1007600000D0CDB7DEB79A83898389819A810E94B0
:1007700028100F900F90CF91DF910895DF93CF93C2
:1007800000D0CDB7DEB79A838983E981FA81808171
:100790009181E981FA8122813381B9010E94410F5F
:1007A0000F900F90CF91DF9108950F931F93DF93D8
:1007B000CF9300D0CDB7DEB79A83898309811A81A0
:1007C000E981FA81808191810E945C0FF801828326
:1007D0000F900F90CF91DF911F910F910895DF93AC
:1007E000CF9300D000D00F92CDB7DEB79D838C831E
:1007F0008C819D819A838983F8948DE09E012F5F7F
:100800003F4FB9010E9403028B810F900F900F9010
:100810000F900F90CF91DF910895DF93CF9300D089
:10082000CDB7DEB79A83898389819A810E94970F19
:100830000F900F90CF91DF910895DF93CF9300D069
:10084000CDB7DEB79A838983F89429813A818EE007
:10085000B9010E9403020F900F90CF91DF9108958C
:10086000DF93CF9300D0CDB7DEB79A838983E98138
:10087000FA8180819181E981FA812281622F0E942F
:10088000C1090F900F90CF91DF9108950F931F939F
:10089000DF93CF9300D0CDB7DEB79A8389830981E8
:1008A0001A81E981FA81808191810E94DC09F80135
:1008B00082830F900F90CF91DF911F910F91089538
:1008C0000F931F93DF93CF9300D0CDB7DEB79A83FA
:1008D000898309811A81E981FA81808191810E944D
:1008E000240AF80182830F900F90CF91DF911F911E
:1008F0000F910895DF93CF9300D0CDB7DEB79A83E1
:10090000898389819A810E94500A0F900F90CF911C
:10091000DF910895DF93CF93CDB7DEB72A970FB657
:10092000F894DEBF0FBECDBF9E838D8378876F8323
:100930005A8749878D819E819C838B838F8198857F
:100940009A8389838981EB81FC8180838B819C815F
:1009500001979C838B8389819A81892F99279A8318
:1009600089838981EB81FC8180838B819C810197C4
:100970009C838B83EB81FC8110828B819C8101970E
:100980009C838B83EB81FC8110828B819C810197FE
:100990009C838B83EB81FC8182E080838B819C81B3
:1009A00001979C838B83EB81FC8180E880838B8122
:1009B0009C8101979C838B83EB81FC8183E0808306
:1009C0008B819C8101979C838B83EB81FC8184E0EC
:1009D00080838B819C8101979C838B83EB81FC813D
:1009E00085E080838B819C8101979C838B83EB8145
:1009F000FC8186E080838B819C8101979C838B8323
:100A0000EB81FC8187E080838B819C8101979C83B3
:100A10008B83EB81FC8188E080838B819C810197B3
:100A20009C838B83EB81FC8189E080838B819C811B
:100A300001979C838B83EB81FC8180E180838B8198
:100A40009C8101979C838B83EB81FC8181E1808376
:100A50008B819C8101979C838B83EB81FC8182E15C
:100A600080838B819C8101979C838B83EB81FC81AC
:100A700083E180838B819C8101979C838B83EB81B5
:100A8000FC8184E180838B819C8101979C838B8393
:100A9000EB81FC8185E180838B819C8101979C8324
:100AA0008B83EB81FC8186E180838B819C81019724
:100AB0009C838B83EB81FC8187E180838B819C818C
:100AC00001979C838B83EB81FC8188E180838B8100
:100AD0009C8101979C838B83EB81FC8189E18083DE
:100AE0008B819C8101979C838B83EB81FC8180E2CD
:100AF00080838B819C8101979C838B83EB81FC811C
:100B000081E280838B819C8101979C838B83EB8125
:100B1000FC8182E280838B819C8101979C838B8303
:100B2000EB81FC8183E280838B819C8101979C8394
:100B30008B8389859A859A8389838981EB81FC815E
:100B400080838B819C8101979C838B8389819A818F
:100B5000892F99279A8389838981EB81FC818083FE
:100B60008B819C8101979C838B83EB81FC8186E246
:100B700080838B819C8101979C838B83EB81FC819B
:100B800087E280838B819C8101979C838B83EB819F
:100B9000FC8188E280838B819C8101979C838B837D
:100BA000EB81FC8189E280838B819C8101979C830E
:100BB0008B83EB81FC8180E380838B819C81019717
:100BC0009C838B83EB81FC8181E380838B819C817F
:100BD00001979C838B838B819C812A960FB6F89416
:100BE000DEBF0FBECDBFCF91DF910895DF93CF93CE
:100BF000CDB7DEB70E94C4008091400190914101C1
:100C000001969093410180934001CF91DF91089527
:100C1000DF93CF93CDB7DEB7809140019091410132
:100C2000009749F080914001909141010197909384
:100C300041018093400180914001909141010097D2
:100C400011F40E94CC00CF91DF910895DF93CF93F0
:100C500000D000D00F92CDB7DEB79C838B836D831D
:100C60008B819C8106969A8389838B819C810E94CB
:100C70000C0989819A816D810E947C08EB81FC813D
:100C800089819A81958384830F900F900F900F90A4
:100C90000F90CF91DF910895DF93CF93CDB7DEB75B
:100CA00028970FB6F894DEBF0FBECDBF9E838D830D
:100CB00078876F83ED81FE810480F581E02D82814C
:100CC0008C838C81282F30E081E090E002C0880F77
:100CD000991F2A95E2F78B832F8138858C81882F85
:100CE00090E0880F991F820F931F9A838983EF8169
:100CF000F88590898B818923882351F08D819E818D
:100D0000E981FA8120813181B9010E9424090EC054
:100D10008D819E81E981FA8191838083EF81F885BD
:100D200090898B81892BEF81F885808BED81FE8105
:100D30000480F581E02D8F819885918380832896AA
:100D40000FB6F894DEBF0FBECDBFCF91DF910895EF
:100D5000DF93CF93CDB7DEB72A970FB6F894DEBFF7
:100D60000FBECDBF98878F837A876987EF81F8851B
:100D70000480F581E02D82818E838E81282F30E0E2
:100D800081E090E002C0880F991F2A95E2F78D83D9
:100D900029853A858E81882F90E0880F991F820FD0
:100DA000931F9C838B83EF81F885848195819A833F
:100DB0008983E985FA8590898D818923882331F19A
:100DC0008F819885EB81FC8120813181B9010E945E
:100DD000240989819A810E949908EB81FC81808194
:100DE0009181FC01848195819A838983EF81F885C3
:100DF00089819A8195838483E981FA8183819481B1
:100E00000196E981FA819483838314C08F81988548
:100E1000EB81FC8191838083E985FA8590898D81BE
:100E2000892BE985FA85808BE981FA8189859A8504
:100E3000918380832A960FB6F894DEBF0FBECDBF94
:100E4000CF91DF910895DF93CF9300D000D00F9220
:100E5000CDB7DEB79D838C83EC81FD810480F58165
:100E6000E02D82818B83EC81FD810480F581E02D72
:100E7000808191819A838983EC81FD810480F58151
:100E8000E02D8381948182309105B8F0EC81FD8161
:100E90000480F581E02D838194810197948383837D
:100EA0000E94B308EC81FD8195838483EC81FD81F0
:100EB0000480F581E02D8B818283EC81FD8120818E
:100EC00031818C819D812817390709F58B81882F05
:100ED00090E029813A81880F991FF901E80FF91FE5
:100EE00011821082E981FA818089482F8B81282F15
:100EF00030E081E090E0022E02C0880F991F0A9432
:100F0000E2F780958423E981FA81808B1AC08B8176
:100F1000882F90E029813A81880F991FF901E80F05
:100F2000F91F208131818C819D812817390729F48F
:100F300089819A816B810E94F6108C819D810E942B
:100F400056090F900F900F900F900F90CF91DF9157
:100F50000895DF93CF9300D0CDB7DEB79A8389830E
:100F600089819A810E942307E981FA810480F581B1
:100F7000E02D118210820F900F90CF91DF91089594
:100F8000DF93CF93CDB7DEB72C970FB6F894DEBFC3
:100F90000FBECDBF9A8789877C876B8781E0888762
:100FA0001F829AC0E985FA859089888589238823DC
:100FB00009F48CC0EB85FC8590898885892388237A
:100FC00009F443C08F81882F90E029853A85880FE6
:100FD000991FF901E80FF91F808191819E838D830C
:100FE0008F81882F90E02B853C85880F991FF90110
:100FF000E80FF91F808191819C838B83ED81FE81B5
:101000000280F381E02D8B819C8191838083EB8131
:10101000FC810280F381E02D8D819E81918380830C
:10102000EB81FC81828193819A838983ED81FE81AA
:1010300082819381EB81FC8193838283ED81FE81A8
:1010400089819A819383828321C08F81682F70E088
:101050008F81882F90E029853A85880F991FF901A3
:10106000E80FF91F408151812B853C85CB01880F0A
:10107000991FF901E80FF91F51834083EB85FC8527
:1010800090898885892BEB85FC85808B8F81882FC3
:1010900090E029853A85880F991FF901E80FF91F1B
:1010A00080819181FC010480F581E02D8B859C85F8
:1010B000918380838F81882F90E029853A85880FDE
:1010C000991FF901E80FF91F118210828885880F96
:1010D00088878F818F5F8F838885882309F062CF0F
:1010E000E985FA85108A2C960FB6F894DEBF0FBEFC
:1010F000CDBFCF91DF910895DF93CF9300D00F92B2
:10110000CDB7DEB79A8389836B83E981FA81118237
:101110001082E981FA818B818283E981FA8181E001
:1011200090E0948383830F900F900F90CF91DF9185
:101130000895DF93CF9300D0CDB7DEB79A8389832C
:101140008091700190917101E981FA81918380838E
:1011500089819A8190937101809370010F900F9013
:10116000CF91DF910895DF93CF9300D0CDB7DEB755
:1011700080917001909171019A838983E981FA814C
:1011800080819181909371018093700189819A810E
:101190000F900F90CF91DF910895DF93CF9300D000
:1011A00000D000D0CDB7DEB78E831D828FEF8C8349
:1011B0008FEF8B8388E0898322C08981869589831C
:1011C0008B81282F30E08981882F90E0A90102C00F
:1011D000559547958A95E2F7CA018A839E818C814D
:1011E00098238A818923882319F08A818B8307C0F9
:1011F0008A8180958C839D818981890F8D838981E6
:101200008823D9F68D8126960FB6F894DEBF0FBEDF
:10121000CDBFCF91DF910895DF93CF9300D0CDB7AD
:10122000DEB79A838983E981FA8189819A819383E0
:101230008283E981FA8189819A81918380830F90E9
:101240000F90CF91DF910895DF93CF9300D000D01E
:1012500000D0CDB7DEB79C838B837E836D83ED8119
:10126000FE81828193819A838983EB81FC818981CC
:101270009A8193838283EB81FC818D819E8191830E
:101280008083ED81FE818B819C8193838283E981C0
:10129000FA818B819C819183808326960FB6F89486
:1012A000DEBF0FBECDBFCF91DF910895DF93CF9307
:1012B00000D000D000D0CDB7DEB79E838D83ED8106
:1012C000FE81828193819C838B83ED81FE8180816D
:1012D00091819A838983E981FA818B819C819383AF
:1012E0008283EB81FC8189819A8191838083ED8166
:1012F000FE818D819E8193838283ED81FE818D812C
:101300009E819183808326960FB6F894DEBF0FBE30
:10131000CDBFCF91DF9108958F92AF92BF92CF92C0
:10132000EF92FF920F931F93DF93CF93CDB7DEB76A
:1013300082E491E02EE132E1B90140E050E020E0AA
:1013400030E000E010E0EE24FF240F2EF7E0CF2E77
:10135000F02DAA24BB24A39488240E94620B88E168
:1013600091E022E431E0B9010E94E70DCF91DF91D5
:101370001F910F91FF90EF90CF90BF90AF908F9003
:101380000895DF93CF9300D00F92CDB7DEB79A8345
:1013900089836B8389819A810E94A010E981FA81F7
:1013A00081E0828BE981FA818B81818B0F900F9094
:1013B0000F90CF91DF910895DF93CF9300D000D0AD
:1013C0000F92CDB7DEB79D838C83EC81FD8182893E
:1013D0008B830E94D4009A838983EC81FD812189CB
:1013E00089819A81622F0E94150D8B81882341F09B
:1013F000EC81FD81128A89819A810E94980D1BC01F
:10140000E981FA8183858860E981FA818387E981AE
:10141000FA8183858D7FE981FA81838789819A8129
:101420000E94A90789819A812C813D81B9010E947E
:101430004C060E94FE008B810F900F900F900F9032
:101440000F90CF91DF910895DF93CF9300D000D01C
:101450000F92CDB7DEB79D838C83EC81FD818289AD
:101460008B830E94D4009A8389838B81882379F0AF
:10147000EC81FD81128AEC81FD81218989819A812B
:10148000622F0E94150D89819A810E94980D8B818F
:101490000F900F900F900F900F90CF91DF910895C4
:1014A000DF93CF9300D000D0CDB7DEB79C838B8382
:1014B0000E94D4009A838983EB81FC8121898981F0
:1014C0009A81622F0E94360DE981FA818385882FE7
:1014D00090E0807290700097A1F0E981FA81838595
:1014E000882F90E084709070009759F489819A81D8
:1014F0000E94A90789819A810E94570D0E94FE00CF
:1015000004C089819A810E94980DEB81FC818089B9
:10151000882329F4EB81FC8181E0828B19C08B81C7
:101520009C810E94CA109A838983E981FA8183850C
:10153000877FE981FA81838789819A810E94A9073F
:1015400089819A810E94570D89819A810E94EA0BB4
:101550000F900F900F900F90CF91DF910895DF9330
:10156000CF9300D00F92CDB7DEB79B838A83EA81F9
:10157000FB81108A19820FC08981882F90E02A810F
:101580003B81880F991FF901E80FF91F1182108222
:1015900089818F5F89838981883070F30F900F90E4
:1015A0000F90CF91DF910895DF93CF9300D00F92EA
:1015B000CDB7DEB79A8389836B838B81682F70E008
:1015C00029813A81CB01880F991FF901E80FF91F92
:1015D00080819181AC014F5F5F4F29813A81CB01BE
:1015E000880F991FF901E80FF91F51834083E981A2
:1015F000FA818089482F8B81282F30E081E090E0AC
:10160000022E02C0880F991F0A94E2F7842BE98109
:10161000FA81808B0F900F900F90CF91DF910895FA
:10162000DF93CF9300D000D0CDB7DEB79B838A8302
:101630006C838C81282F30E081E090E002C0880F1D
:10164000991F2A95E2F789838C81682F70E02A819F
:101650003B81CB01880F991FF901E80FF91F8081A9
:101660009181AC01415050402A813B81CB01880FD0
:10167000991FF901E80FF91F518340838C81882F4E
:1016800090E02A813B81880F991FF901E80FF91F2B
:1016900080819181009751F4EA81FB818089982FA4
:1016A000898180958923EA81FB81808BEA81FB8196
:1016B0009089898189230F900F900F900F90CF917F
:1016C000DF9108958F92AF92BF92CF92EF92FF92E7
:1016D0000F931F93DF93CF93CDB7DEB761970FB60C
:1016E000F894DEBF0FBECDBF9A8389837C836B8362
:1016F0005E834D8338872F831A870987FC86EB86A4
:10170000CD86BF86AE86888A89819A816D850E9442
:1017100026068889898B8989882311F081E0898B45
:101720008989E981FA81838789819A810D960E944E
:10173000AF0AE981FA818D8584878E859F85E9814D
:10174000FA81978F868F8E859F85E981FA8191A393
:1017500080A3E981FA818B819C8193A382A3E98193
:10176000FA818D819E8195A384A3E981FA818F817D
:10177000988597A386A3E981FA8189859A8591A79F
:1017800080A7E981FA818B859C8593A782A78B85A9
:101790009C85009771F041E453E08B859C852981FD
:1017A0003A81BA01A9010E94DF00E981FA8195A777
:1017B00084A761960FB6F894DEBF0FBECDBFCF9160
:1017C000DF911F910F91FF90EF90CF90BF90AF905E
:1017D0008F900895DF93CF9300D0CDB7DEB79A8373
:1017E0008983E981FA8183858260E981FA8183872F
:1017F00089819A8120911A0130911B01B9010E94BF
:101800004C060E94FE000F900F90CF91DF9108953B
:10181000DF93CF9300D00F92CDB7DEB79B838A833F
:1018200081E08983EA81FB818385882F90E08A7D2E
:101830009070009711F0198204C08A819B810E94E8
:10184000EA0B89810F900F900F90CF91DF9108954F
:10185000DF93CF9300D00F92CDB7DEB79B838A83FF
:1018600081E08983EA81FB818385882F90E08E7BEC
:101870009070009711F019822DC0EA81FB81838559
:101880008170EA81FB8183878A819B810D960E940A
:10189000AF0AEA81FB81868D978DEA81FB8191A356
:1018A00080A3EA81FB8182A593A5009779F0EA8164
:1018B000FB8182A593A521E433E04A815B81B901D4
:1018C0000E94DF00EA81FB8195A784A78A819B8122
:1018D0000E94EA0B89810F900F900F90CF91DF91BA
:1018E0000895DF93CF9300D0CDB7DEB79A83898375
:1018F000E981FA8183858D7FE981FA8183878981F6
:101900009A810E94A9070E94FE000F900F90CF912C
:10191000DF910895DF93CF9300D00F92CDB7DEB75C
:101920009B838A831982EA81FB818385882F90E0DB
:101930008C719070009741F0EA81FB818385806211
:10194000EA81FB8183870FC0EA81FB818385882F31
:1019500090E082709070009731F08A819B810E94A4
:10196000710C81E0898389810F900F900F90CF9146
:10197000DF910895DF93CF9300D0CDB7DEB70E94FB
:10198000F60580911801909119019A838983E98164
:10199000FA818385882F90E081709070882341F0D0
:1019A000E981FA81868D978DE981FA8191A380A3DF
:1019B0000E9408060F900F90CF91DF910895DF935A
:1019C000CF9300D00F92CDB7DEB78B830E94D400A7
:1019D0009A838983E981FA8193858B818923E981BF
:1019E000FA818387E981FA818385882F90E080726C
:1019F00090700097A1F0E981FA818385882F90E0AB
:101A000084709070009759F4E981FA8183858F7D05
:101A1000E981FA81838789819A810E94710C0F90F4
:101A20000F900F90CF91DF910895DF93CF9300D067
:101A30000F92CDB7DEB79A8389836B83E981FA81F0
:101A4000858D882339F4E981FA8183858460E98171
:101A5000FA81838789819A810D966B810E94D40ACD
:101A60000F900F900F90CF91DF910895DF93CF9358
:101A700000D00F92CDB7DEB79A8389836B838981BB
:101A80009A810D966B810E94100BE981FA81858DF8
:101A9000882339F4E981FA8183858B7FE981FA8192
:101AA00083870F900F900F90CF91DF910895DF9370
:101AB000CF93CDB7DEB727970FB6F894DEBF0FBE32
:101AC000CDBF9B838A83EA81FB81858D8823E9F0E2
:101AD000EA81FB81858D0E94CD088983EA81FB81A3
:101AE000848195819E838D83EA81FB8184859981A0
:101AF0009F838C83EC81FF81FE1710F48F818C8390
:101B00008C81ED81FE8182830AC0EA81FB81A48100
:101B1000B581EA81FB81848512968C931297279672
:101B20000FB6F894DEBF0FBECDBFCF91DF91089501
:101B3000DF93CF9300D000D000D0CDB7DEB79C8329
:101B40008B83EB81FC81858D8823A9F0EB81FC815F
:101B5000858D0E94CD088983EB81FC8184859981E4
:101B60009E838D838D819E81981710F48E818D8345
:101B70009D819A8304C0EB81FC8184858A83EB81FB
:101B8000FC810480F581E02D92818A819817B1F063
:101B90008B819C810E94A907EB81FC810480F581E7
:101BA000E02D8A8182838B819C8120911A01309162
:101BB0001B01B9010E944C060E94FE0026960FB63A
:101BC000F894DEBF0FBECDBFCF91DF910895DF93B4
:101BD000CF9300D000D0CDB7DEB79A8389837C83C2
:101BE0006B8389819A810696E981FA819383828346
:101BF000E981FA81828193810E94A01089819A8172
:101C00004796E981FA8195838483E981FA81848109
:101C100095810E94A0108B819C81E981FA812281AB
:101C20003381B9010E944C06E981FA818B819C8144
:101C300091838083E981FA8111A610A60F900F90FD
:101C40000F900F90CF91DF910895DF93CF9300D045
:101C500000D0CDB7DEB79C838B83EB81FC81028003
:101C6000F381E02D80898823A1F4EB81FC818281BE
:101C700093819A838983EB81FC8184819581EB81B7
:101C8000FC8193838283EB81FC8189819A81958396
:101C900084830F900F900F900F90CF91DF91089554
:101CA000DF93CF9300D000D00F92CDB7DEB788E19D
:101CB00091E09D838C83EC81FD81808191819B8368
:101CC0008A83EA81FB8184A195A1009751F0EA8182
:101CD000FB8124A135A1EA81FB8180A591A5F901B1
:101CE0000995EA81FB810480F581E02D8081918155
:101CF0009C01EC81FD81828193812817390709F0CD
:101D00004DC0EC81FD8182819381EA81FB81048059
:101D1000F581E02D2281622F0E94F610EA81FB817D
:101D200080A191A18230910550F0EA81FB8180A1D0
:101D300091A10197EA81FB8191A380A32FC08A81A1
:101D40009B810E942307EA81FB81838589838981A6
:101D5000882F90E081709070009791F4EA81FB8168
:101D6000868D978DEA81FB8191A380A38A819B81D7
:101D7000EC81FD8124813581B9010E944C060EC0A1
:101D8000EA81FB810480F581E02D11821082EA81D5
:101D9000FB8183858D7FEA81FB8183878C819D8197
:101DA0000E94250EEC81FD81828193810E94CA10E0
:101DB0009B838A83EC81FD818A819B8191838083CF
:101DC000EA81FB8186A197A1009751F0EA81FB810E
:101DD00026A137A1EA81FB8180A591A5F90109958A
:101DE0000F900F900F900F900F90CF91DF9108956B
:101DF000DF93CF9300D000D0CDB7DEB788E191E07C
:101E00009C838B83EB81FC81808191819A83898380
:101E1000E981FA8184A195A1009751F0E981FA81C5
:101E200024A135A1E981FA8180A591A5F90109953F
:101E30008B819C810E94250EEB81FC8182819381A4
:101E40000E94CA109A838983EB81FC8189819A81DF
:101E500091838083E981FA8186A197A1009751F04F
:101E6000E981FA8126A137A1E981FA8180A591A5AE
:101E7000F90109950F900F900F900F90CF91DF917E
:101E80000895DF93CF9300D000D0CDB7DEB79A830B
:101E900089837C836B8389819A810E94A010E98168
:101EA000FA818B819C81928B818B0F900F900F9088
:101EB0000F90CF91DF910895DF93CF9300D000D0A2
:101EC0000F92CDB7DEB79D838C831B82EC81FD81A1
:101ED00081899289009761F0EC81FD8181899289E5
:101EE0000197EC81FD81928B818B81E08B8316C001
:101EF0000E94D4009A838983E981FA81838588606E
:101F0000E981FA81838789819A810E94710C898194
:101F10009A812C813D81B9010E944C068B810F90E2
:101F20000F900F900F900F90CF91DF910895DF9356
:101F3000CF9300D000D0CDB7DEB79C838B83EB81ED
:101F4000FC818089882351F4EB81FC81818992890D
:101F50000196EB81FC81928B818B15C08B819C81DA
:101F60000E94CA109A838983E981FA818385877FD9
:101F7000E981FA81838789819A810E94A9078981F1
:101F80009A810E94EA0B0F900F900F900F90CF91C3
:101F9000DF910895DF93CF9300D0CDB7DEB79A835A
:101FA000898389819A810E94A0100F900F90CF9110
:101FB000DF910895DF93CF9300D000D0CDB7DEB787
:101FC0009C838B830E94D4009A83898389819A8120
:101FD0000E94710CE981FA8183858061E981FA812F
:101FE000838789819A812B813C81B9010E94A8064F
:101FF0000F900F900F900F90CF91DF910895DF9386
:10200000CF9300D000D0CDB7DEB79C838B83EB811C
:10201000FC8180898823A9F08B819C810E94CA1051
:102020009A83898389819A810E94230789819A8171
:1020300020911A0130911B01B9010E944C060E94A7
:10204000FE000F900F900F900F90CF91DF910895A9
:10205000DF93CF9300D0CDB7DEB79A8389832091E9
:102060001A0130911B0189819A81B9010E94C00730
:102070000E94FE000F900F90CF91DF910895DF93A3
:10208000CF9300D0CDB7DEB79A8389830E94F6053F
:102090008091720190917301E981FA81918380832B
:1020A0000E9408060F900F90CF91DF910895DF9363
:1020B000CF9300D000D0CDB7DEB79C838B830E9436
:1020C000F60520917201309173018B819C81A901E9
:1020D000481B590BCA019A8389830E94080689818B
:1020E0009A810F900F900F900F90CF91DF910895EC
:1020F000DF93CF9300D000D00F92CDB7DEB79D8392
:102100008C8381E08983CE0102960E943F100DC02E
:102110008A819B810E9457109C018C819D8119822C
:102120002817390710F481E089838981882381F792
:102130000F900F900F900F900F90CF91DF91089517
:10214000DF93CF9300D000D0CDB7DEB79C838B83D5
:10215000EB81FC81108A1A82198210C089819A81D0
:102160002B813C81880F991FF901E80FF91F11821B
:10217000108289819A8101969A83898389819A81C3
:102180008830910558F30F900F900F900F90CF91DA
:10219000DF910895DF93CF9300D000D00F92CDB799
:1021A000DEB79D838C831B821A82EC81FD8180893E
:1021B00089838981882381F089810E94CD08882FB5
:1021C00090E02C813D81880F991FF901E80FF91FDC
:1021D000808191819B838A838A819B810F900F905C
:1021E0000F900F900F90CF91DF910895DF93CF93D1
:1021F00000D000D00F92CDB7DEB79C838B836D8368
:102200002B813C818D81882F90E0880F991F820F50
:10221000931F9A838983E981FA810190F081E02DEF
:1022200080819181E981FA81918380830F900F9061
:102230000F900F900F90CF91DF910895DF93CF9380
:10224000CDB7DEB7ABE2B0E0EBE2F0E080818460D6
:102250008C93ABE2B0E0EBE2F0E08081877F8C937F
:10226000ABE2B0E0EBE2F0E080818B7F8C93ABE2FD
:10227000B0E0EBE2F0E0808188608C93CF91DF9159
:102280000895DF93CF93CDB7DEB7A0E7B0E0E0E7E6
:10229000F0E0808182608C93CF91DF910895DF938D
:1022A000CF93CDB7DEB7A0E7B0E0E0E7F0E0808104
:1022B0008D7F8C93CF91DF910895DF93CF9300D0E2
:1022C000CDB7DEB79A838983A5E2B0E0E5E2F0E01E
:1022D000908180E189278C930F900F90CF91DF91AF
:1022E0000895DF93CF9300D0CDB7DEB79A8389836B
:1022F000A5E2B0E0E5E2F0E0908188E089278C93E8
:102300000F900F90CF91DF910895DF93CF9300D07E
:10231000CDB7DEB79A838983A5E2B0E0E5E2F0E0CD
:10232000908184E089278C930F900F90CF91DF915B
:102330000895DF93CF9300D0CDB7DEB79A8389831A
:10234000A5E2B0E0E5E2F0E0908182E089278C939D
:102350000F900F90CF91DF910895DF93CF9300D02E
:10236000CDB7DEB79A838983A5E2B0E0E5E2F0E07D
:10237000908180E289278C93ABE2B0E0EBE2F0E061
:10238000908180E489278C93ABE2B0E0EBE2F0E04F
:10239000908180E289278C930F900F90CF91DF91ED
:1023A0000895DF93CF9300D0CDB7DEB79A838983AA
:1023B0008CE292E00E94EF0384E690E00E947810A5
:1023C0008CE292E00E941D04F3CFDF93CF9300D004
:1023D000CDB7DEB79A8389838CE292E00E94EF0347
:1023E00084E690E00E9478108CE292E00E941D0446
:1023F000F3CFDF93CF9300D0CDB7DEB79A83898335
:102400008CE292E00E94EF030E94BA0C0E94FC0250
:102410008CE292E00E941D04F3CFDF93CF9300D0B3
:102420000F92CDB7DEB79B838A83198203C089815F
:102430008F5F898389818A30D0F3F7CFDF93CF9381
:1024400000D0CDB7DEB79A83898388EE93E00E94EF
:10245000781080ED91E00E949002F7CF8F92AF92BA
:10246000BF92CF92EF92FF920F931F93DF93CF9380
:10247000CDB7DEB70E942D01E0EBF0E082E0808373
:10248000E1EBF0E085E08083E3EBF0E08CE7808334
:10249000E4EBF0E01082E0E7F0E01082E7E3F0E048
:1024A0001082E9E6F0E088E08083EDE3F0E082E08E
:1024B0008083ACE3B0E0ECE3F0E0808182608C9359
:1024C000E4E2F0E08FE38083E5E2F0E01082E7E20F
:1024D000F0E08FE38083E8E2F0E01082EAE2F0E0EF
:1024E0008EEF8083EBE2F0E01082ABE2B0E0EBE253
:1024F000F0E0808180618C93ABE2B0E0EBE2F0E051
:10250000808188608C93ABE2B0E0EBE2F0E0808108
:1025100080628C938FE392E0DC01A158BF4F84E787
:1025200091E021ED31E14DE551E1EDE5F1E1B90158
:102530009F0100E010E07D01CC24C394AA24BB24B9
:102540006894A1F888240E94620B8FE392E0DC017A
:10255000A150BF4F82EA91E025EE31E141E751E120
:10256000E1E7F1E1B9019F0100E010E07D01CC2439
:102570006894C1F80F2EF3E0AF2EBB24F02D882411
:102580000E94620B8FE392E0DC01A158BE4F80ED08
:1025900091E029EF31E145E851E1E5E8F1E1B901E8
:1025A0009F0100E010E07D01CC246894C1F8AA24CA
:1025B000BB246894A2F8882483940E94620B8FE362
:1025C00092E0DC01A150BE4F8EEF91E02DE032E1B0
:1025D00049E951E1E9E9F1E1B9019F0100E010E0C9
:1025E0007D010F2EF3E0CF2EF02DAA24BB2468949A
:1025F000A2F888240E94620B8DEA91E19093690110
:10260000809368018DEA91E1909367018093660160
:1026100084E791E00E94080C82EA91E00E94080C95
:1026200080ED91E00E94080C8EEF91E00E94080C72
:102630008CE292E061E070E00E94410F0E943D0157
:1026400080E090E0CF91DF911F910F91FF90EF908C
:0E265000CF90BF90AF908F900895F894FFCF79
:02265E00010079
:00000001FF
