:100000000C9446000C9463000C9463000C94630001
:100010000C9463000C9463000C9463000C94200116
:100020000C9463000C9463000C9463000C946300C4
:100030000C9463000C9463000C9463000C946300B4
:100040000C9463000C9463000C9463000C946300A4
:100050000C9463000C9463000C9463000C94630094
:100060000C9463000C946300D5011E023802520206
:100070006C028502E802F9020903360358037A0389
:100080009103AB03BB03D103EB03050411241FBE93
:10009000CFEFD8E0DEBFCDBF11E0A0E0B1E0EAEBEA
:1000A000F4E202C005900D92A230B107D9F714E036
:1000B000A2E0B1E001C01D92AB34B107E1F70E94AC
:1000C0005A110C945B120C9400002F922FB62F92B1
:1000D0003F924F925F926F927F928F929F92AF92D8
:1000E000BF92CF92DF92EF92FF920F931F932F93C5
:1000F0003F934F935F936F937F938F939F93AF93B0
:10010000BF93CF93DF93EF93FF93EDB7FEB721A19A
:1001100030A101A210A211248DB79EB72F933F9357
:1001200008953F912F919EBF8DBFFEB7EDB710A0F0
:1001300001A030A321A3FF91EF91DF91CF91BF9157
:10014000AF919F918F917F916F915F914F913F916F
:100150002F911F910F91FF90EF90DF90CF90BF9064
:10016000AF909F908F907F906F905F904F903F9057
:100170002F902FBE2F9008951F900F909EBF8DBF80
:100180000F921F9211240895DF93CF93CDB7DEB75E
:10019000F894CF91DF910895DF93CF93CDB7DEB779
:1001A0007894CF91DF910895DF93CF93CDB7DEB7E9
:1001B0008091150190911601CF91DF910895DF9301
:1001C000CF9300D000D000D0CDB7DEB79A8389831B
:1001D0007C836B835E834D8389819A812B813C81F3
:1001E0004D815E81B9010E94150426960FB6F894E0
:1001F000DEBF0FBECDBFCF91DF910895DF93CF93C8
:10020000CDB7DEB780910001816080930001CF916E
:10021000DF910895DF93CF93CDB7DEB780910001D2
:10022000882F90E081709070882339F080910001D0
:100230008E7F809300010E945E0ECF91DF91089522
:1002400000911501109116010E946500F80195A713
:1002500084A780916B0190916C010E94BC008091F9
:100260006F019091700101969093700180936F01DE
:100270000E94B60DE0911501F091160184A595A597
:100280000E9491001895DF93CF93CDB7DEB7F89415
:1002900081E090E090933E0180933D010E94170918
:1002A000CF91DF910895DF93CF93CDB7DEB70E9452
:1002B000841010923E0110923D01789480E090E00D
:1002C0000E944A11CF91DF910895DF93CF9300D020
:1002D00000D000D0CDB7DEB780910201882329F18C
:1002E0008091020181508093020180910201882F48
:1002F00090E0880F991F88599F4F9C838B838B8137
:100300009C81FC01859194919A838983FC83EB8382
:1003100089819A819E838D8380910301909104014C
:10032000ED81FE8109951092020126960FB6F89490
:10033000DEBF0FBECDBFCF91DF91089500911501B3
:10034000109116010E946500F80195A784A780917D
:100350006B0190916C010E94BC000E9465010E949B
:100360000A01E0911501F091160184A595A50E945E
:1003700091001895DF93CF9300D00F92CDB7DEB7E1
:1003800089837B836A83F8948981809302018A81BF
:100390009B8190930401809303010E949E010F9022
:1003A0000F900F90CF91DF9108958F92AF92BF92EF
:1003B000CF92DF92EF92FF920F931F93DF93CF9331
:1003C00000D0CDB7DEB79A838983E981FA81808135
:1003D0009181E981FA8122813381E981FA81448125
:1003E0005581E981FA8106811781E981FA81E084EA
:1003F000F184E981FA81C284D384E981FA81B484E9
:10040000E981FA81A585B685E981FA81E785B90197
:10041000980187017601CB2C5D018E2E0E94ED0A9A
:100420000F900F90CF91DF911F910F91FF90EF9060
:10043000DF90CF90BF90AF908F9008950F931F9350
:10044000DF93CF9300D0CDB7DEB79A83898309813C
:100450001A81E981FA81808191810E94930BF801D0
:1004600082830F900F90CF91DF911F910F9108958C
:100470000F931F93DF93CF9300D0CDB7DEB79A834E
:10048000898309811A81E981FA81808191810E94A1
:10049000B30BF80182830F900F90CF91DF911F91E2
:1004A0000F9108950F931F93DF93CF9300D0CDB793
:1004B000DEB79A83898309811A81E981FA81808173
:1004C00091810E94150CF80182830F900F90CF91BB
:1004D000DF911F910F910895DF93CF9300D000D04B
:1004E000CDB7DEB79C838B83809115019091160167
:1004F0009A83898389819A810E94FC0B0F900F90C7
:100500000F900F90CF91DF910895DF93CF9300D09C
:1005100000D0CDB7DEB79C838B838B819C819A837F
:100520008983E981FA818385882F90E084709070B7
:10053000009741F0E981FA8183858068E981FA8139
:10054000838707C0E981FA8183858064E981FA8124
:100550008387E981FA8183858D7DE981FA818387AB
:1005600089819A810E9434070E94FE000F900F90AB
:100570000F900F90CF91DF910895DF93CF9300D02C
:1005800000D000D0CDB7DEB79E838D83F894ED8187
:10059000FE8182A193A19C838B83ED81FE8180A546
:1005A00091A59A838983789489819A81EB81FC81D2
:1005B00009952D813E8186E0B9010E94BA012696F7
:1005C0000FB6F894DEBF0FBECDBFCF91DF91089577
:1005D000DF93CF9300D0CDB7DEB79A838983E981CB
:1005E000FA8180810E94450C0F900F90CF91DF918E
:1005F0000895DF93CF9300D0CDB7DEB79A83898378
:1006000089819A810E94300F0F900F90CF91DF91D6
:100610000895DF93CF9300D0CDB7DEB79A83898357
:1006200089819A810E94400F0F900F90CF91DF91A6
:100630000895DF93CF9300D00F92CDB7DEB79B83A1
:100640008A838FEE89832A813B8189E0B9010E94E8
:10065000BA0187E09E012F5F3F4FB9010E94BA01A6
:100660000F900F900F90CF91DF910895DF93CF936C
:1006700000D0CDB7DEB79A83898389819A810E94A1
:10068000650F0F900F90CF91DF910895DF93CF9377
:1006900000D0CDB7DEB79A83898329813A818AE079
:1006A000B9010E94BA010F900F90CF91DF91089588
:1006B000DF93CF9300D0CDB7DEB79A83898389814A
:1006C0009A810E948E0F0F900F90CF91DF91089525
:1006D000DF93CF9300D0CDB7DEB79A83898329818A
:1006E0003A818BE0B9010E94BA010F900F90CF912F
:1006F000DF910895DF93CF9300D0CDB7DEB79A8313
:100700008983E981FA8180819181E981FA8122815D
:100710003381B9010E94A70E0F900F90CF91DF9106
:1007200008950F931F93DF93CF9300D0CDB7DEB71B
:100730009A83898309811A81E981FA818081918173
:100740000E94C20EF80182830F900F90CF91DF912B
:100750001F910F910895DF93CF9300D0CDB7DEB7EF
:100760009A83898389819A810E94FD0E0F900F9050
:10077000CF91DF910895DF93CF9300D0CDB7DEB74F
:100780009A838983E981FA8180819181E981FA8163
:100790002281622F0E944C090F900F90CF91DF9120
:1007A00008950F931F93DF93CF9300D0CDB7DEB79B
:1007B0009A83898309811A81E981FA8180819181F3
:1007C0000E946709F80182830F900F90CF91DF910B
:1007D0001F910F9108950F931F93DF93CF9300D034
:1007E000CDB7DEB79A83898309811A81E981FA81BD
:1007F000808191810E94AF09F80182830F900F9050
:10080000CF91DF911F910F910895DF93CF9300D087
:10081000CDB7DEB79A83898389819A810E94DB09EB
:100820000F900F90CF91DF910895DF93CF93CDB7C5
:10083000DEB72A970FB6F894DEBF0FBECDBF9E83FA
:100840008D8378876F835A8749878D819E819C83AA
:100850008B838F8198859A8389838981EB81FC8141
:1008600080838B819C8101979C838B8389819A8172
:10087000892F99279A8389838981EB81FC818083E1
:100880008B819C8101979C838B83EB81FC811082FF
:100890008B819C8101979C838B83EB81FC811082EF
:1008A0008B819C8101979C838B83EB81FC8182E00F
:1008B00080838B819C8101979C838B83EB81FC815E
:1008C00080E880838B819C8101979C838B83EB8163
:1008D000FC8183E080838B819C8101979C838B8347
:1008E000EB81FC8184E080838B819C8101979C83D8
:1008F0008B83EB81FC8185E080838B819C810197D8
:100900009C838B83EB81FC8186E080838B819C813F
:1009100001979C838B83EB81FC8187E080838B81B3
:100920009C8101979C838B83EB81FC8188E0808391
:100930008B819C8101979C838B83EB81FC8189E077
:1009400080838B819C8101979C838B83EB81FC81CD
:1009500080E180838B819C8101979C838B83EB81D9
:10096000FC8181E180838B819C8101979C838B83B7
:10097000EB81FC8182E180838B819C8101979C8348
:100980008B83EB81FC8183E180838B819C81019748
:100990009C838B83EB81FC8184E180838B819C81B0
:1009A00001979C838B83EB81FC8185E180838B8124
:1009B0009C8101979C838B83EB81FC8186E1808302
:1009C0008B819C8101979C838B83EB81FC8187E1E8
:1009D00080838B819C8101979C838B83EB81FC813D
:1009E00088E180838B819C8101979C838B83EB8141
:1009F000FC8189E180838B819C8101979C838B831F
:100A0000EB81FC8180E280838B819C8101979C83B8
:100A10008B83EB81FC8181E280838B819C810197B8
:100A20009C838B83EB81FC8182E280838B819C8120
:100A300001979C838B83EB81FC8183E280838B8194
:100A40009C8101979C838B8389859A859A8389836E
:100A50008981EB81FC8180838B819C8101979C83C0
:100A60008B8389819A81892F99279A8389838981A8
:100A7000EB81FC8180838B819C8101979C838B839C
:100A8000EB81FC8186E280838B819C8101979C8332
:100A90008B83EB81FC8187E280838B819C81019732
:100AA0009C838B83EB81FC8188E280838B819C819A
:100AB00001979C838B83EB81FC8189E280838B810E
:100AC0009C8101979C838B83EB81FC8180E38083F5
:100AD0008B819C8101979C838B83EB81FC8181E3DB
:100AE00080838B819C8101979C838B838B819C81EC
:100AF0002A960FB6F894DEBF0FBECDBFCF91DF911F
:100B00000895DF93CF93CDB7DEB70E94C4008091E4
:100B10003D0190913E01019690933E0180933D01ED
:100B2000CF91DF910895DF93CF93CDB7DEB780915A
:100B30003D0190913E01009749F080913D019091D7
:100B40003E01019790933E0180933D0180913D01CC
:100B500090913E01009711F40E94CC00CF91DF915B
:100B60000895DF93CF9300D000D00F92CDB7DEB7BA
:100B70009C838B836D838B819C8106969A8389836A
:100B80008B819C810E94970889819A816D810E9446
:100B90000708EB81FC8189819A81958384830F907A
:100BA0000F900F900F900F90CF91DF910895DF93EA
:100BB000CF93CDB7DEB728970FB6F894DEBF0FBE40
:100BC000CDBF9E838D8378876F83ED81FE81048006
:100BD000F581E02D82818C838C81282F30E081E0AB
:100BE00090E002C0880F991F2A95E2F78B832F812E
:100BF00038858C81882F90E0880F991F820F931F72
:100C00009A838983EF81F88590898B818923882352
:100C100051F08D819E81E981FA8120813181B90174
:100C20000E94AF080EC08D819E81E981FA81918377
:100C30008083EF81F88590898B81892BEF81F885FE
:100C4000808BED81FE810480F581E02D8F81988578
:100C50009183808328960FB6F894DEBF0FBECDBF78
:100C6000CF91DF910895DF93CF93CDB7DEB72A9769
:100C70000FB6F894DEBF0FBECDBF98878F837A87FB
:100C80006987EF81F8850480F581E02D82818E836C
:100C90008E81282F30E081E090E002C0880F991FFC
:100CA0002A95E2F78D8329853A858E81882F90E0F9
:100CB000880F991F820F931F9C838B83EF81F88588
:100CC000848195819A838983E985FA8590898D81CC
:100CD0008923882331F18F819885EB81FC812081E4
:100CE0003181B9010E94AF0889819A810E9424084C
:100CF000EB81FC8180819181FC01848195819A83C3
:100D00008983EF81F88589819A8195838483E9813C
:100D1000FA81838194810196E981FA8194838383A6
:100D200014C08F819885EB81FC8191838083E98554
:100D3000FA8590898D81892BE985FA85808BE981F7
:100D4000FA8189859A85918380832A960FB6F894D3
:100D5000DEBF0FBECDBFCF91DF910895DF93CF935C
:100D600000D000D00F92CDB7DEB79D838C83EC818D
:100D7000FD810480F581E02D82818B83EC81FD81F2
:100D80000480F581E02D808191819A838983EC81B3
:100D9000FD810480F581E02D83819481823091056D
:100DA000B8F0EC81FD810480F581E02D8381948190
:100DB0000197948383830E943E08EC81FD81958393
:100DC0008483EC81FD810480F581E02D8B81828319
:100DD000EC81FD81208131818C819D81281739072B
:100DE00009F58B81882F90E029813A81880F991F1E
:100DF000F901E80FF91F11821082E981FA818089D7
:100E0000482F8B81282F30E081E090E0022E02C035
:100E1000880F991F0A94E2F780958423E981FA816B
:100E2000808B1AC08B81882F90E029813A81880FAE
:100E3000991FF901E80FF91F208131818C819D8173
:100E40002817390729F489819A816B810E945C10E7
:100E50008C819D810E94E1080F900F900F900F9060
:100E60000F90CF91DF910895DF93CF9300D0CDB74E
:100E7000DEB79A83898389819A810E94AE06E981CF
:100E8000FA810480F581E02D118210820F900F907D
:100E9000CF91DF910895DF93CF93CDB7DEB72C9735
:100EA0000FB6F894DEBF0FBECDBF9A8789877C87C7
:100EB0006B8781E088871F829AC0E985FA859089CF
:100EC00088858923882309F48CC0EB85FC8590896B
:100ED00088858923882309F443C08F81882F90E077
:100EE00029853A85880F991FF901E80FF91F80813C
:100EF00091819E838D838F81882F90E02B853C8507
:100F0000880F991FF901E80FF91F808191819C8357
:100F10008B83ED81FE810280F381E02D8B819C81AA
:100F200091838083EB81FC810280F381E02D8D81B0
:100F30009E8191838083EB81FC81828193819A835E
:100F40008983ED81FE8182819381EB81FC81938392
:100F50008283ED81FE8189819A819383828321C07E
:100F60008F81682F70E08F81882F90E029853A85E6
:100F7000880F991FF901E80FF91F408151812B85D6
:100F80003C85CB01880F991FF901E80FF91F5183A8
:100F90004083EB85FC8590898885892BEB85FC85D2
:100FA000808B8F81882F90E029853A85880F991F43
:100FB000F901E80FF91F80819181FC010480F5811E
:100FC000E02D8B859C85918380838F81882F90E095
:100FD00029853A85880F991FF901E80FF91F1182B9
:100FE00010828885880F88878F818F5F8F8388859F
:100FF000882309F062CFE985FA85108A2C960FB60E
:10100000F894DEBF0FBECDBFCF91DF910895DF937F
:10101000CF9300D00F92CDB7DEB79A8389836B83CD
:10102000E981FA8111821082E981FA818B818283C0
:10103000E981FA8181E090E0948383830F900F909F
:101040000F90CF91DF910895DF93CF9300D0CDB76C
:10105000DEB79A83898380916D0190916E01E98159
:10106000FA819183808389819A8190936E01809324
:101070006D010F900F90CF91DF910895DF93CF9383
:1010800000D0CDB7DEB780916D0190916E019A834B
:101090008983E981FA818081918190936E018093A7
:1010A0006D0189819A810F900F90CF91DF91089502
:1010B000DF93CF9300D000D000D0CDB7DEB78E83C2
:1010C0001D828FEF8C838FEF8B8388E0898322C012
:1010D0008981869589838B81282F30E08981882FAB
:1010E00090E0A90102C0559547958A95E2F7CA019B
:1010F0008A839E818C8198238A818923882319F091
:101100008A818B8307C08A8180958C839D818981A8
:10111000890F8D8389818823D9F68D8126960FB614
:10112000F894DEBF0FBECDBFCF91DF910895DF935E
:10113000CF9300D0CDB7DEB79A838983E981FA8156
:1011400089819A8193838283E981FA8189819A8155
:10115000918380830F900F90CF91DF910895DF935B
:10116000CF9300D000D000D0CDB7DEB79C838B8367
:101170007E836D83ED81FE81828193819A83898351
:10118000EB81FC8189819A8193838283EB81FC814D
:101190008D819E8191838083ED81FE818B819C81F5
:1011A00093838283E981FA818B819C8191838083FF
:1011B00026960FB6F894DEBF0FBECDBFCF91DF915C
:1011C0000895DF93CF9300D000D000D0CDB7DEB725
:1011D0009E838D83ED81FE81828193819C838B83AD
:1011E000ED81FE81808191819A838983E981FA81F1
:1011F0008B819C8193838283EB81FC8189819A819D
:1012000091838083ED81FE818D819E819383828392
:10121000ED81FE818D819E819183808326960FB61C
:10122000F894DEBF0FBECDBFCF91DF9108958F92AE
:10123000AF92BF92CF92EF92FF920F931F93DF93E3
:10124000CF93CDB7DEB78FE391E02AE431E1B90166
:1012500040E050E020E030E000E010E0EE24FF2429
:101260000F2EF7E0CF2EF02DAA24BB24A3948824C0
:101270000E94ED0A85E191E02FE331E0B9010E947F
:101280004D0DCF91DF911F910F91FF90EF90CF9077
:10129000BF90AF908F900895DF93CF9300D00F92BF
:1012A000CDB7DEB79A8389836B8389819A810E9447
:1012B0000610E981FA8181E0828BE981FA818B81D4
:1012C000818B0F900F900F90CF91DF910895DF9356
:1012D000CF9300D000D00F92CDB7DEB79D838C8323
:1012E000EC81FD8182898B830E94D4009A8389835B
:1012F000EC81FD81218989819A81622F0E947B0C7A
:101300008B81882341F0EC81FD81128A89819A8149
:101310000E94FE0C1BC0E981FA8183858860E98107
:10132000FA818387E981FA8183858D7FE981FA815A
:10133000838789819A810E94340789819A812C81CF
:101340003D81B9010E94D7050E94FE008B810F905C
:101350000F900F900F900F90CF91DF910895DF9332
:10136000CF9300D000D00F92CDB7DEB79D838C8392
:10137000EC81FD8182898B830E94D4009A838983CA
:101380008B81882379F0EC81FD81128AEC81FD81CB
:10139000218989819A81622F0E947B0C89819A819F
:1013A0000E94FE0C8B810F900F900F900F900F906A
:1013B000CF91DF910895DF93CF9300D000D0CDB7C8
:1013C000DEB79C838B830E94D4009A838983EB8150
:1013D000FC81218989819A81622F0E949C0CE9817C
:1013E000FA818385882F90E0807290700097A1F039
:1013F000E981FA818385882F90E08470907000974E
:1014000059F489819A810E94340789819A810E94C6
:10141000BD0C0E94FE0004C089819A810E94FE0CCE
:10142000EB81FC818089882329F4EB81FC8181E0B8
:10143000828B19C08B819C810E9430109A83898392
:10144000E981FA818385877FE981FA8183878981B0
:101450009A810E94340789819A810E94BD0C8981FA
:101460009A810E94750B0F900F900F900F90CF9163
:10147000DF910895DF93CF9300D00F92CDB7DEB701
:101480009B838A83EA81FB81108A19820FC089813C
:10149000882F90E02A813B81880F991FF901E80F7E
:1014A000F91F1182108289818F5F89838981883039
:1014B00070F30F900F900F90CF91DF910895DF930D
:1014C000CF9300D00F92CDB7DEB79A8389836B8319
:1014D0008B81682F70E029813A81CB01880F991F99
:1014E000F901E80FF91F80819181AC014F5F5F4FD7
:1014F00029813A81CB01880F991FF901E80FF91F63
:1015000051834083E981FA818089482F8B81282F7C
:1015100030E081E090E0022E02C0880F991F0A940B
:10152000E2F7842BE981FA81808B0F900F900F9066
:10153000CF91DF910895DF93CF9300D000D0CDB746
:10154000DEB79B838A836C838C81282F30E081E017
:1015500090E002C0880F991F2A95E2F789838C8159
:10156000682F70E02A813B81CB01880F991FF90118
:10157000E80FF91F80819181AC01415050402A81D0
:101580003B81CB01880F991FF901E80FF91F5183A7
:1015900040838C81882F90E02A813B81880F991F9E
:1015A000F901E80FF91F80819181009751F4EA81D8
:1015B000FB818089982F898180958923EA81FB812D
:1015C000808BEA81FB819089898189230F900F901C
:1015D0000F900F90CF91DF9108958F92AF92BF92AD
:1015E000CF92EF92FF920F931F93DF93CF93CDB7DC
:1015F000DEB761970FB6F894DEBF0FBECDBF9A83FA
:1016000089837C836B835E834D8338872F831A871E
:101610000987FC86EB86CD86BF86AE86888A89815F
:101620009A816D850E94B1058889898B8989882373
:1016300011F081E0898B8989E981FA818387898129
:101640009A810D960E943A0AE981FA818D858487F4
:101650008E859F85E981FA81978F868F8E859F85FC
:10166000E981FA8191A380A3E981FA818B819C8130
:1016700093A382A3E981FA818D819E8195A384A39E
:10168000E981FA818F81988597A386A3E981FA8100
:1016900089859A8591A780A7E981FA818B859C85A8
:1016A00093A782A78B859C85009771F04DEB52E044
:1016B0008B859C8529813A81BA01A9010E94DF00AE
:1016C000E981FA8195A784A761960FB6F894DEBFE9
:1016D0000FBECDBFCF91DF911F910F91FF90EF9083
:1016E000CF90BF90AF908F900895DF93CF9300D0AD
:1016F000CDB7DEB79A838983E981FA8183858260D9
:10170000E981FA81838789819A812091170130913B
:101710001801B9010E94D7050E94FE000F900F909A
:10172000CF91DF910895DF93CF9300D00F92CDB783
:10173000DEB79B838A8381E08983EA81FB8183858D
:10174000882F90E08A7D9070009711F0198204C074
:101750008A819B810E94750B89810F900F900F9059
:10176000CF91DF910895DF93CF9300D00F92CDB743
:10177000DEB79B838A8381E08983EA81FB8183854D
:10178000882F90E08E7B9070009711F019822DC009
:10179000EA81FB8183858170EA81FB8183878A816D
:1017A0009B810D960E943A0AEA81FB81868D978D76
:1017B000EA81FB8191A380A3EA81FB8182A593A5A5
:1017C000009779F0EA81FB8182A593A52DEB32E0A9
:1017D0004A815B81B9010E94DF00EA81FB8195A704
:1017E00084A78A819B810E94750B89810F900F903D
:1017F0000F90CF91DF910895DF93CF9300D0CDB7B5
:10180000DEB79A838983E981FA8183858D7FE981B7
:10181000FA81838789819A810E9434070E94FE00A1
:101820000F900F90CF91DF910895DF93CF9300D069
:101830000F92CDB7DEB79B838A831982EA81FB8141
:101840008385882F90E08C719070009741F0EA8139
:10185000FB8183858062EA81FB8183870FC0EA81F7
:10186000FB818385882F90E082709070009731F023
:101870008A819B810E94FC0B81E0898389810F9082
:101880000F900F90CF91DF910895DF93CF9300D009
:101890000F92CDB7DEB78B830E94D4009A838983E1
:1018A000E981FA8193858B818923E981FA81838794
:1018B000E981FA818385882F90E08072907000978B
:1018C000A1F0E981FA818385882F90E0847090707F
:1018D000009759F4E981FA8183858F7DE981FA8146
:1018E000838789819A810E94FC0B0F900F900F9043
:1018F000CF91DF910895DF93CF9300D00F92CDB7B2
:10190000DEB79A8389836B83E981FA81858D882389
:1019100039F4E981FA8183858460E981FA818387DA
:1019200089819A810D966B810E945F0A0F900F90BA
:101930000F90CF91DF910895DF93CF9300D00F9256
:10194000CDB7DEB79A8389836B8389819A810D969F
:101950006B810E949B0AE981FA81858D882339F485
:10196000E981FA8183858B7FE981FA8183870F90F2
:101970000F900F90CF91DF910895DF93CF93CDB764
:10198000DEB727970FB6F894DEBF0FBECDBF9B839F
:101990008A83EA81FB81858D8823E9F0EA81FB81D6
:1019A000858D0E9458088983EA81FB818481958115
:1019B0009E838D83EA81FB81848599819F838C83BB
:1019C000EC81FF81FE1710F48F818C838C81ED8177
:1019D000FE8182830AC0EA81FB81A481B581EA810C
:1019E000FB81848512968C93129727960FB6F894F4
:1019F000DEBF0FBECDBFCF91DF910895DF93CF93B0
:101A000000D000D000D0CDB7DEB79C838B83EB81B4
:101A1000FC81858D8823A9F0EB81FC81858D0E9456
:101A200058088983EB81FC81848599819E838D830D
:101A30008D819E81981710F48E818D839D819A836C
:101A400004C0EB81FC8184858A83EB81FC81048066
:101A5000F581E02D92818A819817B1F08B819C816C
:101A60000E943407EB81FC810480F581E02D8A819E
:101A700082838B819C812091170130911801B901DB
:101A80000E94D7050E94FE0026960FB6F894DEBF8E
:101A90000FBECDBFCF91DF910895DF93CF9300D0DC
:101AA00000D0CDB7DEB79A8389837C836B8389812D
:101AB0009A810696E981FA8193838283E981FA818A
:101AC000828193810E94061089819A814796E981DB
:101AD000FA8195838483E981FA81848195810E94CA
:101AE00006108B819C81E981FA8122813381B901C1
:101AF0000E94D705E981FA818B819C819183808343
:101B0000E981FA8111A610A60F900F900F900F9007
:101B1000CF91DF910895DF93CF9300D000D0CDB760
:101B2000DEB79C838B83EB81FC810280F381E02D07
:101B300080898823A1F4EB81FC81828193819A833F
:101B40008983EB81FC8184819581EB81FC81938386
:101B50008283EB81FC8189819A81958384830F90B4
:101B60000F900F900F90CF91DF910895DF93CF9357
:101B700000D000D00F92CDB7DEB785E191E09D8314
:101B80008C83EC81FD81808191819B838A83EA81B2
:101B9000FB8184A195A1009751F0EA81FB8124A1EA
:101BA00035A1EA81FB8180A591A5F9010995EA811A
:101BB000FB810480F581E02D808191819C01EC8185
:101BC000FD81828193812817390709F04DC0EC818E
:101BD000FD8182819381EA81FB810480F581E02D82
:101BE0002281622F0E945C10EA81FB8180A191A179
:101BF0008230910550F0EA81FB8180A191A101978B
:101C0000EA81FB8191A380A32FC08A819B810E94DE
:101C1000AE06EA81FB81838589838981882F90E0E4
:101C200081709070009791F4EA81FB81868D978D89
:101C3000EA81FB8191A380A38A819B81EC81FD8154
:101C400024813581B9010E94D7050EC0EA81FB814C
:101C50000480F581E02D11821082EA81FB81838569
:101C60008D7FEA81FB8183878C819D810E948B0D12
:101C7000EC81FD81828193810E9430109B838A8355
:101C8000EC81FD818A819B8191838083EA81FB8144
:101C900086A197A1009751F0EA81FB8126A137A187
:101CA000EA81FB8180A591A5F90109950F900F901C
:101CB0000F900F900F90CF91DF910895DF93CF9306
:101CC00000D000D0CDB7DEB785E191E09C838B8357
:101CD000EB81FC81808191819A838983E981FA81FA
:101CE00084A195A1009751F0E981FA8124A135A141
:101CF000E981FA8180A591A5F90109958B819C81E3
:101D00000E948B0DEB81FC81828193810E943010B7
:101D10009A838983EB81FC8189819A819183808375
:101D2000E981FA8186A197A1009751F0E981FA81B2
:101D300026A137A1E981FA8180A591A5F90109952C
:101D40000F900F900F900F90CF91DF910895DF9338
:101D5000CF9300D000D0CDB7DEB79A8389837C8340
:101D60006B8389819A810E940610E981FA818B81B7
:101D70009C81928B818B0F900F900F900F90CF9141
:101D8000DF910895DF93CF9300D000D00F92CDB7AD
:101D9000DEB79D838C831B82EC81FD8181899289D2
:101DA000009761F0EC81FD81818992890197EC8136
:101DB000FD81928B818B81E08B8316C00E94D400C1
:101DC0009A838983E981FA8183858860E981FA8130
:101DD000838789819A810E94FC0B89819A812C8159
:101DE0003D81B9010E94D7058B810F900F900F9014
:101DF0000F900F90CF91DF910895DF93CF9300D094
:101E000000D0CDB7DEB79C838B83EB81FC818089CA
:101E1000882351F4EB81FC81818992890196EB81C1
:101E2000FC81928B818B15C08B819C810E9430102C
:101E30009A838983E981FA818385877FE981FA81A1
:101E4000838789819A810E94340789819A810E94BF
:101E5000750B0F900F900F900F90CF91DF91089519
:101E6000DF93CF9300D0CDB7DEB79A838983898182
:101E70009A810E9406100F900F90CF91DF910895E4
:101E8000DF93CF9300D000D0CDB7DEB79C838B8398
:101E90000E94D4009A83898389819A810E94FC0BD5
:101EA000E981FA8183858061E981FA81838789816B
:101EB0009A812B813C81B9010E9433060F900F90CB
:101EC0000F900F90CF91DF910895DF93CF9300D0C3
:101ED00000D0CDB7DEB79C838B83EB81FC818089FA
:101EE0008823A9F08B819C810E9430109A8389837A
:101EF00089819A810E94AE0689819A812091170179
:101F000030911801B9010E94D7050E94FE000F9080
:101F10000F900F900F90CF91DF910895DF93CF93A3
:101F200000D0CDB7DEB79A83898320911701309115
:101F3000180189819A81B9010E944B070E94FE0015
:101F40000F900F90CF91DF910895DF93CF9300D042
:101F5000CDB7DEB79A8389830E94810580916F0196
:101F600090917001E981FA81918380830E949305A9
:101F70000F900F90CF91DF910895DF93CF9300D012
:101F800000D0CDB7DEB79C838B830E948105209162
:101F90006F01309170018B819C81A901481B590B05
:101FA000CA019A8389830E94930589819A810F903F
:101FB0000F900F900F90CF91DF910895DF93CF9303
:101FC00000D000D00F92CDB7DEB79D838C8381E027
:101FD0008983CE0102960E94A50F0DC08A819B8144
:101FE0000E94BD0F9C018C819D81198228173907A1
:101FF00010F481E089838981882381F70F900F9005
:102000000F900F900F90CF91DF910895DF93CF93B2
:1020100000D000D0CDB7DEB79C838B83EB81FC81F1
:10202000108A1A82198210C089819A812B813C8181
:10203000880F991FF901E80FF91F11821082898119
:102040009A8101969A83898389819A818830910542
:1020500058F30F900F900F900F90CF91DF9108954C
:10206000DF93CF9300D000D00F92CDB7DEB79D8322
:102070008C831B821A82EC81FD818089898389810E
:10208000882381F089810E945808882F90E02C8154
:102090003D81880F991FF901E80FF91F8081918117
:1020A0009B838A838A819B810F900F900F900F9062
:1020B0000F90CF91DF910895DF93CF9300D000D0A0
:1020C0000F92CDB7DEB79C838B836D832B813C81D0
:1020D0008D81882F90E0880F991F820F931F9A831C
:1020E0008983E981FA810190F081E02D80819181DD
:1020F000E981FA81918380830F900F900F900F9068
:102100000F90CF91DF910895DF93CF93CDB7DEB7D6
:10211000A0E7B0E0E0E7F0E0808182608C93CF91AF
:10212000DF910895DF93CF9300D0CDB7DEB79A83C8
:102130008983A5E2B0E0E5E2F0E0908180E18927C3
:102140008C930F900F90CF91DF910895DF93CF93F1
:1021500000D0CDB7DEB79A838983A5E2B0E0E5E28F
:10216000F0E0908188E089278C930F900F90CF91B9
:10217000DF910895DF93CF9300D0CDB7DEB79A8378
:102180008983A5E2B0E0E5E2F0E0908184E0892770
:102190008C930F900F90CF91DF910895DF93CF93A1
:1021A00000D0CDB7DEB79A838983A5E2B0E0E5E23F
:1021B000F0E0908182E089278C930F900F90CF916F
:1021C000DF910895DF93CF9300D0CDB7DEB79A8328
:1021D0008983A5E2B0E0E5E2F0E0908180E2892722
:1021E0008C93ABE2B0E0EBE2F0E0908180E48927F1
:1021F0008C93ABE2B0E0EBE2F0E0908180E28927E3
:102200008C930F900F90CF91DF910895DF93CF9330
:1022100000D0CDB7DEB79A83898389E294E00E942B
:10222000190382E390E00E94DE0FF7CFDF93CF9394
:1022300000D0CDB7DEB79A8389838AE394E00E9409
:10224000190382E390E00E94DE0FF7CFDF93CF9374
:1022500000D0CDB7DEB79A8389838AE394E00E94E9
:10226000190382E390E00E94DE0F89E294E00E946D
:102270006803F3CFDF93CF9300D0CDB7DEB79A8357
:10228000898389E294E00E94190382E390E00E942E
:10229000DE0FF7CFDF93CF9300D0CDB7DEB79A83B1
:1022A000898384EF91E00E94DE0F8AE394E00E942C
:1022B0004603F7CF8F92AF92BF92CF92EF92FF92E9
:1022C0000F931F93DF93CF93CDB7DEB70E944301E7
:1022D000E0EBF0E082E08083E1EBF0E085E08083FA
:1022E000E3EBF0E08CE78083E4EBF0E01082E0E7E2
:1022F000F0E01082E7E3F0E01082E9E6F0E088E049
:102300008083EDE3F0E082E08083ACE3B0E0ECE3D7
:10231000F0E0808182608C93E4E2F0E08FE38083E0
:10232000E5E2F0E080E28083E7E2F0E08FE38083A3
:10233000E8E2F0E01082EAE2F0E08EEF8083EBE288
:10234000F0E01082ABE2B0E0EBE2F0E0808180618F
:102350008C93ABE2B0E0EBE2F0E0808188608C939C
:10236000ABE2B0E0EBE2F0E0808180628C9389E246
:1023700092E0DC01A158BF4F81E791E026E031E116
:1023800042E950E1E2E9F0E1B9019F0100E010E02B
:102390007D01CC24C394AA24BB246894A1F888248A
:1023A0000E94ED0A89E292E0DC01A150BF4F8FE963
:1023B00091E026E131E146EA50E1E6EAF0E1B901D7
:1023C0009F0100E010E07D01CC246894C1F80F2E3D
:1023D000F3E0AF2EBB24F02D88240E94ED0A89E2A1
:1023E00092E0DC01A158BE4F8DEC91E026E231E194
:1023F0004AEB50E1EAEBF0E1B9019F0100E010E0A7
:102400007D01CC246894C1F8AA24BB246894A2F866
:1024100088240E94ED0A89E292E0DC01A150BE4FBF
:102420008BEF91E02AE331E14EEC50E1EEECF0E18C
:10243000B9019F0100E010E07D010F2EF3E0CF2EE7
:10244000F02DAA24BB246894A2F888240E94ED0AE7
:1024500082EE90E1909366018093650182EE90E1B7
:10246000909364018093630181E791E00E94930B54
:102470008FE991E00E94930B8DEC91E00E94930B09
:102480008BEF91E00E94930B89E294E00E94300F61
:102490008AE394E00E94300F0E94530180E090E0B4
:1024A000CF91DF911F910F91FF90EF90CF90BF9050
:0A24B000AF908F900895F894FFCFCD
:0224BA0001001F
:00000001FF
