:100000000C9446000C9463000C9426020C9463003C
:100010000C9463000C9463000C9463000C944E01E8
:100020000C9463000C9463000C9463000C946300C4
:100030000C9463000C9463000C9463000C946300B4
:100040000C9463000C9463000C9463000C946300A4
:100050000C9463000C9463000C9463000C94630094
:100060000C9463000C946300710223035B039203FE
:10007000AC03D103340445045504650475048504B8
:100080009C04B604C604DC04F604100511241FBE4B
:10009000CFEFD8E0DEBFCDBF11E0A0E0B1E0E2ECF1
:1000A000F7E202C005900D92A230B107D9F715E032
:1000B000A2E0B1E001C01D92A233B107E1F70E94B6
:1000C0000F130C94DF130C9400002F922FB62F9275
:1000D0003F924F925F926F927F928F929F92AF92D8
:1000E000BF92CF92DF92EF92FF920F931F932F93C5
:1000F0003F934F935F936F937F938F939F93AF93B0
:10010000BF93CF93DF93EF93FF93EDB7FEB721A19A
:1001100030A101A210A211248DB79EB72F933F9357
:1001200008953F912F919EBF8DBFFEB7EDB710A0F0
:1001300001A030A321A3FF91EF91DF91CF91BF9157
:10014000AF919F918F917F916F915F914F913F916F
:100150002F911F910F91FF90EF90DF90CF90BF9064
:10016000AF909F908F907F906F905F904F903F9057
:100170002F902FBE2F900895DF93CF93CDB7DEB78A
:10018000F894CF91DF910895DF93CF93CDB7DEB789
:100190007894CF91DF910895DF93CF93CDB7DEB7F9
:1001A00080911E0290911F02CF91DF910895DF93FD
:1001B000CF9300D000D000D0CDB7DEB79A8389832B
:1001C0007C836B835E834D8349E054E089819A810F
:1001D0002D813E81BA01A9010E94200526960FB605
:1001E000F894DEBF0FBECDBFCF91DF910895DF93AE
:1001F000CF93CDB7DEB7809100018160809300017D
:10020000CF91DF9108950E94650090931D02809325
:100210001C0280911A0290911B020E949100189575
:10022000DF93CF93CDB7DEB780910001882F90E0A8
:1002300081709070882379F0809100018E7F809387
:10024000000180911A0290911B020E949E0F9093D0
:100250001B0280931A020E94030180910001882FE3
:1002600090E082709070009749F00E94E8010E942F
:10027000AF01809100018D7F809300018091180271
:1002800090911902009781F2E0911802F091190201
:1002900009951092190210921802C6CF0E946500AB
:1002A00090931B0280931A0281E691E090931902C9
:1002B0008093180280911C0290911D020E9491006F
:1002C0000895DF93CF93CDB7DEB7809178029091F8
:1002D00079020196909379028093780280911A02B4
:1002E00090911B020E94E60E90931B0280931A02CB
:1002F000CF91DF910895DF93CF93CDB7DEB7F89418
:100300000E94220A87E192E02EEB32E1B90140E03F
:1003100050E00E94200590931B0280931A02809166
:100320001A0290911B02909375028093740281E0EF
:1003300090E09093470280934602CF91DF91089519
:10034000DF93CF93CDB7DEB70E94F611109247022C
:10035000109246020E941001CF91DF910895DF9321
:10036000CF9300D000D000D0CDB7DEB7809102018E
:10037000882329F1809102018150809302018091AC
:100380000201882F90E0880F991F88599F4F9C8306
:100390008B838B819C81FC01859194919A838983C5
:1003A000FC83EB8389819A819E838D8380910301F5
:1003B00090910401ED81FE8109951092020126962B
:1003C0000FB6F894DEBF0FBECDBFCF91DF91089579
:1003D000DF93CF9300D000D0CDB7DEB780911A0263
:1003E00090911B0207969C838B83EB81FC8180811B
:1003F000882F90E09A8389838B819C8101969C83CE
:100400008B8389819A81982F88279A838983EB81AE
:10041000FC818081282F30E089819A81822B932B67
:100420009A838983E981FA81808180930201E9813D
:10043000FA818181928190930401809303010F904E
:100440000F900F900F90CF91DF9108950E9465005B
:1004500090931B0280931A0280911C0290911D02BE
:100460000E9491000895DF93CF9300D0CDB7DEB7FF
:100470009A838983F89480910001826080930001BF
:100480000E94D311789489819A810F900F90CF9117
:10049000DF910895DF93CF9300D00F92CDB7DEB7F1
:1004A00089837B836A838981809305018A819B810B
:1004B000909307018093060185E091E00E9433024A
:1004C00000000000000080910001882F90E0827001
:1004D00090700097C1F70F900F900F90CF91DF9120
:1004E00008958F92AF92BF92CF92DF92EF92FF92D8
:1004F0000F931F93DF93CF9300D0CDB7DEB79A83CE
:100500008983E981FA8180819181E981FA8122815F
:100510003381E981FA8144815581E981FA8106813B
:100520001781E981FA81E084F184E981FA81C2844A
:10053000D384E981FA81B484E981FA81A585B685FD
:10054000E981FA81E785B901980187017601CB2C11
:100550005D018E2E0E94F80B0F900F90CF91DF91CE
:100560001F910F91FF90EF90DF90CF90BF90AF90D1
:100570008F9008958F92AF92BF92CF92EF92FF9299
:100580000F931F93DF93CF93CDB7DEB760970FB66E
:10059000F894DEBF0FBECDBF9A8389837C836B83C3
:1005A0005E834D8338872F831A870987FC86EB8605
:1005B000CD86BF86AE86888A89819A81909309010B
:1005C000809308018B819C8190930B0180930A0199
:1005D0008D819E8190930D0180930C018F81988570
:1005E00090930F0180930E0189859A859093110154
:1005F000809310018B859C85909313018093120149
:100600008D85809314018E859F859093160180932C
:10061000150188898093170128E031E081E0B90154
:100620000E944A0260960FB6F894DEBF0FBECDBF9F
:10063000CF91DF911F910F91FF90EF90CF90BF90DE
:10064000AF908F9008950F931F93DF93CF9300D0B7
:10065000CDB7DEB79A83898309811A81E981FA814E
:10066000808191810E949E0CF80182830F900F90EF
:10067000CF91DF911F910F910895DF93CF9300D019
:1006800000D00F92CDB7DEB79D838C838C819D8186
:100690009A8389831B8282E09E012F5F3F4FB901BD
:1006A0000E944A028B810F900F900F900F900F9035
:1006B000CF91DF9108950F931F93DF93CF9300D0D5
:1006C000CDB7DEB79A83898309811A81E981FA81DE
:1006D000808191810E94BE0CF80182830F900F905F
:1006E000CF91DF911F910F910895DF93CF9300D0A9
:1006F00000D00F92CDB7DEB79D838C838C819D8116
:100700009A83898383E09E012F5F3F4FB9010E9446
:100710004A028B810F900F900F900F900F90CF9106
:10072000DF9108950F931F93DF93CF9300D0CDB740
:10073000DEB79A83898309811A81E981FA818081F0
:1007400091810E94200DF80182830F900F90CF912C
:10075000DF911F910F910895DF93CF9300D000D0C8
:10076000CDB7DEB79C838B8380911E0290911F02D0
:100770009A83898389819A810E94070D0F900F9037
:100780000F900F90CF91DF910895DF93CF93CDB766
:10079000DEB785E061E070E00E944A02CF91DF9110
:1007A0000895DF93CF9300D000D0CDB7DEB79C8300
:1007B0008B838B819C819A838983E981FA818385EC
:1007C000882F90E084709070009741F0E981FA8161
:1007D00083858068E981FA81838707C0E981FA818E
:1007E00083858064E981FA818387E981FA81838541
:1007F0008D7DE981FA81838789819A810E943F08F2
:100800000E94F7000F900F900F900F90CF91DF9103
:100810000895DF93CF9300D000D000D0CDB7DEB7DE
:100820009E838D83F894ED81FE8182A193A19C83A8
:100830008B83ED81FE8180A591A59A83898378942D
:1008400089819A81EB81FC8109952D813E8186E029
:10085000B9010E944A0226960FB6F894DEBF0FBE79
:10086000CDBFCF91DF910895DF93CF9300D0CDB767
:10087000DEB79A838983E981FA8180810E94750DB0
:100880000F900F90CF91DF910895DF93CF9300D019
:10089000CDB7DEB79A83898389819A810E947F10C0
:1008A0000F900F90CF91DF910895DF93CF9300D0F9
:1008B000CDB7DEB79A83898389819A810E948F1090
:1008C0000F900F90CF91DF910895DF93CF9300D0D9
:1008D000CDB7DEB79A83898389819A810E94B4104B
:1008E0000F900F90CF91DF910895DF93CF9300D0B9
:1008F000CDB7DEB79A83898389819A810E94DD1002
:100900000F900F90CF91DF910895DF93CF9300D098
:10091000CDB7DEB79A838983E981FA81808191819D
:10092000E981FA8122813381B9010E94F60F0F908B
:100930000F90CF91DF9108950F931F93DF93CF9383
:1009400000D0CDB7DEB79A83898309811A81E98106
:10095000FA81808191810E941110F80182830F90A9
:100960000F90CF91DF911F910F910895DF93CF9357
:1009700000D0CDB7DEB79A83898389819A810E949E
:100980004C100F900F90CF91DF910895DF93CF938C
:1009900000D0CDB7DEB79A838983E981FA8180815F
:1009A0009181E981FA812281622F0E94570A0F907A
:1009B0000F90CF91DF9108950F931F93DF93CF9303
:1009C00000D0CDB7DEB79A83898309811A81E98186
:1009D000FA81808191810E94720AF80182830F90CE
:1009E0000F90CF91DF911F910F9108950F931F9357
:1009F000DF93CF9300D0CDB7DEB79A838983098187
:100A00001A81E981FA81808191810E94BA0AF801F4
:100A100082830F900F90CF91DF911F910F910895D6
:100A2000DF93CF9300D0CDB7DEB79A8389838981D6
:100A30009A810E94E60A0F900F90CF91DF9108955E
:100A4000DF93CF93CDB7DEB72A970FB6F894DEBF0A
:100A50000FBECDBF9E838D8378876F835A8749876A
:100A60008D819E819C838B838F8198859A838983D6
:100A70008981EB81FC8180838B819C8101979C83A0
:100A80008B8389819A81892F99279A838983898188
:100A9000EB81FC8180838B819C8101979C838B837C
:100AA000EB81FC8110828B819C8101979C838B83DD
:100AB000EB81FC8110828B819C8101979C838B83CD
:100AC000EB81FC8182E080838B819C8101979C83F8
:100AD0008B83EB81FC8180E880838B819C810197F3
:100AE0009C838B83EB81FC8183E080838B819C8161
:100AF00001979C838B83EB81FC8184E080838B81D5
:100B00009C8101979C838B83EB81FC8185E08083B2
:100B10008B819C8101979C838B83EB81FC8186E098
:100B200080838B819C8101979C838B83EB81FC81EB
:100B300087E080838B819C8101979C838B83EB81F1
:100B4000FC8188E080838B819C8101979C838B83CF
:100B5000EB81FC8189E080838B819C8101979C8360
:100B60008B83EB81FC8180E180838B819C81019769
:100B70009C838B83EB81FC8181E180838B819C81D1
:100B800001979C838B83EB81FC8182E180838B8145
:100B90009C8101979C838B83EB81FC8183E1808323
:100BA0008B819C8101979C838B83EB81FC8184E109
:100BB00080838B819C8101979C838B83EB81FC815B
:100BC00085E180838B819C8101979C838B83EB8162
:100BD000FC8186E180838B819C8101979C838B8340
:100BE000EB81FC8187E180838B819C8101979C83D1
:100BF0008B83EB81FC8188E180838B819C810197D1
:100C00009C838B83EB81FC8189E180838B819C8138
:100C100001979C838B83EB81FC8180E280838B81B5
:100C20009C8101979C838B83EB81FC8181E2808393
:100C30008B819C8101979C838B83EB81FC8182E279
:100C400080838B819C8101979C838B83EB81FC81CA
:100C500083E280838B819C8101979C838B83898530
:100C60009A859A8389838981EB81FC8180838B813A
:100C70009C8101979C838B8389819A81892F9927F5
:100C80009A8389838981EB81FC8180838B819C811C
:100C900001979C838B83EB81FC8186E280838B812F
:100CA0009C8101979C838B83EB81FC8187E280830D
:100CB0008B819C8101979C838B83EB81FC8188E2F3
:100CC00080838B819C8101979C838B83EB81FC814A
:100CD00089E280838B819C8101979C838B83EB814C
:100CE000FC8180E380838B819C8101979C838B8333
:100CF000EB81FC8181E380838B819C8101979C83C4
:100D00008B838B819C812A960FB6F894DEBF0FBE31
:100D1000CDBFCF91DF910895DF93CF93CDB7DEB7ED
:100D20000E94BC00809146029091470201969093E8
:100D3000470280934602CF91DF910895DF93CF93CE
:100D4000CDB7DEB78091460290914702009749F0F7
:100D500080914602909147020197909347028093B9
:100D600046028091460290914702009711F40E943A
:100D7000C400CF91DF910895DF93CF9300D000D0CE
:100D80000F92CDB7DEB79C838B836D838B819C8163
:100D900006969A8389838B819C810E94A20989810E
:100DA0009A816D810E941209EB81FC8189819A816F
:100DB000958384830F900F900F900F900F90CF9199
:100DC000DF910895DF93CF93CDB7DEB728970FB6A5
:100DD000F894DEBF0FBECDBF9E838D8378876F836F
:100DE000ED81FE810480F581E02D82818C838C81F0
:100DF000282F30E081E090E002C0880F991F2A95EB
:100E0000E2F78B832F8138858C81882F90E0880FC3
:100E1000991F820F931F9A838983EF81F8859089A8
:100E20008B818923882351F08D819E81E981FA810C
:100E300020813181B9010E94BA090EC08D819E8145
:100E4000E981FA8191838083EF81F88590898B8194
:100E5000892BEF81F885808BED81FE810480F581FF
:100E6000E02D8F8198859183808328960FB6F89422
:100E7000DEBF0FBECDBFCF91DF910895DF93CF933B
:100E8000CDB7DEB72A970FB6F894DEBF0FBECDBF41
:100E900098878F837A876987EF81F8850480F58149
:100EA000E02D82818E838E81282F30E081E090E0DA
:100EB00002C0880F991F2A95E2F78D8329853A850C
:100EC0008E81882F90E0880F991F820F931F9C833B
:100ED0008B83EF81F885848195819A838983E98565
:100EE000FA8590898D818923882331F18F819885B6
:100EF000EB81FC8120813181B9010E94BA0989818D
:100F00009A810E942F09EB81FC8180819181FC01F3
:100F1000848195819A838983EF81F88589819A817B
:100F200095838483E981FA81838194810196E981A3
:100F3000FA819483838314C08F819885EB81FC812F
:100F400091838083E985FA8590898D81892BE98554
:100F5000FA85808BE981FA8189859A8591838083DE
:100F60002A960FB6F894DEBF0FBECDBFCF91DF91AA
:100F70000895DF93CF9300D000D00F92CDB7DEB7A6
:100F80009D838C83EC81FD810480F581E02D82813D
:100F90008B83EC81FD810480F581E02D808191813E
:100FA0009A838983EC81FD810480F581E02D838122
:100FB000948182309105B8F0EC81FD810480F58147
:100FC000E02D838194810197948383830E94490952
:100FD000EC81FD8195838483EC81FD810480F58122
:100FE000E02D8B818283EC81FD81208131818C8198
:100FF0009D812817390709F58B81882F90E0298179
:101000003A81880F991FF901E80FF91F11821082A8
:10101000E981FA818089482F8B81282F30E081E097
:1010200090E0022E02C0880F991F0A94E2F7809583
:101030008423E981FA81808B1AC08B81882F90E00C
:1010400029813A81880F991FF901E80FF91F208142
:1010500031818C819D812817390729F489819A81F2
:101060006B810E94AB118C819D810E94EC090F90D5
:101070000F900F900F900F90CF91DF910895DF9315
:10108000CF9300D0CDB7DEB79A83898389819A81C7
:101090000E94B907E981FA810480F581E02D11826F
:1010A00010820F900F90CF91DF910895DF93CF932F
:1010B000CDB7DEB72C970FB6F894DEBF0FBECDBF0D
:1010C0009A8789877C876B8781E088871F829AC08F
:1010D000E985FA85908988858923882309F48CC05D
:1010E000EB85FC85908988858923882309F443C092
:1010F0008F81882F90E029853A85880F991FF90103
:10110000E80FF91F808191819E838D838F81882FC5
:1011100090E02B853C85880F991FF901E80FF91F96
:10112000808191819C838B83ED81FE810280F3819C
:10113000E02D8B819C8191838083EB81FC810280F7
:10114000F381E02D8D819E8191838083EB81FC81F1
:10115000828193819A838983ED81FE81828193814B
:10116000EB81FC8193838283ED81FE8189819A8169
:101170009383828321C08F81682F70E08F81882FB5
:1011800090E029853A85880F991FF901E80FF91F2A
:10119000408151812B853C85CB01880F991FF90136
:1011A000E80FF91F51834083EB85FC859089888582
:1011B000892BEB85FC85808B8F81882F90E029859A
:1011C0003A85880F991FF901E80FF91F80819181F5
:1011D000FC010480F581E02D8B859C8591838083C3
:1011E0008F81882F90E029853A85880F991FF90112
:1011F000E80FF91F118210828885880F88878F81F8
:101200008F5F8F838885882309F062CFE985FA850F
:10121000108A2C960FB6F894DEBF0FBECDBFCF91CB
:10122000DF910895DF93CF9300D00F92CDB7DEB753
:101230009A8389836B83E981FA8111821082E98123
:10124000FA818B818283E981FA8181E090E0948345
:1012500083830F900F900F90CF91DF910895DF93CC
:10126000CF9300D0CDB7DEB79A8389838091760281
:1012700090917702E981FA819183808389819A81B3
:1012800090937702809376020F900F90CF91DF9129
:101290000895DF93CF9300D0CDB7DEB7809176026B
:1012A000909177029A838983E981FA818081918183
:1012B000909377028093760289819A810F900F90A4
:1012C000CF91DF910895DF93CF9300D000D000D06D
:1012D000CDB7DEB78E831D828FEF8C838FEF8B832C
:1012E00088E0898322C08981869589838B81282F14
:1012F00030E08981882F90E0A90102C0559547957B
:101300008A95E2F7CA018A839E818C8198238A811B
:101310008923882319F08A818B8307C08A8180956D
:101320008C839D818981890F8D8389818823D9F65A
:101330008D8126960FB6F894DEBF0FBECDBFCF913C
:10134000DF910895DF93CF9300D0CDB7DEB79A83B6
:101350008983E981FA8189819A8193838283E981F2
:10136000FA8189819A81918380830F900F90CF9128
:10137000DF910895DF93CF9300D000D000D0CDB798
:10138000DEB79C838B837E836D83ED81FE818281BA
:1013900093819A838983EB81FC8189819A819383EC
:1013A0008283EB81FC818D819E8191838083ED819D
:1013B000FE818B819C8193838283E981FA818B8179
:1013C0009C819183808326960FB6F894DEBF0FBE72
:1013D000CDBFCF91DF910895DF93CF9300D000D0A0
:1013E00000D0CDB7DEB79E838D83ED81FE818281F3
:1013F00093819C838B83ED81FE81808191819A838F
:101400008983E981FA818B819C8193838283EB813B
:10141000FC8189819A8191838083ED81FE818D8118
:101420009E8193838283ED81FE818D819E81918354
:10143000808326960FB6F894DEBF0FBECDBFCF9146
:10144000DF9108958F92AF92BF92CF92EF92FF9269
:101450000F931F93DF93CF93CDB7DEB788E492E06D
:101460002EEB32E1B90140E050E020E030E000E056
:1014700010E0EE24FF240F2EF7E0CF2EF02DAA244B
:10148000BB24A39488240E94F80B8EE192E028E408
:1014900032E0B9010E947D0ECF91DF911F910F9133
:1014A000FF90EF90CF90BF90AF908F900895DF9313
:1014B000CF9300D00F92CDB7DEB79A8389836B8329
:1014C00089819A810E945511E981FA8181E0828B9C
:1014D000E981FA818B81818B0F900F900F90CF91D2
:1014E000DF910895DF93CF9300D000D00F92CDB756
:1014F000DEB79D838C83EC81FD8182898B830E9482
:10150000CC009A838983EC81FD81218989819A812C
:10151000622F0E94AB0D8B81882341F0EC81FD810D
:10152000128A89819A810E942E0E1BC0E981FA815C
:1015300083858860E981FA818387E981FA818385DF
:101540008D7FE981FA81838789819A810E943F0892
:1015500089819A812C813D81B9010E94E2060E9415
:10156000F7008B810F900F900F900F900F90CF91FD
:10157000DF910895DF93CF9300D000D00F92CDB7C5
:10158000DEB79D838C83EC81FD8182898B830E94F1
:10159000CC009A8389838B81882379F0EC81FD814B
:1015A000128AEC81FD81218989819A81622F0E94B2
:1015B000AB0D89819A810E942E0E8B810F900F9026
:1015C0000F900F900F90CF91DF910895DF93CF93FD
:1015D00000D000D0CDB7DEB79C838B830E94CC00B7
:1015E0009A838983EB81FC81218989819A81622F89
:1015F0000E94CC0DE981FA818385882F90E080726A
:1016000090700097A1F0E981FA818385882F90E09E
:1016100084709070009759F489819A810E943F08E4
:1016200089819A810E94ED0D0E94F70004C0898192
:101630009A810E942E0EEB81FC818089882329F4F7
:10164000EB81FC8181E0828B19C08B819C810E949F
:101650007F119A838983E981FA818385877FE98174
:10166000FA81838789819A810E943F0889819A81C2
:101670000E94ED0D89819A810E94800C0F900F903D
:101680000F900F90CF91DF910895DF93CF9300D00B
:101690000F92CDB7DEB79B838A83EA81FB81108AE4
:1016A00019820FC08981882F90E02A813B81880FA1
:1016B000991FF901E80FF91F1182108289818F5F4C
:1016C00089838981883070F30F900F900F90CF91AC
:1016D000DF910895DF93CF9300D00F92CDB7DEB79F
:1016E0009A8389836B838B81682F70E029813A818B
:1016F000CB01880F991FF901E80FF91F80819181B3
:10170000AC014F5F5F4F29813A81CB01880F991F50
:10171000F901E80FF91F51834083E981FA8180893B
:10172000482F8B81282F30E081E090E0022E02C00C
:10173000880F991F0A94E2F7842BE981FA81808B44
:101740000F900F900F90CF91DF910895DF93CF937B
:1017500000D000D0CDB7DEB79B838A836C838C81A9
:10176000282F30E081E090E002C0880F991F2A9571
:10177000E2F789838C81682F70E02A813B81CB015D
:10178000880F991FF901E80FF91F80819181AC0141
:10179000415050402A813B81CB01880F991FF901AC
:1017A000E80FF91F518340838C81882F90E02A81B4
:1017B0003B81880F991FF901E80FF91F8081918102
:1017C000009751F4EA81FB818089982F8981809567
:1017D0008923EA81FB81808BEA81FB819089898161
:1017E00089230F900F900F900F90CF91DF91089564
:1017F0008F92AF92BF92CF92EF92FF920F931F936F
:10180000DF93CF93CDB7DEB761970FB6F894DEBF05
:101810000FBECDBF9A8389837C836B835E834D83A8
:1018200038872F831A870987FC86EB86CD86BF868B
:10183000AE86888A89819A816D850E94BC068889D6
:10184000898B8989882311F081E0898B8989E981D5
:10185000FA81838789819A810D960E94450BE981DF
:10186000FA818D858487E981FA818E859F85978F9E
:10187000868FE981FA818E859F8591A380A3E98176
:10188000FA818B819C8193A382A3E981FA818D8166
:101890009E8195A384A3E981FA818F81988597A37E
:1018A00086A3E981FA8189859A8591A780A7E98134
:1018B000FA818B859C8593A782A78B859C85009751
:1018C00071F049E054E08B859C8529813A81BA0109
:1018D000A9010E94D700E981FA8195A784A76196A2
:1018E0000FB6F894DEBF0FBECDBFCF91DF911F9131
:1018F0000F91FF90EF90CF90BF90AF908F90089591
:10190000DF93CF9300D0CDB7DEB79A838983E98187
:10191000FA8183858260E981FA81838789819A814E
:101920002091200230912102B9010E94E2060E941A
:10193000F7000F900F90CF91DF910895DF93CF9331
:1019400000D00F92CDB7DEB79B838A8381E0898375
:10195000EA81FB818385882F90E08A7D90700097D3
:1019600011F0198204C08A819B810E94800C8981B8
:101970000F900F900F90CF91DF910895DF93CF9349
:1019800000D00F92CDB7DEB79B838A8381E0898335
:10199000EA81FB818385882F90E08E7B9070009791
:1019A00011F019822DC0EA81FB8183858170EA8163
:1019B000FB8183878A819B810D960E94450BEA817A
:1019C000FB81868D978DEA81FB8191A380A3EA81BB
:1019D000FB8182A593A5009779F0EA81FB8182A51E
:1019E00093A529E034E04A815B81B9010E94D700C8
:1019F000EA81FB8195A784A78A819B810E94800C44
:101A000089810F900F900F90CF91DF910895DF9310
:101A1000CF9300D0CDB7DEB79A838983E981FA816D
:101A200083858D7FE981FA81838789819A810E94EC
:101A30003F080E94F7000F900F90CF91DF9108951B
:101A4000DF93CF9300D00F92CDB7DEB79B838A830D
:101A50001982EA81FB818385882F90E08C719070D8
:101A6000009741F0EA81FB8183858062EA81FB81F6
:101A700083870FC0EA81FB818385882F90E0827085
:101A80009070009731F08A819B810E94070D81E060
:101A9000898389810F900F900F90CF91DF910895E6
:101AA000DF93CF9300D0CDB7DEB70E948C06809134
:101AB0001E0290911F029A838983E981FA818385AE
:101AC000882F90E081709070882341F0E981FA813D
:101AD000868D978DE981FA8191A380A30E949E064D
:101AE0000F900F90CF91DF910895DF93CF9300D0A7
:101AF0000F92CDB7DEB78B830E94CC009A83898387
:101B0000E981FA8193858B818923E981FA81838731
:101B1000E981FA818385882F90E080729070009728
:101B2000A1F0E981FA818385882F90E0847090701C
:101B3000009759F4E981FA8183858F7DE981FA81E3
:101B4000838789819A810E94070D0F900F900F90D3
:101B5000CF91DF910895DF93CF9300D00F92CDB74F
:101B6000DEB79A8389836B83E981FA81858D882327
:101B700039F4E981FA8183858460E981FA81838778
:101B800089819A810D966B810E946A0B0F900F904C
:101B90000F90CF91DF910895DF93CF9300D00F92F4
:101BA000CDB7DEB79A8389836B8389819A810D963D
:101BB0006B810E94A60BE981FA81858D882339F417
:101BC000E981FA8183858B7FE981FA8183870F9090
:101BD0000F900F90CF91DF910895DF93CF93CDB702
:101BE000DEB727970FB6F894DEBF0FBECDBF9B833D
:101BF0008A83EA81FB81858D8823E9F0EA81FB8174
:101C0000858D0E9463098983EA81FB8184819581A6
:101C10009E838D83EA81FB81848599819F838C8358
:101C2000EC81FF81FE1710F48F818C838C81ED8114
:101C3000FE8182830AC0EA81FB81A481B581EA81A9
:101C4000FB81848512968C93129727960FB6F89491
:101C5000DEBF0FBECDBFCF91DF910895DF93CF934D
:101C600000D000D000D0CDB7DEB79C838B83EB8152
:101C7000FC81858D8823A9F0EB81FC81858D0E94F4
:101C800063098983EB81FC81848599819E838D839F
:101C90008D819E81981710F48E818D839D819A830A
:101CA00004C0EB81FC8184858A83EB81FC81048004
:101CB000F581E02D92818A819817B1F08B819C810A
:101CC0000E943F08EB81FC810480F581E02D8A8130
:101CD00082838B819C812091200230912102B90165
:101CE0000E94E2060E94F70026960FB6F894DEBF27
:101CF0000FBECDBFCF91DF910895DF93CF9300D07A
:101D000000D0CDB7DEB79A8389837C836B838981CA
:101D10009A810696E981FA8193838283E981FA8127
:101D2000828193810E94551189819A814796E98128
:101D3000FA8195838483E981FA81848195810E9467
:101D400055118B819C81E981FA8122813381B9010E
:101D50000E94E206E981FA818B819C8191838083D4
:101D6000E981FA8111A610A60F900F900F900F90A5
:101D7000CF91DF910895DF93CF9300D000D0CDB7FE
:101D8000DEB79C838B83EB81FC810280F381E02DA5
:101D900080898823A1F4EB81FC81828193819A83DD
:101DA0008983EB81FC8184819581EB81FC81938324
:101DB0008283EB81FC8189819A81958384830F9052
:101DC0000F900F900F90CF91DF910895DF93CF93F5
:101DD000CDB7DEB727970FB6F894DEBF0FBECDBFE5
:101DE0009F838E838EE192E09D838C83EC81FD81C5
:101DF000808191819B838A83EA81FB818E819F818F
:101E000095A784A7EA81FB8184A195A1009751F051
:101E1000EA81FB8124A135A1EA81FB8180A591A5FE
:101E2000F9010995EA81FB810480F581E02D80812B
:101E300091819C01EC81FD81828193812817390772
:101E400009F04DC0EC81FD8182819381EA81FB81A3
:101E50000480F581E02D2281622F0E94AB11EA817E
:101E6000FB8180A191A18230910550F0EA81FB8134
:101E700080A191A10197EA81FB8191A380A32FC04A
:101E80008A819B810E94B907EA81FB8183858983CE
:101E90008981882F90E081709070009791F4EA8199
:101EA000FB81868D978DEA81FB8191A380A38A8136
:101EB0009B81EC81FD8124813581B9010E94E2067C
:101EC0000EC0EA81FB810480F581E02D1182108231
:101ED000EA81FB8183858D7FEA81FB8183878C8109
:101EE0009D810E94BB0EEC81FD81828193810E94C5
:101EF0007F119B838A83EC81FD818A819B81918301
:101F00008083EA81FB8186A197A1009751F0EA8145
:101F1000FB8126A137A1EA81FB8180A591A5F9016A
:101F20000995EA81FB8184A595A527960FB6F894BB
:101F3000DEBF0FBECDBFCF91DF910895DF93CF936A
:101F400000D000D000D0CDB7DEB79E838D838EE168
:101F500092E09C838B83EB81FC81808191819A83C9
:101F60008983E981FA818D819E8195A784A7E98182
:101F7000FA8184A195A1009751F0E981FA8124A109
:101F800035A1E981FA8180A591A5F90109958B8197
:101F90009C810E94BB0EEB81FC81828193810E9417
:101FA0007F119A838983EB81FC8189819A81918356
:101FB0008083E981FA8186A197A1009751F0E98198
:101FC000FA8126A137A1E981FA8180A591A5F901BD
:101FD0000995E981FA8184A595A526960FB6F8940E
:101FE000DEBF0FBECDBFCF91DF910895DF93CF93BA
:101FF00000D000D0CDB7DEB79A8389837C836B8312
:1020000089819A810E945511E981FA818B819C8195
:10201000928B818B0F900F900F900F90CF91DF914B
:102020000895DF93CF9300D000D00F92CDB7DEB7E5
:102030009D838C831B82EC81FD818189928900972D
:1020400061F0EC81FD81818992890197EC81FD81AC
:10205000928B818B81E08B8316C00E94CC009A8387
:102060008983E981FA8183858860E981FA818387A0
:1020700089819A810E94070D89819A812C813D81F5
:10208000B9010E94E2068B810F900F900F900F9084
:102090000F90CF91DF910895DF93CF9300D000D0C0
:1020A000CDB7DEB79C838B83EB81FC81808988234D
:1020B00051F4EB81FC81818992890196EB81FC814D
:1020C000928B818B15C08B819C810E947F119A839A
:1020D0008983E981FA818385877FE981FA81838712
:1020E00089819A810E943F0889819A810E94800C8F
:1020F0000F900F900F900F90CF91DF910895DF9385
:10210000CF9300D0CDB7DEB79A83898389819A8136
:102110000E9455110F900F90CF91DF910895DF939A
:10212000CF9300D000D0CDB7DEB79C838B830E94C5
:10213000CC009A83898389819A810E94070DE98165
:10214000FA8183858061E981FA81838789819A8117
:102150002B813C81B9010E943E070F900F900F9098
:102160000F90CF91DF910895DF93CF9300D000D0EF
:10217000CDB7DEB79C838B83EB81FC81808988237C
:10218000A9F08B819C810E947F119A838983898128
:102190009A810E94B90789819A8120912002309109
:1021A0002102B9010E94E2060E94F7000F900F90F1
:1021B0000F900F90CF91DF910895DF93CF9300D0D0
:1021C000CDB7DEB79A838983209120023091210216
:1021D00089819A81B9010E9456080E94F7000F90E8
:1021E0000F90CF91DF910895DF93CF9300D0CDB7BB
:1021F000DEB79A8389830E948C0680917802909141
:102200007902E981FA81918380830E949E060F9072
:102210000F90CF91DF910895DF93CF9300D000D03E
:10222000CDB7DEB79C838B830E948C062091780209
:10223000309179028B819C81A901481B590BCA01FD
:102240009A8389830E949E0689819A810F900F90BC
:102250000F900F90CF91DF910895DF93CF9300D02F
:1022600000D00F92CDB7DEB79D838C8381E0898348
:10227000CE0102960E94F4100DC08A819B810E94BB
:102280000C119C0119828C819D812817390710F44B
:1022900081E089838981882381F70F900F900F90C7
:1022A0000F900F90CF91DF910895DF93CF9300D0DF
:1022B00000D0CDB7DEB79C838B83EB81FC81108A85
:1022C0001A82198210C089819A812B813C81880FE2
:1022D000991FF901E80FF91F1182108289819A81F3
:1022E00001969A83898389819A818830910558F370
:1022F0000F900F900F900F90CF91DF910895DF9383
:10230000CF9300D000D00F92CDB7DEB79D838C83E2
:102310001B821A82EC81FD818089898389818823CF
:1023200081F089810E946309882F90E02C813D8192
:10233000880F991FF901E80FF91F808191819B8314
:102340008A838A819B810F900F900F900F900F903E
:10235000CF91DF910895DF93CF9300D000D00F92FB
:10236000CDB7DEB79C838B836D832B813C818D81C0
:10237000882F90E0880F991F820F931F9A8389837B
:10238000E981FA810190F081E02D80819181E981DC
:10239000FA81918380830F900F900F900F900F9090
:1023A000CF91DF910895DF93CF93CDB7DEB7ABE246
:1023B000B0E0EBE2F0E0808184608C93ABE2B0E0CF
:1023C000EBE2F0E08081877F8C93ABE2B0E0EBE260
:1023D000F0E080818B7F8C93ABE2B0E0EBE2F0E049
:1023E000808188608C93CF91DF910895DF93CF93A4
:1023F000CDB7DEB7A0E7B0E0E0E7F0E08081826033
:102400008C93ADE3B0E0EDE3F0E0808182608C93EB
:10241000ACE3B0E0ECE3F0E0808182608C93CF919C
:10242000DF910895DF93CF9300D0CDB7DEB79A83C5
:102430008983A5E2B0E0E5E2F0E0908180E18927C0
:102440008C930F900F90CF91DF910895DF93CF93EE
:1024500000D0CDB7DEB79A838983A5E2B0E0E5E28C
:10246000F0E0908188E089278C930F900F90CF91B6
:10247000DF910895DF93CF9300D0CDB7DEB79A8375
:102480008983A5E2B0E0E5E2F0E0908184E089276D
:102490008C930F900F90CF91DF910895DF93CF939E
:1024A00000D0CDB7DEB79A838983A5E2B0E0E5E23C
:1024B000F0E0908182E089278C930F900F90CF916C
:1024C000DF910895DF93CF9300D0CDB7DEB79A8325
:1024D0008983A5E2B0E0E5E2F0E0908180E289271F
:1024E0008C93ABE2B0E0EBE2F0E0908180E48927EE
:1024F0008C93ABE2B0E0EBE2F0E0908180E28927E0
:102500008C930F900F90CF91DF910895DF93CF932D
:1025100000D0CDB7DEB79A83898384EF91E00E9423
:102520002D11FBCFDF93CF9300D0CDB7DEB79A83C9
:10253000898384EF91E00E942D11FBCFDF93CF932D
:1025400000D0CDB7DEB79A83898381E090E00E9406
:102550002D110E94500D0E94C503F7CFDF93CF933A
:1025600000D0CDB7DEB79A83898384EF91E00E94D3
:102570002D110F900F90CF91DF9108958F92AF9210
:10258000BF92CF92EF92FF920F931F93DF93CF935F
:1025900000D0CDB7DEB79A83898382E393E0DC0174
:1025A000A150BE4F84E093E02EEA32E14EE452E1C6
:1025B000EEE4F2E1B9019F0100E010E07D010F2E91
:1025C000F3E0CF2EF02DAA24BB246894A2F888242F
:1025D0000E94BA0284E093E00E943D0388EE93E0FB
:1025E0000E942D1184E093E00E943D0388EE93E069
:1025F0000E942D1184E093E00E94750384EF91E026
:102600000E942D1184E093E00E943D0388EE93E048
:102610000E942D1186ED92E00E943D03F7CF8F922C
:10262000AF92BF92CF92EF92FF920F931F93DF93DF
:10263000CF93CDB7DEB70E947B01E0EBF0E082E004
:102640008083E1EBF0E085E08083E3EBF0E08CE772
:102650008083E4EBF0E01082E0E7F0E01082E7E353
:10266000F0E01082E9E6F0E088E08083EDE3F0E05E
:102670001082E4E2F0E08FE38083E5E2F0E0108294
:10268000E7E2F0E08FE38083E8E2F0E01082EAE244
:10269000F0E08EEF8083EBE2F0E01082ABE2B0E09E
:1026A000EBE2F0E0808180618C93ABE2B0E0EBE2A2
:1026B000F0E0808188608C93ABE2B0E0EBE2F0E088
:1026C000808180628C9382E393E0DC01A158BF4F4C
:1026D0008AE792E026E832E142E152E1E2E1F2E10A
:1026E000B9019F0100E010E07D01CC24C394AA242D
:1026F000BB246894A1F888240E94F80B82E393E03D
:10270000DC01A150BF4F88EA92E022E932E146E2C3
:1027100052E1E6E2F2E1B9019F0100E010E07D0143
:10272000CC246894C1F80F2EF3E0AF2EBB24F02D1B
:1027300088240E94F80B82E393E0DC01A158BE4F8D
:1027400086ED92E02EE932E14AE352E1EAE3F2E17A
:10275000B9019F0100E010E07D01CC246894C1F82C
:10276000AA24BB246894A2F8882483940E94F80BBE
:1027700082E692E190936F0280936E0282E692E18C
:1027800090936D0280936C028AE792E00E949E0C07
:1027900088EA92E00E949E0C86ED92E00E949E0CD8
:1027A0000E94A00180E090E0CF91DF911F910F91F6
:1027B000FF90EF90CF90BF90AF908F900895F894D6
:0227C000FFCF49
:0227C200010014
:00000001FF
