:100000000C9446000C9463000C9415020C9463004D
:100010000C9463000C9463000C9463000C944201F4
:100020000C9463000C9463000C9463000C946300C4
:100030000C9463000C9463000C9463000C946300B4
:100040000C9463000C9463000C9463000C946300A4
:100050000C9463000C9463000C9463000C94630094
:100060000C9463000C9463007402BD02F5022C032F
:1000700046036B03CE03DF03EF03FF030F041F04EC
:1000800036045004600476049004AA0411241FBEB0
:10009000CFEFD8E0DEBFCDBF11E0A0E0B1E0E6EEEB
:1000A000F6E202C005900D92A230B107D9F714E034
:1000B000A2E0B1E001C01D92A23BB107E1F70E94AE
:1000C00080120C9471130C9400002F922FB62F9273
:1000D0003F924F925F926F927F928F929F92AF92D8
:1000E000BF92CF92DF92EF92FF920F931F932F93C5
:1000F0003F934F935F936F937F938F939F93AF93B0
:10010000BF93CF93DF93EF93FF93EDB7FEB721A19A
:1001100030A101A210A211248DB79EB72F933F9357
:1001200008953F912F919EBF8DBFFEB7EDB710A0F0
:1001300001A030A321A3FF91EF91DF91CF91BF9157
:10014000AF919F918F917F916F915F914F913F916F
:100150002F911F910F91FF90EF90DF90CF90BF9064
:10016000AF909F908F907F906F905F904F903F9057
:100170002F902FBE2F900895DF93CF93CDB7DEB78A
:10018000F894CF91DF910895DF93CF93CDB7DEB789
:100190007894CF91DF910895DF93CF93CDB7DEB7F9
:1001A00080919E0190919F01CF91DF910895DF93FF
:1001B000CF9300D000D000D0CDB7DEB79A8389832B
:1001C0007C836B835E834D8343EA53E089819A810C
:1001D0002D813E81BA01A9010E94BA0426960FB66C
:1001E000F894DEBF0FBECDBFCF91DF910895DF93AE
:1001F000CF93CDB7DEB7809100018160809300017D
:10020000CF91DF9108950E94650090939D018093A6
:100210009C0180919A0190919B010E9491001895F8
:10022000DF93CF93CDB7DEB780910001882F90E0A8
:1002300081709070882379F0809100018E7F809387
:10024000000180919A0190919B010E94380F909338
:100250009B0180939A010E94030180910001882FE5
:1002600090E084709070009739F00E94D7018091DF
:1002700000018B7F80930001E0919801F09199013A
:100280000995D2CF0E94650090939B0180939A01BB
:1002900085E591E0909399018093980180919C016C
:1002A00090919D010E9491000895DF93CF93CDB767
:1002B000DEB78091F8019091F90101969093F901D0
:1002C0008093F80180919A0190919B010E94800E89
:1002D00090939B0180939A01CF91DF910895DF93D2
:1002E000CF93CDB7DEB7F8940E94BC0987E991E0BF
:1002F00028E532E1B90140E050E00E94BA04909351
:100300009B0180939A0180919A0190919B01909317
:10031000F5018093F40181E090E09093C701809310
:10032000C601CF91DF910895DF93CF93CDB7DEB7AC
:100330000E9490111092C7011092C6010E941001F4
:10034000CF91DF910895DF93CF9300D000D000D0FC
:10035000CDB7DEB780910201882301F180910201BF
:10036000882F90E0880F991F88599F4F9C838B831B
:100370008B819C81FC01859194919A838983FC8374
:10038000EB8389819A819E838D8380910301909173
:100390000401ED81FE8109951092020126960FB6A7
:1003A000F894DEBF0FBECDBFCF91DF910895DF93EC
:1003B000CF9300D000D0CDB7DEB780919A01909155
:1003C0009B0107969C838B83EB81FC818081882F26
:1003D00090E09A8389838B819C8101969C838B8397
:1003E00089819A81982F88279A838983EB81FC8160
:1003F0008081282F30E089819A81822B932B9A83E8
:100400008983E981FA81808180930201E981FA81FF
:100410008181928190930401809303010F900F904A
:100420000F900F90CF91DF9108950E9465009093F7
:100430009B0180939A0188E292E0909399018093C6
:10044000980180919C0190919D010E9491000895D6
:10045000DF93CF93CDB7DEB70E94A3018091000157
:100460008D7F80930001CF91DF910895DF93CF932B
:1004700000D0CDB7DEB79A838983F89480910001CC
:100480008660809300010E946D11789489819A8121
:100490000F900F90CF91DF910895DF93CF9300D00D
:1004A0000F92CDB7DEB789837B836A83898180937E
:1004B00015018A819B81909317018093160185E134
:1004C00091E00E94360200000000000080910001CF
:1004D000882F90E0827090700097C1F70F900F9076
:1004E0000F90CF91DF9108958F92AF92BF92CF92EC
:1004F000DF92EF92FF920F931F93DF93CF9300D081
:10050000CDB7DEB79A838983E981FA8180819181B1
:10051000E981FA8122813381E981FA81448155811F
:10052000E981FA8106811781E981FA81E084F18409
:10053000E981FA81C284D384E981FA81B484E981B2
:10054000FA81A585B685E981FA81E785B901980127
:1005500087017601CB2C5D018E2E0E94920B0F90AD
:100560000F90CF91DF911F910F91FF90EF90DF904F
:10057000CF90BF90AF908F9008950F931F93DF930C
:10058000CF9300D0CDB7DEB79A83898309811A81D2
:10059000E981FA81808191810E94380CF80182837F
:1005A0000F900F90CF91DF911F910F910895DF93DE
:1005B000CF9300D000D00F92CDB7DEB79D838C8350
:1005C0008C819D819A8389831B8281E09E012F5FAC
:1005D0003F4FB9010E944D028B810F900F900F90F9
:1005E0000F900F90CF91DF9108950F931F93DF939A
:1005F000CF9300D0CDB7DEB79A83898309811A8162
:10060000E981FA81808191810E94580CF8018283EE
:100610000F900F90CF91DF911F910F910895DF936D
:10062000CF9300D000D00F92CDB7DEB79D838C83DF
:100630008C819D819A83898382E09E012F5F3F4F49
:10064000B9010E944D028B810F900F900F900F9077
:100650000F90CF91DF9108950F931F93DF93CF9366
:1006600000D0CDB7DEB79A83898309811A81E981E9
:10067000FA81808191810E94BA0CF80182830F90E7
:100680000F90CF91DF911F910F910895DF93CF933A
:1006900000D000D0CDB7DEB79C838B8380919E01C4
:1006A00090919F019A83898389819A810E94A10CEC
:1006B0000F900F900F900F90CF91DF910895DF93DF
:1006C000CF93CDB7DEB784E061E070E00E944D02C9
:1006D000CF91DF910895DF93CF9300D000D0CDB7B5
:1006E000DEB79C838B838B819C819A838983E9818C
:1006F000FA818385882F90E084709070009741F094
:10070000E981FA8183858068E981FA81838707C05E
:10071000E981FA8183858064E981FA818387E981AF
:10072000FA8183858D7DE981FA81838789819A8128
:100730000E94D9070E94F7000F900F900F900F9022
:10074000CF91DF910895DF93CF9300D000D000D0F8
:10075000CDB7DEB79E838D83F894ED81FE8182A1B3
:1007600093A19C838B83ED81FE8180A591A59A83C3
:100770008983789489819A81EB81FC8109952D8107
:100780003E8185E0B9010E944D0226960FB6F8948D
:10079000DEBF0FBECDBFCF91DF910895DF93CF9322
:1007A00000D0CDB7DEB79A838983E981FA81808151
:1007B0000E940F0D0F900F90CF91DF910895DF935E
:1007C000CF9300D0CDB7DEB79A83898389819A8190
:1007D0000E9419100F900F90CF91DF910895DF9331
:1007E000CF9300D0CDB7DEB79A83898389819A8170
:1007F0000E9429100F900F90CF91DF910895DF9301
:10080000CF9300D0CDB7DEB79A83898389819A814F
:100810000E944E100F900F90CF91DF910895DF93BB
:10082000CF9300D0CDB7DEB79A83898389819A812F
:100830000E9477100F900F90CF91DF910895DF9372
:10084000CF9300D0CDB7DEB79A838983E981FA814F
:1008500080819181E981FA8122813381B9010E94ED
:10086000900F0F900F90CF91DF9108950F931F93EA
:10087000DF93CF9300D0CDB7DEB79A838983098108
:100880001A81E981FA81808191810E94AB0FF80180
:1008900082830F900F90CF91DF911F910F91089558
:1008A000DF93CF9300D0CDB7DEB79A838983898158
:1008B0009A810E94E60F0F900F90CF91DF910895DB
:1008C000DF93CF9300D0CDB7DEB79A838983E981D8
:1008D000FA8180819181E981FA812281622F0E94CF
:1008E000F1090F900F90CF91DF9108950F931F930F
:1008F000DF93CF9300D0CDB7DEB79A838983098188
:100900001A81E981FA81808191810E940C0AF801A3
:1009100082830F900F90CF91DF911F910F910895D7
:100920000F931F93DF93CF9300D0CDB7DEB79A8399
:10093000898309811A81E981FA81808191810E94EC
:10094000540AF80182830F900F90CF91DF911F918D
:100950000F910895DF93CF9300D0CDB7DEB79A8380
:10096000898389819A810E94800A0F900F90CF918C
:10097000DF910895DF93CF93CDB7DEB72A970FB6F7
:10098000F894DEBF0FBECDBF9E838D8378876F83C3
:100990005A8749878D819E819C838B838F8198851F
:1009A0009A8389838981EB81FC8180838B819C81FF
:1009B00001979C838B8389819A81892F99279A83B8
:1009C00089838981EB81FC8180838B819C81019764
:1009D0009C838B83EB81FC8110828B819C810197AE
:1009E0009C838B83EB81FC8110828B819C8101979E
:1009F0009C838B83EB81FC8182E080838B819C8153
:100A000001979C838B83EB81FC8180E880838B81C1
:100A10009C8101979C838B83EB81FC8183E08083A5
:100A20008B819C8101979C838B83EB81FC8184E08B
:100A300080838B819C8101979C838B83EB81FC81DC
:100A400085E080838B819C8101979C838B83EB81E4
:100A5000FC8186E080838B819C8101979C838B83C2
:100A6000EB81FC8187E080838B819C8101979C8353
:100A70008B83EB81FC8188E080838B819C81019753
:100A80009C838B83EB81FC8189E080838B819C81BB
:100A900001979C838B83EB81FC8180E180838B8138
:100AA0009C8101979C838B83EB81FC8181E1808316
:100AB0008B819C8101979C838B83EB81FC8182E1FC
:100AC00080838B819C8101979C838B83EB81FC814C
:100AD00083E180838B819C8101979C838B83EB8155
:100AE000FC8184E180838B819C8101979C838B8333
:100AF000EB81FC8185E180838B819C8101979C83C4
:100B00008B83EB81FC8186E180838B819C810197C3
:100B10009C838B83EB81FC8187E180838B819C812B
:100B200001979C838B83EB81FC8188E180838B819F
:100B30009C8101979C838B83EB81FC8189E180837D
:100B40008B819C8101979C838B83EB81FC8180E26C
:100B500080838B819C8101979C838B83EB81FC81BB
:100B600081E280838B819C8101979C838B83EB81C5
:100B7000FC8182E280838B819C8101979C838B83A3
:100B8000EB81FC8183E280838B819C8101979C8334
:100B90008B8389859A859A8389838981EB81FC81FE
:100BA00080838B819C8101979C838B8389819A812F
:100BB000892F99279A8389838981EB81FC8180839E
:100BC0008B819C8101979C838B83EB81FC8186E2E6
:100BD00080838B819C8101979C838B83EB81FC813B
:100BE00087E280838B819C8101979C838B83EB813F
:100BF000FC8188E280838B819C8101979C838B831D
:100C0000EB81FC8189E280838B819C8101979C83AD
:100C10008B83EB81FC8180E380838B819C810197B6
:100C20009C838B83EB81FC8181E380838B819C811E
:100C300001979C838B838B819C812A960FB6F894B5
:100C4000DEBF0FBECDBFCF91DF910895DF93CF936D
:100C5000CDB7DEB70E94BC008091C6019091C7015C
:100C600001969093C7018093C601CF91DF910895BB
:100C7000DF93CF93CDB7DEB78091C6019091C701C6
:100C8000009749F08091C6019091C7010197909318
:100C9000C7018093C6018091C6019091C70100975A
:100CA00011F40E94C400CF91DF910895DF93CF9398
:100CB00000D000D00F92CDB7DEB79C838B836D83BD
:100CC0008B819C8106969A8389838B819C810E946B
:100CD0003C0989819A816D810E94AC08EB81FC817D
:100CE00089819A81958384830F900F900F900F9044
:100CF0000F90CF91DF910895DF93CF93CDB7DEB7FB
:100D000028970FB6F894DEBF0FBECDBF9E838D83AC
:100D100078876F83ED81FE810480F581E02D8281EB
:100D20008C838C81282F30E081E090E002C0880F16
:100D3000991F2A95E2F78B832F8138858C81882F24
:100D400090E0880F991F820F931F9A838983EF8108
:100D5000F88590898B818923882351F08D819E812C
:100D6000E981FA8120813181B9010E9454090EC0C4
:100D70008D819E81E981FA8191838083EF81F8855D
:100D800090898B81892BEF81F885808BED81FE81A5
:100D90000480F581E02D8F8198859183808328964A
:100DA0000FB6F894DEBF0FBECDBFCF91DF9108958F
:100DB000DF93CF93CDB7DEB72A970FB6F894DEBF97
:100DC0000FBECDBF98878F837A876987EF81F885BB
:100DD0000480F581E02D82818E838E81282F30E082
:100DE00081E090E002C0880F991F2A95E2F78D8379
:100DF00029853A858E81882F90E0880F991F820F70
:100E0000931F9C838B83EF81F885848195819A83DE
:100E10008983E985FA8590898D818923882331F139
:100E20008F819885EB81FC8120813181B9010E94FD
:100E3000540989819A810E94C908EB81FC818081D3
:100E40009181FC01848195819A838983EF81F88562
:100E500089819A8195838483E981FA818381948150
:100E60000196E981FA819483838314C08F819885E8
:100E7000EB81FC8191838083E985FA8590898D815E
:100E8000892BE985FA85808BE981FA8189859A85A4
:100E9000918380832A960FB6F894DEBF0FBECDBF34
:100EA000CF91DF910895DF93CF9300D000D00F92C0
:100EB000CDB7DEB79D838C83EC81FD810480F58105
:100EC000E02D82818B83EC81FD810480F581E02D12
:100ED000808191819A838983EC81FD810480F581F1
:100EE000E02D8381948182309105B8F0EC81FD8101
:100EF0000480F581E02D838194810197948383831D
:100F00000E94E308EC81FD8195838483EC81FD815F
:100F10000480F581E02D8B818283EC81FD8120812D
:100F200031818C819D812817390709F58B81882FA4
:100F300090E029813A81880F991FF901E80FF91F84
:100F400011821082E981FA818089482F8B81282FB4
:100F500030E081E090E0022E02C0880F991F0A94D1
:100F6000E2F780958423E981FA81808B1AC08B8116
:100F7000882F90E029813A81880F991FF901E80FA5
:100F8000F91F208131818C819D812817390729F42F
:100F900089819A816B810E9445118C819D810E947B
:100FA00086090F900F900F900F900F90CF91DF91C7
:100FB0000895DF93CF9300D0CDB7DEB79A838983AE
:100FC00089819A810E945307E981FA810480F58121
:100FD000E02D118210820F900F90CF91DF91089534
:100FE000DF93CF93CDB7DEB72C970FB6F894DEBF63
:100FF0000FBECDBF9A8789877C876B8781E0888702
:101000001F829AC0E985FA8590898885892388237B
:1010100009F48CC0EB85FC85908988858923882319
:1010200009F443C08F81882F90E029853A85880F85
:10103000991FF901E80FF91F808191819E838D83AB
:101040008F81882F90E02B853C85880F991FF901AF
:10105000E80FF91F808191819C838B83ED81FE8154
:101060000280F381E02D8B819C8191838083EB81D1
:10107000FC810280F381E02D8D819E8191838083AC
:10108000EB81FC81828193819A838983ED81FE814A
:1010900082819381EB81FC8193838283ED81FE8148
:1010A00089819A819383828321C08F81682F70E028
:1010B0008F81882F90E029853A85880F991FF90143
:1010C000E80FF91F408151812B853C85CB01880FAA
:1010D000991FF901E80FF91F51834083EB85FC85C7
:1010E00090898885892BEB85FC85808B8F81882F63
:1010F00090E029853A85880F991FF901E80FF91FBB
:1011000080819181FC010480F581E02D8B859C8597
:10111000918380838F81882F90E029853A85880F7D
:10112000991FF901E80FF91F118210828885880F35
:1011300088878F818F5F8F838885882309F062CFAE
:10114000E985FA85108A2C960FB6F894DEBF0FBE9B
:10115000CDBFCF91DF910895DF93CF9300D00F9251
:10116000CDB7DEB79A8389836B83E981FA811182D7
:101170001082E981FA818B818283E981FA8181E0A1
:1011800090E0948383830F900F900F90CF91DF9125
:101190000895DF93CF9300D0CDB7DEB79A838983CC
:1011A0008091F6019091F701E981FA819183808322
:1011B00089819A819093F7018093F6010F900F90A7
:1011C000CF91DF910895DF93CF9300D0CDB7DEB7F5
:1011D0008091F6019091F7019A838983E981FA81E0
:1011E000808191819093F7018093F60189819A81A2
:1011F0000F900F90CF91DF910895DF93CF9300D0A0
:1012000000D000D0CDB7DEB78E831D828FEF8C83E8
:101210008FEF8B8388E0898322C0898186958983BB
:101220008B81282F30E08981882F90E0A90102C0AE
:10123000559547958A95E2F7CA018A839E818C81EC
:1012400098238A818923882319F08A818B8307C098
:101250008A8180958C839D818981890F8D83898185
:101260008823D9F68D8126960FB6F894DEBF0FBE7F
:10127000CDBFCF91DF910895DF93CF9300D0CDB74D
:10128000DEB79A838983E981FA8189819A81938380
:101290008283E981FA8189819A81918380830F9089
:1012A0000F90CF91DF910895DF93CF9300D000D0BE
:1012B00000D0CDB7DEB79C838B837E836D83ED81B9
:1012C000FE81828193819A838983EB81FC8189816C
:1012D0009A8193838283EB81FC818D819E819183AE
:1012E0008083ED81FE818B819C8193838283E98160
:1012F000FA818B819C819183808326960FB6F89426
:10130000DEBF0FBECDBFCF91DF910895DF93CF93A6
:1013100000D000D000D0CDB7DEB79E838D83ED81A5
:10132000FE81828193819C838B83ED81FE8180810C
:1013300091819A838983E981FA818B819C8193834E
:101340008283EB81FC8189819A8191838083ED8105
:10135000FE818D819E8193838283ED81FE818D81CB
:101360009E819183808326960FB6F894DEBF0FBED0
:10137000CDBFCF91DF9108958F92AF92BF92CF9260
:10138000EF92FF920F931F93DF93CF93CDB7DEB70A
:1013900088EC91E028E532E1B90140E050E020E03E
:1013A00030E000E010E0EE24FF240F2EF7E0CF2E17
:1013B000F02DAA24BB24A39488240E94920B8EE9CA
:1013C00091E028EC31E0B9010E94170ECF91DF9136
:1013D0001F910F91FF90EF90CF90BF90AF908F90A3
:1013E0000895DF93CF9300D00F92CDB7DEB79A83E5
:1013F00089836B8389819A810E94EF10E981FA8148
:1014000081E0828BE981FA818B81818B0F900F9033
:101410000F90CF91DF910895DF93CF9300D000D04C
:101420000F92CDB7DEB79D838C83EC81FD818289DD
:101430008B830E94CC009A838983EC81FD81218972
:1014400089819A81622F0E94450D8B81882341F00A
:10145000EC81FD81128A89819A810E94C80D1BC08E
:10146000E981FA8183858860E981FA818387E9814E
:10147000FA8183858D7FE981FA81838789819A81C9
:101480000E94D90789819A812C813D81B9010E94EE
:101490007C060E94F7008B810F900F900F900F90A9
:1014A0000F90CF91DF910895DF93CF9300D000D0BC
:1014B0000F92CDB7DEB79D838C83EC81FD8182894D
:1014C0008B830E94CC009A8389838B81882379F057
:1014D000EC81FD81128AEC81FD81218989819A81CB
:1014E000622F0E94450D89819A810E94C80D8B81CF
:1014F0000F900F900F900F900F90CF91DF91089564
:10150000DF93CF9300D000D0CDB7DEB79C838B8321
:101510000E94CC009A838983EB81FC812189898197
:101520009A81622F0E94660DE981FA818385882F56
:1015300090E0807290700097A1F0E981FA81838534
:10154000882F90E084709070009759F489819A8177
:101550000E94D90789819A810E94870D0E94F70015
:1015600004C089819A810E94C80DEB81FC81808929
:10157000882329F4EB81FC8181E0828B19C08B8167
:101580009C810E9419119A838983E981FA8183855C
:10159000877FE981FA81838789819A810E94D907AF
:1015A00089819A810E94870D89819A810E941A0CF3
:1015B0000F900F900F900F90CF91DF910895DF93D0
:1015C000CF9300D00F92CDB7DEB79B838A83EA8199
:1015D000FB81108A19820FC08981882F90E02A81AF
:1015E0003B81880F991FF901E80FF91F11821082C2
:1015F00089818F5F89838981883070F30F900F9084
:101600000F90CF91DF910895DF93CF9300D00F9289
:10161000CDB7DEB79A8389836B838B81682F70E0A7
:1016200029813A81CB01880F991FF901E80FF91F31
:1016300080819181AC014F5F5F4F29813A81CB015D
:10164000880F991FF901E80FF91F51834083E98141
:10165000FA818089482F8B81282F30E081E090E04B
:10166000022E02C0880F991F0A94E2F7842BE981A9
:10167000FA81808B0F900F900F90CF91DF9108959A
:10168000DF93CF9300D000D0CDB7DEB79B838A83A2
:101690006C838C81282F30E081E090E002C0880FBD
:1016A000991F2A95E2F789838C81682F70E02A813F
:1016B0003B81CB01880F991FF901E80FF91F808149
:1016C0009181AC01415050402A813B81CB01880F70
:1016D000991FF901E80FF91F518340838C81882FEE
:1016E00090E02A813B81880F991FF901E80FF91FCB
:1016F00080819181009751F4EA81FB818089982F44
:10170000898180958923EA81FB81808BEA81FB8135
:101710009089898189230F900F900F900F90CF911E
:10172000DF9108958F92AF92BF92CF92EF92FF9286
:101730000F931F93DF93CF93CDB7DEB761970FB6AB
:10174000F894DEBF0FBECDBF9A8389837C836B8301
:101750005E834D8338872F831A870987FC86EB8643
:10176000CD86BF86AE86888A89819A816D850E94E2
:1017700056068889898B8989882311F081E0898BB5
:101780008989E981FA81838789819A810D960E94EE
:10179000DF0AE981FA818D858487E981FA818E8566
:1017A0009F85978F868FE981FA818E859F8591A38A
:1017B00080A3E981FA818B819C8193A382A3E98133
:1017C000FA818D819E8195A384A3E981FA818F811D
:1017D000988597A386A3E981FA8189859A8591A73F
:1017E00080A7E981FA818B859C8593A782A78B8549
:1017F0009C85009771F043EA53E08B859C85298195
:101800003A81BA01A9010E94D700E981FA8195A71E
:1018100084A761960FB6F894DEBF0FBECDBFCF91FF
:10182000DF911F910F91FF90EF90CF90BF90AF90FD
:101830008F900895DF93CF9300D0CDB7DEB79A8312
:101840008983E981FA8183858260E981FA818387CE
:1018500089819A812091A0013091A101B9010E9452
:101860007C060E94F7000F900F90CF91DF910895B2
:10187000DF93CF9300D00F92CDB7DEB79B838A83DF
:1018800081E08983EA81FB818385882F90E08A7DCE
:101890009070009711F0198204C08A819B810E9488
:1018A0001A0C89810F900F900F90CF91DF910895BE
:1018B000DF93CF9300D00F92CDB7DEB79B838A839F
:1018C00081E08983EA81FB818385882F90E08E7B8C
:1018D0009070009711F019822DC0EA81FB818385F9
:1018E0008170EA81FB8183878A819B810D960E94AA
:1018F000DF0AEA81FB81868D978DEA81FB8191A3C6
:1019000080A3EA81FB8182A593A5009779F0EA8103
:10191000FB8182A593A523EA33E04A815B81B9016B
:101920000E94D700EA81FB8195A784A78A819B81C9
:101930000E941A0C89810F900F900F90CF91DF9128
:101940000895DF93CF9300D0CDB7DEB79A83898314
:10195000E981FA8183858D7FE981FA818387898195
:101960009A810E94D9070E94F7000F900F90CF91A3
:10197000DF910895DF93CF9300D00F92CDB7DEB7FC
:101980009B838A831982EA81FB818385882F90E07B
:101990008C719070009741F0EA81FB8183858062B1
:1019A000EA81FB8183870FC0EA81FB818385882FD1
:1019B00090E082709070009731F08A819B810E9444
:1019C000A10C81E0898389810F900F900F90CF91B6
:1019D000DF910895DF93CF9300D0CDB7DEB70E949B
:1019E000260680919E0190919F019A838983E981C7
:1019F000FA818385882F90E081709070882341F070
:101A0000E981FA81868D978DE981FA8191A380A37E
:101A10000E9438060F900F90CF91DF910895DF93C9
:101A2000CF9300D00F92CDB7DEB78B830E94CC004E
:101A30009A838983E981FA8193858B818923E9815E
:101A4000FA818387E981FA818385882F90E080720B
:101A500090700097A1F0E981FA818385882F90E04A
:101A600084709070009759F4E981FA8183858F7DA5
:101A7000E981FA81838789819A810E94A10C0F9064
:101A80000F900F90CF91DF910895DF93CF9300D007
:101A90000F92CDB7DEB79A8389836B83E981FA8190
:101AA000858D882339F4E981FA8183858460E98111
:101AB000FA81838789819A810D966B810E94040B3C
:101AC0000F900F900F90CF91DF910895DF93CF93F8
:101AD00000D00F92CDB7DEB79A8389836B8389815B
:101AE0009A810D966B810E94400BE981FA81858D68
:101AF000882339F4E981FA8183858B7FE981FA8132
:101B000083870F900F900F90CF91DF910895DF930F
:101B1000CF93CDB7DEB727970FB6F894DEBF0FBED1
:101B2000CDBF9B838A83EA81FB81858D8823E9F081
:101B3000EA81FB81858D0E94FD088983EA81FB8112
:101B4000848195819E838D83EA81FB81848599813F
:101B50009F838C83EC81FF81FE1710F48F818C832F
:101B60008C81ED81FE8182830AC0EA81FB81A481A0
:101B7000B581EA81FB81848512968C931297279612
:101B80000FB6F894DEBF0FBECDBFCF91DF910895A1
:101B9000DF93CF9300D000D000D0CDB7DEB79C83C9
:101BA0008B83EB81FC81858D8823A9F0EB81FC81FF
:101BB000858D0E94FD088983EB81FC818485998154
:101BC0009E838D838D819E81981710F48E818D83E5
:101BD0009D819A8304C0EB81FC8184858A83EB819B
:101BE000FC810480F581E02D92818A819817B1F003
:101BF0008B819C810E94D907EB81FC810480F58157
:101C0000E02D8A8182838B819C812091A00130917B
:101C1000A101B9010E947C060E94F70026960FB62A
:101C2000F894DEBF0FBECDBFCF91DF910895DF9353
:101C3000CF9300D000D0CDB7DEB79A8389837C8361
:101C40006B8389819A810696E981FA8193838283E5
:101C5000E981FA81828193810E94EF1089819A81C2
:101C60004796E981FA8195838483E981FA818481A9
:101C700095810E94EF108B819C81E981FA812281FC
:101C80003381B9010E947C06E981FA818B819C81B4
:101C900091838083E981FA8111A610A60F900F909D
:101CA0000F900F90CF91DF910895DF93CF9300D0E5
:101CB00000D0CDB7DEB79C838B83EB81FC810280A3
:101CC000F381E02D80898823A1F4EB81FC8182815E
:101CD00093819A838983EB81FC8184819581EB8157
:101CE000FC8193838283EB81FC8189819A81958336
:101CF00084830F900F900F900F90CF91DF910895F4
:101D0000DF93CF93CDB7DEB727970FB6F894DEBF3A
:101D10000FBECDBF9F838E838EE991E09D838C8320
:101D2000EC81FD81808191819B838A83EA81FB81A3
:101D30008E819F8195A784A7EA81FB8184A195A1CB
:101D4000009751F0EA81FB8124A135A1EA81FB8152
:101D500080A591A5F9010995EA81FB810480F581AF
:101D6000E02D808191819C01EC81FD8182819381B4
:101D70002817390709F04DC0EC81FD8182819381DC
:101D8000EA81FB810480F581E02D2281622F0E948F
:101D90004511EA81FB8180A191A18230910550F02B
:101DA000EA81FB8180A191A10197EA81FB8191A346
:101DB00080A32FC08A819B810E945307EA81FB8107
:101DC000838589838981882F90E081709070009746
:101DD00091F4EA81FB81868D978DEA81FB8191A345
:101DE00080A38A819B81EC81FD8124813581B901A9
:101DF0000E947C060EC0EA81FB810480F581E02D03
:101E000011821082EA81FB8183858D7FEA81FB81CB
:101E100083878C819D810E94550EEC81FD8182819A
:101E200093810E9419119B838A83EC81FD818A81B1
:101E30009B8191838083EA81FB8186A197A1009792
:101E400051F0EA81FB8126A137A1EA81FB8180A5BF
:101E500091A5F9010995EA81FB8184A595A52796AD
:101E60000FB6F894DEBF0FBECDBFCF91DF910895BE
:101E7000DF93CF9300D000D000D0CDB7DEB79E83E4
:101E80008D838EE991E09C838B83EB81FC81808143
:101E900091819A838983E981FA818D819E8195A7B9
:101EA00084A7E981FA8184A195A1009751F0E98185
:101EB000FA8124A135A1E981FA8180A591A5F901D2
:101EC00009958B819C810E94550EEB81FC8182815A
:101ED00093810E9419119A838983EB81FC81898106
:101EE0009A8191838083E981FA8186A197A10097E5
:101EF00051F0E981FA8126A137A1E981FA8180A513
:101F000091A5F9010995E981FA8184A595A52696FF
:101F10000FB6F894DEBF0FBECDBFCF91DF9108950D
:101F2000DF93CF9300D000D0CDB7DEB79A838983FB
:101F30007C836B8389819A810E94EF10E981FA8109
:101F40008B819C81928B818B0F900F900F900F90C3
:101F5000CF91DF910895DF93CF9300D000D00F92FF
:101F6000CDB7DEB79D838C831B82EC81FD81818997
:101F70009289009761F0EC81FD81818992890197B6
:101F8000EC81FD81928B818B81E08B8316C00E9456
:101F9000CC009A838983E981FA8183858860E9810D
:101FA000FA81838789819A810E94A10C89819A8113
:101FB0002C813D81B9010E947C068B810F900F908E
:101FC0000F900F900F90CF91DF910895DF93CF93F3
:101FD00000D000D0CDB7DEB79C838B83EB81FC8132
:101FE0008089882351F4EB81FC8181899289019653
:101FF000EB81FC81928B818B15C08B819C810E942F
:1020000019119A838983E981FA818385877FE98120
:10201000FA81838789819A810E94D90789819A816F
:102020000E941A0C0F900F900F900F90CF91DF919C
:102030000895DF93CF9300D0CDB7DEB79A8389831D
:1020400089819A810E94EF100F900F90CF91DF91BC
:102050000895DF93CF9300D000D0CDB7DEB79C8337
:102060008B830E94CC009A83898389819A810E9404
:10207000A10CE981FA8183858061E981FA818387F6
:1020800089819A812B813C81B9010E94D8060F90E9
:102090000F900F900F90CF91DF910895DF93CF9322
:1020A00000D000D0CDB7DEB79C838B83EB81FC8161
:1020B00080898823A9F08B819C810E9419119A83C1
:1020C000898389819A810E94530789819A8120910D
:1020D000A0013091A101B9010E947C060E94F70085
:1020E0000F900F900F900F90CF91DF910895DF9395
:1020F000CF9300D0CDB7DEB79A8389832091A0011A
:102100003091A10189819A81B9010E94F0070E9452
:10211000F7000F900F90CF91DF910895DF93CF9349
:1021200000D0CDB7DEB79A8389830E9426068091BE
:10213000F8019091F901E981FA81918380830E94ED
:1021400038060F900F90CF91DF910895DF93CF93D2
:1021500000D000D0CDB7DEB79C838B830E942606CB
:102160002091F8013091F9018B819C81A901481BD4
:10217000590BCA019A8389830E94380689819A8102
:102180000F900F900F900F90CF91DF910895DF93F4
:10219000CF9300D000D00F92CDB7DEB79D838C8354
:1021A00081E08983CE0102960E948E100DC08A8143
:1021B0009B810E94A6109C0119828C819D81281709
:1021C000390710F481E089838981882381F70F9092
:1021D0000F900F900F900F90CF91DF910895DF93A4
:1021E000CF9300D000D0CDB7DEB79C838B83EB813B
:1021F000FC81108A1A82198210C089819A812B81F0
:102200003C81880F991FF901E80FF91F1182108294
:1022100089819A8101969A83898389819A818830FC
:10222000910558F30F900F900F900F90CF91DF9181
:102230000895DF93CF9300D000D00F92CDB7DEB7D3
:102240009D838C831B821A82EC81FD818089898326
:102250008981882381F089810E94FD08882F90E080
:102260002C813D81880F991FF901E80FF91F8081AA
:1022700091819B838A838A819B810F900F900F901D
:102280000F900F90CF91DF910895DF93CF9300D0FF
:1022900000D00F92CDB7DEB79C838B836D832B81EB
:1022A0003C818D81882F90E0880F991F820F931FAA
:1022B0009A838983E981FA810190F081E02D808100
:1022C0009181E981FA81918380830F900F900F9023
:1022D0000F900F90CF91DF910895DF93CF93CDB7FB
:1022E000DEB7ABE2B0E0EBE2F0E0808184608C939B
:1022F000ABE2B0E0EBE2F0E08081877F8C93ABE271
:10230000B0E0EBE2F0E080818B7F8C93ABE2B0E059
:10231000EBE2F0E0808188608C93CF91DF910895AB
:10232000DF93CF93CDB7DEB7A0E7B0E0E0E7F0E012
:10233000808182608C93ADE3B0E0EDE3F0E08081DA
:1023400082608C93ACE3B0E0ECE3F0E080818260EB
:102350008C93CF91DF910895DF93CF9300D0CDB7C9
:10236000DEB79A838983A5E2B0E0E5E2F0E09081F0
:1023700080E189278C930F900F90CF91DF91089582
:10238000DF93CF9300D0CDB7DEB79A838983A5E2E0
:10239000B0E0E5E2F0E0908188E089278C930F902F
:1023A0000F90CF91DF910895DF93CF9300D0CDB7F9
:1023B000DEB79A838983A5E2B0E0E5E2F0E09081A0
:1023C00084E089278C930F900F90CF91DF9108952F
:1023D000DF93CF9300D0CDB7DEB79A838983A5E290
:1023E000B0E0E5E2F0E0908182E089278C930F90E5
:1023F0000F90CF91DF910895DF93CF9300D0CDB7A9
:10240000DEB79A838983A5E2B0E0E5E2F0E090814F
:1024100080E289278C93ABE2B0E0EBE2F0E09081C0
:1024200080E489278C93ABE2B0E0EBE2F0E09081AE
:1024300080E289278C930F900F90CF91DF910895C0
:10244000DF93CF9300D0CDB7DEB79A83898384EF33
:1024500091E00E94C710FBCFDF93CF9300D0CDB7A0
:10246000DEB79A83898384EF91E00E94C710FBCF87
:10247000DF93CF9300D0CDB7DEB79A83898381E015
:1024800090E00E94C7100E94EA0C0E945F03F7CF01
:10249000DF93CF9300D0CDB7DEB79A83898384EFE3
:1024A00091E00E94C7100F900F90CF91DF91089597
:1024B000DF93CF9300D0CDB7DEB79A83898388EEC0
:1024C00093E00E94C71084E892E00E94D70288EE51
:1024D00093E00E94C71084E892E00E940F0384EF0B
:1024E00091E00E94C71084E892E00E94D70288EE33
:1024F00093E00E94C71086E592E00E94D702F7CFD2
:102500008F92AF92BF92CF92EF92FF920F931F9351
:10251000DF93CF93CDB7DEB70E946F01E0EBF0E021
:1025200082E08083E1EBF0E085E08083E3EBF0E0A4
:102530008CE78083E4EBF0E01082E0E7F0E01082CB
:10254000E7E3F0E01082E9E6F0E088E08083EDE385
:10255000F0E01082E4E2F0E08FE38083E5E2F0E077
:102560001082E7E2F0E08FE38083E8E2F0E010829F
:10257000EAE2F0E08EEF8083EBE2F0E01082ABE283
:10258000B0E0EBE2F0E0808180618C93ABE2B0E000
:10259000EBE2F0E0808188608C93ABE2B0E0EBE2AC
:1025A000F0E0808180628C9382EB92E0DC01A158A4
:1025B000BF4F8AEF91E020E232E14CEA51E1ECEAD0
:1025C000F1E1B9019F0100E010E07D01CC24C3944A
:1025D000AA24BB246894A1F888240E94920B82EB61
:1025E00092E0DC01A150BF4F88E292E02CE232E1A0
:1025F00040EC51E1E0ECF1E1B9019F0100E010E0B5
:102600007D01CC246894C1F80F2EF3E0AF2EBB24DB
:10261000F02D88240E94920B82EB92E0DC01A158FD
:10262000BE4F86E592E028E332E144ED51E1E4ED6E
:10263000F1E1B9019F0100E010E07D01CC24689434
:10264000C1F8AA24BB246894A2F8882483940E9429
:10265000920B82EB92E0DC01A150BE4F84E892E045
:1026600028E432E148EE51E1E8EEF1E1B9019F01E1
:1026700000E010E07D010F2EF3E0CF2EF02DAA2414
:10268000BB246894A2F888240E94920B8CEF91E1FD
:102690009093EF018093EE018CEF91E19093ED0127
:1026A0008093EC018AEF91E00E94380C88E292E07E
:1026B0000E94380C86E592E00E94380C84E892E093
:1026C0000E94380C0E94940180E090E0CF91DF914D
:1026D0001F910F91FF90EF90CF90BF90AF908F9090
:0626E0000895F894FFCFFD
:0226E6000100F1
:00000001FF
