:100000000C9446000C9463000C9497020C946300CB
:100010000C9463000C9463000C9463000C94FE0039
:100020000C9463000C9463000C9463000C946300C4
:100030000C9463000C9463000C9463000C946300B4
:100040000C9463000C9463000C9463000C946300A4
:100050000C9463000C9463000C9463000C94630094
:100060000C9463000C9463000802FB01EE01E101B3
:10007000DA01C901C401C101BE01BB01B801B0016F
:10008000A301A00199018C017F017C0111241FBEF5
:10009000CFEFD8E0DEBFCDBF11E0A0E0B1E0E0EDF2
:1000A000F3E102C005900D92A230B107D9F714E038
:1000B000A2E0B1E001C01D92A23BB107E1F70E94AE
:1000C00002090C94E6090C9400002F922FB62F928F
:1000D0003F924F925F926F927F928F929F92AF92D8
:1000E000BF92CF92DF92EF92FF920F931F932F93C5
:1000F0003F934F935F936F937F938F939F93AF93B0
:10010000BF93CF93DF93EF93FF93EDB7FEB721A19A
:1001100030A101A210A211248DB79EB72F933F9357
:1001200008953F912F919EBF8DBFFEB7EDB710A0F0
:1001300001A030A321A3FF91EF91DF91CF91BF9157
:10014000AF919F918F917F916F915F914F913F916F
:100150002F911F910F91FF90EF90DF90CF90BF9064
:10016000AF909F908F907F906F905F904F903F9057
:100170002F902FBE2F900895F894089578940895A5
:1001800080919E0190919F0108958091000181606E
:10019000809300010895F8940E94D00487E991E0CB
:1001A0006EEB79E040E050E00E94AA0290939B0140
:1001B00080939A019093F5018093F40181E090E09F
:1001C0009093C7018093C601089560E572E00E9494
:1001D000AA0208958091F8019091F90101969093F7
:1001E000F9018093F80180919A0190919B010E94FE
:1001F000470790939B0180939A0108950E946500A0
:1002000090939B0180939A018AEE90E090939901DC
:100210008093980180919C0190919D010E94910092
:1002200008950E94650090939D0180939C018091A8
:100230009A0190919B010E94910018958091000174
:1002400080FF0DC08E7F8093000180919A01909174
:100250009B010E940C0790939B0180939A010E943E
:1002600011018091000182FF07C00E94600180910E
:1002700000018B7F80930001E0919801F09199013A
:100280000995DCCF0E94DA081092C7011092C601CE
:100290000E941E01089580910201882381F090E060
:1002A000880F991F88599F4FFC01259134918091A7
:1002B000030190910401F90109951092020108953A
:1002C000E0919A01F0919B01978180E0E085F0E058
:1002D000E82BF92B80818093020181819281909398
:1002E00004018093030108950E944B018091000155
:1002F0008D7F8093000108950E94010508950F935A
:100300001F938C01FC01808191810E943B05F801C3
:1003100082831F910F9108950F931F938C01FC010D
:10032000808191810E945505F80182831F910F9170
:100330000895FC018081918162810E948005089569
:100340000E94D40708950F931F938C01FC018081B4
:1003500091810E94F107F80182831F910F91089506
:10036000FC0162817381808191810E94130808954C
:100370000E94230808950E942C0808950E944608B0
:1003800008950E945D080895FC0180810E946E0618
:100390000895FC01838582FF02C0806801C08064EB
:1003A000838783858D7D8387CF010E94B6030E945A
:1003B000C500089580919E0190919F010E941B06A7
:1003C00008950F931F938C01FC01808191810E94FD
:1003D0002506F80182831F910F9108950F931F93B3
:1003E0008C01FC01808191810E949106F801828339
:1003F0001F910F9108950F931F938C01FC01808131
:1004000091810E944806F80182831F910F910895FF
:100410008F92AF92BF92CF92EF92FF920F931F9362
:10042000FC01628173814481558126813781008579
:100430001185E284F384A584B68480819181C4848B
:1004400087840E94B6061F910F91FF90EF90CF9086
:10045000BF90AF908F9008950F931F93182F092F7F
:10046000F894809100018660809300010E94D50875
:100470007894812F902F1F910F91089580931501EB
:10048000709317016093160185E191E00E942C02A0
:100490000000000000008091000181FDFFCF089561
:1004A0000F931F938C01F8947894DC019296ED9150
:1004B000FC91939798968D919C919997099585E0D9
:1004C000B8010E943E021F910F91089584E061E0FF
:1004D00070E00E943E020895DF93CF9300D00F9208
:1004E000CDB7DEB79A83898382E0BE016F5F7F4F0D
:1004F0000E943E028B810F900F900F90CF91DF9161
:100500000895DF93CF9300D00F92CDB7DEB79A83D3
:1005100089831B8281E0BE016F5F7F4F0E943E0294
:100520008B810F900F900F90CF91DF9108950E94D3
:10053000650090939B0180939A0184E791E09093EA
:1005400099018093980180919C0190919D010E9456
:1005500091000895FC01608372931292129282E0DE
:10056000829380E8829383E0829384E0829385E0A3
:10057000829386E0829387E0829388E0829389E089
:10058000829380E1829381E1829382E1829383E18D
:10059000829384E1829385E1829386E1829387E16D
:1005A000829388E1829389E1829380E2829381E25F
:1005B000829382E2829383E282934293529386E211
:1005C000829387E2829388E2829389E2829380E336
:1005D000829381E382933197CF0108958091C60180
:1005E0009091C701009729F001979093C7018093DC
:1005F000C6018091C6019091C701892B11F40E9418
:10060000BE0008950E94BC008091C6019091C70170
:1006100001969093C7018093C60108950F931F938D
:10062000CF93DF93AC01EB0171E060E0FA018089C8
:10063000872309F444C02889872F8223E62FF0E01E
:1006400009F1EE0FFF1FDA01AE0FBF1F0D90BC9135
:10065000A02DEC0FFD1F0081118112962D913C9170
:100660001397F90111830083F80182819381FC01C2
:10067000B183A083F8013383228313969C938E93D6
:1006800012970DC0EE0FFF1FDE01AE0FBF1FE40F6C
:10069000F51F808191818D939C93272B288BE62FCA
:1006A000F0E0EE0FFF1FE40FF51FA081B18114965B
:1006B0000D90BC91A02DCD93DC9311821082770F09
:1006C000673011F06F5FB2CFFA01108ADF91CF91DE
:1006D0001F910F910895FF920F931F93CF93DF9374
:1006E000EC01EC81FD81F280008111818381948194
:1006F0008230910548F00197948383830E947704A8
:10070000FC019D838C83F28288819981AF2DB0E0BA
:100710008C179D07A9F4FD01EE0FFF1FE00FF11FDD
:100720001182108281E090E00F2C02C0880F991F87
:100730000A94E2F78095F80120892823208B10C0C5
:10074000AA0FBB1FA00FB11F8D919C918C179D0705
:1007500021F4C8016F2D0E94B008CE010E94BB0495
:10076000DF91CF911F910F91FF9008950F931F93E9
:100770008C010E946B03D8011496ED91FC911597A2
:10078000118210821F910F9108950F931F93CF93A1
:10079000DF938C01EB01DC011496ED91FC91159730
:1007A000228181E090E0022E02C0880F991F0A94F6
:1007B000E2F7982FE22FF0E028898223EE0FFF1F47
:1007C000882341F0E60FF71F60817181C8010E9404
:1007D000A90406C0E60FF71F11830083292B288B7D
:1007E000D8011496ED91FC911597D183C083DF91C8
:1007F000CF911F910F910895EF92FF920F931F9346
:10080000CF93DF93EC01DB01EC80FD80F701828167
:1008100021E030E0082E02C0220F331F0A94E2F7D5
:10082000E82FF0E050969C915097822F8923EE0F8D
:10083000FF1F8823D1F08D010E0F1F1FD8016D916E
:100840007C91CE010E94A904C7010E946B04D801CB
:10085000ED91FC910480F581E02DFD83EC83838193
:1008600094810196948383830BC0EA0FFB1FD1838D
:10087000C083922B50969C935097F701B183A0832D
:10088000DF91CF911F910F91FF90EF900895DF922C
:10089000EF92FF920F931F938C01D62E76E0E72EF6
:1008A000F12CE80EF91E0E94A304C7016D2D0E94D1
:1008B0006204F801F582E4821F910F91FF90EF909E
:1008C000DF900895FC0111821082628381E090E044
:1008D000948383830895FC018091F6019091F70140
:1008E00091838083F093F701E093F6010895E091FE
:1008F000F601F091F701808191819093F701809347
:10090000F601CF010895A82F70E0FFEFEFEF98E018
:1009100040E050E096952E2F30E0092E02C035952C
:1009200027950A94E2F78F2F8A23822311F0E22F72
:1009300003C0F22FF095790F4F5F5F4F44305105A0
:1009400049F7872F0895FC019383828391838083E5
:100950000895FC01DB0112968D919C91139793836E
:100960008283718360831396FC93EE931297DC016C
:10097000ED93FC930895CF93DF93FC0182819381E3
:10098000A081B18113969C938E931297EC01B98349
:10099000A883F383E283F183E083DF91CF9108950D
:1009A0006F927F928F92AF92BF92CF92EF92FF920F
:1009B0000F931F93A8EC6A2EA1E07A2EC3016EEB71
:1009C00079E040E050E020E030E000E010E0EE248C
:1009D000FF24F7E0CF2EE1E0AE2EB12C88240E9458
:1009E000B606C3018A97B3010E94B1071F910F9108
:1009F000FF90EF90CF90BF90AF908F907F906F90CF
:100A000008950F931F93CF93DF938C010E94C00032
:100A1000EC01F80161890E9453068B8585FF0BC0AC
:100A200082FD09C0CE010E94B603CE010E94DD0501
:100A30000E94C50003C0CE010E94F305F801808921
:100A4000882319F481E0828B11C0C8010E94BD087F
:100A50008C01FC018385877F8387C8010E94B603D0
:100A6000C8010E94DD05C8010E943A06DF91CF91BE
:100A70001F910F910895FF920F931F93CF93DF93D0
:100A8000EC01FA880E94C0008C01FF2039F01A8A1C
:100A900069890E946206C8010E94F3058F2DDF91CB
:100AA000CF911F910F91FF900895FF920F931F9385
:100AB000CF93DF938C01FC01F2880E94C000EC010F
:100AC000F80161890E946206FF2031F0F801128A64
:100AD000CE010E94F3050DC08B8588608D7F8B87CA
:100AE000CE010E94B603CE01B8010E94C5030E9448
:100AF000C5008F2DDF91CF911F910F91FF90089529
:100B0000FF920F931F938C01F62E0E94A00881E0A4
:100B1000F801828BF18A1F910F91FF900895DC01FB
:100B200050961C92509780E090E0FD01E80FF91F6D
:100B300011821082029680319105B9F70895DC0187
:100B400070E0FB01EE0FFF1FEA0FFB1F8081918118
:100B500001969183808381E090E002C0880F991F05
:100B60006A95E2F750962C915097282B50962C932B
:100B70000895DC01E62FF0E081E090E0062E02C04F
:100B8000880F991F0A94E2F7282FEE0FFF1FEA0F34
:100B9000FB1F80819181019791838083892B49F488
:100BA000922F909550968C915097892350968C93C4
:100BB000509750968C9182230895CF93DF93EC0148
:100BC0008D8D882349F00E948304EC81FD819C85F2
:100BD000981728F4892F03C0EC81FD818C858283CE
:100BE000DF91CF9108951F93CF93DF93EC018D8D0B
:100BF000882341F00E9483049C85182F981718F4CD
:100C0000192F01C01C85EC81FD818281811779F04B
:100C1000CE010E94B603EC81FD8112836091A00198
:100C20007091A101CE010E94C5030E94C500DF9111
:100C3000CF911F910895FC0183858D7F8387CF011C
:100C40000E94B6030E94C5000895FC012385422F2F
:100C500050E0CA018C719070892B19F020622387B3
:100C600002C021FD02C080E00895CF010E941B0652
:100C700081E00895FC018385826083876091A001F3
:100C80007091A101CF010E94C5030E94C500089583
:100C9000FC0183858A7D11F080E00895CF010E94D8
:100CA0003A0681E00895CF93DF93EC010D960E9400
:100CB000B9058D8D882319F48B858B7F8B87DF9108
:100CC000CF910895FC01858D882319F48385846074
:100CD0008387CF010D960E949F0508951F93182FBB
:100CE0000E94C000FC0183858123838785FF07C0A4
:100CF00082FD05C08F7D8387CF010E941B061F9157
:100D000008950E940203E0919E01F0919F01838566
:100D100080FF04C0868D978D91A380A30E94EE0270
:100D20000895CF93DF93EC019B85892F8E7B11F083
:100D300080E019C091709B87CE010D960E948F05AF
:100D40008E8D9F8D99A388A38AA59BA5009739F0C6
:100D500060E572E0AE010E94E5009DA78CA7CE0180
:100D60000E943A0681E0DF91CF9108952F923F9241
:100D70004F925F926F927F928F92AF92BF92CF927B
:100D8000EF92FF920F931F93DF93CF9300D0CDB7D5
:100D9000DEB73C012B011A013A8329836C2D0E9496
:100DA0004704F3011386882011F081E08387C30193
:100DB0000D960E948F05F301C486B78EA68EB1A250
:100DC000A0A253A242A235A224A289819A8197A30C
:100DD00086A311A700A7F3A6E2A6E114F10449F047
:100DE000C70160E572E0A3010E94E500F30195A749
:100DF00084A70F900F90CF91DF911F910F91FF90DB
:100E0000EF90CF90BF90AF908F907F906F905F905A
:100E10004F903F902F900895CF93DF93E0919E01E4
:100E2000F0919F0195A784A724A135A12115310533
:100E300021F080A591A5F9010995E091A001F0911B
:100E4000A1018089882361F48091A2019091A3017E
:100E50009093A1018093A001F093A301E093A201DC
:100E60008091A0019091A1010E94BD08EC01909396
:100E70009F0180939E01EEA1FFA1309719F088A5F4
:100E800099A509958CA59DA5DF91CF910895CF9344
:100E9000DF93C0919E01D0919F019DA78CA7ECA1EB
:100EA000FDA1309719F088A599A50995EC81FD81E0
:100EB000208131818091A0019091A10128173907EB
:100EC00031F5C90162810E94B00888A199A18230E0
:100ED000910520F0019799A388A319C0CE010E9423
:100EE0006B038B8580FD0CC08E8D9F8D99A388A38D
:100EF0006091A2017091A301CE010E94C50307C0B9
:100F0000EC81FD81118210828B858D7F8B87E09132
:100F1000A001F091A1018089882361F48091A20150
:100F20009091A3019093A1018093A001F093A3015C
:100F3000E093A2018091A0019091A1010E94BD08BF
:100F4000EC0190939F0180939E01EEA1FFA1309749
:100F500019F088A599A509958CA59DA5DF91CF913C
:100F60000895EF92FF920F931F938C017B010696D9
:100F7000F801938382830E94A008C8014796F80174
:100F8000958384830E94A008F80162817381C70160
:100F90000E94C503F801F182E08211A610A61F91FC
:100FA0000F91FF90EF9008950F931F93FC0180899C
:100FB000882331F4818992890196928B818B0EC0AE
:100FC000CF010E94BD088C01FC018385877F838748
:100FD000C8010E94B603C8010E943A061F910F91F2
:100FE00008950F931F93CF93DF93EC0189899A891A
:100FF000009729F001979A8B898B81E00FC00E949E
:10100000C0008C01FC01838588608387C8010E9431
:101010001B06C801BE010E94C50380E0DF91CF918D
:101020001F910F910895EF92FF920F931F938C01E0
:101030007B010E94A008F801F28AE18A1F910F91BA
:10104000FF90EF9008956091A0017091A1010E941E
:101050000E030E94C50008950F931F93FC01808921
:10106000882389F0CF010E94BD08182F092F0E9404
:101070006B036091A0017091A101812F902F0E94BC
:10108000C5030E94C5001F910F910895EF92FF9232
:101090000F931F937C010E94C0008C010E941B06CD
:1010A000F801838580618387C801B7010E94FC0332
:1010B0001F910F91FF90EF9008950E94A00808954E
:1010C000EF92FF920F931F937C010E940203009105
:1010D000F8011091F9010E191F090E94EE02C801D2
:1010E0001F910F91FF90EF9008950F931F938C0124
:1010F0000E9402038091F8019091F901F801918317
:1011000080830E94EE021F910F9108950F931F9309
:10111000DF93CF9300D0CDB7DEB78C01CE0101961F
:101120000E94750889819A810E9460088017910742
:10113000C8F30F900F90CF91DF911F910F910895F9
:10114000DC0150961C92509780E090E0FD01E80F82
:10115000F91F11821082029680319105B9F7089526
:10116000E62FF0E0EE0FFF1FE80FF91FA081B1811D
:101170008D919C91918380830895CF93DF93EC01AF
:101180008889882319F4E0E0F0E00BC00E94830412
:10119000E82FF0E0EE0FFF1FEC0FFD1F0190F08134
:1011A000E02DCF01DF91CF9108955A9A5B985A981C
:1011B0005B9A0895E0E7F0E0808182608083E99A9D
:1011C000E19A089585B190E1892785B9089585B19F
:1011D00098E0892785B9089585B194E0892785B974
:1011E000089585B192E0892785B9089585B120E2F7
:1011F000822785B98BB190E489278BB98BB182277F
:101200008BB908952F923F924F925F926F927F9287
:101210008F92AF92BF92CF92EF92FF920F931F9354
:10122000CF93DF930E94CB0082E08093B00085E0F3
:101230008093B1008CE78093B3001092B4001092B9
:10124000700017BA88E0809369001DBA8FE384B9F3
:1012500015B887B918B88EEF8AB91BB85C9A5B9A33
:101260005D9ABAEF6B2EB1E07B2E22EE38E0C3011F
:1012700069EB79E0A90100E010E0A1E3EA2EA3E028
:10128000FA2ECC24C394F2E0AF2EB12C88240E9415
:10129000B606E301AE9627EE38E0CE0164EB79E0C6
:1012A000A901E1EBEE2EE3E0FE2EB2E0CB2EA3E0AF
:1012B000AA2EB12C0E94B606F6E52F2EF2E03F2EA4
:1012C0002CEE38E0C1016DED79E0A901E1E3EE2EED
:1012D000E4E0FE2EB4E0AB2EB12C882483940E946F
:1012E000B606A4E84A2EA2E05A2E21EF38E0C20149
:1012F0006FEA79E0A901F1EBEF2EF4E0FF2EE3E0D5
:10130000CE2E88240E94B60686EF98E09093EF01D7
:101310008093EE019093ED018093EC01C3010E9454
:101320004806CE010E944806C1010E944806C2013B
:101330000E9448060E94420180E090E0DF91CF9138
:101340001F910F91FF90EF90CF90BF90AF908F9033
:101350007F906F905F904F903F902F90089584EF13
:1013600091E00E948608089584EF91E00E9486082B
:10137000FBCF84EF91E00E948608FBCF88EE93E0DC
:101380000E94860884E892E00E94810288EE93E041
:101390000E94860884E892E00E946C0284EF91E04B
:1013A0000E94860884E892E00E94810288EE93E021
:1013B0000E94860886E592E0F7CF81E090E00E94E7
:1013C00086080E9481060E946602F7CFF894FFCF3C
:0213D00001001A
:00000001FF
