:100000000C9446000C9463000C947C060C946300E2
:100010000C9463000C9463000C9463000C94DA0459
:100020000C9463000C9463000C9463000C946300C4
:100030000C9463000C9463000C9463000C946300B4
:100040000C9463000C9463000C9463000C946300A4
:100050000C9463000C9463000C9463000C94630094
:100060000C9463000C946300A40597058A057D0534
:100070007605650560055D055A05570554054C056F
:100080003F053C05350528051B05180511241FBE35
:10009000CFEFD8E0DEBFCDBF11E0A0E0B1E0E6E1F8
:1000A000FDE102C005900D92AE30B107D9F714E022
:1000B000AEE0B1E001C01D92AC33B107E1F70E94A0
:1000C000260D0C94890E0C9400002F922FB62F92BF
:1000D0003F924F925F926F927F928F929F92AF92D8
:1000E000BF92CF92DF92EF92FF920F931F932F93C5
:1000F0003F934F935F936F937F938F939F93AF93B0
:10010000BF93CF93DF93EF93FF93EDB7FEB721A19A
:1001100030A101A210A211248DB79EB72F933F9357
:1001200008953F912F919EBF8DBFFEB7EDB710A0F0
:1001300001A030A321A3FF91EF91DF91CF91BF9157
:10014000AF919F918F917F916F915F914F913F916F
:100150002F911F910F91FF90EF90DF90CF90BF9064
:10016000AF909F908F907F906F905F904F903F9057
:100170002F902FBE2F9008951F900F909EBF8DBF80
:100180000F921F9211240895A0E0B0E0EAECF0E095
:100190000C94520EDC012B01FA019C91923008F470
:1001A00039C1EB018881823008F433C1943069F49D
:1001B000843009F02FC111969C911197898198176D
:1001C00009F428C1A5E0B1E025C1843009F421C1BA
:1001D0008230A9F4923009F01DC19A01AD0188E086
:1001E000EA010990AE01E90109929E018150C1F72F
:1001F000E201898111969C918923818308C1923003
:1002000009F407C112962D903C901397EB018A8157
:100210009B811496AD90BD90CD90DC901797EC80AB
:10022000FD800E811F819101281B390BB90137FF19
:1002300004C066277727621B730B603271050CF0D0
:1002400061C0121613066CF537014801062E04C072
:1002500096948794779467940A94D2F721E030E0DB
:1002600040E050E004C0220F331F441F551F6A9521
:10027000D2F721503040404050402E213F214023B2
:100280005123211531054105510521F021E030E0D0
:1002900040E050E079018A01E628F7280829192969
:1002A0003CC0232BD1F1260E371E35014601062E08
:1002B00004C096948794779467940A94D2F721E0C7
:1002C00030E040E050E004C0220F331F441F551FB0
:1002D0006A95D2F721503040404050402A213B21BE
:1002E0004C215D21211531054105510521F021E009
:1002F00030E040E050E059016A01A628B728C8283C
:10030000D9280BC0821593052CF01C01AA24BB240C
:10031000650103C0EE24FF24870111969C91D20150
:1003200011968C91981709F445C0992339F0A801CA
:1003300097012A193B094C095D0906C0A6019501E0
:100340002E193F09400B510B57FD08C01182338213
:10035000228224833583468357831DC081E08183B5
:100360003382228288279927DC01821B930BA40BFE
:10037000B50B84839583A683B7830DC0220F331FEB
:10038000441F551F2483358346835783828193817D
:100390000197938382832481358146815781DA01D5
:1003A000C9010197A109B1098F5F9F4FAF4FBF43AB
:1003B00028F30BC0918333822282EA0CFB1C0C1DB4
:1003C0001D1DE482F5820683178383E080832481E8
:1003D00035814681578157FF1AC0C901AA2797FD69
:1003E000A095BA2F81709070A070B0705695479507
:1003F00037952795822B932BA42BB52B848395833C
:10040000A683B78382819381019693838283DF01E0
:1004100001C0D201CD01CDB7DEB7E2E10C946E0E82
:10042000A0E2B0E0E6E1F2E00C945E0E69837A832C
:100430008B839C832D833E834F835887E9E0EE2E88
:10044000F12CEC0EFD1ECE010196B7010E943D0479
:100450008E010F5E1F4FCE010596B8010E943D042C
:100460008A8991E089278A8BC701B801AE01475E6E
:100470005F4F0E94C4000E946803A096E6E00C94BF
:100480007A0EA0E2B0E0E7E4F2E00C945E0E69833D
:100490007A838B839C832D833E834F835887F9E037
:1004A000EF2EF12CEC0EFD1ECE010196B7010E943D
:1004B0003D048E010F5E1F4FCE010596B8010E94CC
:1004C0003D04C701B801AE01475E5F4F0E94C40002
:1004D0000E946803A096E6E00C947A0EA0E2B0E0D9
:1004E000E4E7F2E00C94520E69837A838B839C8359
:1004F0002D833E834F835887CE010196BE01675FEF
:100500007F4F0E943D04CE010596BE016F5E7F4F76
:100510000E943D049985923088F089898230C8F024
:10052000943019F4823051F404C0843029F49230AC
:1005300081F485E091E0C6C0923049F420E09A85CC
:100540008A89981321E02A87CE010996BBC08230A0
:1005500049F420E09A858A89981321E02A8BCE01FC
:100560004196B0C02D843E844F8458886D887E8823
:100570008F88988CEE24FF248701AA24BB24650170
:1005800040E050E060E070E0E0E0F0E0C101817048
:100590009070892BE9F0E60CF71C081D191D9A01D3
:1005A000AB012A0D3B1D4C1D5D1D80E090E0A0E0DD
:1005B000B0E0E614F7040805190520F481E090E0A6
:1005C000A0E0B0E0BA01A901480F591F6A1F7B1FC4
:1005D000AA0CBB1CCC1CDD1C97FE08C081E090E07F
:1005E000A0E0B0E0A82AB92ACA2ADB2A3196E03274
:1005F000F10549F0660C771C881C991C56944794A9
:1006000037942794C3CFFA85EA892B893C898B8557
:100610009C85280F391F2E5F3F4F17C0CA0181707C
:100620009070892B61F016950795F794E79480E018
:1006300090E0A0E0B0E8E82AF92A0A2B1B2B769577
:100640006795579547952F5F3F4F77FDE7CF0CC0D4
:10065000440F551F661F771F17FD4160EE0CFF1CEE
:10066000001F111F21503040403090E0590790E0AA
:10067000690790E4790760F32B8F3C8FDB01CA0197
:100680008F779070A070B07080349105A105B1058E
:1006900061F447FD0AC0E114F1040105110529F0D8
:1006A000405C5F4F6F4F7F4F40781A8EFE1711F0FE
:1006B00081E08A8F4D8F5E8F6F8F78A383E0898F63
:1006C000CE0149960E946803A096E2E10C946E0E5A
:1006D000DF92EF92FF920F931F93FC01E480F5806D
:1006E00006811781D1808081823048F480E090E0DB
:1006F000A0E1B0E0E82AF92A0A2B1B2BA5C0843020
:1007000009F49FC0823021F4EE24FF24870105C044
:10071000E114F1040105110519F4E0E0F0E096C0E0
:10072000628173819FEF623879070CF05BC022E829
:100730003FEF261B370B2A3131052CF020E030E04B
:1007400040E050E02AC0B801A701022E04C076950F
:100750006795579547950A94D2F781E090E0A0E01D
:10076000B0E004C0880F991FAA1FBB1F2A95D2F7BB
:100770000197A109B1098E219F21A023B1230097E0
:10078000A105B10521F081E090E0A0E0B0E09A0180
:10079000AB01282B392B4A2B5B2BDA01C9018F7750
:1007A0009070A070B07080349105A105B10539F446
:1007B00027FF09C0205C3F4F4F4F5F4F04C0215CB3
:1007C0003F4F4F4F5F4FE0E0F0E02030A0E03A07AE
:1007D000A0E04A07A0E45A0710F0E1E0F0E0790158
:1007E0008A0127C06038710564F5FB01E158FF4FAD
:1007F000D801C7018F779070A070B07080349105D8
:10080000A105B10539F4E7FE0DC080E490E0A0E059
:10081000B0E004C08FE390E0A0E0B0E0E80EF91E85
:100820000A1F1B1F17FF05C016950795F794E7943D
:10083000319687E016950795F794E7948A95D1F756
:1008400005C0EE24FF248701EFEFF0E06E2F6795DF
:1008500066276795902F9F77D794DD24D7948E2FA6
:100860008695492F462B582F5D29B701CA011F9144
:100870000F91FF90EF90DF900895FC01DB01408124
:1008800051812281622F6F7770E0221F2227221F61
:100890009381892F880F822B282F30E0991F992769
:1008A000991F11969C93119721153105A9F54115B2
:1008B00051056105710511F482E037C082E89FEFB0
:1008C00013969C938E9312979A01AB0167E0220FC7
:1008D000331F441F551F6A95D1F783E08C930DC0D9
:1008E000220F331F441F551F12968D919C91139711
:1008F000019713969C938E931297203080E03807CF
:1009000080E0480780E4580758F314962D933D93F0
:100910004D935C93179708952F3F310579F4411556
:1009200051056105710519F484E08C93089564FF05
:1009300003C081E08C9312C01C9210C02F5730402E
:1009400013963C932E93129783E08C9387E0440F89
:10095000551F661F771F8A95D1F7706414964D93C3
:100960005D936D937C9317970895F8940895789408
:1009700008958091280190912901089580910001A6
:1009800081608093000108950E94FA0C1092510139
:1009900010925001789480E090E00E94090E089532
:1009A000F89481E090E090935101809350010E946F
:1009B000E108089500912801109129010E94650025
:1009C000F80195A784A780917E0190917F010E94F4
:1009D000BC008091820190918301019690938301E4
:1009E000809382010E945B0BE0912801F091290124
:1009F00084A595A50E94910018950E94BB060895B4
:100A000080910E01882399F0815080930E0190E02F
:100A1000880F991F88599F4FFC012591349180912F
:100A20000F0190911001F901099510920E0108959E
:100A30000E94120908950F931F938C01FC0180817D
:100A400091810E944C09F80182831F910F910895B2
:100A50000F931F938C01FC01808191810E94660994
:100A6000F80182831F910F910895FC01808191818B
:100A700062810E94910908950E94E70B08950F93E7
:100A80001F938C01FC01808191810E94040CF8016C
:100A900082831F910F910895FC016281738180818F
:100AA00091810E94260C08950E94360C08950E94A0
:100AB0003F0C08950E94590C08950E94700C0895EF
:100AC000FC0180810E947F0A0895FC01838582FFDA
:100AD00002C0806801C08064838783858D7D8387A1
:100AE000CF010E94C7070E94BE040895809128018B
:100AF000909129010E942C0A08950F931F938C0155
:100B0000FC01808191810E94360AF80182831F9145
:100B10000F9108950F931F938C01FC0180819181A7
:100B20000E94A20AF80182831F910F9108950F93EA
:100B30001F938C01FC01808191810E94590AF80168
:100B400082831F910F9108958F92AF92BF92CF929F
:100B5000EF92FF920F931F93FC01A584B6846281EC
:100B60007381448155812681378100851185E28416
:100B7000F38480819181C48487840E94C70A1F9175
:100B80000F91FF90EF90CF90BF90AF908F9008950E
:100B90000F931F93182F092F80910001826080937B
:100BA00000010E94000D0E94F50C7894812F902F77
:100BB0001F910F91089580932101709323016093F9
:100BC000220181E291E00E94C805000000000000BF
:100BD0008091000181FDFFCF08950F931F938C0139
:100BE000F8947894DC019296ED91FC919397989605
:100BF0008D919C9199970995F89486E0B8010E948F
:100C0000DB051F910F910895F89485E061E070E095
:100C10000E94DB050895DF93CF9300D00F92CDB7EC
:100C2000DEB79A838983F89483E0BE016F5F7F4FBC
:100C30000E94DB058B810F900F900F90CF91DF9179
:100C40000895DF93CF9300D00F92CDB7DEB79A838C
:100C500089831B82F89482E0BE016F5F7F4F0E9400
:100C6000DB058B810F900F900F90CF91DF9108954E
:100C70008F92AF92BF92CF92EF92FF920F931F93FA
:100C8000DF93CF9300D0CDB7DEB7BA82A982F894B4
:100C900090931201809311017093140160931301DA
:100CA00050931601409315013093180120931701BA
:100CB00010931A0100931901F0921C01E0921B019C
:100CC000C0921D0189819A8190931F0180931E011A
:100CD0008092200181E061E171E00E94DB050F90CC
:100CE0000F90CF91DF911F910F91FF90EF90CF90D8
:100CF000BF90AF908F900895009128011091290125
:100D00000E946500F80195A784A780917E019091CB
:100D10007F010E94BC00E0912801F091290104A408
:100D2000F5A5E02D978180E0E085F0E0E82BF92B38
:100D3000808180930E018181928190931001809334
:100D40000F010E94000590910001892F8D7F8093F3
:100D5000000180FF05C09C7F909300010E94260B3C
:100D60000E94FA0CE0912801F091290184A595A533
:100D70000E9491001895FC01608372931292129266
:100D800082E0829380E8829383E0829384E082937E
:100D900085E0829386E0829387E0829388E0829365
:100DA00089E0829380E1829381E1829382E1829360
:100DB00083E1829384E1829385E1829386E1829349
:100DC00087E1829388E1829389E1829380E2829332
:100DD00081E2829382E2829383E2829342935293EE
:100DE00086E2829387E2829388E2829389E2829309
:100DF00080E3829381E382933197CF0108958091BC
:100E0000500190915101009729F001979093510161
:100E1000809350018091500190915101892B11F4E0
:100E20000E94B70408950E94B504809150019091EA
:100E300051010196909351018093500108950F93B1
:100E40001F93CF93DF93AC01EB0171E060E0FA01F7
:100E50008089872309F444C02889872F8223E62FBD
:100E6000F0E009F1EE0FFF1FDA01AE0FBF1F0D908A
:100E7000BC91A02DEC0FFD1F0081118112962D91C8
:100E80003C911397F90111830083F80182819381CA
:100E9000FC01B183A083F8013383228313969C93D2
:100EA0008E9312970DC0EE0FFF1FDE01AE0FBF1F16
:100EB000E40FF51F808191818D939C93272B288BC4
:100EC000E62FF0E0EE0FFF1FE40FF51FA081B181C8
:100ED00014960D90BC91A02DCD93DC9311821082BD
:100EE000770F673011F06F5FB2CFFA01108ADF9190
:100EF000CF911F910F910895FF920F931F93CF935E
:100F0000DF93EC01EC81FD81F2800081118183810E
:100F100094818230910548F00197948383830E94E5
:100F20008808FC019D838C83F28288819981AF2D92
:100F3000B0E08C179D07A9F4FD01EE0FFF1FE00F35
:100F4000F11F1182108281E090E00F2C02C0880F07
:100F5000991F0A94E2F78095F80120892823208BB5
:100F600010C0AA0FBB1FA00FB11F8D919C918C17B1
:100F70009D0721F4C8016F2D0E94D00CCE010E9464
:100F8000CC08DF91CF911F910F91FF9008950F939F
:100F90001F938C010E947C07D8011496ED91FC915F
:100FA0001597118210821F910F9108950F931F932F
:100FB000CF93DF938C01EB01DC011496ED91FC9152
:100FC0001597228181E090E0022E02C0880F991FC0
:100FD0000A94E2F7982FE22FF0E028898223EE0F9F
:100FE000FF1F882341F0E60FF71F60817181C80160
:100FF0000E94BA0806C0E60FF71F11830083292B51
:10100000288BD8011496ED91FC911597D183C0835C
:10101000DF91CF911F910F910895EF92FF920F935F
:101020001F93CF93DF93EC01DB01EC80FD80F70190
:10103000828121E030E0082E02C0220F331F0A9483
:10104000E2F7E82FF0E050969C915097822F892389
:10105000EE0FFF1F8823D1F08D010E0F1F1FD80147
:101060006D917C91CE010E94BA08C7010E947C0854
:10107000D801ED91FC910480F581E02DFD83EC8396
:10108000838194810196948383830BC0EA0FFB1FB5
:10109000D183C083922B50969C935097F701B183D4
:1010A000A083DF91CF911F910F91FF90EF90089552
:1010B000DF92EF92FF920F931F938C01D62E76E072
:1010C000E72EF12CE80EF91E0E94B408C7016D2D21
:1010D0000E947308F801F582E4821F910F91FF903E
:1010E000EF90DF900895FC0111821082628381E00D
:1010F00090E0948383830895FC0180918001909116
:10110000810191838083F0938101E09380010895B0
:10111000E0918001F0918101808191819093810122
:1011200080938001CF010895A82F70E0FFEFEFEFCB
:1011300098E040E050E096952E2F30E0092E02C056
:10114000359527950A94E2F78F2F8A23822311F091
:10115000E22F03C0F22FF095790F4F5F5F4F4430BD
:10116000510549F7872F0895FC019383828391836A
:1011700080830895FC01DB0112968D919C91139759
:1011800093838283718360831396FC93EE9312970B
:10119000DC01ED93FC930895CF93DF93FC018281F2
:1011A0009381A081B18113969C938E931297EC0149
:1011B000B983A883F383E283F183E083DF91CF9146
:1011C00008956F927F928F92AF92BF92CF92EF92DB
:1011D000FF920F931F93A2E56A2EA1E07A2EC3011E
:1011E00069E07EE040E050E020E030E000E010E028
:1011F000EE24FF24F7E0CF2EE1E0AE2EB12C8824C0
:101200000E94C70AC3018A97B3010E94C40B1F91B1
:101210000F91FF90EF90CF90BF90AF908F907F9005
:101220006F9008950F931F93CF93DF938C010E94CB
:10123000B904EC01F80161890E94640A8B8585FF7D
:101240000BC082FD09C0CE010E94C707CE010E94DB
:10125000EE090E94BE0403C0CE010E94040AF801F8
:101260008089882319F481E0828B11C0C8010E9413
:10127000DD0C8C01FC018385877F8387C8010E9478
:10128000C707C8010E94EE09C8010E944B0ADF91FE
:10129000CF911F910F910895FF920F931F93CF93BA
:1012A000DF93EC01FA880E94B9048C01FF2039F029
:1012B0001A8A69890E94730AC8010E94040A8F2D44
:1012C000DF91CF911F910F91FF900895FF920F939F
:1012D0001F93CF93DF938C01FC01F2880E94B90425
:1012E000EC01F80161890E94730AFF2031F0F801D6
:1012F000128ACE010E94040A0DC08B8588608D7F02
:101300008B87CE010E94C707CE01B8010E94D60785
:101310000E94BE048F2DDF91CF911F910F91FF90FE
:101320000895FF920F931F938C01F62E0E94C00C1C
:1013300081E0F801828BF18A1F910F91FF9008954F
:10134000DC0150961C92509780E090E0FD01E80F80
:10135000F91F11821082029680319105B9F7089524
:10136000DC0170E0FB01EE0FFF1FEA0FFB1F808125
:10137000918101969183808381E090E002C0880F83
:10138000991F6A95E2F750962C915097282B50960A
:101390002C930895DC01E62FF0E081E090E0062E2A
:1013A00002C0880F991F0A94E2F7282FEE0FFF1F43
:1013B000EA0FFB1F80819181019791838083892BA4
:1013C00049F4922F909550968C915097892350967E
:1013D0008C93509750968C9182230895CF93DF93EE
:1013E000EC018D8D882349F00E949408EC81FD81E9
:1013F0009C85981728F4892F03C0EC81FD818C858A
:101400008283DF91CF9108951F93CF93DF93EC01F7
:101410008D8D882341F00E9494089C85182F981781
:1014200018F4192F01C01C85EC81FD818281811780
:1014300079F0CE010E94C707EC81FD811283609193
:101440002A0170912B01CE010E94D6070E94BE0492
:10145000DF91CF911F910895FC0183858D7F838754
:10146000CF010E94C7070E94BE040895FC01238596
:10147000422F50E0CA018C719070892B19F02062C4
:10148000238702C021FD02C080E00895CF010E94A1
:101490002C0A81E00895FC01838582608387609136
:1014A0002A0170912B01CF010E94D6070E94BE0431
:1014B0000895FC0183858A7D11F080E00895CF01B5
:1014C0000E944B0A81E00895CF93DF93EC010D96C3
:1014D0000E94CA098D8D882319F48B858B7F8B8799
:1014E000DF91CF910895FC01858D882319F48385C0
:1014F00084608387CF010D960E94B00908951F93E1
:10150000182F0E94B904FC0183858123838785FFFE
:1015100007C082FD05C08F7D8387CF010E942C0A02
:101520001F9108950E941307E0912801F09129016D
:10153000838580FF04C0868D978D91A380A30E9430
:10154000FF060895CF93DF93EC019B85892F8E7B57
:1015500011F080E019C091709B87CE010D960E941A
:10156000A0098E8D9F8D99A388A38AA59BA500971E
:1015700039F06DEE75E0AE010E94FD049DA78CA7C9
:10158000CE010E944B0A81E0DF91CF9108952F9206
:101590003F924F925F926F927F928F92AF92BF92E3
:1015A000CF92EF92FF920F931F93DF93CF9300D0D0
:1015B00000D0CDB7DEB73C012B011A013C832B8351
:1015C000BA82A9826C2D0E945808F30113868820E4
:1015D00011F081E08387C3010D960E94A009F301F9
:1015E000C48689819A81978F868F89819A8191A3F8
:1015F00080A353A242A235A224A28B819C8197A3EF
:1016000086A311A700A7F3A6E2A6E114F10449F00E
:10161000C7016DEE75E0A3010E94FD04F30195A7DB
:1016200084A70F900F900F900F90CF91DF911F9193
:101630000F91FF90EF90CF90BF90AF908F907F90E1
:101640006F905F904F903F902F900895E091280108
:10165000F091290124A135A12115310521F080A5A2
:1016600091A5F9010995E0912A01F0912B0180895A
:10167000882361F480912C0190912D0190932B018E
:1016800080932A01F0932D01E0932C0180912A018F
:1016900090912B010E94DD0CFC0190932901809315
:1016A000280126A137A12115310521F080A591A59A
:1016B000F90109950895CF93DF93C0912801D09146
:1016C0002901ECA1FDA1309719F088A599A50995EC
:1016D000EC81FD812081318180912A0190912B0143
:1016E0002817390739F5C90162810E94D00C88A1F9
:1016F00099A1029730F088A199A1019799A388A395
:1017000019C0CE010E947C078B8580FD0CC08E8D98
:101710009F8D99A388A360912C0170912D01CE011A
:101720000E94D60707C0EC81FD81118210828B8553
:101730008D7F8B87E0912A01F0912B01808988238E
:1017400061F480912C0190912D0190932B01809355
:101750002A01F0932D01E0932C0180912A019091B0
:101760002B010E94DD0CFC0190932901809328013C
:1017700026A137A12115310521F080A591A5F901F8
:101780000995DF91CF910895EF92FF920F931F93E8
:101790008C017B010696F801938382830E94C00C22
:1017A000C8014796F801958384830E94C00CF80114
:1017B00062817381C7010E94D607F801F182E0823D
:1017C00011A610A61F910F91FF90EF9008950F930F
:1017D0001F93FC018089882331F4818992890196C5
:1017E000928B818B0EC0CF010E94DD0C8C01FC011D
:1017F0008385877F8387C8010E94C707C8010E942D
:101800004B0A1F910F9108950F931F93CF93DF936E
:10181000EC0189899A89009729F001979A8B898B25
:1018200081E00FC00E94B9048C01FC0183858860AF
:101830008387C8010E942C0AC801BE010E94D607F6
:1018400080E0DF91CF911F910F910895EF92FF9269
:101850000F931F938C017B010E94C00CF801F28A48
:10186000E18A1F910F91FF90EF90089560912A01F6
:1018700070912B010E941F070E94BE0408950F93D0
:101880001F93FC018089882389F0CF010E94DD0C21
:10189000182F092F0E947C0760912A0170912B015B
:1018A000812F902F0E94D6070E94BE041F910F9196
:1018B0000895EF92FF920F931F937C010E94B90449
:1018C0008C010E942C0AF801838580618387C801FE
:1018D000B7010E940D081F910F91FF90EF9008959E
:1018E0000E94C00C0895DF93CF9300D000D0CDB7F5
:1018F000DEB79C838B830E941307809182019091B5
:1019000083012B813C81821B930B9A8389830E94E4
:10191000FF0629813A81C9010F900F900F900F9017
:10192000CF91DF9108950F931F938C010E941307AD
:101930008091820190918301F801918380830E94BC
:10194000FF061F910F910895DF93CF9300D000D031
:10195000CDB7DEB79C838B83CE0101960E94930C9A
:1019600089819A810E94730C2B813C818217930795
:10197000B8F30F900F900F900F90CF91DF910895D3
:10198000DC0150961C92509780E090E0FD01E80F3A
:10199000F91F11821082029680319105B9F70895DE
:1019A000E62FF0E0EE0FFF1FE80FF91FA081B181D5
:1019B0008D919C91918380830895CF93DF93EC0167
:1019C0008889882319F4E0E0F0E00BC00E949408B5
:1019D000E82FF0E0EE0FFF1FEC0FFD1F0190F081EC
:1019E000E02DCF01DF91CF9108955A9A5B985A98D4
:1019F0005B9A0895E0E7F0E080818260808308953B
:101A0000E0E7F0E080818D7F8083089585B190E1EB
:101A1000892785B9089585B198E0892785B9089502
:101A200085B194E0892785B9089585B192E0892729
:101A300085B9089585B120E2822785B98BB190E4FC
:101A400089278BB98BB182278BB908952F923F924A
:101A50004F925F926F927F928F92AF92BF92CF928E
:101A6000EF92FF920F931F930E94D00492E0909305
:101A7000B00085E08093B1008CE78093B3001092B2
:101A8000B4001092700017BA88E0809369009DBB83
:101A9000E19A8FE384B915B887B918B88EEF8AB97F
:101AA0001BB85C9A5B9A5D9AF4E86F2EF1E07F2E8A
:101AB00026E03DE0C30168ED7DE0A90100E010E013
:101AC000EBEBEE2EE2E0FE2ECC24C394B2E0AB2E84
:101AD000B12C88240E94C70AAEE22A2E312C260C93
:101AE000371C2BE03DE0C10162EC7DE0A901FBE386
:101AF000EF2EF3E0FF2EE2E0CE2EB3E0AB2EB12CC2
:101B00000E94C70AA0EE4A2EA1E05A2E20E13DE035
:101B1000C20169E47EE0A901FBEBEF2EF3E0FF2EAA
:101B2000E4E0AE2EB12C882483940E94C70A8AE197
:101B30009DE0909379018093780190937701809351
:101B40007601C3010E94590AC1010E94590AC201CB
:101B50000E94590A0E94C40480E090E01F910F91F6
:101B6000FF90EF90CF90BF90AF908F907F906F904D
:101B70005F904F903F902F90089584EF91E00E94E6
:101B8000A40C089584EF91E00E94A40C80910101BF
:101B900090910201A0910301B0910401B05880938B
:101BA000010190930201A0930301B0930401EACFD5
:101BB000EF92FF920F931F9382E390E00E94A40C98
:101BC000E0902401F0902501009126011091270159
:101BD00060910101709102018091030190910401D3
:101BE000A80197010E9410022AE939E949E95EE358
:101BF0000E946E029B01AC01C801B7010E946E02F7
:101C0000609324017093250180932601909327010E
:101C1000D3CF8F92AF92BF92CF92EF92FF920F935A
:101C20001F938EE092E06DEB7DE045E15DE09A016F
:101C300000E010E0EBE3EE2EE4E0FE2EB3E0CB2E6E
:101C4000A4E0AA2EB12C88240E9438068EE092E0EF
:101C50000E94210688EE93E00E94A40C8EE092E0A0
:101C60000E94210688EE93E00E94A40C8EE092E090
:101C70000E940B0684EF91E00E94A40C8EE092E09B
:101C80000E94210688EE93E00E94A40C80EE91E071
:101C9000F7CF81E090E00E94A40C0E94920A0E947B
:101CA0000406F7CF2F923F924F925F926F927F92EE
:101CB0008F929F92AF92BF92CF92DF92EF92FF925C
:101CC0000F931F93CF93DF93CDB7DEB7CA1BDB0B08
:101CD0000FB6F894DEBF0FBECDBF09942A883988AD
:101CE00048885F846E847D848C849B84AA84B984B4
:101CF000C884DF80EE80FD800C811B81AA81B981C0
:101D0000CE0FD11D0FB6F894DEBF0FBECDBFED01D3
:061D10000895F894FFCFD6
:0E1D16000100C07F440000000000000000003B
:00000001FF
