:100000000C9446000C9463000C9463000C94630001
:100010000C9463000C9463000C9463000C94E9004E
:100020000C9463000C9463000C9463000C946300C4
:100030000C9463000C9463000C9463000C946300B4
:100040000C9463000C9463000C9463000C946300A4
:100050000C9463000C9463000C9463000C94630094
:100060000C9463000C946300BD01B001A3019601E0
:100070008F017E0179017601730170016D016501C7
:10008000580155014E0141013401310111241FBEB7
:10009000CFEFD8E0DEBFCDBF11E0A0E0B1E0E0EFF0
:1000A000F3E102C005900D92A230B107D9F714E038
:1000B000A2E0B1E001C01D92A932B107E1F70E94B0
:1000C00007090C94F6090C9400002F922FB62F927A
:1000D0003F924F925F926F927F928F929F92AF92D8
:1000E000BF92CF92DF92EF92FF920F931F932F93C5
:1000F0003F934F935F936F937F938F939F93AF93B0
:10010000BF93CF93DF93EF93FF93EDB7FEB721A19A
:1001100030A101A210A211248DB79EB72F933F9357
:1001200008953F912F919EBF8DBFFEB7EDB710A0F0
:1001300001A030A321A3FF91EF91DF91CF91BF9157
:10014000AF919F918F917F916F915F914F913F916F
:100150002F911F910F91FF90EF90DF90CF90BF9064
:10016000AF909F908F907F906F905F904F903F9057
:100170002F902FBE2F9008951F900F909EBF8DBF80
:100180000F921F9211240895F89408957894089579
:100190008091150190911601089580910001816070
:1001A0008093000108950E94E10810923E01109290
:1001B0003D01789480E090E00E94AD090895F894A4
:1001C00081E090E090933E0180933D010E94CD0438
:1001D000089500911501109116010E946500F80123
:1001E00095A784A780916B0190916C010E94BC003F
:1001F00080916F01909170010196909370018093AE
:100200006F010E944707E0911501F091160184A546
:1002100095A50E94910018958091000180FF05C06E
:100220008E7F809300010E94120708950E94A7020A
:10023000089580910201882399F0815080930201F2
:1002400090E0880F991F88599F4FFC0125913491A8
:100250008091030190910401F90109951092020126
:1002600008950E94FE0408950F931F938C01FC01D2
:10027000808191810E943805F80182831F910F913E
:1002800008950F931F938C01FC01808191810E943E
:100290005205F80182831F910F910895FC0180811E
:1002A000918162810E947D0508950E94D30708957F
:1002B0000F931F938C01FC01808191810E94F007B4
:1002C000F80182831F910F910895FC01628173816F
:1002D000808191810E94120808950E942208089549
:1002E0000E942B0808950E94450808950E945C080A
:1002F0000895FC0180810E946B060895FC018385AE
:1003000082FF02C0806801C08064838783858D7D01
:100310008387CF010E94B3030E94CD00089580918E
:100320001501909116010E94180608950F931F93CE
:100330008C01FC01808191810E942206F801828358
:100340001F910F9108950F931F938C01FC018081E1
:1003500091810E948E06F80182831F910F9108956A
:100360000F931F938C01FC01808191810E944506AF
:10037000F80182831F910F9108958F92AF92BF92DF
:10038000CF92EF92FF920F931F93FC01A584B68446
:100390006281738144815581268137810085118571
:1003A000E284F38480819181C48487840E94B306AF
:1003B0001F910F91FF90EF90CF90BF90AF908F90D3
:1003C000089500911501109116010E946500F80131
:1003D00095A784A780916B0190916C010E94BC004D
:1003E0000E9419010E940C01E0911501F091160183
:1003F00084A595A50E94910018950F931F938C01D9
:10040000F8947894DC019296ED91FC9193979896EC
:100410008D919C9199970995F89486E080930201BB
:1004200010930401009303010E94E1011F910F91B9
:100430000895F89485E08093020181E090E0909324
:100440000401809303010E94E1010895DF93CF939B
:1004500000D00F92CDB7DEB79A838983F89483E0FA
:1004600080930201CE0101969093040180930301D1
:100470000E94E1018B810F900F900F90CF91DF913F
:100480000895DF93CF9300D00F92CDB7DEB79A8354
:1004900089831B82F89482E080930201CE01019649
:1004A00090930401809303010E94E1018B810F90DE
:1004B0000F900F90CF91DF9108958F92AF92BF92DE
:1004C000CF92EF92FF920F931F93DF93CF9300D0C1
:1004D000CDB7DEB7BA82A982F894909306018093D3
:1004E0000501709308016093070150930A0140933E
:1004F000090130930C0120930B0110930E0100931E
:100500000D01F0921001E0920F01C092110189815A
:100510009A8190931301809312018092140181E0DB
:100520008093020185E091E09093040180930301A0
:100530000E94E1010F900F90CF91DF911F910F91D9
:10054000FF90EF90CF90BF90AF908F900895FC01F7
:10055000608372931292129282E0829380E8829377
:1005600083E0829384E0829385E0829386E08293A5
:1005700087E0829388E0829389E0829380E182938E
:1005800081E1829382E1829383E1829384E1829389
:1005900085E1829386E1829387E1829388E1829369
:1005A00089E1829380E2829381E2829382E2829364
:1005B00083E282934293529386E2829387E282930C
:1005C00088E2829389E2829380E3829381E382933B
:1005D0003197CF01089580913D0190913E010097A0
:1005E00029F0019790933E0180933D0180913D0158
:1005F00090913E01892B11F40E94C60008950E943B
:10060000C40080913D0190913E01019690933E017E
:1006100080933D0108950F931F93CF93DF93AC0117
:10062000EB0171E060E0FA018089872309F444C09E
:100630002889872F8223E62FF0E009F1EE0FFF1FB4
:10064000DA01AE0FBF1F0D90BC91A02DEC0FFD1F66
:100650000081118112962D913C911397F90111831C
:100660000083F80182819381FC01B183A083F801AA
:100670003383228313969C938E9312970DC0EE0FB3
:10068000FF1FDE01AE0FBF1FE40FF51F80819181B8
:100690008D939C93272B288BE62FF0E0EE0FFF1F06
:1006A000E40FF51FA081B18114960D90BC91A02D8F
:1006B000CD93DC9311821082770F673011F06F5F5A
:1006C000B2CFFA01108ADF91CF911F910F91089557
:1006D000FF920F931F93CF93DF93EC01EC81FD8189
:1006E000F28000811181838194818230910548F0EC
:1006F0000197948383830E947404FC019D838C83FF
:10070000F28288819981AF2DB0E08C179D07A9F402
:10071000FD01EE0FFF1FE00FF11F1182108281E03B
:1007200090E00F2C02C0880F991F0A94E2F7809581
:10073000F80120892823208B10C0AA0FBB1FA00F0F
:10074000B11F8D919C918C179D0721F4C8016F2DCD
:100750000E94BC08CE010E94B804DF91CF911F9186
:100760000F91FF9008950F931F938C010E946803CF
:10077000D8011496ED91FC911597118210821F916A
:100780000F9108950F931F93CF93DF938C01EB018B
:10079000DC011496ED91FC911597228181E090E0A7
:1007A000022E02C0880F991F0A94E2F7982FE22FB9
:1007B000F0E028898223EE0FFF1F882341F0E60F27
:1007C000F71F60817181C8010E94A60406C0E60F70
:1007D000F71F11830083292B288BD8011496ED91E4
:1007E000FC911597D183C083DF91CF911F910F9119
:1007F0000895EF92FF920F931F93CF93DF93EC0135
:10080000DB01EC80FD80F701828121E030E0082EE1
:1008100002C0220F331F0A94E2F7E82FF0E050964F
:100820009C915097822F8923EE0FFF1F8823D1F0D0
:100830008D010E0F1F1FD8016D917C91CE010E947A
:10084000A604C7010E946804D801ED91FC910480C0
:10085000F581E02DFD83EC8383819481019694835F
:1008600083830BC0EA0FFB1FD183C083922B50966A
:100870009C935097F701B183A083DF91CF911F9193
:100880000F91FF90EF900895DF92EF92FF920F93F8
:100890001F938C01D62E76E0E72EF12CE80EF91E80
:1008A0000E94A004C7016D2D0E945F04F801F5822B
:1008B000E4821F910F91FF90EF90DF900895FC016B
:1008C00011821082628381E090E094838383089593
:1008D000FC0180916D0190916E0191838083F09372
:1008E0006E01E0936D010895E0916D01F0916E014C
:1008F0008081918190936E0180936D01CF01089565
:10090000A82F70E0FFEFEFEF98E040E050E0969501
:100910002E2F30E0092E02C0359527950A94E2F774
:100920008F2F8A23822311F0E22F03C0F22FF0953C
:10093000790F4F5F5F4F4430510549F7872F089576
:10094000FC0193838283918380830895FC01DB0102
:1009500012968D919C911397938382837183608308
:100960001396FC93EE931297DC01ED93FC9308959C
:10097000CF93DF93FC0182819381A081B181139693
:100980009C938E931297EC01B983A883F383E2833F
:10099000F183E083DF91CF9108956F927F928F92E0
:1009A000AF92BF92CF92EF92FF920F931F93AFE35C
:1009B0006A2EA1E07A2EC3016DEA79E040E050E0B2
:1009C00020E030E000E010E0EE24FF24F7E0CF2E3E
:1009D000E1E0AE2EB12C88240E94B306C3018A97B1
:1009E000B3010E94B0071F910F91FF90EF90CF903D
:1009F000BF90AF908F907F906F9008950F931F934B
:100A0000CF93DF938C010E94C800EC01F80161894B
:100A10000E9450068B8585FF0BC082FD09C0CE0168
:100A20000E94B303CE010E94DA050E94CD0003C0EC
:100A3000CE010E94F005F8018089882319F481E035
:100A4000828B11C0C8010E94C9088C01FC018385FA
:100A5000877F8387C8010E94B303C8010E94DA051B
:100A6000C8010E943706DF91CF911F910F91089521
:100A7000FF920F931F93CF93DF93EC01FA880E94AC
:100A8000C8008C01FF2039F01A8A69890E945F062C
:100A9000C8010E94F0058F2DDF91CF911F910F911A
:100AA000FF900895FF920F931F93CF93DF938C01D4
:100AB000FC01F2880E94C800EC01F80161890E94E3
:100AC0005F06FF2031F0F801128ACE010E94F00586
:100AD0000DC08B8588608D7F8B87CE010E94B3030C
:100AE000CE01B8010E94C2030E94CD008F2DDF917C
:100AF000CF911F910F91FF900895FF920F931F9335
:100B00008C01F62E0E94AC0881E0F801828BF18AFC
:100B10001F910F91FF900895DC0150961C92509701
:100B200080E090E0FD01E80FF91F1182108202962B
:100B300080319105B9F70895DC0170E0FB01EE0FFB
:100B4000FF1FEA0FFB1F80819181019691838083B3
:100B500081E090E002C0880F991F6A95E2F75096F5
:100B60002C915097282B50962C930895DC01E62F5A
:100B7000F0E081E090E0062E02C0880F991F0A94F1
:100B8000E2F7282FEE0FFF1FEA0FFB1F80819181F4
:100B9000019791838083892B49F4922F90955096E9
:100BA0008C915097892350968C93509750968C91A6
:100BB00082230895CF93DF93EC018D8D882349F034
:100BC0000E948004EC81FD819C85981728F4892F70
:100BD00003C0EC81FD818C858283DF91CF910895E4
:100BE0001F93CF93DF93EC018D8D882341F00E94FA
:100BF00080049C85182F981718F4192F01C01C85A4
:100C0000EC81FD818281811779F0CE010E94B303CE
:100C1000EC81FD8112836091170170911801CE0162
:100C20000E94C2030E94CD00DF91CF911F910895D1
:100C3000FC0183858D7F8387CF010E94B3030E94CF
:100C4000CD000895FC012385422F50E0CA018C712C
:100C50009070892B19F02062238702C021FD02C009
:100C600080E00895CF010E94180681E00895FC01FC
:100C70008385826083876091170170911801CF018D
:100C80000E94C2030E94CD000895FC0183858A7DE5
:100C900011F080E00895CF010E94370681E00895A9
:100CA000CF93DF93EC010D960E94B6058D8D8823BE
:100CB00019F48B858B7F8B87DF91CF910895FC0191
:100CC000858D882319F4838584608387CF010D96F1
:100CD0000E949C0508951F93182F0E94C800FC01D4
:100CE00083858123838785FF07C082FD05C08F7DB3
:100CF0008387CF010E9418061F9108950E94FF026A
:100D0000E0911501F0911601838580FF04C0868D66
:100D1000978D91A380A30E94EB020895CF93DF9358
:100D2000EC019B85892F8E7B11F080E019C09170BA
:100D30009B87CE010D960E948C058E8D9F8D99A369
:100D400088A38AA59BA5009739F06DEF71E0AE01ED
:100D50000E9416019DA78CA7CE010E94370681E054
:100D6000DF91CF9108952F923F924F925F926F92B1
:100D70007F928F92AF92BF92CF92EF92FF920F939A
:100D80001F93DF93CF9300D000D0CDB7DEB73C01E7
:100D90002B011A013C832B83BA82A9826C2D0E94FD
:100DA0004404F3011386882011F081E08387C30196
:100DB0000D960E948C05F301C48689819A81978FD4
:100DC000868F89819A8191A380A353A242A235A2E2
:100DD00024A28B819C8197A386A311A700A7F3A6C9
:100DE000E2A6E114F10449F0C7016DEF71E0A3013F
:100DF0000E941601F30195A784A70F900F900F9002
:100E00000F90CF91DF911F910F91FF90EF90CF90B6
:100E1000BF90AF908F907F906F905F904F903F907A
:100E20002F900895E0911501F091160124A135A1AC
:100E30002115310521F080A591A5F9010995E091D1
:100E40001701F09118018089882361F480911901BC
:100E500090911A019093180180931701F0931A0151
:100E6000E093190180911701909118010E94C9081F
:100E7000FC01909316018093150126A137A121153D
:100E8000310521F080A591A5F90109950895CF9329
:100E9000DF93C0911501D0911601ECA1FDA130970F
:100EA00019F088A599A50995EC81FD8120813181F2
:100EB00080911701909118012817390739F5C90158
:100EC00062810E94BC0888A199A1029730F088A194
:100ED00099A1019799A388A319C0CE010E94680324
:100EE0008B8580FD0CC08E8D9F8D99A388A360910A
:100EF000190170911A01CE010E94C20307C0EC8152
:100F0000FD81118210828B858D7F8B87E091170187
:100F1000F09118018089882361F4809119019091E2
:100F20001A019093180180931701F0931A01E0932E
:100F3000190180911701909118010E94C908FC01C4
:100F4000909316018093150126A137A12115310533
:100F500021F080A591A5F9010995DF91CF91089520
:100F6000EF92FF920F931F938C017B010696F8017D
:100F7000938382830E94AC08C8014796F801958349
:100F800084830E94AC08F80162817381C7010E94CA
:100F9000C203F801F182E08211A610A61F910F9101
:100FA000FF90EF9008950F931F93FC018089882391
:100FB00031F4818992890196928B818B0EC0CF0189
:100FC0000E94C9088C01FC018385877F8387C80143
:100FD0000E94B303C8010E9437061F910F91089524
:100FE0000F931F93CF93DF93EC0189899A89009720
:100FF00029F001979A8B898B81E00FC00E94C8006D
:101000008C01FC01838588608387C8010E941806D3
:10101000C801BE010E94C20380E0DF91CF911F9101
:101020000F910895EF92FF920F931F938C017B0114
:101030000E94AC08F801F28AE18A1F910F91FF909B
:10104000EF90089560911701709118010E940B03B1
:101050000E94CD0008950F931F93FC01808988237F
:1010600089F0CF010E94C908182F092F0E94680338
:101070006091170170911801812F902F0E94C20377
:101080000E94CD001F910F910895EF92FF920F9350
:101090001F937C010E94C8008C010E941806F80171
:1010A000838580618387C801B7010E94F9031F917E
:1010B0000F91FF90EF9008950E94AC080895DF9380
:1010C000CF9300D000D0CDB7DEB79C838B830E9436
:1010D000FF0280916F01909170012B813C81821BF6
:1010E000930B9A8389830E94EB0229813A81C9017B
:1010F0000F900F900F900F90CF91DF9108950F9365
:101100001F938C010E94FF0280916F0190917001EA
:10111000F801918380830E94EB021F910F91089543
:10112000DF93CF9300D000D0CDB7DEB79C838B8305
:10113000CE0101960E947F0889819A810E945F08F2
:101140002B813C8182179307B8F30F900F900F907B
:101150000F90CF91DF910895DC0150961C9250972B
:1011600080E090E0FD01E80FF91F118210820296E5
:1011700080319105B9F70895E62FF0E0EE0FFF1FDB
:10118000E80FF91FA081B1818D919C91918380839B
:101190000895CF93DF93EC018889882319F4E0E068
:1011A000F0E00BC00E948004E82FF0E0EE0FFF1F7C
:1011B000EC0FFD1F0190F081E02DCF01DF91CF9169
:1011C0000895E0E7F0E0808182608083089585B132
:1011D00090E1892785B9089585B198E0892785B977
:1011E000089585B194E0892785B9089585B192E085
:1011F000892785B9089585B120E2822785B98BB109
:1012000090E489278BB98BB182278BB908952F92EF
:101210003F924F925F926F927F928F92AF92BF9266
:10122000CF92EF92FF920F931F930E94DF0092E004
:101230009093B00085E08093B1008CE78093B30079
:101240001092B4001092700017BA88E08093690081
:101250009DBBE19A8FE384B915B887B918B88EEFB2
:101260008AB91BB85C9A5B9A5D9AF1E76F2EF1E040
:101270007F2E27EE38E0C30168EA79E0A90100E09B
:1012800010E0E8EAEE2EE2E0FE2ECC24C394B2E0B9
:10129000AB2EB12C88240E94B306AEE22A2E312C4C
:1012A000260C371C2CEE38E0C10163EA79E0A90175
:1012B000F8E2EF2EF3E0FF2EE2E0CE2EB3E0AB2E0D
:1012C000B12C0E94B306ADEC4A2EA1E05A2E21EFBC
:1012D00038E0C2016DEE79E0A901F8EAEF2EF3E003
:1012E000FF2EE4E0AE2EB12C882483940E94B30636
:1012F0008BEF98E090936601809365019093640171
:1013000080936301C3010E944506C1010E94450606
:10131000C2010E9445060E94D30080E090E01F9128
:101320000F91FF90EF90CF90BF90AF908F907F90F4
:101330006F905F904F903F902F90089584EF91E0D1
:101340000E949008089584EF91E00E949008FBCFDE
:1013500084EF91E00E949008FBCF8F92AF92BF92F2
:10136000CF92EF92FF920F931F938BEF91E06EE974
:1013700079E046EF58E09A0100E010E0E8E2EE2E56
:10138000E4E0FE2EB3E0CB2EA4E0AA2EB12C8824FC
:101390000E945D028BEF91E00E94410288EE93E093
:1013A0000E9490088BEF91E00E94410288EE93E04A
:1013B0000E9490088BEF91E00E94260284EF91E05A
:1013C0000E9490088BEF91E00E94410288EE93E02A
:1013D0000E9490088DEC91E0F7CF81E090E00E94B0
:1013E00090080E947E060E941902F7CFF894FFCF62
:0213F0000100FA
:00000001FF
