:100000000C9446000C9463000C94D6020C9463008C
:100010000C9463000C9463000C9463000C94FE0039
:100020000C9463000C9463000C9463000C946300C4
:100030000C9463000C9463000C9463000C946300B4
:100040000C9463000C9463000C9463000C946300A4
:100050000C9463000C9463000C9463000C94630094
:100060000C9463000C9463000B02FE01F101E401A7
:10007000DD01CC01C701C401C101BE01BB01B30157
:10008000A601A3019C018F0182017F0111241FBEE3
:10009000CFEFD8E0DEBFCDBF11E0A0E0B1E0E6E5F4
:1000A000F4E102C005900D92A230B107D9F715E036
:1000B000A2E0B1E001C01D92A233B107E1F70E94B6
:1000C0003B090C94290A0C9400002F922FB62F9212
:1000D0003F924F925F926F927F928F929F92AF92D8
:1000E000BF92CF92DF92EF92FF920F931F932F93C5
:1000F0003F934F935F936F937F938F939F93AF93B0
:10010000BF93CF93DF93EF93FF93EDB7FEB721A19A
:1001100030A101A210A211248DB79EB72F933F9357
:1001200008953F912F919EBF8DBFFEB7EDB710A0F0
:1001300001A030A321A3FF91EF91DF91CF91BF9157
:10014000AF919F918F917F916F915F914F913F916F
:100150002F911F910F91FF90EF90DF90CF90BF9064
:10016000AF909F908F907F906F905F904F903F9057
:100170002F902FBE2F900895F894089578940895A5
:1001800080911E0290911F0208958091000181606C
:10019000809300010895F8940E94090587E192E098
:1001A00060EE79E040E050E00E94E30290931B0291
:1001B00080931A02909375028093740281E090E01C
:1001C0009093470280934602089563E572E00E948F
:1001D000E3020895809178029091790201969093BC
:1001E00079028093780280911A0290911B020E94FA
:1001F000800790931B0280931A0208950E94650065
:1002000090931B0280931A028AEE90E09093190259
:100210008093180280911C0290911D020E9491000F
:1002200008950E94650090931D0280931C028091A6
:100230001A0290911B020E94910018958091000172
:1002400080FF0DC08E7F8093000180911A029091F3
:100250001B020E94450790931B0280931A020E9482
:1002600011018091000181FF09C00E946B010E9471
:100270005301809100018D7F80930001E09118026D
:10028000F09119023097D1F209951092190210924B
:100290001802D4CF0E94130910924702109246020E
:1002A0000E941E01089580910201882399F08150D7
:1002B0008093020190E0880F991F88599F4FFC019D
:1002C000259134918091030190910401F9010995E0
:1002D000109202010895E0911A02F0911B02978199
:1002E00080E0E085F0E0E82BF92B8081809302012B
:1002F00081819281909304018093030108950E946B
:100300003A0508950F931F938C01FC018081918120
:100310000E947405F80182831F910F9108950F9335
:100320001F938C01FC01808191810E948E05F80150
:1003300082831F910F910895FC01808191816281D8
:100340000E94B90508950E940D0808950F931F9308
:100350008C01FC01808191810E942A08F80182832E
:100360001F910F910895FC016281738180819181B9
:100370000E944C0808950E945C0808950E94650838
:1003800008950E947F0808950E9496080895FC0130
:1003900080810E94A7060895FC01838582FF02C028
:1003A000806801C08064838783858D7D8387CF01CA
:1003B0000E94EF030E94C500089580911E02909153
:1003C0001F020E94540608950F931F938C01FC0195
:1003D000808191810E945E06F80182831F910F91B6
:1003E00008950F931F938C01FC01808191810E94DD
:1003F000CA06F80182831F910F9108950F931F93EE
:100400008C01FC01808191810E948106F801828328
:100410001F910F9108958F92AF92BF92CF92EF925A
:10042000FF920F931F93FC01628173814481558178
:100430002681378100851185E284F384A584B68402
:1004400080819181C48487840E94EF061F910F915F
:10045000FF90EF90CF90BF90AF908F9008950F9343
:100460001F93182F092FF8948091000182608093C8
:1004700000010E940E097894812F902F1F910F91F7
:10048000089580930501709307016093060185E04C
:1004900091E00E942F020000000000008091000106
:1004A00081FDFFCF08950F931F938C01F8947894EA
:1004B000DC019296ED91FC91939798968D919C9189
:1004C0009997099586E0B8010E9441021F910F910A
:1004D000089585E061E070E00E9441020895DF9395
:1004E000CF9300D00F92CDB7DEB79A83898383E094
:1004F000BE016F5F7F4F0E9441028B810F900F9072
:100500000F90CF91DF910895DF93CF9300D00F929A
:10051000CDB7DEB79A8389831B8282E0BE016F5F0D
:100520007F4F0E9441028B810F900F900F90CF91CF
:10053000DF9108958F92AF92BF92CF92EF92FF9288
:100540000F931F93DF93CF93CDB7DEB7909309013D
:100550008093080170930B0160930A0150930D0181
:1005600040930C0130930F0120930E011093110161
:1005700000931001F0921301E0921201C092140155
:10058000B0921601A09215018092170181E068E0F7
:1005900071E00E944102CF91DF911F910F91FF9076
:1005A000EF90CF90BF90AF908F9008950E9465001C
:1005B00090931B0280931A0280911C0290911D025D
:1005C0000E9491000895FC0160837293129212922E
:1005D00082E0829380E8829383E0829384E0829336
:1005E00085E0829386E0829387E0829388E082931D
:1005F00089E0829380E1829381E1829382E1829318
:1006000083E1829384E1829385E1829386E1829300
:1006100087E1829388E1829389E1829380E28293E9
:1006200081E2829382E2829383E2829342935293A5
:1006300086E2829387E2829388E2829389E28293C0
:1006400080E3829381E382933197CF010895809173
:10065000460290914702009729F001979093470234
:10066000809346028091460290914702892B11F4B3
:100670000E94BE0008950E94BC00809146029091A5
:1006800047020196909347028093460208950F9384
:100690001F93CF93DF93AC01EB0171E060E0FA01AF
:1006A0008089872309F444C02889872F8223E62F75
:1006B000F0E009F1EE0FFF1FDA01AE0FBF1F0D9042
:1006C000BC91A02DEC0FFD1F0081118112962D9180
:1006D0003C911397F90111830083F8018281938182
:1006E000FC01B183A083F8013383228313969C938A
:1006F0008E9312970DC0EE0FFF1FDE01AE0FBF1FCE
:10070000E40FF51F808191818D939C93272B288B7B
:10071000E62FF0E0EE0FFF1FE40FF51FA081B1817F
:1007200014960D90BC91A02DCD93DC931182108274
:10073000770F673011F06F5FB2CFFA01108ADF9147
:10074000CF911F910F910895FF920F931F93CF9315
:10075000DF93EC01EC81FD81F280008111818381C6
:1007600094818230910548F00197948383830E949D
:10077000B004FC019D838C83F28288819981AF2D26
:10078000B0E08C179D07A9F4FD01EE0FFF1FE00FED
:10079000F11F1182108281E090E00F2C02C0880FBF
:1007A000991F0A94E2F78095F80120892823208B6D
:1007B00010C0AA0FBB1FA00FB11F8D919C918C1769
:1007C0009D0721F4C8016F2D0E94E908CE010E9407
:1007D000F404DF91CF911F910F91FF9008950F9333
:1007E0001F938C010E94A403D8011496ED91FC91F3
:1007F0001597118210821F910F9108950F931F93E7
:10080000CF93DF938C01EB01DC011496ED91FC9109
:100810001597228181E090E0022E02C0880F991F77
:100820000A94E2F7982FE22FF0E028898223EE0F56
:10083000FF1F882341F0E60FF71F60817181C80117
:100840000E94E20406C0E60FF71F11830083292BE4
:10085000288BD8011496ED91FC911597D183C08314
:10086000DF91CF911F910F910895EF92FF920F9317
:100870001F93CF93DF93EC01DB01EC80FD80F70148
:10088000828121E030E0082E02C0220F331F0A943B
:10089000E2F7E82FF0E050969C915097822F892341
:1008A000EE0FFF1F8823D1F08D010E0F1F1FD801FF
:1008B0006D917C91CE010E94E204C7010E94A404C4
:1008C000D801ED91FC910480F581E02DFD83EC834E
:1008D000838194810196948383830BC0EA0FFB1F6D
:1008E000D183C083922B50969C935097F701B1838C
:1008F000A083DF91CF911F910F91FF90EF9008950A
:10090000DF92EF92FF920F931F938C01D62E76E029
:10091000E72EF12CE80EF91E0E94DC04C7016D2DB4
:100920000E949B04F801F582E4821F910F91FF90D1
:10093000EF90DF900895FC0111821082628381E0C4
:1009400090E0948383830895FC01809176029091D6
:10095000770291838083F0937702E0937602089583
:10096000E0917602F09177028081918190937702F5
:1009700080937602CF010895A82F70E0FFEFEFEF8C
:1009800098E040E050E096952E2F30E0092E02C00E
:10099000359527950A94E2F78F2F8A23822311F049
:1009A000E22F03C0F22FF095790F4F5F5F4F443075
:1009B000510549F7872F0895FC0193838283918322
:1009C00080830895FC01DB0112968D919C91139711
:1009D00093838283718360831396FC93EE931297C3
:1009E000DC01ED93FC930895CF93DF93FC018281AA
:1009F0009381A081B18113969C938E931297EC0101
:100A0000B983A883F383E283F183E083DF91CF91FD
:100A100008956F927F928F92AF92BF92CF92EF9292
:100A2000FF920F931F93A8E46A2EA2E07A2EC301CF
:100A300060EE79E040E050E020E030E000E010E0DF
:100A4000EE24FF24F7E0CF2EE1E0AE2EB12C882477
:100A50000E94EF06C3018A97B3010E94EA071F9123
:100A60000F91FF90EF90CF90BF90AF908F907F90BD
:100A70006F9008950F931F93CF93DF938C010E9483
:100A8000C000EC01F80161890E948C068B8585FF0E
:100A90000BC082FD09C0CE010E94EF03CE010E946F
:100AA00016060E94C50003C0CE010E942C06F80164
:100AB0008089882319F481E0828B11C0C8010E94CB
:100AC000F6088C01FC018385877F8387C8010E941B
:100AD000EF03C8010E941606C8010E947306DF9149
:100AE000CF911F910F910895FF920F931F93CF9372
:100AF000DF93EC01FA880E94C0008C01FF2039F0DE
:100B00001A8A69890E949B06C8010E942C068F2DB3
:100B1000DF91CF911F910F91FF900895FF920F9356
:100B20001F93CF93DF938C01FC01F2880E94C000D9
:100B3000EC01F80161890E949B06FF2031F0F80169
:100B4000128ACE010E942C060DC08B8588608D7F95
:100B50008B87CE010E94EF03CE01B8010E94FE03F5
:100B60000E94C5008F2DDF91CF911F910F91FF90B3
:100B70000895FF920F931F938C01F62E0E94D908BF
:100B800081E0F801828BF18A1F910F91FF90089507
:100B9000DC0150961C92509780E090E0FD01E80F38
:100BA000F91F11821082029680319105B9F70895DC
:100BB000DC0170E0FB01EE0FFF1FEA0FFB1F8081DD
:100BC000918101969183808381E090E002C0880F3B
:100BD000991F6A95E2F750962C915097282B5096C2
:100BE0002C930895DC01E62FF0E081E090E0062EE2
:100BF00002C0880F991F0A94E2F7282FEE0FFF1FFB
:100C0000EA0FFB1F80819181019791838083892B5B
:100C100049F4922F909550968C9150978923509635
:100C20008C93509750968C9182230895CF93DF93A5
:100C3000EC018D8D882349F00E94BC04EC81FD817C
:100C40009C85981728F4892F03C0EC81FD818C8541
:100C50008283DF91CF9108951F93CF93DF93EC01AF
:100C60008D8D882341F00E94BC049C85182F981715
:100C700018F4192F01C01C85EC81FD818281811738
:100C800079F0CE010E94EF03EC81FD811283609127
:100C9000200270912102CE010E94FE030E94C50035
:100CA000DF91CF911F910895FC0183858D7F83870C
:100CB000CF010E94EF030E94C5000895FC01238527
:100CC000422F50E0CA018C719070892B19F020627C
:100CD000238702C021FD02C080E00895CF010E9459
:100CE000540681E00895FC018385826083876091CA
:100CF000200270912102CF010E94FE030E94C500D4
:100D00000895FC0183858A7D11F080E00895CF016C
:100D10000E94730681E00895CF93DF93EC010D9656
:100D20000E94F2058D8D882319F48B858B7F8B872C
:100D3000DF91CF910895FC01858D882319F4838577
:100D400084608387CF010D960E94D80508951F9374
:100D5000182F0E94C000FC0183858123838785FFB3
:100D600007C082FD05C08F7D8387CF010E94540696
:100D70001F9108950E943B03E0911E02F0911F0213
:100D8000838580FF04C0868D978D91A380A30E94E8
:100D900027030895CF93DF93EC019B85892F8E7BEA
:100DA00011F080E019C091709B87CE010D960E94D2
:100DB000C8058E8D9F8D99A388A38AA59BA50097B2
:100DC00039F063E572E0AE010E94E5009DA78CA7B3
:100DD000CE010E94730681E0DF91CF9108952F929A
:100DE0003F924F925F926F927F928F92AF92BF929B
:100DF000CF92EF92FF920F931F93DF93CF9300D088
:100E0000CDB7DEB73C012B011A013A8329836C2D43
:100E10000E948004F3011386882011F081E083870B
:100E2000C3010D960E94C805F301C486B78EA68E35
:100E3000B1A2A0A253A242A235A224A289819A8182
:100E400097A386A311A700A7F3A6E2A6E114F104D5
:100E500049F0C70163E572E0A3010E94E500F301D8
:100E600095A784A70F900F90CF91DF911F910F91BD
:100E7000FF90EF90CF90BF90AF908F907F906F904A
:100E80005F904F903F902F900895CF93DF93E09124
:100E90001E02F0911F0295A784A724A135A1211558
:100EA000310521F080A591A5F9010995E091200275
:100EB000F09121028089882361F48091220290912F
:100EC00023029093210280932002F0932302E09367
:100ED000220280912002909121020E94F608EC01EA
:100EE00090931F0280931E02EEA1FFA1309719F08C
:100EF00088A599A509958CA59DA5DF91CF91089509
:100F0000CF93DF93C0911E02D0911F029DA78CA7A3
:100F1000ECA1FDA1309719F088A599A50995EC8160
:100F2000FD8120813181809120029091210228173A
:100F3000390731F5C90162810E94E90888A199A1A8
:100F40008230910520F0019799A388A319C0CE01A2
:100F50000E94A4038B8580FD0CC08E8D9F8D99A36C
:100F600088A36091220270912302CE010E94FE03A9
:100F700007C0EC81FD81118210828B858D7F8B876C
:100F8000E0912002F09121028089882361F4809110
:100F90002202909123029093210280932002F093E9
:100FA0002302E093220280912002909121020E946C
:100FB000F608EC0190931F0280931E02EEA1FFA1A0
:100FC000309719F088A599A509958CA59DA5DF9165
:100FD000CF910895EF92FF920F931F938C017B01A5
:100FE0000696F801938382830E94D908C801479628
:100FF000F801958384830E94D908F8016281738186
:10100000C7010E94FE03F801F182E08211A610A63A
:101010001F910F91FF90EF9008950F931F93FC0184
:101020008089882331F4818992890196928B818B02
:101030000EC0CF010E94F6088C01FC018385877FDA
:101040008387C8010E94EF03C8010E9473061F91A5
:101050000F9108950F931F93CF93DF93EC0189892C
:101060009A89009729F001979A8B898B81E00FC0AC
:101070000E94C0008C01FC01838588608387C801C1
:101080000E945406C801BE010E94FE0380E0DF9169
:10109000CF911F910F910895EF92FF920F931F939D
:1010A0008C017B010E94D908F801F28AE18A1F9124
:1010B0000F91FF90EF9008956091200270912102AE
:1010C0000E9447030E94C50008950F931F93FC01DF
:1010D0008089882389F0CF010E94F608182F092FF4
:1010E0000E94A4036091200270912102812F902F11
:1010F0000E94FE030E94C5001F910F910895EF9278
:10110000FF920F931F937C010E94C0008C010E94EC
:101110005406F801838580618387C801B7010E9466
:1011200035041F910F91FF90EF9008950E94D90808
:101130000895EF92FF920F931F937C010E943B034F
:1011400000917802109179020E191F090E9427035D
:10115000C8011F910F91FF90EF9008950F931F9377
:101160008C010E943B038091780290917902F801F2
:10117000918380830E9427031F910F9108950F93FD
:101180001F93DF93CF9300D0CDB7DEB78C01CE0194
:1011900001960E94AE0889819A810E949908801761
:1011A0009107C8F30F900F90CF91DF911F910F918E
:1011B0000895DC0150961C92509780E090E0FD016C
:1011C000E80FF91F11821082029680319105B9F75C
:1011D0000895E62FF0E0EE0FFF1FE80FF91FA08142
:1011E000B1818D919C91918380830895CF93DF93FA
:1011F000EC018889882319F4E0E0F0E00BC00E943C
:10120000BC04E82FF0E0EE0FFF1FEC0FFD1F019074
:10121000F081E02DCF01DF91CF9108955A9A5B982C
:101220005A985B9A0895E0E7F0E0808182608083BD
:10123000E99AE19A089585B190E1892785B90895E1
:1012400085B198E0892785B9089585B194E089270B
:1012500085B9089585B192E0892785B9089585B14A
:1012600020E2822785B98BB190E489278BB98BB1B5
:1012700082278BB908952F923F924F925F926F927F
:101280007F928F92AF92BF92CF92EF92FF920F9385
:101290001F930E94CB0082E08093B00085E0809392
:1012A000B1008CE78093B3001092B40010927000EC
:1012B00017BA88E0809369001DBA8FE384B915B826
:1012C00087B918B88EEF8AB91BB85C9A5B9A5D9A99
:1012D000FAE76F2EF2E07F2E2BE139E0C3016BEDD0
:1012E00079E0A90100E010E0E1EBEE2EE3E0FE2E54
:1012F000CC24C394B2E0AB2EB12C88240E94EF061C
:10130000AEE22A2E312C260C371C20E239E0C10136
:1013100066ED79E0A901F1E3EF2EF4E0FF2EE2E0C3
:10132000CE2EB3E0AB2EB12C0E94EF06A6ED4A2ED6
:10133000A2E05A2E25E239E0C20160E27AE0A9017A
:10134000F1EBEF2EF4E0FF2EE4E0AE2EB12C88247A
:1013500083940E94EF068FE299E090936F0280934E
:101360006E0290936D0280936C02C3010E9481060D
:10137000C1010E948106C2010E9481060E944A01A9
:1013800080E090E01F910F91FF90EF90CF90BF9081
:10139000AF908F907F906F905F904F903F902F9085
:1013A000089584EF91E00E94BF08089584EF91E0D2
:1013B0000E94BF08FBCF84EF91E00E94BF08FBCFE3
:1013C0008F92AF92BF92CF92EF92FF920F931F93A3
:1013D00084E093E061ED79E04AE259E09A0100E0AF
:1013E00010E0E1E3EE2EE5E0FE2EB3E0CB2EA4E02C
:1013F000AA2EB12C88240E949A0284E093E00E94D5
:10140000840288EE93E00E94BF0884E093E00E948B
:10141000840288EE93E00E94BF0884E093E00E947B
:101420006F0284EF91E00E94BF0884E093E00E9485
:10143000840288EE93E00E94BF0886ED92E0F7CF29
:1014400081E090E00E94BF080E94BA060E946902F3
:06145000F7CFF894FFCF76
:02145600010093
:00000001FF
