:100000000C9446000C9463000C9463000C94630001
:100010000C9463000C9463000C9463000C94E9004E
:100020000C9463000C9463000C9463000C946300C4
:100030000C9463000C9463000C9463000C946300B4
:100040000C9463000C9463000C9463000C946300A4
:100050000C9463000C9463000C9463000C94630094
:100060000C9463000C946300BD01B001A3019601E0
:100070008F017E0179017601730170016D016501C7
:10008000580155014E0141013401310111241FBEB7
:10009000CFEFD8E0DEBFCDBF11E0A0E0B1E0E8EEE9
:1000A000F2E102C005900D92A230B107D9F714E039
:1000B000A2E0B1E001C01D92AB34B107E1F70E94AC
:1000C0008C080C9472090C9400002F922FB62F927A
:1000D0003F924F925F926F927F928F929F92AF92D8
:1000E000BF92CF92DF92EF92FF920F931F932F93C5
:1000F0003F934F935F936F937F938F939F93AF93B0
:10010000BF93CF93DF93EF93FF93EDB7FEB721A19A
:1001100030A101A210A211248DB79EB72F933F9357
:1001200008953F912F919EBF8DBFFEB7EDB710A0F0
:1001300001A030A321A3FF91EF91DF91CF91BF9157
:10014000AF919F918F917F916F915F914F913F916F
:100150002F911F910F91FF90EF90DF90CF90BF9064
:10016000AF909F908F907F906F905F904F903F9057
:100170002F902FBE2F9008951F900F909EBF8DBF80
:100180000F921F9211240895F89408957894089579
:100190008091150190911601089580910001816070
:1001A0008093000108950E94660810923E0110920B
:1001B0003D01789480E090E00E9441090895F89410
:1001C00081E090E090933E0180933D010E946204A3
:1001D000089500911501109116010E946500F80123
:1001E00095A784A780916B0190916C010E94BC003F
:1001F00080916F01909170010196909370018093AE
:100200006F010E94CC06E0911501F091160184A5C2
:1002100095A50E94910018958091000180FF05C06E
:100220008E7F809300010E94970608950E943C02F1
:10023000089580910201882399F0815080930201F2
:1002400090E0880F991F88599F4FFC0125913491A8
:100250008091030190910401F90109951092020126
:1002600008950E94930408950F931F938C01FC013D
:10027000808191810E94CD04F80182831F910F91AA
:1002800008950F931F938C01FC01808191810E943E
:10029000E704F80182831F910F910895FC0180818A
:1002A000918162810E94120508950E945807089565
:1002B0000F931F938C01FC01808191810E9475072F
:1002C000F80182831F910F910895FC01628173816F
:1002D000808191810E94970708950E94A707089541
:1002E0000E94B00708950E94CA0708950E94E1077E
:1002F0000895FC0180810E9400060895FC01838519
:1003000082FF02C0806801C08064838783858D7D01
:100310008387CF010E9448030E94CD0008958091F9
:100320001501909116010E94AD0508950F931F933A
:100330008C01FC01808191810E94B705F8018283C4
:100340001F910F9108950F931F938C01FC018081E1
:1003500091810E941306F80182831F910F910895E5
:100360000F931F938C01FC01808191810E94DA051B
:10037000F80182831F910F9108958F92AF92BF92DF
:10038000CF92EF92FF920F931F93FC01A584B68446
:100390006281738144815581268137810085118571
:1003A000E284F38480819181C48487840E9438062A
:1003B0001F910F91FF90EF90CF90BF90AF908F90D3
:1003C000089500911501109116010E946500F80131
:1003D00095A784A780916B0190916C010E94BC004D
:1003E0000E9419010E940C01E0911501F091160183
:1003F00084A595A50E9491001895F8948093020118
:1004000070930401609303010E94E1010895BC010F
:100410008BE00E94FD010895BC018AE00E94FD016D
:100420000895DF93CF930F92CDB7DEB7BC018FEE67
:10043000898389E00E94FD0187E0BE016F5F7F4FE5
:100440000E94FD010F90CF91DF9108950F931F93AC
:100450008C01F8947894DC019296ED91FC9193973D
:1004600098968D919C919997099586E0B8010E9484
:10047000FD011F910F910895FC0160837293129208
:10048000129282E0829380E8829383E0829384E0F8
:10049000829385E0829386E0829387E0829388E06E
:1004A000829389E0829380E1829381E1829382E169
:1004B000829383E1829384E1829385E1829386E152
:1004C000829387E1829388E1829389E1829380E23B
:1004D000829381E2829382E2829383E282934293C7
:1004E000529386E2829387E2829388E2829389E242
:1004F000829380E3829381E382933197CF010895C1
:1005000080913D0190913E01009729F001979093D1
:100510003E0180933D0180913D0190913E01892BE8
:1005200011F40E94C60008950E94C40080913D010C
:1005300090913E01019690933E0180933D01089574
:100540000F931F93CF93DF93AC01EB0171E060E059
:10055000FA018089872309F444C02889872F8223E0
:10056000E62FF0E009F1EE0FFF1FDA01AE0FBF1F1B
:100570000D90BC91A02DEC0FFD1F008111811296F2
:100580002D913C911397F90111830083F801828129
:100590009381FC01B183A083F801338322831396F6
:1005A0009C938E9312970DC0EE0FFF1FDE01AE0FCE
:1005B000BF1FE40FF51F808191818D939C93272BA2
:1005C000288BE62FF0E0EE0FFF1FE40FF51FA08150
:1005D000B18114960D90BC91A02DCD93DC93118226
:1005E0001082770F673011F06F5FB2CFFA01108A77
:1005F000DF91CF911F910F910895FF920F931F9359
:10060000CF93DF93EC01EC81FD81F28000811181B9
:10061000838194818230910548F00197948383838C
:100620000E940904FC019D838C83F2828881998158
:10063000AF2DB0E08C179D07A9F4FD01EE0FFF1F51
:10064000E00FF11F1182108281E090E00F2C02C0B8
:10065000880F991F0A94E2F78095F80120892823D2
:10066000208B10C0AA0FBB1FA00FB11F8D919C91B2
:100670008C179D0721F4C8016F2D0E944108CE01FF
:100680000E944D04DF91CF911F910F91FF9008952B
:100690000F931F938C010E94FD02D8011496ED91D7
:1006A000FC911597118210821F910F9108950F935D
:1006B0001F93CF93DF938C01EB01DC011496ED9136
:1006C000FC911597228181E090E0022E02C0880FF4
:1006D000991F0A94E2F7982FE22FF0E028898223ED
:1006E000EE0FFF1F882341F0E60FF71F6081718135
:1006F000C8010E943B0406C0E60FF71F1183008368
:10070000292B288BD8011496ED91FC911597D18354
:10071000C083DF91CF911F910F910895EF92FF92C7
:100720000F931F93CF93DF93EC01DB01EC80FD80EF
:10073000F701828121E030E0082E02C0220F331F32
:100740000A94E2F7E82FF0E050969C915097822FA0
:100750008923EE0FFF1F8823D1F08D010E0F1F1F7D
:10076000D8016D917C91CE010E943B04C7010E948B
:10077000FD03D801ED91FC910480F581E02DFD830E
:10078000EC83838194810196948383830BC0EA0F69
:10079000FB1FD183C083922B50969C935097F701F7
:1007A000B183A083DF91CF911F910F91FF90EF90C4
:1007B0000895DF92EF92FF920F931F938C01D62E34
:1007C00076E0E72EF12CE80EF91E0E943504C701F1
:1007D0006D2D0E94F403F801F582E4821F910F91C0
:1007E000FF90EF90DF900895FC01118210826283E8
:1007F00081E090E0948383830895FC0180916D01F2
:1008000090916E0191838083F0936E01E0936D016E
:100810000895E0916D01F0916E0180819181909336
:100820006E0180936D01CF010895A82F70E0FFEF56
:10083000EFEF98E040E050E096952E2F30E0092E43
:1008400002C0359527950A94E2F78F2F8A238223D9
:1008500011F0E22F03C0F22FF095790F4F5F5F4F39
:100860004430510549F7872F0895FC019383828313
:10087000918380830895FC01DB0112968D919C91F8
:10088000139793838283718360831396FC93EE9313
:100890001297DC01ED93FC930895CF93DF93FC0155
:1008A00082819381A081B18113969C938E9312973C
:1008B000EC01B983A883F383E283F183E083DF91C2
:1008C000CF9108956F927F928F92AF92BF92CF9205
:1008D000EF92FF920F931F93AFE36A2EA1E07A2E5F
:1008E000C30161E479E040E050E020E030E000E066
:1008F00010E0EE24FF24F7E0CF2EE1E0AE2EB12C85
:1009000088240E943806C3018A97B3010E943507E4
:100910001F910F91FF90EF90CF90BF90AF908F906D
:100920007F906F9008950F931F93CF93DF938C0167
:100930000E94C800EC01F80161890E94E5058B85E1
:1009400085FF0BC082FD09C0CE010E944803CE0185
:100950000E946F050E94CD0003C0CE010E94850554
:10096000F8018089882319F481E0828B11C0C801C5
:100970000E944E088C01FC018385877F8387C80114
:100980000E944803C8010E946F05C8010E94CC055F
:10099000DF91CF911F910F910895FF920F931F93B5
:1009A000CF93DF93EC01FA880E94C8008C01FF20EE
:1009B00039F01A8A69890E94F405C8010E948505E8
:1009C0008F2DDF91CF911F910F91FF900895FF928E
:1009D0000F931F93CF93DF938C01FC01F2880E9449
:1009E000C800EC01F80161890E94F405FF2031F094
:1009F000F801128ACE010E9485050DC08B858860A2
:100A00008D7F8B87CE010E944803CE01B8010E94E2
:100A100057030E94CD008F2DDF91CF911F910F9131
:100A2000FF900895FF920F931F938C01F62E0E9462
:100A3000310881E0F801828BF18A1F910F91FF90BC
:100A40000895DC0150961C92509780E090E0FD01E3
:100A5000E80FF91F11821082029680319105B9F7D3
:100A60000895DC0170E0FB01EE0FFF1FEA0FFB1F92
:100A70008081918101969183808381E090E002C022
:100A8000880F991F6A95E2F750962C915097282B62
:100A900050962C930895DC01E62FF0E081E090E081
:100AA000062E02C0880F991F0A94E2F7282FEE0F36
:100AB000FF1FEA0FFB1F8081918101979183808343
:100AC000892B49F4922F909550968C9150978923B9
:100AD00050968C93509750968C9182230895CF9383
:100AE000DF93EC018D8D882349F00E941504EC8181
:100AF000FD819C85981728F4892F03C0EC81FD8126
:100B00008C858283DF91CF9108951F93CF93DF93DC
:100B1000EC018D8D882341F00E9415049C85182FCF
:100B2000981718F4192F01C01C85EC81FD81828172
:100B3000811779F0CE010E944803EC81FD81128378
:100B40006091170170911801CE010E9457030E9415
:100B5000CD00DF91CF911F910895FC0183858D7F9A
:100B60008387CF010E9448030E94CD000895FC01B5
:100B70002385422F50E0CA018C719070892B19F0A7
:100B80002062238702C021FD02C080E00895CF01CA
:100B90000E94AD0581E00895FC0183858260838712
:100BA0006091170170911801CF010E9457030E94B4
:100BB000CD000895FC0183858A7D11F080E00895C1
:100BC000CF010E94CC0581E00895CF93DF93EC0123
:100BD0000D960E944B058D8D882319F48B858B7F94
:100BE0008B87DF91CF910895FC01858D882319F4BF
:100BF000838584608387CF010D960E943105089517
:100C00001F93182F0E94C800FC01838581238387CE
:100C100085FF07C082FD05C08F7D8387CF010E94BD
:100C2000AD051F910895CF93DF93EC019B85892F2C
:100C30008E7B11F080E019C091709B87CE010D96DC
:100C40000E9421058E8D9F8D99A388A38AA59BA5BF
:100C5000009739F066E272E0AE010E9416019DA78E
:100C60008CA7CE010E94CC0581E0DF91CF91089541
:100C70002F923F924F925F926F927F928F92AF929C
:100C8000BF92CF92EF92FF920F931F93DF93CF9378
:100C900000D000D0CDB7DEB73C012B011A013C8358
:100CA0002B83BA82A9826C2D0E94D903F30113868B
:100CB000882011F081E08387C3010D960E942105F1
:100CC000F301C48689819A81978F868F89819A8161
:100CD00091A380A353A242A235A224A28B819C811E
:100CE00097A386A311A700A7F3A6E2A6E114F10437
:100CF00049F0C70166E272E0A3010E941601F30108
:100D000095A784A70F900F900F900F90CF91DF9130
:100D10001F910F91FF90EF90CF90BF90AF908F9069
:100D20007F906F905F904F903F902F900895E0914B
:100D30001501F091160124A135A12115310521F0ED
:100D400080A591A5F9010995E0911701F09118018D
:100D50008089882361F48091190190911A01909300
:100D6000180180931701F0931A01E0931901809103
:100D70001701909118010E944E08FC0190931601F2
:100D80008093150126A137A12115310521F080A5F9
:100D900091A5F90109950895CF93DF93C0911501AD
:100DA000D0911601ECA1FDA1309719F088A599A565
:100DB0000995EC81FD81208131818091170190910D
:100DC00018012817390739F5C90162810E944108C5
:100DD00088A199A1029730F088A199A1019799A3C0
:100DE00088A319C0CE010E94FD028B8580FD0CC036
:100DF0008E8D9F8D99A388A36091190170911A011E
:100E0000CE010E94570307C0EC81FD811182108240
:100E10008B858D7F8B87E0911701F0911801808978
:100E2000882361F48091190190911A01909318011F
:100E300080931701F0931A01E09319018091170133
:100E4000909118010E944E08FC0190931601809326
:100E5000150126A137A12115310521F080A591A505
:100E6000F9010995DF91CF910895EF92FF920F93C9
:100E70001F938C017B010696F801938382830E9465
:100E80003108C8014796F801958384830E94310890
:100E9000F80162817381C7010E945703F801F18252
:100EA000E08211A610A61F910F91FF90EF90089578
:100EB0000F931F93FC018089882331F481899289E3
:100EC0000196928B818B0EC0CF010E944E088C013F
:100ED000FC018385877F8387C8010E944803C8017E
:100EE0000E94CC051F910F9108950F931F93CF93EC
:100EF000DF93EC0189899A89009729F001979A8BF1
:100F0000898B81E00FC00E94C8008C01FC018385A1
:100F100088608387C8010E94AD05C801BE010E9498
:100F2000570380E0DF91CF911F910F910895EF92C9
:100F3000FF920F931F938C017B010E943108F801EF
:100F4000F28AE18A1F910F91FF90EF9008956091CE
:100F50001701709118010E94A0020E94CD0008950F
:100F60000F931F93FC018089882389F0CF010E9491
:100F70004E08182F092F0E94FD02609117017091F1
:100F80001801812F902F0E9457030E94CD001F91BE
:100F90000F910895EF92FF920F931F937C010E948F
:100FA000C8008C010E94AD05F801838580618387AC
:100FB000C801B7010E948E031F910F91FF90EF901F
:100FC00008950E9431080895DF93CF9300D000D098
:100FD000CDB7DEB79C838B830E94940280916F0112
:100FE000909170012B813C81821B930B9A838983A2
:100FF0000E94800229813A81C9010F900F900F90C1
:101000000F90CF91DF9108950F931F938C010E9451
:10101000940280916F0190917001F8019183808317
:101020000E9480021F910F910895DF93CF9300D00B
:1010300000D0CDB7DEB79C838B83CE0101960E9492
:10104000040889819A810E94E4072B813C818217E0
:101050009307B8F30F900F900F900F90CF91DF91FF
:101060000895DC0150961C92509780E090E0FD01BD
:10107000E80FF91F11821082029680319105B9F7AD
:101080000895E62FF0E0EE0FFF1FE80FF91FA08193
:10109000B1818D919C91918380830895CF93DF934B
:1010A000EC018889882319F4E0E0F0E00BC00E948D
:1010B0001504E82FF0E0EE0FFF1FEC0FFD1F01906D
:1010C000F081E02DCF01DF91CF910895E0E7F0E0CE
:1010D000808182608083089585B190E1892785B9F8
:1010E000089585B198E0892785B9089585B194E080
:1010F000892785B9089585B192E0892785B9089532
:1011000085B120E2822785B98BB190E489278BB91C
:101110008BB182278BB908952F923F924F925F92A5
:101120006F927F928F92AF92BF92CF92EF92FF9287
:101130000F931F93CF93DF930E94DF0092E0909371
:10114000B00085E08093B1008CE78093B3001092EB
:10115000B4001092700017BA88E0809369009DBBBC
:10116000E19A9FE394B980E285B997B918B88EEFF8
:101170008AB91BB85C9A5B9A5D9AB1E76B2EB1E0B5
:101180007B2E2CE638E0C3016CE579E0A90100E094
:1011900010E0A8EAEA2EA2E0FA2ECC24C394F2E0F2
:1011A000AF2EB12C88240E943806E301AE9621E7C9
:1011B00038E0CE0163E579E0A901E8E2EE2EE3E054
:1011C000FE2EB2E0CB2EA3E0AA2EB12C0E94380650
:1011D000FDEC2F2EF1E03F2E26E738E0C10165E659
:1011E00079E0A901E8EAEE2EE3E0FE2EB4E0AB2EB2
:1011F000B12C0E943806ABEF4A2EA1E05A2E2BE705
:1012000038E0C2016AE479E0A901F8E2EF2EF4E0E7
:10121000FF2EE3E0CE2E0E94380680E898E09093FF
:101220006601809365019093640180936301C3011B
:101230000E94DA05CE010E94DA05C1010E94DA059A
:10124000C2010E94DA0509E214E0C8010E94E10728
:10125000C80141960E94E1070E94D30080E090E01F
:10126000DF91CF911F910F91FF90EF90CF90BF90A2
:10127000AF908F907F906F905F904F903F902F90A6
:10128000089584EF91E00E9415088AE394E00E949B
:101290000C02F7CF89E294E00E94110282E390E011
:1012A0000E941508F7CF8AE394E00E94110282E3BE
:1012B00090E00E941508F7CF89E294E00E941102A5
:1012C00082E390E00E941508F7CF8AE394E00E9441
:1012D000110282E390E00E94150889E294E00E94E6
:0812E0000702F3CFF894FFCFE1
:0212E800010003
:00000001FF
