:100000000C9446000C9463000C949A020C946300C8
:100010000C9463000C9463000C9463000C94FC003B
:100020000C9463000C9463000C9463000C946300C4
:100030000C9463000C9463000C9463000C946300B4
:100040000C9463000C9463000C9463000C946300A4
:100050000C9463000C9463000C9463000C94630094
:100060000C9463000C9463000502F801EB01DE01BF
:10007000D701C601C101BE01BB01B801B501AD0187
:10008000A0019D01960189017C01790111241FBE07
:10009000CFEFD8E0DEBFCDBF11E0A0E0B1E0EEEDE4
:1000A000F3E102C005900D92A230B107D9F714E038
:1000B000A2E0B1E001C01D92A63CB107E1F70E94A9
:1000C0000A090C94ED090C9400002F922FB62F9280
:1000D0003F924F925F926F927F928F929F92AF92D8
:1000E000BF92CF92DF92EF92FF920F931F932F93C5
:1000F0003F934F935F936F937F938F939F93AF93B0
:10010000BF93CF93DF93EF93FF93EDB7FEB721A19A
:1001100030A101A210A211248DB79EB72F933F9357
:1001200008953F912F919EBF8DBFFEB7EDB710A0F0
:1001300001A030A321A3FF91EF91DF91CF91BF9157
:10014000AF919F918F917F916F915F914F913F916F
:100150002F911F910F91FF90EF90DF90CF90BF9064
:10016000AF909F908F907F906F905F904F903F9057
:100170002F902FBE2F900895F894089578940895A5
:1001800080919F019091A001089581E080930001EA
:100190000895F8940E94D30488E991E06DEB79E02A
:1001A00040E050E00E94AD0290939C0180939B013F
:1001B0009093F6018093F50181E090E09093C8015F
:1001C0008093C701089568E672E00E94AD02089529
:1001D0008091F9019091FA0101969093FA01809330
:1001E000F90180919B0190919C010E944A07909394
:1001F0009C0180939B0108950E94650090939C014F
:1002000080939B0188EE90E090939A0180939901EE
:1002100080919D0190919E010E94910008950E94FD
:10022000650090939E0180939D0180919B01909128
:100230009C010E949100189580910001882361F033
:100240001092000180919B0190919C010E940F07E8
:1002500090939C0180939B010E940F018091050166
:1002600081FF07C00E945D01809105018D7F809311
:100270000501E0919901F0919A010995DDCF0E9465
:10028000DD081092C8011092C7010E941C01089558
:1002900080910201882381F090E0880F991F88598E
:1002A0009F4FFC01259134918091030190910401AD
:1002B000F9010995109202010895E0919B01F091D6
:1002C0009C01978180E0E085F0E0E82BF92B8081AC
:1002D00080930201818192819093040180930301B4
:1002E00008950E944801809105018E7F8093050149
:1002F00008950E94040508950F931F938C01FC013B
:10030000808191810E943E05F80182831F910F91A7
:1003100008950F931F938C01FC01808191810E94AD
:100320005805F80182831F910F910895FC01808187
:10033000918162810E94830508950E94D7070895E4
:100340000F931F938C01FC01808191810E94F4071F
:10035000F80182831F910F910895FC0162817381DE
:10036000808191810E94160808950E9426080895B0
:100370000E942F0808950E94490808950E9460086D
:100380000895FC0180810E9471060895FC01838517
:1003900082FF02C0806801C08064838783858D7D71
:1003A0008387CF010E94B9030E94C5000895809100
:1003B0009F019091A0010E941E0608950F931F9324
:1003C0008C01FC01808191810E942806F8018283C2
:1003D0001F910F9108950F931F938C01FC01808151
:1003E00091810E949406F80182831F910F910895D4
:1003F0000F931F938C01FC01808191810E944B0619
:10040000F80182831F910F9108958F92AF92BF924E
:10041000CF92EF92FF920F931F93FC016281738141
:10042000448155812681378100851185E284F384DA
:10043000A584B68480819181C48487840E94B90692
:100440001F910F91FF90EF90CF90BF90AF908F9042
:1004500008950F931F93182F092FF89483E080932A
:1004600005010E94D8087894812F902F1F910F9139
:10047000089580931601709318016093170186E127
:1004800091E00E942902000000000000000000002E
:1004900000008091050180FDFFCF0895BC018DE033
:1004A0000E9439020895DF93CF9300D00F92CDB709
:1004B000DEB79A8389838CE0BE016F5F7F4F0E9415
:1004C00039028B810F900F900F90CF91DF9108959B
:1004D0000F931F938C01F8947894DC019296ED9120
:1004E000FC91939798968D919C919997099585E0A9
:1004F000B8010E9439021F910F91089584E061E0D4
:1005000070E00E9439020895DF93CF9300D00F92DC
:10051000CDB7DEB79A8389831B8281E0BE016F5F0E
:100520007F4F0E9439028B810F900F900F90CF91D7
:10053000DF9108950E94650090939C0180939B0138
:1005400081E791E090939A018093990180919D01B8
:1005500090919E010E9491000895FC016083729326
:100560001292129282E0829380E8829383E08293D7
:1005700084E0829385E0829386E0829387E0829391
:1005800088E0829389E0829380E1829381E1829383
:1005900082E1829383E1829384E1829385E1829375
:1005A00086E1829387E1829388E1829389E1829355
:1005B00080E2829381E2829382E2829383E2829359
:1005C0004293529386E2829387E2829388E28293F7
:1005D00089E2829380E3829381E382933197CF0112
:1005E00008958091C7019091C801009729F0019763
:1005F0009093C8018093C7018091C7019091C80171
:10060000892B11F40E94BE0008950E94BC008091C5
:10061000C7019091C80101969093C8018093C701CA
:1006200008950F931F93CF93DF93AC01EB0171E01B
:1006300060E0FA018089872309F444C02889872F64
:100640008223E62FF0E009F1EE0FFF1FDA01AE0F73
:10065000BF1F0D90BC91A02DEC0FFD1F00811181DB
:1006600012962D913C911397F90111830083F801A3
:1006700082819381FC01B183A083F80133832283BB
:1006800013969C938E9312970DC0EE0FFF1FDE0101
:10069000AE0FBF1FE40FF51F808191818D939C9356
:1006A000272B288BE62FF0E0EE0FFF1FE40FF51F3E
:1006B000A081B18114960D90BC91A02DCD93DC93B7
:1006C00011821082770F673011F06F5FB2CFFA019D
:1006D000108ADF91CF911F910F910895FF920F9390
:1006E0001F93CF93DF93EC01EC81FD81F2800081B9
:1006F0001181838194818230910548F00197948320
:1007000083830E947A04FC019D838C83F28288811A
:100710009981AF2DB0E08C179D07A9F4FD01EE0F74
:10072000FF1FE00FF11F1182108281E090E00F2C7B
:1007300002C0880F991F0A94E2F78095F80120897A
:100740002823208B10C0AA0FBB1FA00FB11F8D91B3
:100750009C918C179D0721F4C8016F2D0E94B3084E
:10076000CE010E94BE04DF91CF911F910F91FF90A7
:1007700008950F931F938C010E946E03D801149665
:10078000ED91FC911597118210821F910F910895A0
:100790000F931F93CF93DF938C01EB01DC01149631
:1007A000ED91FC911597228181E090E0022E02C02C
:1007B000880F991F0A94E2F7982FE22FF0E028891A
:1007C0008223EE0FFF1F882341F0E60FF71F6081A1
:1007D0007181C8010E94AC0406C0E60FF71F1183A7
:1007E0000083292B288BD8011496ED91FC91159745
:1007F000D183C083DF91CF911F910F910895EF9224
:10080000FF920F931F93CF93DF93EC01DB01EC80FA
:10081000FD80F701828121E030E0082E02C0220F26
:10082000331F0A94E2F7E82FF0E050969C9150971E
:10083000822F8923EE0FFF1F8823D1F08D010E0F29
:100840001F1FD8016D917C91CE010E94AC04C7019D
:100850000E946E04D801ED91FC910480F581E02D99
:10086000FD83EC83838194810196948383830BC001
:10087000EA0FFB1FD183C083922B50969C93509715
:10088000F701B183A083DF91CF911F910F91FF906A
:10089000EF900895DF92EF92FF920F931F938C01D8
:1008A000D62E76E0E72EF12CE80EF91E0E94A60463
:1008B000C7016D2D0E946504F801F582E4821F9145
:1008C0000F91FF90EF90DF900895FC01118210824C
:1008D000628381E090E0948383830895FC0180919A
:1008E000F7019091F80191838083F093F801E093F0
:1008F000F7010895E091F701F091F801808191816D
:100900009093F8018093F701CF010895A82F70E02C
:10091000FFEFEFEF98E040E050E096952E2F30E0AB
:10092000092E02C0359527950A94E2F78F2F8A2366
:10093000822311F0E22F03C0F22FF095790F4F5F61
:100940005F4F4430510549F7872F0895FC01938389
:100950008283918380830895FC01DB0112968D913F
:100960009C91139793838283718360831396FC9386
:10097000EE931297DC01ED93FC930895CF93DF93F0
:10098000FC0182819381A081B18113969C938E9307
:100990001297EC01B983A883F383E283F183E083A8
:1009A000DF91CF9108956F927F928F92AF92BF9215
:1009B000CF92EF92FF920F931F93A9EC6A2EA1E0C2
:1009C0007A2EC3016DEB79E040E050E020E030E0AA
:1009D00000E010E0EE24FF24F7E0CF2EE1E0AE2EA1
:1009E000B12C88240E94B906C3018A97B3010E94E2
:1009F000B4071F910F91FF90EF90CF90BF90AF90F1
:100A00008F907F906F9008950F931F93CF93DF93F4
:100A10008C010E94C000EC01F80161890E94560619
:100A20008B8585FF0BC082FD09C0CE010E94B903F2
:100A3000CE010E94E0050E94C50003C0CE010E94C5
:100A4000F605F8018089882319F481E0828B11C0B2
:100A5000C8010E94C0088C01FC018385877F8387C1
:100A6000C8010E94B903C8010E94E005C8010E94A4
:100A70003D06DF91CF911F910F910895FF920F9343
:100A80001F93CF93DF93EC01FA880E94C0008C0182
:100A9000FF2039F01A8A69890E946506C8010E9400
:100AA000F6058F2DDF91CF911F910F91FF90089543
:100AB000FF920F931F93CF93DF938C01FC01F28879
:100AC0000E94C000EC01F80161890E946506FF20C8
:100AD00031F0F801128ACE010E94F6050DC08B8517
:100AE00088608D7F8B87CE010E94B903CE01B8014B
:100AF0000E94C8030E94C5008F2DDF91CF911F91E6
:100B00000F91FF900895FF920F931F938C01F62E83
:100B10000E94A30881E0F801828BF18A1F910F9156
:100B2000FF900895DC0150961C92509780E090E071
:100B3000FD01E80FF91F11821082029680319105A4
:100B4000B9F70895DC0170E0FB01EE0FFF1FEA0F1B
:100B5000FB1F8081918101969183808381E090E0E9
:100B600002C0880F991F6A95E2F750962C91509712
:100B7000282B50962C930895DC01E62FF0E081E0BD
:100B800090E0062E02C0880F991F0A94E2F7282FE2
:100B9000EE0FFF1FEA0FFB1F808191810197918368
:100BA0008083892B49F4922F909550968C91509781
:100BB000892350968C93509750968C918223089558
:100BC000CF93DF93EC018D8D882349F00E9486043A
:100BD000EC81FD819C85981728F4892F03C0EC8156
:100BE000FD818C858283DF91CF9108951F93CF93F0
:100BF000DF93EC018D8D882341F00E9486049C8553
:100C0000182F981718F4192F01C01C85EC81FD814D
:100C10008281811779F0CE010E94B903EC81FD81B8
:100C200012836091A1017091A201CE010E94C803BC
:100C30000E94C500DF91CF911F910895FC0183852B
:100C40008D7F8387CF010E94B9030E94C50008955C
:100C5000FC012385422F50E0CA018C719070892BD2
:100C600019F02062238702C021FD02C080E00895B0
:100C7000CF010E941E0681E00895FC0183858260F9
:100C800083876091A1017091A201CF010E94C803E6
:100C90000E94C5000895FC0183858A7D11F080E0E3
:100CA0000895CF010E943D0681E00895CF93DF9320
:100CB000EC010D960E94BC058D8D882319F48B855F
:100CC0008B7F8B87DF91CF910895FC01858D8823E1
:100CD00019F4838584608387CF010D960E94A20555
:100CE00008951F93182F0E94C000FC018385812363
:100CF000838785FF07C082FD05C08F7D8387CF0175
:100D00000E941E061F9108950E940503E0919F0115
:100D1000F091A001838580FF04C0868D978D91A3FB
:100D200080A30E94F1020895CF93DF93EC019B858D
:100D3000892F8E7B11F080E019C091709B87CE01C6
:100D40000D960E9492058E8D9F8D99A388A38AA5EA
:100D50009BA5009739F068E672E0AE010E94E300BF
:100D60009DA78CA7CE010E943D0681E0DF91CF9127
:100D700008952F923F924F925F926F927F928F923F
:100D8000AF92BF92CF92EF92FF920F931F93DF9398
:100D9000CF9300D0CDB7DEB73C012B011A013A83C7
:100DA00029836C2D0E944A04F3011386882011F0D8
:100DB00081E08387C3010D960E949205F301C486EA
:100DC000B78EA68EB1A2A0A253A242A235A224A29F
:100DD00089819A8197A386A311A700A7F3A6E2A60B
:100DE000E114F10449F0C70168E672E0A3010E9432
:100DF000E300F30195A784A70F900F90CF91DF91A7
:100E00001F910F91FF90EF90CF90BF90AF908F9078
:100E10007F906F905F904F903F902F900895CF9369
:100E2000DF93E0919F01F091A00195A784A724A1F1
:100E300035A12115310521F080A591A5F90109956C
:100E4000E091A101F091A2018089882361F4809151
:100E5000A3019091A4019093A2018093A101F0932A
:100E6000A401E093A3018091A1019091A2010E94AD
:100E7000C008EC019093A00180939F01EEA1FFA117
:100E8000309719F088A599A509958CA59DA5DF91A6
:100E9000CF910895CF93DF93C0919F01D091A0018E
:100EA0009DA78CA7ECA1FDA1309719F088A599A565
:100EB0000995EC81FD81208131818091A101909182
:100EC000A2012817390731F5C90162810E94B308D0
:100ED00088A199A18230910520F0019799A388A358
:100EE00019C0CE010E946E038B8580FD0CC08E8DD3
:100EF0009F8D99A388A36091A3017091A401CE0155
:100F00000E94C80307C0EC81FD81118210828B858D
:100F10008D7F8B87E091A101F091A20180898823C8
:100F200061F48091A3019091A4019093A201809318
:100F3000A101F093A401E093A3018091A1019091FC
:100F4000A2010E94C008EC019093A00180939F0130
:100F5000EEA1FFA1309719F088A599A509958CA558
:100F60009DA5DF91CF910895EF92FF920F931F936C
:100F70008C017B010696F801938382830E94A3086B
:100F8000C8014796F801958384830E94A308F8015D
:100F900062817381C7010E94C803F801F182E08277
:100FA00011A610A61F910F91FF90EF9008950F9337
:100FB0001F93FC018089882331F4818992890196ED
:100FC000928B818B0EC0CF010E94C0088C01FC0166
:100FD0008385877F8387C8010E94B903C8010E9467
:100FE0003D061F910F9108950F931F93CF93DF93A9
:100FF000EC0189899A89009729F001979A8B898B4E
:1010000081E00FC00E94C0008C01FC0183858860D4
:101010008387C8010E941E06C801BE010E94C80342
:1010200080E0DF91CF911F910F910895EF92FF9291
:101030000F931F938C017B010E94A308F801F28A91
:10104000E18A1F910F91FF90EF9008956091A101A7
:101050007091A2010E9411030E94C50008950F9390
:101060001F93FC018089882389F0CF010E94C0086A
:10107000182F092F0E946E036091A1017091A201A7
:10108000812F902F0E94C8030E94C5001F910F91CD
:101090000895EF92FF920F931F937C010E94C0006E
:1010A0008C010E941E06F801838580618387C80138
:1010B000B7010E94FF031F910F91FF90EF900895D9
:1010C0000E94A3080895EF92FF920F931F937C0153
:1010D0000E9405030091F9011091FA010E191F09F0
:1010E0000E94F102C8011F910F91FF90EF900895A7
:1010F0000F931F938C010E9405038091F901909139
:10110000FA01F801918380830E94F1021F910F91EF
:1011100008950F931F93DF93CF9300D0CDB7DEB721
:101120008C01CE0101960E94780889819A810E94E3
:10113000630880179107C8F30F900F90CF91DF914C
:101140001F910F910895DC0150961C92509780E0FA
:1011500090E0FD01E80FF91F1182108202968031A4
:101160009105B9F70895E62FF0E0EE0FFF1FE80FA5
:10117000F91FA081B1818D919C9191838083089505
:10118000CF93DF93EC018889882319F4E0E0F0E045
:101190000BC00E948604E82FF0E0EE0FFF1FEC0F5B
:1011A000FD1F0190F081E02DCF01DF91CF910895D7
:1011B0005A9A5B985A985B9A0895E0E7F0E080812C
:1011C00082608083E99AE19A089585B190E1892748
:1011D00085B9089585B198E0892785B9089585B1C5
:1011E00094E0892785B9089585B192E0892785B96A
:1011F000089585B120E2822785B98BB190E48927D3
:101200008BB98BB182278BB9089580E08F5F8A30CC
:10121000E8F3FBCF2F923F924F925F926F927F92B3
:101220008F92AF92BF92CF92EF92FF920F931F9344
:10123000CF93DF930E94C90082E08093B00085E0E5
:101240008093B1008CE78093B3001092B4001092A9
:10125000700017BA88E0809369001DBA8FE384B9E3
:1012600015B887B918B88EEF8AB91BB85C9A5B9A23
:101270005D9ABBEF6B2EB1E07B2E25EE38E0C3010B
:1012800060EE79E0A90100E010E0A5E4EA2EA3E019
:10129000FA2ECC24C394F2E0AF2EB12C88240E9405
:1012A000B906E301AE962AEE38E0CE0163ED79E0AF
:1012B000A901E5ECEE2EE3E0FE2EB2E0CB2EA3E09A
:1012C000AA2EB12C0E94B906F7E52F2EF2E03F2E90
:1012D0002FEE38E0C10166EC79E0A901E5E4EE2EDD
:1012E000E4E0FE2EB4E0AB2EB12C882483940E945F
:1012F000B906A5E84A2EA2E05A2E24EF38E0C20132
:1013000065E079E0A901F5ECEF2EF4E0FF2EE3E0D3
:10131000CE2E88240E94B90689EF98E09093F001C0
:101320008093EF019093EE018093ED01C3010E9441
:101330004B06CE010E944B06C1010E944B06C20122
:101340000E944B0683EB92E061E070E00E94160879
:101350000E943F0180E090E0DF91CF911F910F91BB
:10136000FF90EF90CF90BF90AF908F907F906F9055
:101370005F904F903F902F90089588EE93E00E94E9
:10138000890887E592E00E948402F7CF83EB92E020
:101390000E9453020E9484060E947E0283EB92E028
:1013A0000E944E02F3CF83EB92E00E94530284E648
:1013B00090E00E94890883EB92E00E944E02F3CFF6
:1013C00083EB92E00E94530284E690E00E94890839
:0E13D00083EB92E00E944E02F3CFF894FFCF21
:0213DE0001000C
:00000001FF
