:100000000C9434000C9451000C9451000C94510049
:100010000C9451000C9451000C9451000C944A0221
:100020000C9451000C9451000C9451000C9451000C
:100030000C9451000C9451000C9451000C945100FC
:100040000C9451000C9451000C9451000C945100EC
:100050000C9451000C9451000C9451000C945100DC
:100060000C9451000C94510011241FBECFEFD8E026
:10007000DEBFCDBF11E0A0E0B1E0E0EBFBE002C0ED
:1000800005900D92AC30B107D9F714E0ACE0B1E0C7
:1000900001C01D92A632B107E1F70E9438050C9409
:1000A000D6050C9400002F922FB62F923F924F92BC
:1000B0005F926F927F928F929F92AF92BF92CF92F8
:1000C000DF92EF92FF920F931F932F933F934F93E3
:1000D0005F936F937F938F939F93AF93BF93CF93D0
:1000E000DF93EF93FF93EDB7FEB721A130A101A2FB
:1000F00010A211248DB79EB72F933F9308953F917F
:100100002F9104C03F912F919EBF8DBFFEB7EDB7D9
:1001100010A001A030A321A3FF91EF91DF91CF9117
:10012000BF91AF919F918F917F916F915F914F910F
:100130003F912F911F910F91FF90EF90DF90CF9003
:10014000BF90AF909F908F907F906F905F904F90F7
:100150003F902F902FBE2F9008951F900F909EBF1D
:100160008DBF0F921F92112408951F900F908F93AF
:100170009F930F921F9211240895082E892F902D7E
:100180000895DF93CF9300D000D0CDB7DEB79A8328
:1001900089837C836B83E981FA8111821082E981F2
:1001A000FA8181E08283E981FA818B819C81948349
:1001B00083830F900F900F900F90CF91DF91089550
:1001C000DF93CF9300D000D0CDB7DEB7F8948DE0A9
:1001D00091E060E070E00E94C10081E080930C013A
:1001E00049C01A82198215C080910C01882F90E0B5
:1001F000019729813A81982F8827820F931FFC014C
:10020000ED5DFE4F85E5808389819A8101969A8311
:10021000898389819A818F3F910531F328F38091F9
:100220000C01882F90E00197982F882781509F4FCD
:100230008D5D9E4F20E531E0B90140E050E00E9425
:1002400046039C838B8380910C01282F30E0C901E9
:10025000880F991F880F991F820F931F835F9E4FEE
:100260002B813C81B9010E94C10080910C018F5FFC
:1002700080930C0180910C01843008F4B2CF10926D
:100280000C010F900F900F900F90CF91DF91089578
:10029000DF93CF93CDB7DEB77894CF91DF910895F8
:1002A000DF93CF9300D0CDB7DEB79A838983FFCF9A
:1002B000DF93CF930F92CDB7DEB780910C01282F3B
:1002C00030E0C901880F991F880F991F820F931F73
:1002D000FC01E15FFE4F8081882309F471C08091A9
:1002E0000C01282F30E0C901880F991F880F991F32
:1002F000820F931FFC01E35FFE4F80819181009785
:1003000009F45EC080910C01282F30E0C901880FEC
:10031000991F880F991F820F931FFC01E35FFE4F07
:10032000808191819093220180932101809121010C
:1003300090912201FC0120813181809121019091D5
:1003400022012817390789F480910C01282F30E009
:10035000C901880F991F880F991F820F931FFC01F5
:10036000E35FFE4F118210821DC080910C01282F87
:1003700030E08091210190912201FC014081518166
:10038000C901880F991F880F991F820F931FFC01C5
:10039000E35FFE4F518340838091210190912201C0
:1003A0000E94E4048091210190912201FC0184814A
:1003B0009581909322018093210181E0898301C07E
:1003C000198289810F90CF91DF910895DF93CF93A8
:1003D00000D0CDB7DEB780910C01282F30E0C901E5
:1003E000880F991F880F991F820F931FFC01E15FEF
:1003F000FE4F108280912101909122019A8389837E
:100400007894E981FA8109950F900F90CF91DF914F
:1004100008950E94E601F89480910C01282F30E0A5
:10042000C901880F991F880F991F820F931FFC0124
:10043000E15FFE4F81E080830E945801882399F498
:1004400080910C01282F30E0C901880F991F880F77
:10045000991F820F931FFC01E05FFE4F8081918105
:100460000E948200189580910C01282F30E0C9016C
:10047000880F991F880F991F820F931FFC01E05F5F
:10048000FE4F808191810E94AD0089E092E00E9440
:10049000B50008950E94530090932201809321019A
:1004A00080910C01282F30E0809121019091220150
:1004B000AC01C901880F991F880F991F820F931FE4
:1004C000FC01E05FFE4F5183408380910C018F5F00
:1004D00080930C0180910C01843010F010920C017B
:1004E0000E945801882399F480910C01282F30E054
:1004F000C901880F991F880F991F820F931FFC0154
:10050000E05FFE4F808191810E948200189580916A
:100510000C01282F30E0C901880F991F880F991FFF
:10052000820F931FFC01E05FFE4F808191810E944A
:10053000AD0089E092E00E94B50008950E9453004A
:10054000909322018093210180910C01282F30E0AB
:100550008091210190912201AC01C901880F991F5E
:10056000880F991F820F931FFC01E05FFE4F51839C
:1005700040830E945801882399F480910C01282F10
:1005800030E0C901880F991F880F991F820F931FB0
:10059000FC01E05FFE4F808191810E9482001895EE
:1005A00080910C01282F30E0C901880F991F880F16
:1005B000991F820F931FFC01E05FFE4F80819181A4
:1005C0000E94AD0089E092E00E94B5000895DF939B
:1005D000CF9300D00F92CDB7DEB789837B836A8338
:1005E0008981282F30E0C901880F991F880F991F32
:1005F000820F931FFC01E35FFE4F80819181009782
:10060000B1F04A815B818981282F30E0C901880FD0
:10061000991F880F991F820F931FFC01E35FFE4F04
:1006200020813181CA01B9010E94B20411C08981BF
:10063000282F30E04A815B81C901880F991F880FFC
:10064000991F820F931FFC01E35FFE4F518340838C
:100650000F900F900F90CF91DF910895DF93CF937C
:1006600000D00F92CDB7DEB789837B836A83F8947D
:100670002A813B818981B9010E94E7020E949E0282
:100680000F900F900F90CF91DF910895DF93CF934C
:10069000CDB7DEB72A970FB6F894DEBF0FBECDBF39
:1006A0009E838D8378876F835A8749878D819E814A
:1006B0009C838B838F8198859A8389838981EB8141
:1006C000FC8180838B819C8101979C838B838981B2
:1006D0009A81892F99279A8389838981EB81FC816B
:1006E00080838B819C8101979C838B83EB81FC8130
:1006F00010828B819C8101979C838B83EB81FC8191
:1007000010828B819C8101979C838B83EB81FC8180
:1007100082E080838B819C8101979C838B83EB811A
:10072000FC8180E880838B819C8101979C838B83F3
:10073000EB81FC8183E080838B819C8101979C838A
:100740008B83EB81FC8184E080838B819C8101978A
:100750009C838B83EB81FC8185E080838B819C81F2
:1007600001979C838B83EB81FC8186E080838B8166
:100770009C8101979C838B83EB81FC8187E0808344
:100780008B819C8101979C838B83EB81FC8188E02A
:1007900080838B819C8101979C838B83EB81FC817F
:1007A00089E080838B819C8101979C838B83EB8183
:1007B000FC8180E180838B819C8101979C838B836A
:1007C000EB81FC8181E180838B819C8101979C83FB
:1007D0008B83EB81FC8182E180838B819C810197FB
:1007E0009C838B83EB81FC8183E180838B819C8163
:1007F00001979C838B83EB81FC8184E180838B81D7
:100800009C8101979C838B83EB81FC8185E18083B4
:100810008B819C8101979C838B83EB81FC8186E19A
:1008200080838B819C8101979C838B83EB81FC81EE
:1008300087E180838B819C8101979C838B83EB81F3
:10084000FC8188E180838B819C8101979C838B83D1
:10085000EB81FC8189E180838B819C8101979C8362
:100860008B83EB81FC8180E280838B819C8101976B
:100870009C838B83EB81FC8181E280838B819C81D3
:1008800001979C838B83EB81FC8182E280838B8147
:100890009C8101979C838B83EB81FC8183E2808325
:1008A0008B819C8101979C838B8389859A859A8310
:1008B00089838981EB81FC8180838B819C81019775
:1008C0009C838B8389819A81892F99279A83898335
:1008D0008981EB81FC8180838B819C8101979C8342
:1008E0008B83EB81FC8186E280838B819C810197E5
:1008F0009C838B83EB81FC8187E280838B819C814D
:1009000001979C838B83EB81FC8188E280838B81C0
:100910009C8101979C838B83EB81FC8189E280839E
:100920008B819C8101979C838B83EB81FC8180E38D
:1009300080838B819C8101979C838B83EB81FC81DD
:1009400081E380838B819C8101979C838B838B8146
:100950009C812A960FB6F894DEBF0FBECDBFCF9113
:10096000DF910895DF93CF9300D000D000D0CDB7B2
:10097000DEB79C838B837E836D83ED81FE818281D4
:1009800093819A838983EB81FC8189819A81938306
:100990008283EB81FC818D819E8191838083ED81B7
:1009A000FE818B819C8193838283E981FA818B8193
:1009B0009C819183808326960FB6F894DEBF0FBE8C
:1009C000CDBFCF91DF910895DF93CF9300D000D0BA
:1009D00000D0CDB7DEB79E838D83ED81FE8182810D
:1009E00093819C838B83ED81FE81808191819A83A9
:1009F0008983E981FA818B819C8193838283EB8156
:100A0000FC8189819A8191838083ED81FE818D8132
:100A10009E8193838283ED81FE818D819E8191836E
:100A2000808326960FB6F894DEBF0FBECDBFCF9160
:100A3000DF910895DF93CF93CDB7DEB7A5E2B0E0A5
:100A4000E5E2F0E0908180E189278C93CF91DF91FE
:100A50000895DF93CF93CDB7DEB7A5E2B0E0E5E22E
:100A6000F0E0908180E189278C93CF91DF91089508
:100A7000DF93CF93CDB7DEB70E94E000E0EBF0E06C
:100A800082E08083E1EBF0E085E08083E3EBF0E05F
:100A90008CE78083E4EBF0E01082E0E7F0E082E0B6
:100AA0008083E7E3F0E01082E4E2F0E08FE380830C
:100AB000E5E2F0E01082E7E2F0E08FE38083E8E235
:100AC000F0E01082EAE2F0E08EEF8083EBE2F0E00B
:100AD00010820E944801109225042AC0F894809147
:100AE000250420E031E0B9010E94E702809125044D
:100AF00026E031E0B9010E942E03109224041092E6
:100B0000230409C0809123049091240401969093BA
:100B1000240480932304809123049091240423E0EF
:100B2000883E920778F3809125048F5F8093250497
:100B300080912504843090F2109225042AC0F89404
:100B40008091250420E031E0B9010E94E702809104
:100B5000250426E031E0B9010E942E0310922404FE
:100B60001092230409C080912304909124040196DB
:100B7000909324048093230480912304909124046F
:100B800023E0883E920778F3809125048F5F80935D
:100B9000250480912504843090F2A5E2B0E0E5E2DE
:100BA000F0E0908180E289278C93F7CFF894FFCF13
:0C0BB000000100011A05060106012905DC
:00000001FF
