:100000000C944C000C9469000C9469000C946900E9
:100010000C9469000C9469000C9469000C94190804
:100020000C9469000C9469000C9469000C946900AC
:100030000C9469000C9469000C9469000C9469009C
:100040000C9469000C9469000C9469000C9469008C
:100050000C9469000C9469000C9469000C9469007C
:100060000C9469000C946900251C771C911CAB1C36
:10007000C51CE61C2D1D3F1D4D1D5D1D6D1D7F1DED
:100080008F1D9F1DB61DD01DEA1DFA1D101E2A1EB4
:10009000441E541E641E831E11241FBECFEFD8E0E1
:1000A000DEBFCDBF11E0A0E0B1E0EEEFFFE302C0A4
:1000B00005900D92A231B107D9F713E0A2E1B1E0AA
:1000C00001C01D92AC39B107E1F70E945F1F0C948B
:1000D000FD1F0C9400002F922FB62F923F924F924B
:1000E0005F926F927F928F929F92AF92BF92CF92C8
:1000F000DF92EF92FF920F931F932F933F934F93B3
:100100005F936F937F938F939F93AF93BF93CF939F
:10011000DF93EF93FF93EDB7FEB721A130A101A2CA
:1001200010A211248DB79EB72F933F9308953F914E
:100130002F9104C03F912F919EBF8DBFFEB7EDB7A9
:1001400010A001A030A321A3FF91EF91DF91CF91E7
:10015000BF91AF919F918F917F916F915F914F91DF
:100160003F912F911F910F91FF90EF90DF90CF90D3
:10017000BF90AF909F908F907F906F905F904F90C7
:100180003F902F902FBE2F9008951F900F909EBFED
:100190008DBF0F921F92112408951F900F908F937F
:1001A0009F930F921F9211240895082E892F902D4E
:1001B0000895DF93CF9300D0CDB7DEB7F894809148
:1001C0002601282F30E08BE290E0AC01249FC00193
:1001D000259F900D349F900D1124FC01E552FD4F99
:1001E000808191819A838983789489819A810F9003
:1001F0000F90CF91DF910895DF93CF930F92CDB7FA
:10020000DEB7F894809126018983789489810F90D4
:10021000CF91DF910895DF93CF9300D0CDB7DEB7B4
:100220009A838983F894E981FA81108278940F90F7
:100230000F90CF91DF910895DF93CF9300D0CDB78A
:10024000DEB79A838983F894E981FA8180818823D3
:1002500051F4E981FA8181E0808378940F900F90C6
:10026000CF91DF9108957894EECFDF93CF9300D0B4
:1002700000D0CDB7DEB79C838B83F894EB81FC81F3
:10028000108278940F900F900F900F90CF91DF9184
:100290000895DF93CF9300D0CDB7DEB79A838983DB
:1002A000E981FA8110820F900F90CF91DF9108952C
:1002B000DF93CF9300D000D0CDB7DEB79A83898388
:1002C0007C836B838B819C8101979C838B830F90B4
:1002D0000F900F900F90CF91DF910895DF93CF9300
:1002E00000D000D0CDB7DEB79A8389837C836B833F
:1002F0008B819C8101969C838B830F900F900F9034
:100300000F90CF91DF910895DF93CF9300D000D06D
:10031000CDB7DEB79A8389837C836B83EB81FC81C5
:100320009081E981FA818081890FEB81FC81808352
:10033000E981FA8110820F900F900F900F90CF916A
:10034000DF910895DF93CF9300D00F92CDB7DEB742
:1003500089837B836A83EA81FB8180810F900F9080
:100360000F90CF91DF910895DF93CF930F92CDB788
:10037000DEB789838981282F30E0C901880F991F52
:10038000820F931F880F991F9C01215C3E4F89812A
:10039000B9010E94350A0F90CF91DF910895F8942A
:1003A00080912601482F50E0EDE5F0E080819181B9
:1003B0009C01CA01880F991FFC01EC5EFE4F31833E
:1003C000208380912601282F30E08BE290E0AC0161
:1003D000249FC001259F900D349F900D1124FC0196
:1003E000E552FD4FA081B18180912601282F30E098
:1003F000C901880F991F880F991F880F991F820FB5
:10040000931FFC01E45DFE4F808191819F969C9338
:100410008E939E9780912601282F30E080E390E014
:10042000BC01269FC001279F900D369F900D11247F
:10043000FC01E15AFC4F808191810E94C5007894B3
:100440000E946718F89480912601482F50E080910F
:100450002601282F30E08BE290E0BC01269FC001EE
:10046000279F900D369F900D1124FC01E552FD4F02
:100470000190F081E02D26A537A5CA01880F991FAC
:10048000880F991F880F991F840F951FFC01E45D49
:10049000FE4F3183208380912601882F90E0880FC2
:1004A000991FFC01EC5EFE4F808191810E94C50086
:1004B0001895DF93CF930F92CDB7DEB7198214C092
:1004C0008981282F30E0C901880F991F820F931F5F
:1004D000880F991F815C9E4F2FEC31E0B9010E947B
:1004E0009A0A89818F5F89838981823048F30F90CE
:1004F000CF91DF910895DF93CF93CDB7DEB784E935
:1005000093E00E941C0180919503909196030196BF
:10051000909396038093950380919703909198030D
:10052000009729F0E0919703F0919803099584E9E9
:1005300093E00E9435010E946217CF91DF910895E8
:10054000F89480912601482F50E0EDE5F0E080819D
:1005500091819C01CA01880F991FFC01EC5EFE4F3E
:100560003183208380912601282F30E08BE290E0B8
:10057000AC01249FC001259F900D349F900D112444
:10058000FC01E552FD4FA081B18180912601282F09
:1005900030E0C901880F991F880F991F880F991F94
:1005A000820F931FFC01E45DFE4F808191819F9635
:1005B0009C938E939E9780912601282F30E080E3B4
:1005C00090E0BC01269FC001279F900D369F900DA3
:1005D0001124FC01E15AFC4F808191810E94C500E9
:1005E00078940E947B02F89480912601482F50E075
:1005F00080912601282F30E08BE290E0BC01269FFD
:10060000C001279F900D369F900D1124FC01E552EB
:10061000FD4F0190F081E02D26A537A5CA01880F76
:10062000991F880F991F880F991F840F951FFC0130
:10063000E45DFE4F3183208380912601882F90E076
:10064000880F991FFC01EC5EFE4F808191810E9412
:10065000C5001895F89480912601482F50E0EDE5EB
:10066000F0E0808191819C01CA01880F991FFC01F3
:10067000EC5EFE4F3183208380912601282F30E0ED
:100680008BE290E0AC01249FC001259F900D349F28
:10069000900D1124FC01E552FD4FA081B1818091A4
:1006A0002601282F30E0C901880F991F880F991F54
:1006B000880F991F820F931FFC01E45DFE4F80811C
:1006C00091819F969C938E939E9780912601282FCF
:1006D00030E080E390E0BC01269FC001279F900D91
:1006E000369F900D1124FC01E15AFC4F80819181CD
:1006F0000E94C50078940E946217F89480912601A8
:10070000482F50E080912601282F30E08BE290E0C6
:10071000BC01269FC001279F900D369F900D11248C
:10072000FC01E552FD4F0190F081E02D26A537A593
:10073000CA01880F991F880F991F880F991F840F6E
:10074000951FFC01E45DFE4F3183208380912601DB
:10075000882F90E0880F991FFC01EC5EFE4F80818E
:1007600091810E94C5001895DF93CF930F92CDB76A
:10077000DEB78BE491E020EA32E0B9010E949A0AE8
:1007800081E0898314C08981282F30E0C901880F56
:10079000991F820F931F880F991F855B9E4F2AE236
:1007A00033E0B9010E949A0A89818F5F8983898128
:1007B000823048F30F90CF91DF910895DF93CF936C
:1007C0000F92CDB7DEB7198214C08981282F30E08F
:1007D000C901880F991F820F931F880F991F9C01D1
:1007E000255B3E4F8981B9010E94350A89818F5F5F
:1007F00089838981823048F30F90CF91DF910895EA
:10080000DF93CF93CDB7DEB7809126018823B1F473
:10081000809112019091130101969093130180939E
:10082000120180911201909113018A30910530F0EC
:1008300010921301109212010E94DE03CF91DF91FA
:100840000895DF93CF930F92CDB7DEB70E94FC00DF
:1008500089838981882F90E0FC01E35CFE4F408111
:100860008981882F90E0880F991FFC01E75CFE4F7B
:1008700020813181842FB9010E94F01B0F90CF910C
:10088000DF910895F89480912601482F50E0EDE51E
:10089000F0E0808191819C01CA01880F991FFC01C1
:1008A000EC5EFE4F3183208380912601282F30E0BB
:1008B0008BE290E0AC01249FC001259F900D349FF6
:1008C000900D1124FC01E552FD4FA081B181809172
:1008D0002601282F30E0C901880F991F880F991F22
:1008E000880F991F820F931FFC01E45DFE4F8081EA
:1008F00091819F969C938E939E9780912601282F9D
:1009000030E080E390E0BC01269FC001279F900D5E
:10091000369F900D1124FC01E15AFC4F808191819A
:100920000E94C50078940E942104F89480912601C9
:10093000482F50E080912601282F30E08BE290E094
:10094000BC01269FC001279F900D369F900D11245A
:10095000FC01E552FD4F0190F081E02D26A537A561
:10096000CA01880F991F880F991F880F991F840F3C
:10097000951FFC01E45DFE4F3183208380912601A9
:10098000882F90E0880F991FFC01EC5EFE4F80815C
:1009900091810E94C5001895DF93CF930F92CDB738
:1009A000DEB7198225C08981282F30E0C901880F60
:1009B000991F820F931F880F991F865E9E4F22E416
:1009C00034E0B9010E949A0A8981882F90E0FC01E5
:1009D000E35CFE4F10828981882F90E0880F991F79
:1009E000FC01E75CFE4F1182108289818F5F898351
:1009F00089818230C0F20F90CF91DF910895DF930B
:100A0000CF9300D000D000D0CDB7DEB78C837E83EB
:100A10006D830E94B50AF894809126018B837894A7
:100A20008B81882F90E0FC01E35CFE4F8C818083FA
:100A30008B81882F90E0880F991FFC01E75CFE4FA7
:100A40008D819E81918380834AE151E08B81282FA3
:100A500030E0C901880F991F820F931F880F991FDB
:100A6000840F951F9A838983F89480912601282FFB
:100A700030E0C901880F991F880F991F880F991FAF
:100A8000820F931FFC01E75DFE4F81E08083809120
:100A90002601282F30E0C901880F991F880F991F60
:100AA000880F991F820F931FFC01E95DFE4F808123
:100AB00091810097D1F080912601282F30E0C90163
:100AC000880F991F880F991F880F991F820F931FF6
:100AD000FC01E95DFE4F0190F081E02D2081318124
:100AE00089819A81B9010E94B50D80912601282F34
:100AF00030E0C901880F991F880F991F880F991F2F
:100B0000820F931FFC01E95DFE4F89819A819183D9
:100B100080830E94320926960FB6F894DEBF0FBE7E
:100B2000CDBFCF91DF910895DF93CF930F92CDB7D3
:100B3000DEB70E94B50A0E9459020E94B4030E94C7
:100B4000CC040E94250E0E94FC00282F30E08BE28E
:100B500090E0AC01249FC001259F900D349F900D23
:100B60001124FC01ED5FFC4F81E090E091838083D4
:100B700081E0898317C08981282F30E080E390E0ED
:100B8000AC01249FC001259F900D349F900D11242E
:100B9000FC01EB5AFC4F8EEB96E0918380838981B8
:100BA0008F5F89838981823030F30F90CF91DF91FD
:100BB0000895DF93CF93CDB7DEB70E94FC00282FB6
:100BC00030E08BE290E0AC01249FC001259F900DA6
:100BD000349F900D1124FC01ED5FFC4F11821082B7
:100BE0000E94CF0AF89480E094E09093DA02809318
:100BF000D902789480E090E00E941D0ECF91DF91A1
:100C00000895DF93CF9300D000D000D0CDB7DEB7EA
:100C10009A8389837C836B835E834D83E981FA8128
:100C200011821082E981FA8181E08283E981FA816F
:100C30008B819C8196838583E981FA818D819E8158
:100C400090878783E981FA811482138226960FB6F2
:100C5000F894DEBF0FBECDBFCF91DF910895DF9333
:100C6000CF9300D000D0CDB7DEB7F89489ED91E0F6
:100C70009C0121583F4F87E291E060E070E0A901BC
:100C80000E94010681E08093260162C01A821982C7
:100C900018C080912601882F90E0019729813A8120
:100CA0009695982F882797958795820F931FFC011B
:100CB000E75AFE4F85E5808389819A8101969A8360
:100CC000898389819A818038910518F38091260162
:100CD000882F90E001979695982F8827979587956C
:100CE00081589F4F875A9E4F2EEB36E0B90140E066
:100CF00050E00E94010B9C838B8380912601282F5A
:100D000030E0C901880F991F880F991F880F991F1C
:100D1000820F931FBC01695D7E4F29ED31E0809108
:100D20002601882F90E09695982F8827979587958C
:100D300081589F4FA901480F591F2B813C81CB013E
:100D4000B9010E940106809126018F5F80932601E0
:100D500080912601823008F499CF109226010F90DD
:100D60000F900F900F90CF91DF910895DF93CF9365
:100D7000CDB7DEB77894CF91DF910895DF93CF930D
:100D800000D0CDB7DEB79A838983FFCFDF93CF93AF
:100D90000F92CDB7DEB780912601282F30E0C90130
:100DA000880F991F880F991F880F991F820F931F13
:100DB000FC01E75DFE4F8081882309F479C08091B2
:100DC0002601282F30E0C901880F991F880F991F2D
:100DD000880F991F820F931FFC01E95DFE4F8081F0
:100DE0009181009709F464C080912601282F30E09A
:100DF000C901880F991F880F991F880F991F820FAB
:100E0000931FFC01E95DFE4F808191819093580111
:100E1000809357018091570190915801FC012081E6
:100E2000318180915701909158012817390799F421
:100E300080912601282F30E0C901880F991F880F63
:100E4000991F880F991F820F931FFC01E95DFE4FC8
:100E5000118210821FC080912601282F30E08091DE
:100E6000570190915801FC0140815181C901880FBF
:100E7000991F880F991F880F991F820F931FFC01DC
:100E8000E95DFE4F51834083809157019091580155
:100E90000E94E70D8091570190915801FC018481D7
:100EA0009581909358018093570181E0898301C017
:100EB000198289810F90CF91DF910895DF93CF93AD
:100EC00000D0CDB7DEB780912601282F30E0C901D0
:100ED000880F991F880F991F880F991F820F931FE2
:100EE000FC01E75DFE4F10828091570190915801FF
:100EF0009A8389837894E981FA8109950F900F90FC
:100F0000CF91DF9108950E945E07F89480912601A9
:100F1000282F30E0C901880F991F880F991F880F6B
:100F2000991F820F931FFC01E75DFE4F81E08083D4
:100F30000E94C606882309F063C080912601282FED
:100F400030E0C901880F991F880F991F880F991FDA
:100F5000820F931FFC01E65DFE4F80819181009717
:100F600019F180912601282F30E0C901880F991FBF
:100F7000880F991F880F991F820F931FFC01E65D50
:100F8000FE4F80819181AC0141505040C901880FD2
:100F9000991F880F991F880F991F820F931FFC01BB
:100FA000E65DFE4F5183408380912601282F30E07B
:100FB000C901880F991F880F991F880F991F820FE9
:100FC000931FFC01E65DFE4F808191810097A9F49B
:100FD00080912601282F30E0C901880F991F880FC2
:100FE000991F880F991F820F931FFC01E45DFE4F2C
:100FF000808191810E949A0018950E94970018950F
:1010000080912601282F30E0C901880F991F880F91
:10101000991F880F991F820F931FFC01E25DFE4FFD
:10102000808191810E94C50083E897E00E94CD00F5
:1010300008950E946B00909358018093570180910E
:101040002601282F30E03A83298389819A81880FED
:10105000991F880F991F880F991F49815A81840F02
:10106000951FFC01E65DFE4F808191819C838B83FF
:101070001D822B813C812115310511F031E03D832A
:101080002B813C812F5F3F4F89819A81880F991F67
:10109000880F991F880F991F49815A81840F951FC6
:1010A000FC01E65DFE4F318320835D815523C1F055
:1010B00080912601282F30E08091570190915801AE
:1010C000AC01C901880F991F880F991F880F991FBC
:1010D000820F931FFC01E25DFE4F5183408317C0D6
:1010E00080912601282F30E080915701909158017E
:1010F000AC01C901880F991F880F991F880F991F8C
:10110000820F931FFC01E45DFE4F51834083809169
:101110002601282F30E0C901880F991F880F991FD9
:10112000880F991F820F931FFC01E25DFE4F8081A3
:1011300091810E94C500809126018F5F80932601D6
:1011400080912601823010F0109226018091D90200
:101150009091DA02009729F0E091D902F091DA0239
:1011600009950E94C606882309F063C08091260174
:10117000282F30E0C901880F991F880F991F880F09
:10118000991F820F931FFC01E65DFE4F80819181C4
:10119000009719F180912601282F30E0C901880FAE
:1011A000991F880F991F880F991F820F931FFC01A9
:1011B000E65DFE4F80819181AC0141505040C901F4
:1011C000880F991F880F991F880F991F820F931FEF
:1011D000FC01E65DFE4F5183408380912601282F5C
:1011E00030E0C901880F991F880F991F880F991F38
:1011F000820F931FFC01E65DFE4F80819181009775
:10120000A9F480912601282F30E0C901880F991F89
:10121000880F991F880F991F820F931FFC01E45DAF
:10122000FE4F808191810E949A0018950E9497003C
:10123000189580912601282F30E0C901880F991F49
:10124000880F991F880F991F820F931FFC01E25D81
:10125000FE4F808191810E94C50083E897E00E9443
:10126000CD0008950E946B00909358018093570120
:1012700080912601282F30E03A83298389819A8141
:10128000880F991F880F991F880F991F49815A81CC
:10129000840F951FFC01E65DFE4F808191819C8348
:1012A0008B831D822B813C812115310511F031E0AA
:1012B0003D832B813C812F5F3F4F89819A81880F2D
:1012C000991F880F991F880F991F49815A81840F90
:1012D000951FFC01E65DFE4F318320835D81552320
:1012E000C1F080912601282F30E080915701909124
:1012F0005801AC01C901880F991F880F991F880FE9
:10130000991F820F931FFC01E25DFE4F51834083C2
:1013100017C080912601282F30E0809157019091CD
:101320005801AC01C901880F991F880F991F880FB8
:10133000991F820F931FFC01E45DFE4F5183408390
:1013400080912601282F30E0C901880F991F880F4E
:10135000991F880F991F820F931FFC01E25DFE4FBA
:10136000808191810E94C5000E94C606882309F0F1
:1013700063C080912601282F30E0C901880F991F92
:10138000880F991F880F991F820F931FFC01E65D3C
:10139000FE4F80819181009719F180912601282FBD
:1013A00030E0C901880F991F880F991F880F991F76
:1013B000820F931FFC01E65DFE4F80819181AC019D
:1013C00041505040C901880F991F880F991F880FFD
:1013D000991F820F931FFC01E65DFE4F51834083EE
:1013E00080912601282F30E0C901880F991F880FAE
:1013F000991F880F991F820F931FFC01E65DFE4F16
:10140000808191810097A9F480912601282F30E0F6
:10141000C901880F991F880F991F880F991F820F84
:10142000931FFC01E45DFE4F808191810E949A0030
:1014300018950E949700189580912601282F30E07A
:10144000C901880F991F880F991F880F991F820F54
:10145000931FFC01E25DFE4F808191810E94C500D7
:1014600083E897E00E94CD000895DF93CF9300D0EA
:101470000F92CDB7DEB789837B836A838981282F5A
:1014800030E0C901880F991F880F991F880F991F95
:10149000820F931FFC01E95DFE4F808191810097CF
:1014A000C1F04A815B818981282F30E0C901880F12
:1014B000991F880F991F880F991F820F931FFC0196
:1014C000E95DFE4F20813181CA01B9010E94B50D4D
:1014D00013C08981282F30E04A815B81C901880FC0
:1014E000991F880F991F880F991F820F931FFC0166
:1014F000E95DFE4F518340830F900F900F90CF9185
:10150000DF910895DF93CF9300D00F92CDB7DEB770
:1015100089837B836A83F8942A813B818981B9011D
:101520000E94350A0E9432090F900F900F90CF91C0
:10153000DF910895DF93CF9300D000D0CDB7DEB711
:101540009A8389837C836B8389819A810E949D0D14
:10155000E981FA818B819C81958384830F900F9020
:101560000F900F90CF91DF910895DF93CF93CDB778
:10157000DEB7F89480912601282F30E0C901880F4A
:10158000991F880F991F880F991F820F931FFC01C5
:10159000E75DFE4F10827894CF91DF910895DF933D
:1015A000CF93CDB7DEB7F89480912601282F30E095
:1015B000C901880F991F880F991F880F991F820FE3
:1015C000931FFC01E75DFE4F81E08083809126013F
:1015D000282F30E0C901880F991F880F991F880FA5
:1015E000991F820F931FFC01E95DFE4F808191815D
:1015F000009719F00E94320901C07894CF91DF91D1
:101600000895DF93CF93CDB7DEB72A970FB6F8943E
:10161000DEBF0FBECDBF9E838D8378876F835A87D1
:1016200049878D819E819C838B838F8198859A8346
:1016300089838981EB81FC8180838B819C810197E7
:101640009C838B8389819A81892F99279A838983A7
:101650008981EB81FC8180838B819C8101979C83B4
:101660008B83EB81FC8110828B819C8101979C8311
:101670008B83EB81FC8110828B819C8101979C8301
:101680008B83EB81FC8182E080838B819C8101973D
:101690009C838B83EB81FC8180E880838B819C81A0
:1016A00001979C838B83EB81FC8183E080838B811A
:1016B0009C8101979C838B83EB81FC8184E08083F8
:1016C0008B819C8101979C838B83EB81FC8185E0DE
:1016D00080838B819C8101979C838B83EB81FC8130
:1016E00086E080838B819C8101979C838B83EB8137
:1016F000FC8187E080838B819C8101979C838B8315
:10170000EB81FC8188E080838B819C8101979C83A5
:101710008B83EB81FC8189E080838B819C810197A5
:101720009C838B83EB81FC8180E180838B819C8116
:1017300001979C838B83EB81FC8181E180838B818A
:101740009C8101979C838B83EB81FC8182E1808368
:101750008B819C8101979C838B83EB81FC8183E14E
:1017600080838B819C8101979C838B83EB81FC819F
:1017700084E180838B819C8101979C838B83EB81A7
:10178000FC8185E180838B819C8101979C838B8385
:10179000EB81FC8186E180838B819C8101979C8316
:1017A0008B83EB81FC8187E180838B819C81019716
:1017B0009C838B83EB81FC8188E180838B819C817E
:1017C00001979C838B83EB81FC8189E180838B81F2
:1017D0009C8101979C838B83EB81FC8180E28083D9
:1017E0008B819C8101979C838B83EB81FC8181E2BF
:1017F00080838B819C8101979C838B83EB81FC810F
:1018000082E280838B819C8101979C838B83EB8117
:10181000FC8183E280838B819C8101979C838B83F5
:1018200089859A859A8389838981EB81FC8180836C
:101830008B819C8101979C838B8389819A81892FDD
:1018400099279A8389838981EB81FC8180838B81AD
:101850009C8101979C838B83EB81FC8186E2808352
:101860008B819C8101979C838B83EB81FC8187E238
:1018700080838B819C8101979C838B83EB81FC818E
:1018800088E280838B819C8101979C838B83EB8191
:10189000FC8189E280838B819C8101979C838B836F
:1018A000EB81FC8180E380838B819C8101979C8309
:1018B0008B83EB81FC8181E380838B819C81019709
:1018C0009C838B838B819C812A960FB6F894DEBF14
:1018D0000FBECDBFCF91DF910895DF93CF9300D09E
:1018E00000D000D0CDB7DEB78E831D828FEF8C8302
:1018F0008FEF8B8388E0898322C0898186958983D5
:101900008B81282F30E08981882F90E0A90102C0C7
:10191000559547958A95E2F7CA018A839E818C8105
:1019200098238A818923882319F08A818B8307C0B1
:101930008A8180958C839D818981890F8D8389819E
:101940008823D9F68D8126960FB6F894DEBF0FBE98
:10195000CDBFCF91DF910895DF93CF9300D000D01A
:10196000CDB7DEB79C838B830E94D9009A8389838D
:1019700089819A8183960E941C01E981FA8187817D
:1019800090858064E981FA8190878783E981FA8173
:101990008B819C8190A3878F89819A810E94DF131C
:1019A000E981FA8181A10E94B40189819A8183969B
:1019B0000E9435010F900F900F900F90CF91DF9103
:1019C0000895DF93CF9300D000D00F92CDB7DEB74C
:1019D0009B838A837D836C8319828A819B81839612
:1019E0000E941C01EA81FB81878190858074907040
:1019F000009791F1EA81FB81878190858F7BEA8155
:101A0000FB8190878783EA81FB818781908580783D
:101A10009070009791F0EA81FB81878190858C70AE
:101A20009070009751F4EA81FB81878190858D77D2
:101A3000EA81FB81908787830FC081E08983EA81F7
:101A4000FB81878D90A1FC018C819D819183808396
:101A50008A819B810E9416138A819B8183960E94B2
:101A6000350189810F900F900F900F900F90CF91BB
:101A7000DF910895DF93CF93CDB7DEB727970FB6E9
:101A8000F894DEBF0FBECDBF9B838A837D836C83BA
:101A90005F834E8319828A819B8183960E941C01F9
:101AA000EA81FB8187819085807490700097B1F105
:101AB000EA81FB81878190858F7BEA81FB8190871A
:101AC0008783EA81FB818781908580789070009779
:101AD00091F0EA81FB81878190858C7090700097EE
:101AE00051F4EA81FB81878190858D77EA81FB81C2
:101AF0009087878313C081E08983EA81FB81878D8A
:101B000090A1FC018C819D81918380838E819F8136
:101B10000E94AC0C8A819B810E9416138A819B8152
:101B200083960E943501898127960FB6F894DEBF0F
:101B30000FBECDBFCF91DF910895DF93CF9300D03B
:101B4000CDB7DEB79A838983E981FA8189819A8149
:101B500093838283E981FA8189819A819183808349
:101B60000F900F90CF91DF910895DF93CF9300D026
:101B700000D000D0CDB7DEB79C838B837E836D838E
:101B8000ED81FE81828193819A838983EB81FC813F
:101B900089819A8193838283EB81FC818D819E81EF
:101BA00091838083ED81FE818B819C8193838283ED
:101BB000E981FA818B819C819183808326960FB67F
:101BC000F894DEBF0FBECDBFCF91DF910895DF93B4
:101BD000CF9300D000D000D0CDB7DEB79E838D83E9
:101BE000ED81FE81828193819C838B83ED81FE81D7
:101BF000808191819A838983E981FA818B819C819B
:101C000093838283EB81FC8189819A819183808394
:101C1000ED81FE818D819E8193838283ED81FE81A2
:101C20008D819E819183808326960FB6F894DEBFC6
:101C30000FBECDBFCF91DF910895DF93CF9300D03A
:101C4000CDB7DEB79A838983FFCF8F92AF92BF92D1
:101C5000CF92EF92FF920F931F93DF93CF930F9248
:101C6000CDB7DEB783E993E00E940B0183E993E0EF
:101C70000E941C01198276C08981282F30E080E300
:101C800090E0AC01249FC001259F900D349F900DE2
:101C90001124AC014F5C5C4F8981282F30E081E03A
:101CA00090E002C0880F991F2A95E2F70F92EDB7D6
:101CB000FEB731962DE13EE08083CA01B90140E0D4
:101CC00050E020E030E000E010E0EE24FF240F2E92
:101CD000F7E0CF2EF02DAA24BB24A39488240E94E1
:101CE0003E120F908981282F30E080E390E0BC0104
:101CF000269FC001279F900D369F900D1124FC0157
:101D0000EE5AFC4F898180838981882F90E08F561D
:101D10009C4F0E9449018981282F30E08BE290E09E
:101D2000AC01249FC001259F900D349F900D11247C
:101D3000AC0145525D4F8981282F30E080E390E06F
:101D4000BC01269FC001279F900D369F900D112446
:101D50009C012F5C3C4FCA01B9010E94B7168981D2
:101D60008F5F89838981823008F486CF83E993E08D
:101D70000E9435010F90CF91DF911F910F91FF903D
:101D8000EF90CF90BF90AF908F900895DF93CF9357
:101D900000D00F92CDB7DEB79A8389836B83898198
:101DA0009A8143960E940B0189819A8143960E94F1
:101DB0001C0189819A810E94A71EE981FA8181E034
:101DC000828BE981FA818B81818B89819A8143960B
:101DD0000E9435010F900F900F90CF91DF910895E1
:101DE000DF93CF9300D000D00F92CDB7DEB79D83A5
:101DF0008C838C819D8143960E941C01EC81FD8126
:101E000082898B830E94D9009A83898389819A81F0
:101E100083960E941C01EC81FD81218989819A8130
:101E2000622F0E942E158B81882341F0EC81FD8169
:101E3000128A89819A810E94B11514C0E981FA81C0
:101E4000878190858061E981FA8190878783898184
:101E50009A810E94231489819A812C813D81B90144
:101E60000E94DC1089819A8183960E9435018C81C1
:101E70009D8143960E9435018B810F900F900F90AA
:101E80000F900F90CF91DF910895DF93CF9300D003
:101E900000D00F92CDB7DEB79D838C838C819D815E
:101EA00043960E941C01EC81FD8182898B830E94F4
:101EB000D9009A83898389819A8183960E941C0123
:101EC0008B81882379F0EC81FD81128AEC81FD8180
:101ED000218989819A81622F0E942E1589819A8198
:101EE0000E94B11589819A8183960E9435018C8167
:101EF0009D8143960E9435018B810F900F900F902A
:101F00000F900F90CF91DF910895DF93CF9300D082
:101F100000D0CDB7DEB79C838B838B819C814396A9
:101F20000E941C010E94D9009A83898389819A8129
:101F300083960E941C01EB81FC81218989819A8111
:101F4000622F0E945115E981FA81878190858078FE
:101F500090700097F9F0E981FA81878190858C7003
:101F600090700097B9F4E981FA81878190858D7727
:101F7000E981FA819087878389819A810E94DF13A2
:101F800089819A810E947415E981FA8181A10E9458
:101F9000B40104C089819A810E94B11589819A8116
:101FA00083960E943501EB81FC818089882329F486
:101FB000EB81FC8181E0828B25C08B819C810E941A
:101FC000D11E9A83898389819A8183960E941C01FC
:101FD00089819A810E949111E981FA818781908596
:101FE0008F7EE981FA819087878389819A810E9417
:101FF000741589819A810E94161389819A8183962A
:102000000E9435018B819C8143960E9435010F907F
:102010000F900F900F90CF91DF910895DF93CF93A2
:1020200000D00F92CDB7DEB79B838A83EA81FB8114
:10203000108A19820FC08981882F90E02A813B8104
:10204000880F991FF901E80FF91F11821082898109
:102050008F5F89838981883070F30F900F900F9084
:10206000CF91DF910895DF93CF9300D00F92CDB73A
:10207000DEB79A8389836B838B81682F70E0298117
:102080003A81CB01880F991FF901E80FF91F808170
:102090009181AC014F5F5F4F29813A81CB01880F5D
:1020A000991FF901E80FF91F51834083E981FA81F3
:1020B0008089482F8B81282F30E081E090E0022E2C
:1020C00002C0880F991F0A94E2F7842BE981FA81F4
:1020D000808B0F900F900F90CF91DF910895DF9339
:1020E000CF9300D000D0CDB7DEB79B838A836C83BB
:1020F0008C81282F30E081E090E002C0880F991F8A
:102100002A95E2F789838C81682F70E02A813B81D0
:10211000CB01880F991FF901E80FF91F8081918188
:10212000AC01415050402A813B81CB01880F991F5F
:10213000F901E80FF91F518340838C81882F90E0CB
:102140002A813B81880F991FF901E80FF91F8081CF
:102150009181009751F4EA81FB818089982F8981D0
:1021600080958923EA81FB81808BEA81FB819089BC
:10217000898189230F900F900F900F90CF91DF915D
:102180000895DF93CF9300D00F92CDB7DEB79A8337
:1021900089836B8389819A810E949D0DE981FA81EF
:1021A00015821482E981FA818B8186830F900F90CA
:1021B0000F90CF91DF910895DF93CF93CDB7DEB726
:1021C00028970FB6F894DEBF0FBECDBF9E838D83D8
:1021D00078876F83ED81FE8186818C838C81282FA7
:1021E00030E081E090E002C0880F991F2A95E2F765
:1021F0008B832F8138858C81882F90E0880F991FE1
:10220000820F931F9A838983EF81F88590898B8150
:102210008923882351F08D819E81E981FA81208173
:102220003181B9010E94B50D0EC08D819E81E98179
:10223000FA8191838083EF81F88590898B81892B46
:10224000EF81F885808BED81FE818F819885958364
:10225000848328960FB6F894DEBF0FBECDBFCF9112
:10226000DF910895DF93CF9300D000D00F92CDB7C8
:10227000DEB79D838C83EC81FD8186818B83EC812D
:10228000FD81848195819A838983EC81FD81208100
:1022900031818C819D812817390709F58B81882F21
:1022A00090E029813A81880F991FF901E80FF91F01
:1022B00011821082E981FA818089482F8B81282F31
:1022C00030E081E090E0022E02C0880F991F0A944E
:1022D000E2F780958423E981FA81808B1AC08B8193
:1022E000882F90E029813A81880F991FF901E80F22
:1022F000F91F208131818C819D812817390729F4AC
:1023000089819A816B810E94FD1E8C819D810E9432
:10231000E70D0F900F900F900F900F90CF91DF91DE
:102320000895DF93CF9300D0CDB7DEB79A8389832A
:1023300089819A810E943211E981FA811582148281
:102340000F900F90CF91DF910895DF93CF93CDB78A
:10235000DEB72D970FB6F894DEBF0FBECDBF9D87B9
:102360008C878C859D850E94D11E9B878A878A8554
:102370009B85009709F477C0EA85FB85828193816C
:102380009E838D83EA85FB8586818F838F81882F4D
:1023900090E02C853D85880F991FF901E80FF91F02
:1023A000118210828F818F5F8F83EC85FD858089FC
:1023B00088878F81282F30E081E090E0022E02C0D4
:1023C000880F991F0A94E2F789873BC08885998511
:1023D0008923882381F18F81882F90E02C853D858A
:1023E000880F991FF901E80FF91F808191819C8363
:1023F0008B838F81882F90E02C853D85880F991FD6
:10240000F901E80FF91F11821082ED81FE818B81A5
:102410009C8191838083EB81FC81828193819A836B
:102420008983EB81FC818D819E8193838283898165
:102430009A819E838D838985880F89878F818F5F9D
:102440008F838985882311F6EA85FB858D819E819E
:10245000938382838A859B85ED81FE81918380832E
:10246000EC85FD85108A8A859B852D960FB6F8949C
:10247000DEBF0FBECDBFCF91DF9108958F92AF9297
:10248000BF92CF92EF92FF920F931F93DF93CF9360
:10249000CDB7DEB762970FB6F894DEBF0FBECDBFE3
:1024A0009A8389837C836B835E834D8338872F83F4
:1024B0001A870987FC86EB86CD86BF86AE86888A1A
:1024C00089819A8183960E940B0189819A818396E2
:1024D0000E941C0189819A816D850E94C1108889A2
:1024E000882329F081E090E09A8B898B02C01A8AB8
:1024F000198AE981FA8189899A89908787838981F4
:102500009A810A960E940E10E981FA818D85818751
:102510008E859F85E981FA81948F838F8E859F8533
:10252000E981FA81968F858FE981FA8111A2E9818B
:10253000FA818F8D82A3E981FA818B819C8195A399
:1025400084A3E981FA818D819E8197A386A3E98185
:10255000FA818F81988591A780A7E981FA81898581
:102560009A8593A782A7E981FA818B859C8595A797
:1025700084A78B859C85009771F046EF5CE18B8585
:102580009C8529813A81BA01A9010E94010BE98148
:10259000FA8197A786A789819A8183960E9435013F
:1025A00062960FB6F894DEBF0FBECDBFCF91DF911C
:1025B0001F910F91FF90EF90CF90BF90AF908F90B1
:1025C0000895DF93CF9300D000D0CDB7DEB79C83C2
:1025D0008B83EB81FC8181A1282F30E08BE290E09E
:1025E000AC01249FC001259F900D349F900D1124B4
:1025F00085529D4F9A83898389819A818A960E9408
:102600001C018B819C81E981FA8122813381B9018E
:102610000E94DC1089819A818A960E9435010F9070
:102620000F900F900F90CF91DF910895DF93CF938C
:1026300000D0CDB7DEB79A838983E981FA8187819B
:1026400090858260E981FA819087878383E993E0AE
:102650000E941C0189819A8121E933E0B9010E941D
:102660000D16E981FA8181A3E981FA8181A1882F80
:1026700090E09C012F563C4F89819A81B9010E94BC
:102680006E0183E993E00E94350189819A810E945D
:10269000E112E981FA8181A10E94B4010F900F90AB
:1026A000CF91DF910895DF93CF9300D00F92CDB7F4
:1026B000DEB79B838A8381E089838A819B818396AD
:1026C0000E941C01EA81FB81878190858277977047
:1026D000009711F0198204C08A819B810E94161311
:1026E0008A819B8183960E94350189810F900F908A
:1026F0000F90CF91DF910895DF93CF9300D000D05A
:102700000F92CDB7DEB79B838A8381E089838A816C
:102710009B8183960E941C01EA81FB8187819085C1
:102720008E779470009711F019823BC0EA81FB818B
:102730008781908581709070882329F081E090E0F6
:102740009D838C8302C01D821C82EA81FB818C8167
:102750009D81908787838A819B810A960E940E10B3
:10276000EA81FB81838D948DEA81FB81968F858F31
:10277000EA81FB8184A595A5009779F0EA81FB8128
:1027800084A595A526EF3CE14A815B81B9010E94B1
:10279000010BEA81FB8197A786A78A819B810E9412
:1027A00016138A819B8183960E94350189810F903F
:1027B0000F900F900F900F90CF91DF910895DF93BE
:1027C000CF9300D000D0CDB7DEB79C838B8383E955
:1027D00093E00E941C01EB81FC8181A1882F90E095
:1027E0009C012F563C4F8B819C81B9010E9458015E
:1027F00083E993E00E943501EB81FC8181A1282FC0
:1028000030E08BE290E0AC01249FC001259F900D49
:10281000349F900D112485529D4F8A969A83898307
:1028200089819A810E941C018B819C810E94911157
:1028300089819A810E9435010F900F900F900F901F
:10284000CF91DF910895DF93CF9300D0CDB7DEB75E
:102850009A838983E981FA81878190858D7FE981D7
:10286000FA819087878389819A810E94DF13E981A9
:10287000FA8181A10E94B4010F900F90CF91DF9156
:102880000895DF93CF9300D00F92CDB7DEB79B832F
:102890008A8319828A819B8183960E941C01EA8126
:1028A000FB81878190858C779070009751F0EA8149
:1028B000FB81878190858068EA81FB81908787838F
:1028C0000EC0EA81FB8187819085827090700097AD
:1028D00031F08A819B810E94231481E089838A815F
:1028E0009B8183960E94350189810F900F900F90F4
:1028F000CF91DF910895DF93CF9300D000D0CDB773
:10290000DEB79C838B830E94D9009A838983898157
:102910009A8183960E941C01E981FA812781308582
:102920008B819C818095909582239323E981FA8104
:1029300090878783E981FA8187819085807890707C
:102940000097A9F0E981FA81878190858C70907059
:10295000009769F4E981FA81878190858F77E98111
:10296000FA819087878389819A810E9423148981C3
:102970009A8183960E9435010F900F900F900F90CF
:10298000CF91DF910895DF93CF9300D0CDB7DEB71D
:102990009A83898389819A8183960E941C01E981A7
:1029A000FA81878190858C709070009751F0E98151
:1029B000FA81878190859460E981FA819087878385
:1029C00009C0E981FA81878190859160E981FA8166
:1029D00090878783E981FA81878190858D77E98166
:1029E000FA819087878389819A810E94DF13E98128
:1029F000FA8181A10E94B40189819A8183960E9403
:102A000035010F900F90CF91DF910895DF93CF9311
:102A100000D0CDB7DEB70E94D9009A83898389811F
:102A20009A8183960E941C01E981FA8187819085B1
:102A300081709070882341F0E981FA81838D948DB3
:102A4000E981FA81968F858F89819A8183960E9488
:102A500035010F900F90CF91DF910895DF93CF93C1
:102A600000D00F92CDB7DEB79A8389836B83E9815B
:102A7000FA81828D882349F4E981FA8187819085E2
:102A80008460E981FA819087878389819A810A9697
:102A90006B810E9433100F900F900F90CF91DF91B8
:102AA0000895DF93CF9300D00F92CDB7DEB79A830E
:102AB00089836B8389819A810A966B810E946F104A
:102AC000E981FA81828D882349F4E981FA8187813D
:102AD00090858B7FE981FA81908787830F900F9093
:102AE0000F90CF91DF910895DF93CF93CDB7DEB7ED
:102AF00027970FB6F894DEBF0FBECDBF9B838A83A6
:102B0000EA81FB81828D8823D9F0EA81FB81828D65
:102B10000E946D0C89838A819B819E838D83EA81CB
:102B2000FB81818599819F838C83EC81FF81FE17D6
:102B300010F48F818C838C81ED81FE81868308C0A7
:102B4000EA81FB81AA81BB8119968C9119978683B2
:102B500027960FB6F894DEBF0FBECDBFCF91DF91A1
:102B60000895DF93CF9300D000D000D0CDB7DEB76B
:102B70009C838B83EB81FC81828D8823A9F0EB8180
:102B8000FC81828D0E946D0C8983EB81FC818185A3
:102B900099819E838D838D819E81981710F48E81FB
:102BA0008D839D819A8304C0EB81FC8181858A831A
:102BB000EB81FC8196818A81981731F18B819C8110
:102BC0000E94DF13EB81FC818A81868383E993E095
:102BD0000E941C01EB81FC8181A1882F90E09C0167
:102BE0002F563C4F8B819C81B9010E946E0183E975
:102BF00093E00E9435018B819C810E94E112EB8160
:102C0000FC8181A10E94B40126960FB6F894DEBF24
:102C10000FBECDBFCF91DF910895DF93CF93CDB796
:102C2000DEB72A970FB6F894DEBF0FBECDBF9887E8
:102C30008F837A8769871E8281E08C830DC0EF8144
:102C4000F88592A18C818923882349F48C81880F8F
:102C50008C838E818F5F8E838E81823080F38E8114
:102C6000282F30E089859A85820F931F9A8789875C
:102C70008E818D838E818F5F8E838C81880F8C8374
:102C8000EF81F88586818B8329853A8589859A85A8
:102C900001969A8789878B81B9010E94A201898355
:102CA00021C029853A8589859A8501969A878987E1
:102CB0008B81B9010E94A2018A83EF81F88592A1DC
:102CC0008C818923882341F09A818981981720F487
:102CD0008A8189838E818D838C81880F8C838E81FC
:102CE0008F5F8E838E818230E0F28D812A960FB6BF
:102CF000F894DEBF0FBECDBFCF91DF910895DF9373
:102D0000CF9300D000D000D0CDB7DEB79E838D83A7
:102D10001B8281E08A832D813E8188E0B9010E9477
:102D2000A2018C8317C08A81282F30E08D819E817B
:102D3000280F391F88E0B9010E94A2018983998177
:102D40008C81891720F489818C838A818B838A8185
:102D50008F5F8A838A81823030F38B8126960FB60B
:102D6000F894DEBF0FBECDBFCF91DF910895DF9302
:102D7000CF9300D000D000D0CDB7DEB79C838B833B
:102D80007E836D838B819C818A969A8389838981D6
:102D90009A810E940B0189819A810E941C018B817A
:102DA0009C810696EB81FC8193838283EB81FC817D
:102DB000828193810E94A71E8B819C814796EB8123
:102DC000FC8195838483EB81FC81848195810E94C1
:102DD000A71E8D819E81EB81FC8122813381B90107
:102DE0000E94DC10EB81FC818D819E819183808328
:102DF000EB81FC8111A610A689819A810E94350180
:102E0000ED81FE8181A1882F90E09C012F563C4FDF
:102E10008D819E81B9010E946E0126960FB6F894AD
:102E2000DEBF0FBECDBFCF91DF910895DF93CF936B
:102E300000D000D000D0CDB7DEB79C838B837E83DB
:102E40006D838B819C818A960E941C01EB81FC81A1
:102E50000280F381E02D80898823A1F4EB81FC813D
:102E6000828193819A838983EB81FC81848195811E
:102E7000EB81FC8193838283EB81FC8189819A8140
:102E800095838483EB81FC81828193810E94D11E92
:102E9000EB81FC8191838083EB81FC818081918136
:102EA000ED81FE81918380838B819C818A960E9433
:102EB000350126960FB6F894DEBF0FBECDBFCF9179
:102EC000DF910895DF93CF9300D000D000D0CDB72D
:102ED000DEB70E94FC00282F30E08BE290E0AC01CE
:102EE000249FC001259F900D349F900D1124855281
:102EF0009D4F9C838B83EB81FC81808191819E839C
:102F00008D838D819E8183960E941C01ED81FE81BF
:102F100086A197A1009751F0ED81FE8126A137A1EE
:102F2000ED81FE8182A593A5F90109958D819E8190
:102F3000FC0124813581EB81FC81828193812817FA
:102F4000390709F094C08B819C818A960E941C01EC
:102F5000EB81FC81228133818D819E81FC01468140
:102F6000C901642F0E94FD1E8B819C818A960E945C
:102F70003501ED81FE81858D968D8230910540F081
:102F8000ED81FE81858D968D0197968F858F6FC01F
:102F90008B819C818A960E941C018D819E810E945A
:102FA00032118B819C818A960E943501ED81FE81D0
:102FB000878190859A83898389819A8181709070B5
:102FC000009731F089819A818C7090700097F1F0B0
:102FD0008B819C818A960E941C018D819E81EB8150
:102FE000FC8124813581B9010E94DC108B819C8198
:102FF0008A960E943501AD81BE81ED81FE81838D6F
:10300000948D5E969C938E935D9731C083E993E097
:103010000E941C014D815E81ED81FE8181A1882F7E
:1030200090E09C012F563C4FCA01B9010E94580103
:1030300083E993E00E9435018D819E81FC01158218
:103040001482AD81BE81ED81FE8187819085926081
:1030500018969C938E931797AD81BE81ED81FE816A
:10306000878190858D7F18969C938E9317978D817D
:103070009E8183960E9435018B819C819E012B5FEE
:103080003F4FB9010E9416178D819E8183960E9441
:103090001C01ED81FE8180A591A5009751F0ED8185
:1030A000FE8120A531A5ED81FE8182A593A5F901C0
:1030B00009958D819E8183960E94350126960FB6D3
:1030C000F894DEBF0FBECDBFCF91DF910895DF939F
:1030D000CF9300D000D0CDB7DEB70E94FC00282FE0
:1030E00030E08BE290E0AC01249FC001259F900D61
:1030F000349F900D112485529D4F9A838983E981D5
:10310000FA81808191819C838B838B819C818396C2
:103110000E941C01EB81FC8186A197A1009751F0D0
:10312000EB81FC8126A137A1EB81FC8182A593A5CF
:10313000F90109958B819C8183960E9435018981D3
:103140009A819E012D5F3F4FB9010E9416178B8116
:103150009C8183960E941C01EB81FC8180A591A536
:10316000009751F0EB81FC8120A531A5EB81FC811A
:1031700082A593A5F90109958B819C8183960E9474
:1031800035010F900F900F900F90CF91DF91089520
:10319000DF93CF9300D000D0CDB7DEB79A83898379
:1031A0007C836B8389819A8143960E940B0189817C
:1031B0009A8143960E941C0189819A810E94A71ED0
:1031C000E981FA818B819C81928B818B89819A81A3
:1031D00043960E9435010F900F900F900F90CF9162
:1031E000DF910895DF93CF9300D000D00F92CDB739
:1031F000DEB79D838C831B820E94D9009A838983CA
:1032000089819A8183960E941C01E981FA818781D4
:1032100090858860E981FA819087878389819A8186
:1032200083960E9435018C819D8143960E941C01EA
:10323000EC81FD8181899289009761F0EC81FD81AB
:10324000818992890197EC81FD81928B818B81E04C
:103250008B831EC089819A8183960E941C01E9811B
:10326000FA81878190858061E981FA8190878783DF
:1032700089819A810E94231489819A812C813D81C0
:10328000B9010E94DC1089819A8183960E943501E0
:103290008C819D8143960E9435018B810F900F9008
:1032A0000F900F900F90CF91DF910895DF93CF9300
:1032B00000D000D00F92CDB7DEB79D838C831B82E8
:1032C0008C819D8143960E941C01EC81FD81818946
:1032D0009289009711F10E94D9009A838983EC8129
:1032E000FD81818992890197EC81FD81928B818B8F
:1032F00081E08B8389819A8183960E941C01E981F8
:10330000FA81878190858860E981FA819087878337
:1033100089819A8183960E9435018C819D81439693
:103320000E9435018B810F900F900F900F900F909E
:10333000CF91DF910895DF93CF9300D000D0CDB728
:10334000DEB79C838B838B819C8143960E941C01FA
:10335000EB81FC818089882351F4EB81FC81818998
:1033600092890196EB81FC81928B818B21C08B81AC
:103370009C810E94D11E9A83898389819A81839638
:103380000E941C0189819A810E949111E981FA8130
:10339000878190858F7EE981FA81908787838981F3
:1033A0009A810E94161389819A8183960E94350121
:1033B0008B819C8143960E9435010F900F900F9056
:1033C0000F90CF91DF910895DF93CF9300D00F92AC
:1033D000CDB7DEB79B838A838A819B8184960E94C6
:1033E0000B018A819B8184960E941C01198221C055
:1033F0004A815B818981282F30E0C90182959295AD
:10340000907F9827807F9827820F931F840F951FA6
:103410000E94A71E8A819B819C012E5D3F4F89815E
:10342000882F90E0820F931F0E94490189818F5F4E
:10343000898389818230E0F28A819B8184960E940F
:1034400035010F900F900F90CF91DF910895DF938A
:10345000CF9300D000D00F92CDB7DEB79D838C8381
:103460008C819D8184960E941C010E94D9009B83BF
:103470008A838A819B8183960E941C01EA81FB8159
:10348000878190858062EA81FB81908787838A812A
:103490009B810E94DF13EA81FB8181A10E94B4011C
:1034A0008C819D819C012E5D3F4F8A819B81B9015A
:1034B0000E940D168983EA81FB81898181A36A813B
:1034C0007B814C815D818981282F30E0C901829503
:1034D0009295907F9827807F9827820F931F9A015B
:1034E000280F391FCB01B9010E94DC108C819D810E
:1034F0009C012E5D3F4F8981882F90E0280F391F56
:103500008A819B81B9010E946E018A819B81839689
:103510000E9435018C819D8184960E9435010F9017
:103520000F900F900F900F90CF91DF910895DF9340
:10353000CF9300D0CDB7DEB79A83898389819A81F2
:1035400083960E941C01E981FA8180819181E98141
:10355000FA8190A3878F89819A810E94E70D8981E2
:103560009A810E94E11289819A8183960E94350195
:103570000F900F90CF91DF910895DF93CF9300D0FC
:1035800000D0CDB7DEB70E94D9009C838B838B819E
:103590009C8183960E941C01EB81FC81878D90A108
:1035A0009A838983EB81FC8110A2178E8B819C8189
:1035B00083960E94350189819A81009759F029816B
:1035C0003A818B819C812817390721F089819A8162
:1035D0000E94971A0F900F900F900F90CF91DF914C
:1035E0000895DF93CF93CDB7DEB729970FB6F89440
:1035F000DEBF0FBECDBF9987888788859985849661
:103600000E941C018885998582960E947F168F836F
:10361000488559858F81282F30E0C9018295929580
:10362000907F9827807F9827820F931F840F951F84
:103630009C838B83EB81FC818089882331F488858E
:10364000998584960E94350162C08B819C810E947D
:10365000D11E9E838D838D819E8183960E941C0145
:103660008D819E810E943211888599859C012E5DF5
:103670003F4F8F81882F90E0280F391F8D819E81C9
:10368000B9010E94580183E993E00E941C018F81D7
:10369000882F90E09C012F563C4F8D819E81B9016F
:1036A0000E946E0183E993E00E9435018F81282FEB
:1036B00030E08BE290E0AC01249FC001259F900D8B
:1036C000349F900D112485529D4F9A83898389815F
:1036D0009A818A960E941C018D819E81E981FA81DE
:1036E00022813381B9010E94DC1089819A818A96F6
:1036F0000E9435018F810E94B4018D819E81839645
:103700000E9435018885998584960E943501299605
:103710000FB6F894DEBF0FBECDBFCF91DF910895F5
:10372000DF93CF9300D000D00F92CDB7DEB79D834B
:103730008C838C819D8184960E941C011B823FC0DA
:1037400083E993E00E941C018C819D819C012E5D88
:103750003F4F8B81882F90E0A901480F591F8B8123
:10376000882F90E09C012F563C4FCA01B9010E945E
:10377000840183E993E00E9435014C815D818B8156
:10378000282F30E0C90182959295907F9827807FFD
:103790009827820F931F840F951F0E94A5119A836B
:1037A000898389819A81009721F089819A810E9479
:1037B000971A8B810E94B4018B818F5F8B838B81E1
:1037C000823008F4BDCF8C819D8184960E943501A2
:1037D0000F900F900F900F900F90CF91DF91089561
:1037E000DF93CF93CDB7DEB727970FB6F894DEBF40
:1037F0000FBECDBF8D837F836E838D818823E1F0E3
:103800008D8181508D838D81882F90E0880F991F45
:1038100088599F4F9C838B838B819C81FC01859170
:1038200094919A838983FC83EB8389819A81FC013B
:103830008E819F8109951D8227960FB6F894DEBF71
:103840000FBECDBFCF91DF9108958F929F92AF921F
:10385000BF92CF92DF92EF92FF920F931F93DF936D
:10386000CF9300D0CDB7DEB79A838983E981FA81FF
:1038700040815181E981FA8162817381E981FA8114
:1038800024813581E981FA81A681B781E981FA81B4
:1038900000851185E981FA81E284F384E981FA8166
:1038A000D484E981FA81A584B684E981FA81978478
:1038B000E981FA8180890F92EDB7FEB73196808356
:1038C000CA01A9019D01CD2C892C0E943E120F90A6
:1038D0000F900F90CF91DF911F910F91FF90EF907C
:1038E000DF90CF90BF90AF909F908F9008950F93EF
:1038F0001F93DF93CF9300D0CDB7DEB79A83898330
:1039000009811A81E981FA81808191810E94531392
:10391000F80182830F900F90CF91DF911F910F914B
:1039200008950F931F93DF93CF9300D0CDB7DEB7E9
:103930009A83898309811A81E981FA818081918141
:103940000E947C13F80182830F900F90CF91DF913A
:103950001F910F9108950F931F93DF93CF9300D082
:10396000CDB7DEB79A83898309811A81E981FA810B
:10397000808191810E944114F80182830F900F9001
:10398000CF91DF911F910F910895DF93CF9300D0D6
:1039900000D0CDB7DEB79C838B830E94D9009A8379
:1039A000898389819A8183960E941C0189819A81E9
:1039B0000E94231489819A8183960E9435010F9079
:1039C0000F900F900F90CF91DF910895DF93CF93D9
:1039D00000D0CDB7DEB79A83898389819A810E940E
:1039E000C3140F900F90CF91DF910895DF93CF9381
:1039F00000D000D000D0CDB7DEB79E838D830E946B
:103A0000B50A8D819E8183960E941C01ED81FE8105
:103A100084A195A19C838B83ED81FE8182A593A5D2
:103A20009A8389838D819E8183960E9435010E94AD
:103A3000CF0A89819A81EB81FC8109952D813E8194
:103A400086E0B9010E94FF0426960FB6F894DEBF07
:103A50000FBECDBFCF91DF910895DF93CF9300D0FC
:103A6000CDB7DEB79A838983E981FA81808191811C
:103A70000E947B140F900F90CF91DF910895DF93F8
:103A8000CF9300D0CDB7DEB79A8389830E94061505
:103A90000F900F90CF91DF910895DF93CF9300D0D7
:103AA000CDB7DEB79A83898389819A810E94E41910
:103AB0000F900F90CF91DF910895DF93CF9300D0B7
:103AC000CDB7DEB79A83898389819A810E94271AAC
:103AD0000F900F90CF91DF910895DF93CF9300D097
:103AE000CDB7DEB79A8389830E94BD1A80E290E049
:103AF0000E947B140F900F90CF91DF910895DF9378
:103B0000CF9300D0CDB7DEB79A83898389819A811C
:103B10000E94F11A0F900F90CF91DF910895DF93DB
:103B2000CF9300D0CDB7DEB79A83898389819A81FC
:103B30000E94901B0F900F90CF91DF910895DF931B
:103B4000CF9300D0CDB7DEB79A838983E981FA811C
:103B500080819181E981FA8122813381B9010E94BA
:103B6000C8180F900F90CF91DF9108950F931F9376
:103B7000DF93CF9300D0CDB7DEB79A8389830981D5
:103B80001A81E981FA81808191810E94F218F801FD
:103B900082830F900F90CF91DF911F910F91089525
:103BA0000F931F93DF93CF9300D0CDB7DEB79A83E7
:103BB000898309811A81E981FA81808191810E943A
:103BC0005619F80182830F900F90CF91DF911F91CA
:103BD0000F910895DF93CF9300D0CDB7DEB79A83CE
:103BE000898389819A810E949B190F900F90CF91B0
:103BF000DF910895DF93CF9300D0CDB7DEB79A83DE
:103C00008983E981FA8180819181E981FA81228128
:103C1000622F0E94C60E0F900F90CF91DF910895F2
:103C20000F931F93DF93CF9300D0CDB7DEB79A8366
:103C3000898309811A81E981FA81808191810E94B9
:103C4000F00EF80182830F900F90CF91DF911F91BA
:103C50000F9108950F931F93DF93CF9300D0CDB7AB
:103C6000DEB79A83898309811A81E981FA8180818B
:103C700091810E94450FF80182830F900F90CF91A0
:103C8000DF911F910F910895DF93CF9300D0CDB7AF
:103C9000DEB79A83898389819A810E94850F0F906C
:103CA0000F90CF91DF910895DF93CF9300D0CDB7E0
:103CB000DEB79A83898389819A810E94AC0C0F9028
:103CC0000F90CF91DF9108950F931F93DF93CF93C0
:103CD00000D0CDB7DEB79A83898309811A81E98143
:103CE000FA8180819181E981FA8123813481B9014E
:103CF0000E94E10CF80182830F900F90CF91DF9129
:103D00001F910F9108950F931F93DF93CF9300D0CE
:103D1000CDB7DEB79A83898309811A81E981FA8157
:103D200080819181E981FA8143815481E981FA811D
:103D300025813681BA01A9010E943A0DF8018283DA
:103D40000F900F90CF91DF911F910F910895DF9306
:103D5000CF9300D000D0CDB7DEB79C838B83EB81AF
:103D6000FC81108A1A82198210C089819A812B8164
:103D70003C81880F991FF901E80FF91F1182108209
:103D800089819A8101969A83898389819A81883071
:103D9000910558F30F900F900F900F90CF91DF91F6
:103DA0000895DF93CF9300D000D00F92CDB7DEB748
:103DB0009D838C831B821A82EC81FD81808989839B
:103DC0008981882381F089810E946D0C882F90E081
:103DD0002C813D81880F991FF901E80FF91F80811F
:103DE00091819B838A838A819B810F900F900F9092
:103DF0000F900F90CF91DF910895DF93CF9300D074
:103E000000D00F92CDB7DEB79C838B836D832B815F
:103E10003C818D81882F90E0880F991F820F931F1E
:103E20009A838983E981FA810190F081E02D808174
:103E30009181E981FA81918380830F900F900F9097
:103E40000F900F90CF91DF910895DF93CF93CDB76F
:103E5000DEB7A5E2B0E0E5E2F0E0908180E18927FD
:103E60008C93CF91DF910895DF93CF93CDB7DEB7D9
:103E7000A5E2B0E0E5E2F0E0908180E189278C9353
:103E8000CF91DF910895DF93CF930F92CDB7DEB737
:103E90000E94FC008983A5E2B0E0E5E2F0E09081B9
:103EA00080E189278C9320E031E08981B9010E946B
:103EB000350A0E94CF0A0F90CF91DF910895DF93CA
:103EC000CF93CDB7DEB70E942F06E0EBF0E082E0A3
:103ED0008083E1EBF0E085E08083E3EBF0E08CE7CA
:103EE0008083E4EBF0E01082E0E7F0E082E08083A2
:103EF000E7E3F0E01082E4E2F0E08FE38083E5E2C4
:103F0000F0E01082E7E2F0E08FE38083E8E2F0E0A7
:103F10001082EAE2F0E08EEF8083EBE2F0E01082C4
:103F20000E94B60610929B032AC0F89480919B03CE
:103F300026E031E0B9010E94350A80919B032CE014
:103F400031E0B9010E94820A10929A0310929903FB
:103F500009C08091990390919A03019690939A03D6
:103F6000809399038091990390919A0323E0883E6E
:103F7000920778F380919B038F5F80939B038091DE
:103F80009B03823090F210929B032AC0F894809198
:103F90009B0326E031E0B9010E94350A80919B0322
:103FA0002CE031E0B9010E94820A10929A0310922B
:103FB000990309C08091990390919A030196909377
:103FC0009A03809399038091990390919A0323E037
:103FD000883E920778F380919B038F5F80939B03C9
:103FE00080919B03823090F20E9494050E94D90533
:0E3FF00080E090E0CF91DF910895F894FFCF2C
:103FFE0000010001341F06010601251F0C010C01F2
:02400E00431F4E
:00000001FF
